:020000040800F2
:10000000580B0020650200080D3D0008D13800089B
:10001000093D00082D040008C54D0008000000003F
:10002000000000000000000000000000794100080E
:100030006D0400080000000075410008FD4800083C
:100040007F0200087F0200087F0200087F0200088C
:100050007F0200087F0200087F0200087F0200087C
:100060007F0200087F0200087F0200087F0200086C
:100070007F0200087F0200087F0200087F0200085C
:100080007F0200087F0200087F0200087F0200084C
:10009000310400083D0400087F0200087F020008C8
:1000A0007F0200087F0200087F0200087F0200082C
:1000B0007F0200087F0200087F020008A1390008C3
:1000C000953900087F0200087F0200087F020008BF
:1000D0007F0200087F0200087F0200087F020008FC
:1000E0007F0200087F0200087F0200087F020008EC
:1000F0007F020008C14900087F020008610400086F
:100100007F0200087F0200087F0200087F020008CB
:10011000B94B0008C54B00087F0200087F020008A9
:100120007F0200087F0200087F0200087F020008AB
:100130007F02000800000000000000007F020008AD
:1001400049040008550400087F0200087F020008E7
:100150007F0200087F0200087F0200087F0200087B
:100160007F0200087F0200087F0200087F0200086B
:100170007F0200087F0200087F02000800000000E4
:10018000000000007F0200080000000000000000E6
:100190007F02000800000000000000007F0200084D
:1001A0000000000000000000000000007F020008C6
:1001B0007F0200087F0200087F0200087F0200081B
:1001C0007F02000800F002F800F03CF80AA090E876
:1001D000000C82448344AAF10107DA4501D100F002
:1001E00031F8AFF2090EBAE80F0013F0010F18BF93
:1001F000FB1A43F001031847A86C0000C86C00000C
:10020000103A24BF78C878C1FAD8520724BF30C842
:1002100030C144BF04680C60704700000023002414
:1002200000250026103A28BF78C1FBD8520728BF06
:1002300030C148BF0B6070471FB506F048FD1FBDB9
:1002400010B510BD00F0BCF81146FFF7F5FF04F043
:10025000BBFD00F0DAF803B4FFF7F2FF03BC00F0D7
:10026000DDF800000948804709480047FEE7FEE73F
:10027000FEE7FEE7FEE7FEE7FEE7FEE7FEE7FEE756
:1002800004480549054A064B70470000AD4900087F
:10029000C501000858050020580B00205807002011
:1002A0005807002053EA020C00F069802DE9F04B5A
:1002B0004FF00006002B1FBFB3FA83F503FA05F4D5
:1002C00024FA05F65E4012BF1643B2FA82F502FA2E
:1002D00005F4C5F120051EBF22FA05FC44EA0C0412
:1002E000203556EA044C4FEA144418BF641C4FF002
:1002F00000084FF00009904271EB030C39D300293C
:1003000019BFB1FA81F701FA07F6B0FA80F700FADF
:1003100007F6C7F120071EBF20FA07FC46EA0C06C5
:100320002037B6FBF4FCA7EB0507103F07F01F0BC7
:10033000CBF120062CFA06F60CFA0BFB44BFB346B1
:100340000026202FA4BF5E464FF0000B5BEA060C90
:1003500008BF4FF0010B19EB0B0948EB0608ABFB8C
:10036000027C06FB02CC0BFB03CCC01B71EB0C0127
:10037000C1E70B46024641464846BDE8F08B13B53F
:10038000084318BF4FF0FF300146AFF30080BDE8CF
:100390001C40704770477047704710B500F008F870
:1003A000006810BD10B5044600F002F8046010BDEE
:1003B000004870475000002000487047500000205F
:1003C0007546FFF7F9FFAE4605006946534620F033
:1003D0000700854618B020B5FFF752FFBDE8204062
:1003E0004FF000064FF000074FF000084FF0000BF1
:1003F000AC46ACE8C009ACE8C009ACE8C009ACE860
:10040000C00921F007018D46704710B50446AFF3CF
:1004100000802046BDE81040FFF71DBF01491820AD
:10042000ABBEFEE72600020070470000FEE70000BA
:1004300040F2A020C2F2000000F0C2BB40F2A020B7
:10044000C2F2000000F0BCBB40F25020C2F200003B
:1004500000F0B6BB40F25020C2F2000000F0B0BB8A
:1004600040F26C30C2F2000000F060BF7047000044
:100470009FED158A0120B0EE480A03F07FFE0220AE
:10048000B0EE480A03F07AFE0320B0EE480A03F00B
:1004900075FE0420B0EE480A03F070FE40F21C2402
:1004A00040F23010C2F20004C2F2000040F2B00983
:1004B000AD254FF0000A04F1340B00F15006C2F2F2
:1004C000000940F2AD2801E00000000040F2A8174A
:1004D000C2F2000747F808AF0420206158462146C1
:1004E0003A46334684F814A0C4E9005AC4E902AA83
:1004F00000F008FA012001F0ABF8D9F81C00214601
:100500000130C9F81C0058463A46334600F0FAF963
:10051000012001F09DF8D9F81C0021460130C9F8EE
:100520001C0058463A46334600F0ECF9012001F031
:100530008FF8D9F81C00203501304545C9F81C005A
:10054000C7F800A0C7F804A0C0D19FEDE18A012040
:10055000B0EE480A03F012FE0220B0EE480A03F0A3
:100560000DFE0320B0EE480A03F008FE0420B0EEB2
:10057000480A03F003FEAD254FF0000A40F2AD2813
:1005800040F2A817C2F2000747F808AF0420206124
:10059000584621463A46334684F814A0C4E9005A26
:1005A000C4E902AA00F0AEF9012001F051F8D9F82F
:1005B0001C0021460130C9F81C0058463A46334613
:1005C00000F0A0F9012001F043F8D9F81C00214601
:1005D0000130C9F81C0058463A46334600F092F9FB
:1005E000012001F035F8D9F81C00203501304545CF
:1005F000C9F81C00C7F800A0C7F804A0C0D19FED3F
:10060000B48A0120B0EE480A03F0B8FD0220B0EE33
:10061000480A03F0B3FD0320B0EE480A03F0AEFD34
:100620000420B0EE480A03F0A9FDAD254FF0000A02
:1006300040F2AD2840F2A817C2F2000747F808AF11
:1006400004202061584621463A46334684F814A0D7
:10065000C4E9005AC4E902AA00F054F9012000F0EC
:10066000F7FFD9F81C0021460130C9F81C00584694
:100670003A46334600F046F9012000F0E9FFD9F888
:100680001C0021460130C9F81C0058463A46334642
:1006900000F038F9012000F0DBFFD9F81C0020350C
:1006A00001304545C9F81C00C7F800A0C7F804A0F0
:1006B000C0D19FED878A0120B0EE480A03F05EFDAD
:1006C0000220B0EE480A03F059FD0320B0EE480ABC
:1006D00003F054FD0420B0EE480A03F04FFDAD25B1
:1006E0004FF0000A40F2AD2840F2A817C2F200070E
:1006F00047F808AF04202061584621463A46334661
:1007000084F814A0C4E9005AC4E902AA00F0FAF877
:10071000012000F09DFFD9F81C0021460130C9F8E6
:100720001C0058463A46334600F0ECF8012000F031
:100730008FFFD9F81C0021460130C9F81C0058462B
:100740003A46334600F0DEF8012000F081FFD9F888
:100750001C00203501304545C9F81C00C7F800A031
:10076000C7F804A0C0D19FED5A8A0120B0EE480A14
:1007700003F004FD0220B0EE480A03F0FFFC032062
:10078000B0EE480A03F0FAFC0420B0EE480A03F089
:10079000F5FCAD254FF0000A40F2AD2840F2A81755
:1007A000C2F2000747F808AF0420206158462146EE
:1007B0003A46334684F814A0C4E9005AC4E902AAB0
:1007C00000F0A0F8012000F043FFD9F81C002146FA
:1007D0000130C9F81C0058463A46334600F092F8FA
:1007E000012000F035FFD9F81C0021460130C9F87E
:1007F0001C0058463A46334600F084F8012000F0C9
:1008000027FFD9F81C00203501304545C9F81C00E8
:10081000C7F800A0C7F804A0C0D19FED2D8A72B61A
:10082000002540F2AD2800BF0120B0EE480A03F0D9
:10083000A5FC0220B0EE480A03F0A0FC0320B0EEB5
:10084000480A03F09BFC0420B0EE480A03F096FC33
:100850004FF0AD0A40F2A817C2F2000747F8085F50
:1008600004202061584621463A4633462575C4E99E
:1008700000A5C4E9025500F045F8012000F0E8FEAB
:10088000D9F81C0021460130C9F81C0058463A46E8
:10089000334600F037F8012000F0DAFED9F81C00EA
:1008A00021460130C9F81C0058463A46334600F04C
:1008B00029F8012000F0CCFED9F81C000AF1200A2A
:1008C0000130C245C9F81C003D607D60C2D1ABE774
:1008D0000000000090F82020013A012A08D80068A2
:1008E00000F114020020136819431160704700BF23
:1008F00000F1240201204FF4802113681943116094
:100900007047000010B590F820E0D0F800C0AEF1BC
:10091000010EBEF1010FDCF808E00FD81EF0E05F19
:1009200016D0CEF3016E012000FA0EF018608B682D
:10093000C3B1486843EAC00316E000BF00F12401D8
:1009400001204FF480220B681A430A6010BD00BFDB
:1009500000F1240101204FF400120B681A430A60D1
:1009600010BD00BF08684305D1E9030403430CEB45
:100970000E10C0F88031C0F88441097D012905D1ED
:1009800000F5C2710B6843F480730B605168C0F8C6
:100990008C11126800F5C071C0F888210020012276
:1009A0000B681A430A6010BDB0B590F82020013AD8
:1009B000012A2FD846F20060C4F20000026842F01B
:1009C00001020260026822F47C520260D1F814E055
:1009D000CC694A6A0368012C43EA022202600EF0E5
:1009E0001F024FF0010303FA02F2C3696FEA020C1F
:1009F00023EA0203C36113D02CBBC36803EA0C03D0
:100A0000C360CB688C8844EA034300EBCE042364C4
:100A10000B4611E0416A41F4802141620120B0BDE2
:100A2000C3681343C3600B688C8844EA034300EB3C
:100A3000CE04236401F10C038C681B8843EA044351
:100A400000EBCE04636443688D6943EA0204D1F885
:100A500010E0096A002D08BF03EA0C0444604369F2
:100A6000BEF1000F43EA020408BF03EA0C040129A7
:100A7000446102D1C1691143C161016821F00101E2
:100A800001600020B0BD00007047000010B590F874
:100A90002040013C012C7BD8D0F800C0002900F098
:100AA0008180DCF81040A40700F081800CEB011C71
:100AB000DCF8B0410CF5D87E14F004049460DCF846
:100AC000B04119BFE4085460640D1460DEF80040C2
:100AD0000CF5DA7E04F00204D460DCF8B44124079B
:100AE0005ABFDEF8004004F00F0408241461DEF859
:100AF00000400029C4F307249461DEF800404FEA67
:100B000014445461DCF8B8211A70026802EB011237
:100B1000D2F8B8214FEA12225A70026802EB011291
:100B2000D2F8B8214FEA12429A70026802EB011221
:100B3000D2F8B8214FEA1262DA70026802EB0112B1
:100B4000D2F8BC211A71026802EB0112D2F8BC2162
:100B50004FEA12225A71026802EB0112D2F8BC214C
:100B60004FEA12429A71026802EB0112D2F8BC21DC
:100B70004FEA1262DA71006814BF00F1100100F14F
:100B80000C01002020220B681A430A6010BD00BF30
:100B900000F1240101204FF480220B681A430A60FF
:100BA00010BD00BFDCF80C40A4077FF47FAF00F15C
:100BB000240101204FF400120B681A430A6010BD93
:100BC0002DE9F04F81B0044600684669D0F80490E2
:100BD0008768D0F80CB0D0F810A0D0F81880F107D2
:100BE00004D1002530071DD424E000BFF90710D040
:100BF0000121BA07816009D4780700F1AF80380776
:100C000000F1B680204600F023FB02E0204600F011
:100C100021FB0025F80500F18780F80300F1B18081
:100C2000300707D51BF0100004D0206845F400758C
:100C30001021C160700708D51BF0080005D020689E
:100C40000821C160204600F0FFF9B00706D52068F2
:100C5000C068800702D0204600F0F8F9700607D57A
:100C60001AF0100004D0206845F48065102101615D
:100C7000B00608D51AF0080005D0206808210161E7
:100C8000204600F0E5F9F00606D5206800698007E7
:100C900002D0204600F0E0F9B00308D519F01000AA
:100CA00005D0206810214160204600F0A1FAF00331
:100CB00008D519F0080005D02068082141602046B9
:100CC00000F0D2FA300440F19B805FEA497040F1B5
:100CD000948006F4807008EA102028435FEA887147
:100CE000014648BF41F00201B20558BF01465FEA24
:100CF00048700D4648BF45F00405700558BF0D46C5
:100D0000300540F17A8018F0700000F076801038DD
:100D1000000905286CD8DFE800F003595D616569BA
:100D200045F0080564E000BF20684FF48071BA0503
:100D300081600BD4780515D438051DD4204600F009
:100D40008BFAF8037FF56CAF1BE000BF204600F084
:100D500085FAF8037FF564AF13E000BF4FF4006538
:100D600058E700BF05F50055F8037FF559AF08E0D7
:100D70004FF480554EE700BF05F58045F8037FF539
:100D80004FAF20684FF48031BA0381600AD47803F2
:100D900010D4380314D4204600F062FA30073FF52F
:100DA00041AF47E7204600F05DFA30073FF53AAF24
:100DB00040E700BF05F5004530073FF533AF39E7A1
:100DC00005F5803530073FF52DAF33E745F01005C9
:100DD0000EE000BF45F020050AE000BF45F04005E9
:100DE00006E000BF45F0800502E000BF45F48075D5
:100DF0002068816921F070018161206804214160CF
:100E000055B1606A40EA05012046616201B0BDE863
:100E1000F04FFFF739BE00BF01B0BDE8F08F000012
:100E2000B0B5C8B1044690F8200010B9204600F0D3
:100E300071F82068016841F00101016000F000FDD7
:100E4000054600BF20684168C90707D100F0F8FCDB
:100E5000401B0B28F6D312E00120B0BD016821F041
:100E60000201016000F0ECFC054600BF206841680B
:100E700089070DD500F0E4FC401B0B28F6D3606A0F
:100E8000052140F400306062012084F82010B0BDDC
:100E9000217E0268012922F0800208BF80320260B0
:100EA000617E0268012922F0400208BF40320260E0
:100EB000A17E0268012922F0200208BF20320260D0
:100EC000E17E0268012922F0100218BF1032026090
:100ED000217F0268012922F0080208BF083202605F
:100EE000617F0268012922F0040208BF0432026017
:100EF000D4E901C2D4E9033561691A432A43114395
:100F0000ACF101021143C16100200121606284F84B
:100F10002010B0BDB0B586B0006846F60002C4F23D
:100F2000000200219042CDE90411CDE902110191A6
:100F300034D046F20041C4F20001884240F0828081
:100F400040F21831C2F200010A6843F64000C4F2D0
:100F50000200531C0B6052B900210091016841F05E
:100F600000710160016801F0007100910099002199
:100F7000009150F8101C152441F0010140F8101C9C
:100F800050F8100C142500F00100009000984FF468
:100F9000C05001900020C4F2020038E043F6400047
:100FA000C4F202000091016841F0806101600168B3
:100FB00001F080610091009940F21831C2F2000105
:100FC0000A68531C0B6052B900210091016841F07E
:100FD00000710160016801F0007100910099002129
:100FE000009150F8101C412441F0020140F8101CFF
:100FF00050F8100C402500F00200009000984FF4CB
:10100000405001900020C4F2020000F580600221EF
:10101000029100210391032104910921059101A965
:1010200000F02AFB28460021002201F03DFB284663
:1010300001F02AFB20460021002201F035FB20466A
:1010400001F022FB06B0B0BD704700007047000001
:1010500070470000000000002DE9F04381B040F22D
:101060001C2440F2A817C2F20004C2F2000704F1E7
:10107000180207F110030121FFF708FDA26940F2F1
:10108000B004C2F20004C2F34303500902F01F018E
:10109000E37202F00103023A032A6070A170237325
:1010A0006ED8DFE802F003172D4100BF388A00BA7E
:1010B000000C00EE100A608AB8EE400A013060822F
:1010C00097F82A0084ED0E0A013087F82A0001B053
:1010D000BDE8F083D7E9040140F2000200BAC2F291
:1010E0000002106208BA218A5063481C97F8291040
:1010F0002082481C87F8290001B0BDE8F08300BFBA
:10110000388A00BA000C00EE100AA08AB8EE400A35
:101110000130A08297F82C0084ED0F0A013087F887
:101120002C0001B0BDE8F083B7F91000B7F91280C8
:1011300005F06DFA9FED2C0B56EC105B2A463346FA
:1011400005F0CCFA04F0F4FF40F20009C2F2000905
:10115000C9F81C00404605F05AFA2A46334605F005
:10116000BDFA04F0E5FFE18AC9F83000481C97F8A1
:101170002B10E082481C87F82B0001B0BDE8F083FB
:1011800009290FD0012929D157FA80F090F85C1075
:101190003A7D013180F85C1080F8322001B0BDE862
:1011A000F08300BFD7E9041240F21C33C0B2C2F290
:1011B0000003BA6143F8202040F2C822C2F20002C4
:1011C00000EE101A42F82010BDEEC00A40F278225C
:1011D00010EE101AC2F2000222F8101001B0BDE8A1
:1011E000F08300BF00BF00BF000000000000B03F60
:1011F00070470000B0B5044690F8200001281DD1CA
:10120000022084F820002068016821F001010160BB
:1012100000F016FB054600BF20684068C00713D0E9
:1012200000F00EFB401B0B28F6D3606A40F4003040
:101230006062052084F820000120B0BD606A40F49F
:10124000002060620120B0BD00206062B0BD0000DF
:1012500070470000704700007047000070470000B2
:1012600070470000704700007047000070B5866D41
:10127000044600F0E5FA94F8351002292ED105460F
:101280002068216C026822F016020260426922F096
:101290008002426109B9A16C19B1016821F008010D
:1012A0000160016821F0010101600068C00708D0F9
:1012B00000F0C6FA401B052818D820680068C0074F
:1012C000F6D1E06D3F2101FA00F0B060012084F812
:1012D00035000020002184F8341070BD8020606546
:1012E0000120002184F8341070BD00BF202060650B
:1012F000032084F83500002184F8341070BD00000C
:1013000090F83510022909D1052180F835100068C0
:10131000016821F0010101600020704780214165D2
:101320000120704790F8350070470000F0B581B09B
:1013300004460020009040F24C00C2F20000026817
:10134000D4E9166048F2B51337680821C1F64E3368
:1013500081403942A2FB03250CD0226813685B0749
:1013600008D5136823F004031360B160616D41F088
:101370000101616501218140394208D0226852692A
:10138000120604D5B160616D41F00201616504216E
:101390008140394208D022681268920704D5B160B2
:1013A000616D41F00401616510218140394217D01F
:1013B00020680268120713D5B16002680168520301
:1013C00008D4C90508D4016821F008010160216C26
:1013D00021B905E0080343D4216C09B120468847B0
:1013E000E16D202000FA01F23A4245D020680368FE
:1013F000DB0641D5B26094F835300268052B1FD169
:1014000022F016020260426922F080024261226CE0
:101410000AB9A26C1AB1026822F0080202603F20E9
:101420008840B060012084F83500216D002000293B
:1014300084F8340058D02046884701B0F0BD00BF82
:101440000168520310D4C90512D4016821F01001BB
:101450000160012084F83500002084F8340007E0A2
:10146000A16C0029BAD1BBE7080301D4616C00E08C
:10147000E16B09B120468847606DA8B3606DC00775
:101480002ED0052084F835002068A90A026822F0D1
:1014900001020260009A01328A4200921AD8026860
:1014A000D20717D0009A01328A42009212D80268FD
:1014B000D2070FD0009A01328A4200920AD80268FD
:1014C000D20707D0009A01328A42009202D80268FD
:1014D000D207DFD1012084F83500002084F83400E1
:1014E000E16C09B12046884701B0F0BD2DE9F0411B
:1014F000044600F0A5F9002C4ED00546022084F8E1
:1015000035000020216884F83400086820F00100CC
:1015100008600868C00708D000F092F9401B052851
:101520006CD821680868C007F6D1086848F23F0205
:10153000CFF21002D4E90135024004F10C0E9EE80E
:10154000C1511A432A4310433043384340EA08004C
:10155000626A40EA0C00042A40EA0E0320D1D4E972
:101560000A5E206B4EEA0302104308604869BEF130
:10157000000F20F0030040EA050040F0040C15D0F5
:10158000B8F5005F42D0B8F1000F51D1022D52D012
:10159000012D47D055B94EE00120BDE8F08100BFD4
:1015A0000B60486920F0070040EA020C6FF00F0062
:1015B0004AF6AB2250FA81F0CAF6AA22A0FB022317
:1015C0001A0946F69863C0F600039A5C40F2FF33AE
:1015D0005F284FF03F00C1F814C021EA030100FA70
:1015E00002F088BF0431C4E916128860002301228A
:1015F0000020636584F83520BDE8F08103222023B4
:101600000320636584F83520BDE8F081032DCDD833
:10161000012240230120DFE805F0030E030500BF8F
:10162000E7E700BFAEF1C070B0FA80F0400904E017
:10163000032D04D3BAD1CEF300600028B6D0012226
:1016400040230120636584F83520BDE8F081000067
:10165000B0B5044600F0F4F8054640F24400C2F28A
:1016600000000078611C18BF044400BF00F0E8F8D7
:10167000401BA042FAD3B0BD2DE9F04F82B000F17B
:101680003E4241F6000502F1FF77C4F2020507224F
:101690004FEAB726A84208BF0622062E38BF4FEAF7
:1016A000B7224FF0010A002400274FF000080092F3
:1016B00008E000BF023708F10108202F04F10404FC
:1016C00000F0B4800E680AFA08F916EA090FF1D0A2
:1016D000D1F804A00AF0030BABF10106012E17D8D4
:1016E0000322866802FA07FECA6826EA0E06BA4096
:1016F000324382604268CAF3001522EA090205FA01
:1017000008F54FEA480C6FEA0E062A4342600BE0E8
:101710000322BA40D643BBF1030FBC4604D1BC46FA
:101720004FF0030B22E000BFC2688D68324005FA1B
:101730000CF52A43BBF1020FC26017D16FF0030210
:1017400002EA5802024404F01C030F25D2F820E0FC
:1017500005FA03FA0D692EEA0A0E05FA03F343EAC5
:101760000E031362D1F804A00AF0030B02680BFA0F
:101770000CF332401A431AF4403F4FF0010A026062
:1017800098D0002243F644030192C4F202031A687F
:1017900043F6004E42F480421A601A68C4F2010E09
:1017A00002F480420192019A28F003024FF6084C9D
:1017B0007244CFF6FF7C52F80C3004F00C060F2573
:1017C000B540AB43009D05FA06F6334342F80C30B2
:1017D000DEF808204B6842EA090643F60C4CDD02AD
:1017E00058BF22EA0906CEF80860C4F2010CDCF802
:1017F00000209D0242EA090658BF22EA0906CCF8F9
:101800000060DEF804209D0342EA090658BF22EA80
:101810000906CEF80460DEF80020DB0342EA090680
:1018200058BF22EA0906CEF8006043E702B0BDE8DF
:10183000F08F0000002A08BF090481617047000092
:1018400040F25050C2F2000000687047704700003C
:1018500070470000F0B581B00446006847694268EF
:1018600094F83E1002F480763E420FBF00256FF4DC
:10187000807242610125BA0505D5002E1EBF0235D2
:101880006FF4007242617A0516D5AEB1628D94F89C
:101890003D30D4F830C0202908BF002A24D06FF48E
:1018A0008062402905F10405426101D0102903D16D
:1018B000016841F400710160380507D536B1206830
:1018C00008356FF40061416101E000BF55B1206C43
:1018D00040EA05012046216401B0BDE8F04002F075
:1018E000F3B800BF01B0F0BD43F00801292909D0C9
:1018F000282B08BFBCF1210F04D06FF48061416137
:101900000435D9E794F83D10E26A202A01D0082A6C
:101910001ED121291ED028293CD10021CFF6FF71EC
:10192000E162416821F4E06141606FF480614161EE
:10193000016821F48061016000202021206384F887
:101940003D1084F83E00204600F0E0FDB4E700BF03
:1019500021291FD10021CFF6FF71E16221212163EE
:10196000202184F83D10002184F83E10426822F4C2
:10197000E06242606FF480624261026822F4806239
:1019800002604269120648BF0161204600F010FE65
:1019900092E700BF6FF4806141618DE72DE9F0416E
:1019A00082B0D0F800800446C4465CF8043FC06AA8
:1019B00094F83E5094F83D20402D01D0102D21D1B7
:1019C000D8F81860D8F81410CF0765D1B0F12A4FB5
:1019D00000F0DA83B0F52A0F00F0D68313F400701C
:1019E0004FF0010787EA502E18BF11F0080057D0BA
:1019F000606B616C0028C9B2C8F8101040F0078114
:101A000007E100BF206C00280CBFD8F81850002553
:101A1000D8F8141013F4007618BF11F0020040F04B
:101A2000A980002E18BF11F0100040F00F8142F085
:101A30000800292840F09A81580540F1C18101F041
:101A40008400802840F0BC8194F83D00618D00291D
:101A500000F09A83616A292811F8012BC8F8102038
:101A60006162618DA1F101016185618D08BF00296D
:101A700040F08A83DCF80000282120F48060CCF854
:101A8000000021202063204684F83D1002B0BDE80C
:101A9000F04100F08DBD00BF980533D44FF0010E2A
:101AA000BEF1000F34D111F0020031D094F83E00A5
:101AB000E26A216B94F83D30222B40F0BB80402835
:101AC000236D08BF002B00F0B580206D002840F08A
:101AD00099812069B0F5404F40F094810020019039
:101AE000D8F814000190D8F8180001900198D8F89F
:101AF000000040F48070C8F80000206D013000F054
:101B0000DABB00BFE06AB0F52A0F57D101205AE0D6
:101B1000DCF80000760700F4006000F1DD800028AA
:101B200040F03283580540F1AB8101F04400402879
:101B300040F0A68194F83D00222840F02583E26A17
:101B4000608D0428C0F09282D8F81000616A087095
:101B5000606A01306062608D01386085608D0328A5
:101B600040F012832068416821F48061416002B036
:101B7000BDE8F081206C002818BFD8F8185094F800
:101B80003D0000F02800282840F0E280DCF800004A
:101B9000002320F48060CCF80000012020EA9501A9
:101BA00028064FF0180058BF0C20225A204684F80F
:101BB0003C3002B0BDE8F041FFF74ABEE06AB0F148
:101BC0002A4F01D10820E06294F83E0040280DD150
:101BD000206D616C002801F0FE0018BF40F001008C
:101BE000C8F8100002B0BDE8F08100BF2069B0F570
:101BF000804F40F0F58094F83D00616C212801F0A1
:101C0000FE0118BF0131C8F81010606B08B1C06B3D
:101C100038B9A06B002800F0B782C06B002800F034
:101C2000B382DCF8000040F40060CCF8000002B0A1
:101C3000BDE8F08100200190D8F814000190D8F898
:101C400018000190019802B0BDE8F08194F83D5071
:101C5000D8F8040020F4E060C8F8040000200190E7
:101C6000D8F814000190D8F8000040F00100C8F83E
:101C700000000198D8F8000020F48060C8F8000047
:101C8000D8F80400000540F15D8145F008002A28DD
:101C900040F03881A06B016849686185618D19B198
:101CA000216C41F004012164DCF8001021F4006192
:101CB000CCF80010FFF736FB012800F04381A06B41
:101CC00043F6AD11C0F600010165FFF719FB0028CE
:101CD00000F03881A06B33E1002840F055825805B0
:101CE00040F1F08001F08400802840F0EB8094F80F
:101CF0003D2094F83E00E16A212A40F09B81238D2B
:101D0000002B40F0978111F5803F18BF082940F063
:101D10005F82D8F80400202120F4E060C8F80400B5
:101D2000D8F8000040F40070C8F8000000202063DC
:101D300084F83D1094F83E1084F83E004029204677
:101D400040F0588202B0BDE8F04100F0E7BB00BFB0
:101D500000200190D8F814100191D8F818100191C2
:101D6000019984F83C0002B0BDE8F08158056BD5BC
:101D700001F04400402867D194F83D00618D0029AE
:101D800000F00282D8F81010626A2A281170616A85
:101D900001F101016162618DA1F101016185618D36
:101DA00008BF002940F0F0812068416821F480617B
:101DB0004160222028212063204684F83D1021E143
:101DC000002E18BF11F0040000F0DE81608D0028A5
:101DD00000F0DA81606A10F8011BC8F8101069E0A1
:101DE000206D002842D0206D012840F0CD81606C2C
:101DF000062101EAD010F130C8F8100002B0BDE8A9
:101E0000F08100BF608D70B1608D012840F00081CD
:101E1000202A18BF082A40F0C581D8F8000020F415
:101E20008060C8F8000000200190D8F814000190EC
:101E3000D8F8180001900198D8F8000040F400701C
:101E4000C8F8000036E200BF002E18BF11F00400F1
:101E500000F09A81608D002800F09681D8F810007B
:101E6000616A0870606A013024E000BF606C06217E
:101E700001EAD010F030C8F8100002B0BDE8F081DF
:101E800001F00400012181EA900050EA0E0040F0C8
:101E90007B81E26A608D042840F05881D8F8040004
:101EA00020F48060C8F80400D8F81000616A087057
:101EB000606A01306062608D0138608502B0BDE803
:101EC000F08100BF01F00400012181EA900050EA96
:101ED0000E0040F05981212A40F04E81E06A94F8CA
:101EE0003D10212940F05081618D00297FF472AFAF
:101EF00010F5803F18BF08283FF40BAF20283FF4AF
:101F000008AF68E1606B016849686185618D19B14E
:101F1000216C41F004012164DCF8001021F400611F
:101F2000CCF80010FFF7FEF901280BD0606B43F6E8
:101F3000AD11C0F600010165FFF7E2F910B1606B69
:101F4000016D8847608D60B120684169490731D4CF
:101F5000416949063BD4608D18B1206C40F0040003
:101F60002064206C30B1204602B0BDE8F04101F0A1
:101F7000ABBD00BF2A2D07D100202063282084F8A4
:101F80003D00204600F012FB94F83D0028282BD19C
:101F90000020CFF6FF70E06200212020216384F84A
:101FA0003D00204684F83E1002B0BDE8F04100F04C
:101FB000ADBA00BF0069616A0870616A20680131CA
:101FC0006162618D0139618541694906C3D5006946
:101FD000616A0870606A01306062608D01386085F6
:101FE000608D0028B9D1BCE7222D206B18BF2228B4
:101FF00040F0CA8000212020216384F83D00204663
:1020000084F83E1002B0BDE8F04100F0CFBA00BF46
:10201000608D022820D1102A00F220810120142195
:102020009040C0F20101084200F018814FF4806036
:102030001CE100BF212A04D0222A08BF402840F01A
:10204000A380608D002800F0A38094F83E00402813
:1020500000F09480BEE600BFD8F8000040F4806035
:10206000C8F80000D8F8040007E100BFE16A0128C1
:1020700000F28E80022900F08B800020019040F257
:102080004C00C2F2000000684BF28951C008C1F256
:10209000F841A0FB0101080A00EB800001900198C3
:1020A000013801900198002800F00E81D8F8000056
:1020B000800520D50198013801900198002800F092
:1020C0000381D8F80000800515D5019801380190EA
:1020D0000198002800F0F880D8F8000080050AD5A3
:1020E0000198013801900198002800F0ED80D8F89F
:1020F00000008005D3D4D8F8000020F48060C8F830
:102100000000D8F8040020F4E060C8F80400D8F813
:102110001000616A0870606A002101306062608DA1
:1021200001386085202084F83D0094F83E0084F852
:102130003E10402800F01681082A4FF0000100F000
:102140002081202A18BF12211BE100BF608D0328C7
:1021500056D1DCF80000022A20F48060CCF80000A0
:102160003FF4A2AE042A3FF49FAED8F8000020F45A
:102170008060C8F8000097E6402D05D1204602B0E7
:10218000BDE8F04101F060BD02B0BDE8F08100BFE4
:10219000DCF8000020F48060CCF8000002B0BDE85C
:1021A000F08100BF12F5803F42D1D8F8000020F442
:1021B0008060C8F80000D8F8040000057FF533AE51
:1021C000D8F8000020F48060C8F8000069E000BF83
:1021D00020293FF49EADDCF80000202120F4E060CF
:1021E000CCF8000011202063002084F83E00204637
:1021F00084F83D1002B0BDE8F04100F08BB900BF9B
:10220000608D02287FF450AE501E0F2800F28280AD
:10221000DFE800F0087A807A80808080808080808B
:1022200080808008D8F8000020F4806076E000BF4D
:10223000012A02D012293FF4F0AD102AC0D80120A3
:1022400014219040C0F201010842B9D0D8F8000032
:1022500040F48060C8F8000023E000BFD8F8000018
:1022600020F48060C8F800004FF40060D8F8001037
:102270000843C8F80000DCF80000000511D5501E26
:102280001F281DD8012101FA00F048F28101C8F28F
:102290000001084214D0DCF8000040F48050CCF873
:1022A000000000200190D8F814000190D8F8180020
:1022B000019001980020206502B0BDE8F08100BFC8
:1022C00012F5803FE7D0ECE7206C40F0200020645E
:1022D000D8F8040020F4E060C8F80400D8F8100032
:1022E000616A0870606A002101306062608D0138A7
:1022F0006085202084F83D00204684F83E1002B01E
:10230000BDE8F04100F044B8D8F8000040F4806027
:1023100004E000BFD8F8000040F40070C8F80000E6
:10232000D8F81000616A0870606A2168431C636213
:10233000638D013B638509694170606A21680130E2
:102340006062608D01386085486820F440704860A4
:10235000202084F83D0094F83E000021402884F8B5
:102360003E1007D12046216302B0BDE8F04100F0E5
:10237000D3B800BF082A4FF0000102D0202A18BFAE
:1023800012212046216302B0BDE8F04100F0C0B840
:102390007047000070B5B8B3044690F83D0028B906
:1023A000002084F83C00204600F0BAF8242084F88D
:1023B0003D002068016821F001010160016841F4DD
:1023C00000410160016821F40041016000F096FACB
:1023D00048F28041C0F21E0140F60013D4F804E038
:1023E00088424FF00001C0F23D0348F2A16C4FF06B
:1023F000000238BF01219842C0F2010C38BF01220F
:10240000E64538BF0A460AB1012070BD4DF683612A
:10241000C4F21B31A0FB01122168950C4B684FF4EC
:10242000967623F03F0343EA9243754344F6D3562E
:102430004B60C1F262060B6AA5FB0656B50923F094
:102440003F03E64538BF950C6A1C1A430A62CA6905
:1024500048F2A0664CF6FF73C0F20106B64522EAC8
:1024600003020BD801384FEA4E03B0FBF3F0013002
:102470006FF31F30042898BF04201EE0A3680138C2
:1024800063B119230EFB03F3B0FBF3F001306FF3DC
:102490001F3078B100F5804008E000BF0EEB4E031E
:1024A000B0FBF3F001306FF31F3028B100F50040AE
:1024B00003E000BF012000E001201043C86108686C
:1024C000D4E9072320F0C00010431843086088684F
:1024D00048F2FF3204F10C0690434CCE18431043EF
:1024E000A5698860C86820F0FF0030432843C860B1
:1024F000086840F00100086000202021206484F872
:102500003D10206384F83E0070BD0000704700005D
:1025100070470000704700007047000070470000DF
:10252000B0B586B0016845F20040C4F200008142B7
:1025300002D006B0B0BD00BF002443F630050194C0
:10254000C4F20205296800F5D83041F00201296083
:10255000296801F0020101910199C0210191122124
:10256000CDE90214032104910421059101A9FFF78B
:1025700083F800942869002140F40010286128693C
:10258000002200F40010009000981F2000F08CF84A
:102590001F2000F079F820200021002200F084F8AC
:1025A000202000F071F806B0B0BD000070470000B8
:1025B0007047000040F2440040F25051C2F2000067
:1025C000C2F2000100780A681044086070470000F9
:1025D00080B543F60040C4F20200016841F4007186
:1025E0000160016841F480610160016841F480711B
:1025F0000160032000F084F80F2000F005F800F0DF
:1026000027F8002080BD000070B540F24406C2F2F9
:10261000000640F24C013278C2F200014FF47A73A6
:102620000968B3FBF2F20446B1FBF2F1084600F090
:1026300051FC0F2C4FF0010508D838B94FF0FF308E
:1026400021460022002500F02FF87460284670BD56
:1026500082B0002043F640010190C4F202014A68B2
:1026600042F480424A604A6802F480420192019A30
:102670000090086840F080500860086800F08050C2
:102680000090009802B07047002848BF704700F0E3
:102690001F01012202FA01F14EF200124009CEF2AE
:1026A000000242F82010704710B54EF60C5CCEF2D6
:1026B000000CDCF80030C3F3022E8EF00704042C6B
:1026C00028BF0424BEF103034FF0FF3E0EFA04F4CA
:1026D00038BF0023A14399400EFA03F39A4300F058
:1026E0000F03043B1143634409010C3300F16042C2
:1026F000B0F1FF3FC8BF02F56443197010BD000080
:102700004EF60C51CEF200010A684FF6FF031A4054
:1027100060F30A2242F0806040F0FD70086070476C
:1027200070B582B00020019043F64000C4F2020070
:102730000168402641F0805101600068C4F20E2615
:1027400000F080500190019847F204050120C4F286
:1027500000053060FFF774F8044600BF2868C00326
:1027600006D4FFF76DF8001BB0F57A7FF6D90EE0BE
:1027700001207060FFF764F8044600BF28688003FA
:1027800008D4FFF75DF8001BB0F57A7FF6D9032077
:1027900002B070BD002002B070BD00002DE9F04114
:1027A000002800F08B8043F60808C4F202080446B3
:1027B000D8F8F8030D4600F00F00884207D288F8D9
:1027C000F853D8F8F80300F00F00A84276D120683B
:1027D000810717D5410705D5D8F8001041F4E0511D
:1027E000C8F80010010705D5D8F8001041F4604181
:1027F000C8F80010D8F80010A26821F0F0011143C9
:10280000C8F80010C0073FD1D8F8F80300F00F0057
:10281000A84207D988F8F853D8F8F80300F00F0059
:10282000A8424BD12068410707D5D8F80010E268CC
:1028300021F4E0511143C8F80010000708D5D8F87A
:102840000000216920F4604040EAC100C8F800009F
:1028500000F07CF8D8F8001046F68062C1F303114E
:10286000C0F60002515C40F24C0220FA01F140F245
:102870004800C2F200000068C2F200021160FFF7D7
:10288000C3FE0020BDE8F0816068811E022907D2E6
:1028900058F8081C89015CBF0120BDE8F08111E0F7
:1028A000012807D158F8081C89035CBF0120BDE846
:1028B000F08107E058F8081C890703D40120BDE81F
:1028C000F08100BFD8F8001021F003010843C8F8D8
:1028D0000000FEF7B5FF064641F28837D8F8000041
:1028E000616800F00C00B0EB810F8DD0FEF7A8FFFF
:1028F000801BB842F2D90320BDE8F08140F24C00C1
:1029000043F60801C2F20000C4F20201006809683F
:1029100046F69062C1F38221C0F60002515CC840C5
:102920007047000040F24C0043F60801C2F200007C
:10293000C4F202010068096846F69062C1F34231B0
:10294000C0F60002515CC8407047000010B543F665
:102950000404C4F202046068C0F3810142F2004042
:10296000C0F2F400DFE801F04402081841F2002050
:10297000C0F27A0010BD00BF216801F03F0221685B
:1029800023684902C3F3881116D4A1FB0001002378
:10299000FDF788FC17E000BF216801F03F022168C5
:1029A00023684902C3F3881116D4A1FB0001002358
:1029B000FDF778FC17E000BF41F20020C0F27A007A
:1029C0004843B0FBF2F021680222C1F3014102EB5F
:1029D0004101B0FBF1F010BD41F20020C0F27A00DD
:1029E0004843B0FBF2F02168C1F30271B0FBF1F093
:1029F00010BD00002DE9F04182B0002800F0968063
:102A00000446007843F60006C007C4F202062BD045
:102A1000B06800F00C00042820D0B06800F00C0072
:102A2000082802D17068400218D4B06800F00C0089
:102A30000C2802D17068400210D46068B0F5803F65
:102A400007D0B0F5A02F40F03B81306840F48020E3
:102A50003060306840F4803030603BE130688003A3
:102A600002D56068002861D02078800722D5B06840
:102A700010F00C0F11D0B06800F00C00082802D143
:102A80007068400209D5B06800F00C000C2840F0D6
:102A90009F807068400200F19B803068800702D5FB
:102AA000E068012842D13068216920F0F80040EA4E
:102AB000C1003060207800073CD42078400751D412
:102AC000A5698DB3B06800F00C00082840F0A8801C
:102AD000012D2BD07068E16900F480028A4225D173
:102AE000216A00F03F028A4220D147F6C071626A33
:102AF0000140B1EB821F19D1A26A0023CFF6FF7308
:102B000003EBC23200F440316FF30F0291420DD15A
:102B1000E16A00F07062B2EB016F07D1216B00F047
:102B2000E040B0EB017F01D1002035E1012002B08F
:102B3000BDE8F0816069002840F20000C4F247203F
:102B40005ED00121C0F8801EFEF77AFE054600BF68
:102B5000706F8007B1D4FEF773FE401B0228F7D9CF
:102B6000C5E000BF306C10F080580AD10020019001
:102B7000306C40F080503064306C00F08050019038
:102B8000019847F20007C4F200073868C00511D465
:102B9000386840F480703860FEF752FE054600BF8A
:102BA0003868C00506D4FEF74BFE401B0228F7D953
:102BB0009DE000BFA068012805D0052852D1306FE4
:102BC00040F004003067306F40F00100306753E0A0
:102BD000E068002860D00020C4F247200121016095
:102BE000FEF72EFE054600BF306880073FF55BAF5D
:102BF000FEF726FE401B02284FF00300F4D9CBE07D
:102C00000021C0F8801EFEF71BFE0546706F80078E
:102C10007FF553AFFEF714FE401B0228F6D966E09D
:102C20000027C4F2472700203866FEF709FE022D70
:102C300005460BD1306880015ED5FEF701FE401BD2
:102C400002284FF00300F5D9A6E000BF30688001EC
:102C50007FF56AAFFEF7F4FD401B02284FF003003A
:102C6000F4D999E0316F002821F001013167316F0B
:102C700021F00401316765D0FEF7E2FD054641F21F
:102C8000883700BF306F80076ED4FEF7D9FD401B38
:102C9000B842F7D92BE000BF0020C4F24720002142
:102CA0000160FEF7CDFD0546306880077FF502AF75
:102CB000FEF7C6FD401B02284FF00300F4D96BE07D
:102CC0003168002821F480313160316821F480219D
:102CD000316053D0FEF7B4FD054600BF3068800375
:102CE0003FF5C2AEFEF7ACFD401B6428F6D90320C9
:102CF00002B0BDE8F08100BF04F11C052FCD246BAC
:102D000008430021CFF6FF7140EA821001EBC33186
:102D10006FF30F0140EA0560084340EA04707060F9
:102D200001203866FEF78CFD044600BF3068800144
:102D30003FF5FAAEFEF784FD001B02284FF00300BA
:102D4000F4D929E0FEF77CFD054641F2883700BF43
:102D5000306F800708D5FEF773FD401BB8424FF077
:102D60000300F5D918E000BFB8F1000F7FF4A8AE5A
:102D7000306C20F080503064A2E600BFFEF760FDAA
:102D80000546306880037FF56FAEFEF759FD401BA6
:102D900064284FF00300F4D902B0BDE8F0810000D0
:102DA00070B558B1D0F824C00446BCF1000F07D06C
:102DB0000021216104F1140108E000BF012070BD71
:102DC0006168B1F5827F03D004F11C0100220A6022
:102DD0000025A56294F851104FF0000E41B920462D
:102DE00084F8505000F040F8D4E909C101F4005EC5
:102DF000022284F85120D4E90023D4E902011668A4
:102E000003F4827326F04006166000F40440184470
:102E1000236901F40061084403F002016369084476
:102E200003F00101A369E669084403F40071084452
:102E300006F03801266A084406F08001084340EA9B
:102E40000E001060042000EA13400CF0100108444A
:102E50005060D06920F40060D0610120656584F87D
:102E60005100284670BD000080B586B0016843F26D
:102E70000000C4F20100814202D006B080BD00BF54
:102E8000002143F630020191C4F20202536900F5B9
:102E9000504043F480535361536903F480530193CA
:102EA000019B0191136843F001031360126802F063
:102EB00001020192019AE02201920222CDE902214F
:102EC000032104910521059101A9FEF7D5FB06B068
:102ED00080BD0000411E0020B0EB116F1CBF01201F
:102EE00070474EF21002CEF2000251604EF62351AE
:102EF000CEF20001F0230B70072190601160704743
:102F00007047000070470000002804BF0120704790
:102F100010B5044690F83D0028B9002084F83C0024
:102F2000204600F01FF8022084F83D002068211D93
:102F300001F04CFD012084F8460084F83E0084F83E
:102F40003F0084F8400084F8410084F8420084F88F
:102F5000430084F8440084F8450084F83D000020D4
:102F600010BD000080B582B0006842F20001C4F2DA
:102F7000000188421CBF02B080BD0020019043F6D2
:102F80004000C4F202000168002241F48071016037
:102F90000068002100F48070019001982D20FFF757
:102FA00083FB2D2002B0BDE88040FFF76DBB000021
:102FB00070470000B0B504460068C168026902EAC3
:102FC0000105A90720D4680734D428074AD4E806A5
:102FD00060D4E80777D1280600F17F80680606D51F
:102FE00020686FF040010161204600F087F8A806D4
:102FF00058BFB0BD21686FF0200220460A61BDE8CD
:10300000B040FFF77FBF00BF6FF0020101610121F7
:1030100021778069800703D02046FFF7C9FF05E0CC
:10302000204600F065F8204600F064F80020207784
:103030006807CAD520686FF0040101610221217779
:10304000806910F4407F03D02046FFF7B1FF05E010
:10305000204600F04DF8204600F04CF80020207784
:103060002807B4D520686FF0080101610421217799
:10307000C069800704D02046FFF79AFF06E000BF32
:10308000204600F035F8204600F034F80020207784
:10309000E8069ED520686FF01001016108212177B4
:1030A000C06910F4407F03D02046FFF781FF05E0A0
:1030B000204600F01DF8204600F01CF80020207784
:1030C000E8073FF488AF20686FF0010101612046F6
:1030D00000F012F828067FF581AF20686FF08001BC
:1030E00001612046FFF70CFF68067FF580AF77E7A8
:1030F00070470000704700007047000070470000F4
:103100007047000070470000B0B582B00568044603
:103110002968EA68686901F02F03202B02F0200378
:1031200006D12BB1204602B0BDE8B04001F056BD3B
:103130005FEA017C1EBF00F0010E02F4907010EBFC
:103140000E002FD1236B02EA0100C10618D5012B16
:1031500016D10020019028680190686801900198BC
:103160006869400628D4A08DE18DE28D002A1CBF3D
:10317000411A5FEA014040F0D78102B0B0BD00BF04
:10318000010600F1D3804006F7D5E868202120F041
:103190004000E860204684F8411002B0BDE8B0402D
:1031A00000F094BBC80718BF12F4807040F0D280C2
:1031B000480700F1D580DAE0E06B01684A6893B215
:1031C000002BDAD0A18D8B42D7D2E285C069B0F551
:1031D000807F00F0A08055E8030F216820F4807004
:1031E00041E80302F2B1206850E8030F216820F49F
:1031F000807041E80302AAB1206850E8030F2168FB
:1032000020F4807041E8030262B1206850E8030FA7
:10321000216820F4807041E803021AB1206850E868
:10322000030FDAE7206850E8050F216820F001005D
:1032300041E80502BAB3206850E8050F216820F084
:10324000010041E8050272B3206850E8050F2168CB
:1032500020F0010041E805022AB3206850E8050F7C
:10326000216820F0010041E80502002ADAD11AE0C5
:10327000206850E8050F216820F0400041E8050271
:10328000DAB1206850E8050F216820F0400041E8DD
:10329000050292B1206850E8050F216820F0400037
:1032A00041E805024AB1206850E8050F216820F086
:1032B000400041E80502002ADAD1202084F84200CB
:1032C00000202063206850E8030F216820F01000E0
:1032D00041E80302DAB1206850E8030F216820F0CA
:1032E000100041E8030292B1206850E8030F216802
:1032F00020F0100041E803024AB1206850E8030FB3
:10330000216820F0100041E80302002ADAD1E06BC6
:10331000FDF7ACFFA18D02206063E08D081A81B239
:10332000204602B0BDE8B040FFF7EABE94F8410085
:1033300021287FF422AFA068B0F5805F03D1206917
:10334000002800F08981206A411C216200786860B1
:1033500089E100BF606C40F001006064480706D559
:10336000BEF1000F03D0606C40F00200606488077B
:1033700006D5BEF1000F03D0606C40F0040060641D
:10338000BCF1000F06D55EEA030003D0606C40F08C
:1033900008006064606C00283FF4EFAE02EA0100B0
:1033A000800603D5204601F019FC25686869616C28
:1033B00000F0400001F00801401800F0AD8055E831
:1033C000030F00BF216820F4907041E80302D2B3DC
:1033D000206850E8030F216820F4907041E8030250
:1033E0008AB3206850E8030F216820F4907041E808
:1033F000030242B3206850E8030F216820F4907064
:1034000041E80302FAB1206850E8030FDAE700BF91
:10341000206850E8050F216820F0010041E805020E
:10342000DAB1206850E8050F216820F0010041E87A
:10343000050292B1206850E8050F216820F00100D4
:1034400041E805024AB1206850E8050F216820F0E4
:10345000010041E80502002ADAD1206B012824D1BD
:10346000206850E8030F216820F0100041E80302B3
:10347000DAB1206850E8030F216820F0100041E81D
:10348000030292B1206850E8030F216820F0100079
:1034900041E803024AB1206850E8030F216820F098
:1034A000100041E80302002ADAD1202084F842000B
:1034B0000020206320684169490640F1C78050E838
:1034C000050F216820F0400041E80502002A00F0C5
:1034D000AB80206850E8050F216820F0400041E8EB
:1034E0000502002A00F0A080206850E8050F21683E
:1034F00020F0400041E80502002A00F09580206895
:1035000050E8050F216820F0400041E80502002A3C
:1035100000F08A802068D2E72046FFF7F3FD002004
:10352000606402B0B0BD00BF55E8030F226820F40C
:10353000907042E80303D3B3206850E8030F226879
:1035400020F4907042E803038BB3206850E8030F27
:10355000226820F4907042E8030343B3206850E8E7
:10356000030F226820F4907042E80303FBB1206847
:1035700050E8030FDAE700BF206850E8050F226823
:1035800020F0010042E80503DBB1206850E8050F98
:10359000226820F0010042E8050393B1206850E85A
:1035A000050F226820F0010042E805034BB12068B6
:1035B00050E8050F226820F0010042E80503002BC7
:1035C000DAD1202084F8420000202063206850E8EF
:1035D000030F226820F0100042E80303DBB12068EB
:1035E00050E8030F226820F0100042E8030393B173
:1035F000206850E8030F226820F0100042E803031F
:103600004BB1206850E8030F226820F0100042E818
:103610000303002BDAD1022289B22046626302B092
:10362000BDE8B040FFF76CBDE06B78B144F6D13136
:10363000C0F600010165FDF763FE00283FF49DAD73
:10364000E06B016D02B0BDE8B0400847204602B013
:10365000BDE8B040FFF756BD206A30F8021B6FF39B
:103660005F2169602062E08C01380104E0847FF40E
:1036700084ADE86820F08000E860E86840F0400031
:10368000E86002B0B0BD0000002804BF0120704710
:1036900010B5044690F8410028B9002084F8400095
:1036A000204600F021F8242084F841002068C168F9
:1036B00021F40051C160204601F012FB206801692D
:1036C00021F490410161416921F02A014161C16801
:1036D00041F40051C16000202021606484F8411051
:1036E00084F84210606310BD2DE9F04786B00446AF
:1036F000006845F20001C4F2000100268842CDE9CD
:103700000466CDE90266019630D044F60041C4F269
:103710000001884240F09680002043F6300100907E
:10372000C4F202010A6942F400220A610A6902F441
:1037300000220092009A00900A6842F001020A609A
:103740000968022201F0010100910099CDE90220EF
:10375000082003210590002001910491C4F2020089
:1037600001A9FDF789FF342464E000BF43F630006F
:103770000096C4F202000169002741F48011016142
:103780000169C4F2020701F48011009100990096CA
:10379000016801AD41F00401016001684FF00208C9
:1037A00001F0040100910099009601684FF00309AF
:1037B00041F00801016000684FF0080A00F00800BD
:1037C000009000984FF48050019007F50060294662
:1037D000CDE90286CDF81090CDF814A0FDF74CFF8E
:1037E0000420CDE9010803A880E8400607F5406001
:1037F0002946FDF741FF40F26C3546F2B800C2F2AF
:103800000005C4F202004FF0006140224FF48063D3
:1038100085E847002846C5E90436C5E90666C5E9D6
:103820000866FDF763FE002818BFFCF721FEA563BC
:10383000AC633524204600210022FEF735FF2046E8
:10384000FEF722FF06B0BDE8F087000090F8423096
:10385000202B1CBF0220704700294FF0010318BF26
:10386000002A01D118467047002303638162222198
:103870008285C285436480F842100169006819B1ED
:10388000C16841F48071C1604169002341F00101C8
:103890004161C16841F02001C160184670470000D5
:1038A00080B540F2A810C2F2000000F1200140F201
:1038B000C040C2F200000822FFF7C8FF40F2B0008B
:1038C000C2F20000C1890131C18180BD7047000092
:1038D000FEE700002DE9F04F81B040F60004C4F28D
:1038E000020405462046402100224FF00009FDF762
:1038F000A1FF204680210022FDF79CFF00F05EFF23
:1039000040F2A810C2F2000000EB050A9AF832104B
:10391000082927D0690140F21C2500F1080740F270
:103920003010C2F20005C2F2000001F1160B4FF098
:10393000040805F1340600F1500400BF3046294662
:103940003A462346C5E90299C5F81080C5F800B08B
:10395000FCF7D8FF40F6B830FDF77AFE9AF832004F
:103960000828EBD140F2B00040F60004C2F200009B
:10397000C4F2020480F80790204640210122FDF79E
:1039800059FF20468021012201B0BDE8F04FFDF72C
:1039900051BF000040F2CC30C2F20000FDF75ABF28
:1039A00040F2CC30C2F20000FDF7F8BF10B582B093
:1039B00000210191806B40F24C01C2F2000190F8AD
:1039C0003DC009684BF28952C908C1F2F842A1FB17
:1039D0000212110A232251430191019911B3019955
:1039E000013901910168096889051FD50199C9B19B
:1039F00001990139019101680968890516D5019974
:103A000081B10199013901910168096889050DD5D4
:103A1000019939B101990139019101680968890554
:103A2000DBD403E0016C41F020010164446B4FF0F2
:103A3000000E002C1CBF0021E163816B00291CBF1C
:103A40000022CA630268002C136823F480631360A9
:103A5000A0F82AE018BFC4F850E000291CBF0023DA
:103A60000B65116821F00101116090F83D1060298B
:103A70000AD1202180F83D10002180F83E10016419
:103A8000FDF7E4FE02B010BD0CF02801282911D189
:103A9000116841F001011160116841F48061116009
:103AA00000210163282180F83D10FEF771FC02B06F
:103AB00010BD00BF202180F83D10002180F83E108D
:103AC000FEF766FC02B010BD10B5044690F83D103C
:103AD00090F83E00402801D010280BD1222909D1AE
:103AE0002068026822F4006202604268602939D1CD
:103AF00041E000BF01F0280028282FD100202063DA
:103B0000282084F83D0020684168090538D54168BF
:103B100021F400614160606B90F8351001294DD1AE
:103B2000A06B43F6AD11C0F600010165FDF7E8FB9F
:103B3000002856D020684169490606D50069616AA7
:103B40000870616A206801316162016821F0010139
:103B50000160202084F83D00A06B40E020684268AE
:103B6000602908D012F4006105D1202184F83D10AD
:103B7000002184F83E100021216341680905C6D464
:103B800094F83D1060294FD1202184F83D10002188
:103B900021644169490606D50069616A0870616A55
:103BA000206801316162016821F001010160204655
:103BB000FDF74CFE206C000716D11AE043F6AD115C
:103BC000C0F600010165FDF79BFB50B12168606BF9
:103BD0000A6822F001020A60202184F83D10016D7C
:103BE0008847206C000704D02068416821F4E06118
:103BF000416094F83D10206C282918BF10BD10F0CA
:103C000004000FD00020CFF6FF70E06200212020DA
:103C1000216384F83D00204684F83E10BDE8104042
:103C2000FEF774BC10BD00BF4169490605D50069A7
:103C3000616A0870606A013060622046FEF7A8FB86
:103C4000206C0007D0D1D4E790F83D10026D5AB136
:103C5000026D012A14D10168826CD2B20A61016D31
:103C600001310165704700BFC26C816C012A15D11A
:103C70000268C9B21161016D02310165704700BF70
:103C8000026D022A12D1222918D101680A6842F471
:103C900080720A60016D0131016570470268C1F3ED
:103CA00007211161016D01310165704700684169AB
:103CB000090644BF00210161704700BF428D2129E0
:103CC0000AD14AB1416A026811F8013B13614162AD
:103CD000418D0139418570472129428D08BF002A55
:103CE000EAD101684A6822F4E0624A600A6842F454
:103CF00000720A6000212022016380F83D2080F8D4
:103D00003E10FEF70BBC0000FEE70000FEE70000DF
:103D10002DE9F04F81B02DED028B40F20008C2F288
:103D2000000898F8010088B398F8041071B398F867
:103D3000001001292AD098F80210C0009FED3C2AFB
:103D400000EE100AB2EE001AB8EEC00A012908BF50
:103D5000B0EE401AB4EE421AF1EE10FAC8BFB0EE5F
:103D6000421A88ED041A00F0D7FE98F8020040F2DB
:103D7000B0090128C2F2000928D199ED100A99ED85
:103D8000112AB8EEC01AB8EEC20A28E09FEDF88AF0
:103D90000120B0EE480A00F0F1F90120FDF758FCCF
:103DA0000220B0EE480A00F0E9F90120FDF750FCCE
:103DB0000320B0EE480A00F0E1F90120BDEC028BCF
:103DC00001B0BDE8F04FFDF743BC00BF9FEDE80A2E
:103DD0000020B0EE401AC9F84000C9F8440098ED40
:103DE000042A98F8070032EE000A32EE011ABDEEFE
:103DF000C00ABDEEC11A10EE102A11EE101A88F892
:103E0000062040F21C2440F2A81A40F230124FF073
:103E1000000B8842C2F20004C2F2000AC2F20002A1
:103E2000C9F848B088F8051004D2012109E000BFA4
:103E300000001042884254D940F23012FF21C2F2F1
:103E400000020844C1B289F8090044F28C2000EE57
:103E5000101AAAF80E000AF1080508202F2104F113
:103E6000340702F15006B8EE400AC4E9001B206195
:103E7000384621462A46334684F814B08AED020AB1
:103E8000C4E902BBFCF73EFD0120FDF7E1FBD9F8D8
:103E90001C0021460130C9F81C0038462A4633462A
:103EA000FCF730FD0120FDF7D3FBD9F81C002146BB
:103EB0000130C9F81C0038462A463346FCF722FD7B
:103EC0000120FDF7C5FBD9F81C00CAE902BB01308F
:103ED000C9F81C000120FDF7BBFB99F8090088F820
:103EE000070098F8061098F80800814240F2A08078
:103EF0000130C1B289F80A0044F28C204FF0000B67
:103F0000AAF80E004F20C4E9000B40F23010C2F2B4
:103F1000000000EE101A0AF10805082104F1340728
:103F200000F15006B8EE400A2161384621462A4683
:103F3000334684F814B08AED020AC4E902BBFCF7E8
:103F4000E1FC0120FDF784FBD9F81C00214601307B
:103F5000C9F81C0038462A463346FCF7D3FC01203A
:103F6000FDF776FBD9F81C0021460130C9F81C008A
:103F700038462A463346FCF7C5FC0120FDF768FBAE
:103F8000D9F81C00CAE902BB0130C9F81C000120A5
:103F9000FDF75EFB99F80A00214600EE100A44F294
:103FA0008C20AAF80E006F20C4E9000B0820B8EEA0
:103FB000400A206138462A46334684F814B08AED18
:103FC000020AC4E902BBFCF79DFC0120FDF740FB9F
:103FD000D9F81C0021460130C9F81C0038462A4691
:103FE0003346FCF78FFC0120FDF732FBD9F81C00AB
:103FF00021460130C9F81C0038462A463346FCF7F2
:1040000081FC0120FDF724FBD9F81C00CAE902BBA2
:104010000130C9F81C000120FDF71AFB99F80A00CD
:1040200088F80800BDEC028B01B0BDE8F08F00BF3E
:10403000F8D20138C1B289F80A0044F28C204FF05E
:10404000000BAAF80E004F20C4E9000B40F230101C
:10405000C2F2000000EE101A55460AF1080A0821C3
:1040600004F1340700F15006B8EE400A21613846E9
:1040700021465246334684F814B085ED020AC4E95D
:1040800002BBFCF73FFC0120FDF7E2FAD9F81C0067
:1040900021460130C9F81C00384652463346FCF729
:1040A00031FC0120FDF7D4FAD9F81C00214601307B
:1040B000C9F81C00384652463346FCF723FC012061
:1040C000FDF7C6FAD9F81C00C5E902BB0130C9F8F2
:1040D0001C000120FDF7BCFA99F80A00214600EE09
:1040E000100A44F28C20E8816F20C4E9000B0820FC
:1040F000B8EE400A206138465246334684F814B080
:1041000085ED020AC4E902BBFCF7FCFB0120FDF7C8
:104110009FFAD9F81C0021460130C9F81C00384626
:1041200052463346FCF7EEFB0120FDF791FAD9F831
:104130001C0021460130C9F81C003846524633465F
:10414000FCF7E0FB0120FDF783FAD9F81C00C5E974
:1041500002BB0130C9F81C000120FDF779FA99F87B
:104160000A0088F80800BDEC028B01B0BDE8F08FB2
:10417000000000007047000070470000032805D0D1
:10418000002808BFB1EE400A02E000BFB1EE400ACD
:104190002DE9F04740F21C244001C2F200044FF028
:1041A00000080E3040F2A819C4E9000840F23010AF
:1041B000C2F20009C2F20000042109F1080A04F168
:1041C000340700F15006B1EE400A2161384621461D
:1041D0005246334684F8148089ED020AC4E9028805
:1041E000FCF790FB0120FDF733FA40F2B005C2F274
:1041F0000005E86921460130E861384652463346F9
:10420000FCF780FB0120FDF723FAE8692146013025
:10421000E861384652463346FCF774FB0120FDF74F
:1042200017FAE869C9E902880130E861BDE8F0875A
:104230002DE9F04F81B02DED108B82B040F20002DD
:10424000C2F20002907840F2B00A01380428C2F2AB
:10425000000A00F2BB80DFE800F003A5B99BBF00B5
:10426000D678B6F15A0038BFC6F15A0002F0CFF93D
:104270009FEDBD0B53EC102B02F030FA9FEDBC0B01
:10428000044653EC102B0D4602F038F89FEDBA0BA4
:104290005C2E53EC102B9FEDBA0B3CBF1D46144611
:1042A000592E24BF2946204655EC104B22462B465A
:1042B00002F014FA41EC100B01F052F851EC100B23
:1042C00022462B4602F01AF841EC100B40F2301B4C
:1042D000C2F2000B8BED160B9FEDAB0B58EC109B55
:1042E0004A46434602F0FAF99FEDA90B56EC107BC3
:1042F0003A46334602F002F841EC100B01F0A0F808
:1043000053EC102B9FEDA40B54EC105B2846214678
:1043100001F0F4FF01F00CFFCAF8540002F066FC53
:104320009BED160B01908B4651EC100B4A46434611
:1043300002F0D4F93A46334601F0E0FF41EC100BAD
:1043400001F0E2F853EC102B2846214640F200041D
:10435000C2F2000401F0D2FF024601980B46594612
:1043600002F056FB01F0E4FE94F8038000EE100A20
:10437000B8F1580FCAF8580000F212819AED151AD8
:104380009FEDF52A31EE400A30EE020A17E100BF38
:104390000020CAE9100046F26660CBF686709FEDF9
:1043A000F28A22E00020CAE910004AF614604AF6B8
:1043B0001461C4F20310CCF203119FEDF69A9FED45
:1043C000F68ACAE91800CAF8681014E09FEDF48A6A
:1043D0000020CAE9100008E00020CAE9100046F2F7
:1043E0006660C3F686709FEDEA8ACAE91800B0EEEF
:1043F000489ACAF868009AED1B0A40F21C24B4EEF1
:10440000490AF1EE10FAC2F200044FD0042040F243
:10441000A819206140F23010C2F20009C2F2000077
:104420004FF0000809F10805EC2104F1340700F110
:104430005006C4E90018384621462A46334684F817
:10444000148089ED029AC4E90288FCF75BFA012026
:10445000FDF7FEF8DAF81C0021460130CAF81C000E
:1044600038462A463346FCF74DFA0120FDF7F0F8AE
:10447000DAF81C0021460130CAF81C0038462A46EA
:104480003346FCF73FFA0120FDF7E2F8DAF81C00AA
:10449000C9E902880130CAF81C000120FDF7D8F8EC
:1044A000DAF864009AED1A8ACAF86C009AED1C0AD0
:1044B000B4EE480AF1EE10FA4ED0042040F2A819EA
:1044C000206140F23010C2F20009C2F200004FF049
:1044D000000809F108054FF4867104F1340700F172
:1044E0005006C4E90018384621462A46334684F867
:1044F000148089ED028AC4E90288FCF703FA0120DE
:10450000FDF7A6F8DAF81C0021460130CAF81C00B5
:1045100038462A463346FCF7F5F90120FDF798F8AE
:10452000DAF81C0021460130CAF81C0038462A4639
:104530003346FCF7E7F90120FDF78AF8DAF81C00AA
:10454000C9E902880130CAF81C000120FDF780F893
:10455000DAF86800CAF8700002B0BDEC108B01B048
:10456000BDE8F08F00BF00BFC173EFE192E3D83F19
:104570009A9999999999064000000000000000005E
:10458000000000000000244050455254FB21094027
:1045900000000000008066400000000000908A409B
:1045A0009AED151A9FED7D2A31EE400A30EE021A7F
:1045B0009FED7B0AB8F15B0F88BFB0EE410A9FED1B
:1045C00079AA40F2301980EE0ACAC2F2000999EDC8
:1045D000160B9FED671B51EC100B53EC112B8AED62
:1045E00017CA02F07BF89FED640B53EC102B01F01F
:1045F00085FE01F09DFD94ED04DAB3EE080A8DEE20
:10460000000A09EE100AB1EE49BAB0EE4B1AB8F141
:10461000590F38BFB0EE491AB1EE418A8AED181A27
:104620008AED191A8AED1A8A10EE100A02F0DEFAE3
:10463000044641EC100B40F2A810C2F2000080EDDD
:10464000000B1CEE100A0D4602F0D0FA9FED4C0B49
:1046500006460F4653EC102B2046294602F03EF842
:1046600002460B463046394601F048FE41EC100B3D
:104670009FED4D1A89ED180B3CEE010A044610EE31
:10468000100A0D4602F0B2FA22462B4601F036FE21
:104690009FED3D0B56EC107B3A46334602F01EF878
:1046A00001F046FD9FED41FA00EE100A80EE0F0A80
:1046B000DFED3F8ADFED3F9A20EE0A0A80EE280AFE
:1046C00020EE290A30EE4DEA1EEE100A02F08EFAB4
:1046D00041EC100B9FED381A89ED1A0B3CEE010AE4
:1046E00010EE100A02F082FA22462B4601F006FE76
:1046F0003A46334601F0F2FF01F01AFD00EE100ACF
:1047000080EE0F0A20EE0A0A80EE280A20EE290A1F
:1047100030EE4DAA1AEE100A02F068FA41EC100BC6
:10472000B8F1580F89ED1C0B08D8BDEECE0ABDEECE
:10473000CA1A8AED100A8AED111A5CE6B8F15C0F0C
:104740000CD3BDEECA0ABDEECE1A8AED100A8AED70
:10475000111AB0EE4B9A4EE6004098C40020CAE908
:104760001000B0EE4B9A46E6666686BF00BF00BFFB
:104770000000000000005340000000000080764070
:10478000EE7C3F355EBAD13FCDCCCCCCCCCC0C400E
:104790006666863F14AE034114AE03C100409844E0
:1047A0000000000000007A44A01AAFBF14E7AA3F3F
:1047B000000061450000E442A01AAF3F2DE9F04738
:1047C0002DED028B9FED4C8A0120B0EE480AFFF7D9
:1047D000D5FC0220B0EE480AFFF7D0FC0320B0EE73
:1047E000480AFFF7CBFC40F21C25C2F200054FF04F
:1047F0000008ED2040F2A814C5E9000840F230108E
:10480000C2F20004C2F2000044F8088F05F1340738
:1048100000F150064FF0040A384629462246334636
:1048200085F81480C5E90288C5F810A0FCF76AF87D
:104830000120FCF70DFF40F2B009C2F20009D9F8DF
:104840001C0029460130C9F81C0038462246334670
:10485000FCF758F80120FCF7FBFED9F81C002946AC
:104860000130C9F81C00384622463346FCF74AF8A6
:104870000120FCF7EDFED9F81C0029460130C9F8EB
:104880001C0040F20D10C5E90008384622463346A8
:10489000C4E9008885F81480C5E90288C5F810A02D
:1048A000FCF730F80120FCF7D3FED9F81C002946AC
:1048B0000130C9F81C00384622463346FCF722F87E
:1048C0000120FCF7C5FED9F81C0029460130C9F8C3
:1048D0001C00384622463346FCF714F80120FCF74A
:1048E000B7FED9F81C00C4E900880130C9F81C00E3
:1048F000BDEC028BBDE8F08700000000FDF75ABE5A
:1049000080B594B0002043F64001CDE90B00CDE91D
:1049100009000690CDE90400CDE902000190C4F23F
:1049200002010A6842F080520A60096801F0805171
:1049300001910199019047F20000C4F20000016862
:1049400041F44041016000684FF4800100F44040B0
:1049500001900198012007904FF480300E910421BE
:10496000089002200F91B4210D90CDE91010CDE9EF
:10497000120007A8FEF73EF8B0B9FDF7D1FE98B9CE
:104980000F20029002200390002004904FF4A050CA
:1049900005904FF48050069002A80521FDF7FEFE19
:1049A000002804BF14B080BDFBF762FD4EF68850AE
:1049B000CEF20000016841F4700101607047000010
:1049C00040F27840C2F20000FEF7F4BA10B540F6AB
:1049D000FF3E0368C4F2000E40F2004C7045C4F282
:1049E000010C27DCB0F1804F31D040F20042C4F21C
:1049F000000290422BD040F60002C4F20002904226
:104A000025D041F6FF72C4F20002904229DC7045C5
:104A10003CDCB0F1804F5FD040F20042C4F20002B3
:104A2000904259D040F60002C4F20002904253D0A6
:104A300056E000BF40F60042C4F20002904206D0A9
:104A4000604504D00022C4F201029042D9D14A68E4
:104A500023F07003134341F6FF72C4F20002904248
:104A6000D5DD43F6FF72C4F20102904222DC42F22D
:104A70000002C4F2000290422ED00022C4F20102D1
:104A8000904229D0604527D02AE000BF40F600427E
:104A9000C4F2000290421FD041F60002C4F20002AC
:104AA000904219D041F60042C4F20002904213D065
:104AB00016E000BF44F20002C4F2010290420BD0A3
:104AC00044F60002C4F20102904205D044F20042D2
:104AD000C4F20102904203D1CA6823F44073134325
:104AE00023F080024B69D1F800E08C681A43026021
:104AF000C46240F48062C0F828E0624504BF0969DE
:104B00000163012141610169C90708BF10BD016945
:104B100021F00101016110BD10B540F20000C2F2A8
:104B20000000017840F2B0040229C2F2000416D15C
:104B3000E178A2798A4212D031B1022908D0012944
:104B40000CD190ED030A07E09FED1A0A04E000BFC4
:104B500090ED030AB1EE400A84ED0A0AA17194EDCA
:104B60000A0A94ED0B1AB4EE401AF1EE10FA08BFDF
:104B700010BD8078B1EE401A02284FF0010008BF46
:104B8000B0EE410AFFF7FAFA0120FCF761FD94ED5F
:104B90000A0A0220FFF7F2FA0120FCF759FD94ED12
:104BA0000A0A0320FFF7EAFA0120FCF751FDA06A88
:104BB000E06210BD0000000040F2C040C2F2000000
:104BC000FEF7A2BA40F20850C2F20000FEF79CBA0B
:104BD000806B0021C185C184FEF794BA81B090F842
:104BE0004210222920D18368B3F5805F08D1016982
:104BF000002957D000F128010A6803685B680AE0C1
:104C0000014651F8282F13B90369002BF5D003682A
:104C10005B6803F07F0313700A6801320A60C18D7C
:104C200001390A04C18501D001B070470168CA6822
:104C300022F02002CA60CA6822F48072CA604A69FF
:104C400022F001024A61202280F8422000224263C1
:104C5000036B012B30D1026351E8031F026821F07E
:104C6000100142E803135BB3016851E8031F0268B7
:104C700021F0100142E8031313B3016851E8031F48
:104C8000026821F0100142E80313CBB1016851E83A
:104C9000031F026821F0100142E8031383B1016889
:104CA000DAE700BF0168826A49686FF35F2122F882
:104CB000021B8262B3E700BF01B0FEF7F1BD00BF87
:104CC00001680A68D20606D5002200920A6800929E
:104CD000496800910099818D01B0FEF711BA00007A
:104CE00010B504460068D4E902C22369016921F4C1
:104CF000405111430161626943EA0C01E3691143C8
:104D0000C268194349F20C639A431143C160416977
:104D1000A26921F4407141F20043114340F48062E2
:104D2000C4F201039A42416102D1FDF7FBFD01E0AB
:104D3000FDF7E4FDE16963681922B1F5004FA0FBBE
:104D400002011FD15A00DB0FFBF7ACFA48F21F51EA
:104D5000C5F2EB11A0FB01235A096FF0630302FBBC
:104D60000300322303EBC000A0FB01014FF4F870F5
:104D700000EA111000EB0210C1F34211226808434F
:104D8000906010BD9A009B0FFBF78CFA48F21F5100
:104D9000C5F2EB11A0FB01235A096FF0630302FB7C
:104DA0000300322303EB0010A0FB0101F02000EA16
:104DB000511000EB0210C1F34311226808439060C8
:104DC00010BD0000FEE700008CB040F6000AC4F2FF
:104DD000020AFDF7FDFBFFF793FD002643F63004C2
:104DE00006960196C4F2020420684FF4035140F085
:104DF000040020602068002200F004000190019867
:104E0000019620684FF4035740F08000206020682E
:104E100000F08000019001980196206840F00100A8
:104E20002060206800F00100019001980196206840
:104E300040F002002060206800F00200019001981C
:104E40000196206840F008002060206800F008000B
:104E5000019001985046FCF7EDFCAAF50065284644
:104E6000102100224FF0100BFCF7E4FCAAF580683B
:104E7000404640F206310022FCF7DCFC029702AF0C
:104E80004FF0010950463946CDE903960596FCF7E7
:104E9000F3FB0420CDE90206284639460496FCF7C8
:104EA000EBFB28463946CDE902B9CDE90466FCF7AB
:104EB000E3FB40F20630CDE9020940463946CDE930
:104EC0000466FCF7D9FB4FF40060CDE902065046BA
:104ED00039460496FCF7D0FB02962068002140F486
:104EE000001020602068002200F400100290029858
:104EF0002F20FDF7D9FB2F20FDF7C6FB40F27824C9
:104F0000C2F20004AAF5D231204640F2010B40F86B
:104F1000281F4FF00C0A4FF420254FF40018C0F260
:104F2000001BC0E901A6C0E90365C0E9058B8683C3
:104F3000FBF776FF002840F0F981CDF82890CDE905
:104F4000086904F128090E2702A94846CDE902663E
:104F5000CDE90466CDE906660B97FBF725FD40F623
:104F6000000040F21C24C4F20200C2F20004A0F5CA
:104F7000D031204640F8341FC0E901A6C0E90365DE
:104F8000C0E9058B8683FBF74BFF002840F0CE81FC
:104F9000012000250A90CDE90607CDE9085004F16B
:104FA000340002A9CDE90255CDE904550B970090D4
:104FB000FBF7FAFC40F6000AC4F2020A40F2204075
:104FC000AAF55841C2F200004FF482724FF4007308
:104FD00080E826000A21C0E90355C0E90553C561F0
:104FE000C0E90855C0E90A51FDF7DAFE002840F093
:104FF0009D8140F27840AAF5F431C2F2000040F2FF
:10500000E73342F2273280E82600C0E903358561A4
:10501000FDF77AFF002840F0898140F2CC30AAF5F4
:10502000DA31C2F2000048F2A06200254FF480435A
:10503000C0F2010280E82600C0E90353C0E905552B
:10504000C0E90755FDF7A6F9002840F06F814FF43D
:105050001670FCF7FDFA4846FCF7CCF86420FCF724
:10506000F7FA48460221FBF735FC009C2046FCF786
:10507000C1F86420FCF7ECFA20461021FBF72AFC6B
:1050800040F2C040AAF5DE31C2F200004FF4E13731
:105090000C26C0E90017C0E90255C0E90456C0E972
:1050A0000655FEF7F1FA002840F0408140F2085022
:1050B000AAF5DC31C2F200000022C0E90017C0E905
:1050C0000222C0E90426C0E90622FEF7DDFA002824
:1050D00040F02C8140F2A815C2F2000540F2C04019
:1050E00005F12001C2F200000822FEF7AFFB4FF4E9
:1050F000FA60FCF7ADFA5046402101220126FCF788
:1051000099FB504680210122FCF794FB40F20000FD
:10511000C2F2000006714FF47A70FCF799FA40F27F
:105120003016C2F2000640F2B00B40F21C2AC2F266
:10513000000B05F1080906F150074FF00008C2F214
:10514000000A00BF706C95F820100130AA29706425
:1051500022D195F82700FF281ED195F8211040F2A2
:10516000000495F82220C2F200042170617895F8BD
:10517000230095F82430002A18BF1146617095F875
:10518000251095F82620A070E3708BF803108BF89B
:10519000052068B906E000BF40F20000C2F200003E
:1051A000807828B940F200010120C2F20001887025
:1051B00095F83300082805D001208BF8070001205E
:1051C000FEF788FB0120FCF743FA95F83400082825
:1051D00005D001208BF807000220FEF77BFB0120A1
:1051E000FCF736FA95F83500082805D001208BF831
:1051F00007000320FEF76EFB0120FCF729FAFFF7FA
:1052000017F8FEF785FDB06C0130B0640120FCF7A3
:105210001FFADBE91301814294D0009C00EE100AD2
:105220004FF48670B8EEC00ACAE90008042620468A
:1052300051464A463B468AF8148085ED020ACAE97F
:105240000288CAF81060FBF75DFB0120FCF700FA4A
:10525000DBF81C0051460130CBF81C0020464A46C2
:105260003B46FBF74FFB0120FCF7F2F9DBF81C0093
:1052700051460130CBF81C0020464A463B46FBF71E
:1052800041FB0120FCF7E4F9DBF81C009BED130A5D
:105290000130CBF81C00EC20B8EEC00ACAE90008C7
:1052A000204651464A463B46C5F80C808AF8148091
:1052B00085ED020ACAE90288CAF81060FBF722FBF2
:1052C0000120FCF7C5F9DBF81C0051460130CBF892
:1052D0001C0020464A463B46FBF714FB0120FCF726
:1052E000B7F9DBF81C0051460130CBF81C00204612
:1052F0004A463B46FBF706FB0120FCF7A9F9DBF821
:105300001C0040F230160130CBF81C000A20C5E921
:105310000288C2F20006FCF79BF9DBF84C00F16C46
:10532000CBF85000481CF0640CE700BFFBF7A0F876
:1053300003B401984100009850EAC12018BF04202E
:105340004A0D18BF40F0010040F2FF72B2EB515F0E
:1053500008BF40F00200012808BF052002B07047D6
:1053600010B52DED020B2DED088B84B09DED0C0BCF
:1053700051EC100B01F0E6FA41EC180B9DED0C0B13
:1053800053EC182B51EC100B01F042FB41EC190BC4
:105390000D989FED290B10F0004F53EC102B51ECA2
:1053A000190B9FED21AB9FED22BB0ED001F05AF9F6
:1053B0000ED953EC1B2B51EC190B01F08DFA1CD2BA
:1053C00014E000BF41EC180B17E001F04BF906D2D6
:1053D00053EC1A2B51EC180B01F01AFBF2E753ECCB
:1053E0001B2B51EC190B01F077FA06D853EC1A2B52
:1053F00051EC180B00F0CEFEE4E78DED028B9DED35
:105400000C0B18EE901A10EE900A8DED000B61F364
:105410001E0003909DED020B04B0BDEC088B02B0A2
:1054200010BD000000000000000000000000F03F80
:10543000000000000000E03F000000000000E0BFAE
:1054400010B52F499FED2C1B2DED020B84B0059854
:1054500020F000408842DCBF00209DED040B32DDCF
:105460002849884209D1049840B94FF00100FAF761
:1054700099FF00F025FE06B010BD05DB9DED040B85
:1054800000F012FE06B010BD68469DED040B00F062
:105490007BF810F0030011D0012818D09DED021BFD
:1054A0009DED000B02281AD000F08AFA51EC100B87
:1054B00000F032FE06B041EC100B10BD9DED021B5A
:1054C0009DED000B012000F0AFFB06B010BD9DED7F
:1054D000021B9DED000B00F073FA06B010BD012019
:1054E00000F0A2FB51EC100B00F016FE06B041ECF0
:1054F000100B10BD000000000000000000000000C4
:10550000FB21E93F0000F07F10B51D499FED1A1BFC
:105510002DED020B84B0059820F000408842DCBFDE
:1055200001209DED040B21DD1649884209D1049824
:1055300040B94FF00100FAF735FF00F0C1FD06B0A9
:1055400010BD05DB9DED040B00F0AEFD06B010BDF7
:1055500068469DED040B00F017F800F001000121F2
:10556000A1EB40009DED021B9DED000B00F0F4FB54
:1055700006B010BD000000000000000000000000A8
:10558000FB21E93F0000F07F2DE9F14F04462DEDAE
:10559000020B2DED088B8AB09FEDE70B80ED020B1F
:1055A000139EE74826F0004585420ADC9DED120B6C
:1055B000002084ED000B0AB0BDEC088B03B0BDE801
:1055C000F08FE0489FEDE0AB9FEDE1BBA84247DDE7
:1055D000E14F9FEDE39B9FEDE48B9DED120B53ECB0
:1055E0001A2B51EC100B002E1CDD01F011FA41ECCE
:1055F000100BBD4208D053EC1B2B51EC100B01F0EB
:1056000007FAC4E900010BE053EC192B51EC100B25
:1056100001F0FEF953EC182B01F0FAF9C4E900018E
:105620000120C8E700F0B6FD41EC100BBD4208D0E8
:1056300053EC1B2B51EC100B00F0ACFDC4E9000146
:105640000BE053EC192B51EC100B00F0A3FD53ECC5
:10565000182B00F09FFDC4E900014FF0FF30AAE7CE
:10566000C348A84279DB9DED120B51EC100B00F002
:1056700047FD41EC180B9FEDC00B53EC102B01F0D4
:105680002DF89FEDBF1B53EC112B00F083FD00F0B4
:105690008FFF074600F0BBFF41EC190B53EC1A2BB0
:1056A00001F01CF853EC182B01F0A6F941EC180B93
:1056B00053EC1B2B51EC190B01F010F8DFF8C8A2CA
:1056C00041EC100B4FEA15580125FA4453EC102B0E
:1056D00051EC180B01F09CF9032DC4E900013DD0F9
:1056E000C1F30A5005EB4511A8EB000011398142C6
:1056F00034DA0AEB051BB0EE48AA9BED000BF0EE86
:1057000068AA53EC102B51EC190B00F0E7FF41ECA9
:105710001B0B51EC1A0B53EC1B2B01F079F941ECEC
:10572000180B51EC1A0B53EC182B01F071F953ECD8
:105730001B2B01F06DF99BED020B41EC1A0B53ECA6
:10574000102B51EC190B00F0C9FF53EC1A2B01F090
:105750005FF941EC100B6D1CB8E70EE0002EA8BFFE
:105760003846BFF628AF94ED000B51EC100B00F05B
:10577000D3FCC4E9000178421DE7C6F3130040F4EE
:10578000801EC6F30A50A0F2F530471100F01F0545
:10579000C5F12000DDF848B0089000200690079081
:1057A0000520EC467949002D07EB0002794408BF3B
:1057B00051F8221009D051F8223001EB8201AB40A0
:1057C0004A68089922FA01F11943A1FB0E26A1FBB0
:1057D0000B131A449A4234BF0123002303EB06083B
:1057E0000CEB8003D3E901A60E448E4234BF0121A5
:1057F000002192448A4411B1924502D903E09245B6
:1058000001D2012100E00021C3E901A641444CF886
:105810002010011EA0F10100C4DC029800F100502C
:10582000850F0298DDE903678000DDF8148000F041
:10583000EEFE41EC1A0B304600F000FF9FED541BCA
:1058400053EC112B00F04AFF41EC1B0B384600F0E3
:10585000F5FE9FED511B53EC112B00F03FFF41EC87
:10586000180B404600F0EAFE9FED4D1B53EC112B48
:1058700000F034FF41EC190B51EC180B53EC192BD1
:1058800000F088FC53EC1B2B00F084FC53EC1A2B2B
:1058900000F080FCCDE90801002008909DED080B88
:1058A00053EC1A2B51EC100B01F0B2F853EC1B2BFC
:1058B00001F0AEF853EC182B01F0AAF853EC192BB9
:1058C00001F09AF89FED381B53EC112B00F006FF06
:1058D0009FED370B41EC180B53EC102B9DED080B93
:1058E00051EC100B00F0FAFE53EC182B00F052FCB8
:1058F0009FED310B41EC180B53EC102B9DED080B79
:1059000051EC100B00F0EAFE53EC182B00F042FCB7
:1059100041EC100B139810F0004F06D06D4251EC83
:10592000100B00F0F9FB41EC100B284684ED000B46
:1059300041E6000000000000000000000000000040
:10594000FB21E93F7CD9024000004054FB21F93F94
:105950003163621A61B4D03DFB21F93F00000000C1
:105960000000601A61B4D03D7370032E8A19A33B06
:10597000FB2139410000000083C8C96D305FE43F5E
:10598000000000000000E03F5A160000A8150000CB
:10599000000000000000103E000000000000103C6D
:1059A000000000000000103A182D4454FB21F93D7E
:1059B0003326A611460B113C00000054FB21F93D93
:1059C00010B52DED040B2DED088B82B0B0EE419A91
:1059D000F0EE619A0B9820F000449FED4BABB4F1D0
:1059E000795F11DA9DED0A0B51EC100B00F0E0FD30
:1059F000002801BFB0EE4A0AF0EE6A0A02B0BDEC20
:105A0000088B04BF04B010BD9DED0A0B53EC102BA6
:105A100051EC100B00F062FE41EC180B3C480621E3
:105A2000B0EE480AF0EE680A784400F081F853ECD2
:105A3000182B51EC100B00F051FE9DED0A0B41ECC0
:105A40001B0B53EC192B51EC100B00F047FE41ECF3
:105A5000190B53EC1B2B51EC180B00F03FFE53ECD1
:105A6000192B00F0D5FF9FED2C0B41EC190B53ECDB
:105A7000102B51EC180B00F031FE41EC100B2848B4
:105A8000844210DA53EC192B51EC100B00F0C0FFDC
:105A900053EC1A2B00F0B0FF41EC100B02B0BDEC40
:105AA000088B04B010BD1F48A042BCBF9FED1E1B59
:105AB0008DED001B06DBA4F5001001900020009086
:105AC0009DED001B51EC100B53EC112B00F0A0FFCF
:105AD0009DED000B41EC180B53EC102B51EC1A0B05
