:020000040800F2
:10000000500A002065020008EF26000803240008BB
:10001000ED26000805050008C730000800000000B4
:10002000000000000000000000000000532800084D
:10003000FD06000800000000512800081D2C0008E3
:100040007F0200087F0200087F0200087F0200088C
:100050007F0200087F0200087F0200087F0200087C
:100060007F0200087F0200087F0200087F0200086C
:100070007F0200087F0200087F0200087F0200085C
:100080007F0200087F0200087F0200087F0200084C
:1000900009050008150500087F0200087F02000816
:1000A0007F0200087F0200087F0200087F0200082C
:1000B0007F0200087F0200087F0200087F0200081C
:1000C0007F0200087F0200087F0200087F0200080C
:1000D0007F0200087F0200087F0200087F020008FC
:1000E0007F0200087F0200087F0200087F020008EC
:1000F0007F020008C52C00087F0200087506000872
:100100007F0200087F0200087F0200087F020008CB
:100110004D2E0008592E00087F0200087F020008BB
:100120007F0200087F0200087F0200087F020008AB
:100130007F02000800000000000000007F020008AD
:10014000210500082D0500087F0200087F02000835
:100150007F0200087F0200087F0200087F0200087B
:100160007F0200087F0200087F0200087F0200086B
:100170007F0200087F0200087F02000800000000E4
:10018000000000007F0200080000000000000000E6
:100190007F02000800000000000000007F0200084D
:1001A0000000000000000000000000007F020008C6
:1001B0007F0200087F0200087F0200087F0200081B
:1001C0007F02000800F002F800F03CF80AA090E876
:1001D000000C82448344AAF10107DA4501D100F002
:1001E00031F8AFF2090EBAE80F0013F0010F18BF93
:1001F000FB1A43F001031847884B0000A84B00008E
:10020000103A24BF78C878C1FAD8520724BF30C842
:1002100030C144BF04680C60704700000023002414
:1002200000250026103A28BF78C1FBD8520728BF06
:1002300030C148BF0B6070471FB504F0C4FC1FBD40
:1002400010B510BD00F014F91146FFF7F5FF03F0EB
:100250004BFE00F032F903B4FFF7F2FF03BC00F0ED
:1002600035F900000948804709480047FEE7FEE7E6
:10027000FEE7FEE7FEE7FEE7FEE7FEE7FEE7FEE756
:1002800004480549054A064B70470000B52C000894
:10029000C501000850040020500A0020500600202C
:1002A0005006002053EA020C00F069802DE9F04B63
:1002B0004FF00006002B1FBFB3FA83F503FA05F4D5
:1002C00024FA05F65E4012BF1643B2FA82F502FA2E
:1002D00005F4C5F120051EBF22FA05FC44EA0C0412
:1002E000203556EA044C4FEA144418BF641C4FF002
:1002F00000084FF00009904271EB030C39D300293C
:1003000019BFB1FA81F701FA07F6B0FA80F700FADF
:1003100007F6C7F120071EBF20FA07FC46EA0C06C5
:100320002037B6FBF4FCA7EB0507103F07F01F0BC7
:10033000CBF120060CFA0BFB2CFA06F644BFB346B1
:100340000026202FA4BF5E464FF0000B5BEA060C90
:1003500008BF4FF0010B19EB0B09ABFB027C48EB1C
:100360000608C01B06FB02CC0BFB03CC71EB0C0197
:10037000C1E70B46024641464846BDE8F08B13B53F
:100380004FF000004FF00001AFF30080BDE81C40CB
:10039000704710B5203AC0F00B80B1E81850203AF1
:1003A000A0E81850B1E81850A0E81850BFF4F5AF15
:1003B0005FEA027C24BFB1E81850A0E8185044BF9F
:1003C00018C918C0BDE810405FEA827C24BF51F80C
:1003D000043B40F8043B08BF7047D20728BF31F800
:1003E000023B48BF11F8012B28BF20F8023B48BF51
:1003F00000F8012B70474FF0000200B513469446F9
:100400009646203922BFA0E80C50A0E80C50B1F16C
:100410002001BFF4F7AF090728BFA0E80C5048BF80
:100420000CC05DF804EB890028BF40F8042B08BF1E
:10043000704748BF20F8022B11F0804F18BF00F81A
:10044000012B704770477047704710B500F008F8EF
:10045000006810BD10B5044600F002F8046010BD3D
:1004600000487047F003002000487047F003002068
:100470007546FFF7F9FFAE4605006946534620F082
:100480000700854618B020B5FFF7FAFEBDE820400A
:100490004FF000064FF000074FF000084FF0000B40
:1004A00021F00701AC46ACE8C009ACE8C009ACE8F3
:1004B000C009ACE8C0098D46704710B50446AFF3DB
:1004C00000802046BDE81040FFF7C5BE0149182056
:1004D000ABBEFEE72600020070470000084A07494D
:1004E000926B41F8202000EE102A044ABDEEC00AAB
:1004F000503210EE101A22F8101070471803002026
:1005000080000020FEE70000014800F0AABA0000C9
:10051000DC000020014800F0A4BA0000DC0000204C
:10052000014800F09EBA000004010020014800F0DC
:1005300098BA0000040100200C4B10B503F13802FA
:1005400002F1080148B101280ED1002014182479C5
:100550000C54401C0328F9DD04E0145C0C54401CCE
:100560000328FADD93ED100A10BD00008000002082
:100570002DE9FF413D4C00262DED020B054666603E
:100580002675A6602261012B01D0022B12D0022019
:10059000374FE06018291CD2DFE801F00E393F4BDD
:1005A0004D5355571B4F5D141B1B1B1B1B1B1B1B4C
:1005B0001B1B1B630020EBE769462D48FFF7E9FE94
:1005C0000D204FE069462A48FFF7E3FE0C2049E082
:1005D0002060274D0024B03D254B2449443B244A4C
:1005E000A1F5AC7000F0D4F8012000F0A5FEE86998
:1005F000641C401CE4B2E861032CEDD300203E549F
:10060000401CC0B20828FAD306B0BDE8F0816946A4
:100610001748FFF7BEFE0E2024E08C20B871422060
:10062000F8711348009930380163082020610F20C9
:1006300018E0032002E0042000E0052000EB451054
:10064000C6E714200EE009200CE069460848FFF7D1
:10065000A0FE1C2006E069460548FFF79AFE15201B
:1006600000E0172040EA4510B2E700005C020020DD
:10067000B0000020014800F025BD000090030020DC
:1006800001681823CAB2103AB2FBF3F2054B6FF3BC
:100690000901032A9B5CC36500D9091D81650846D1
:1006A00070470000DA4B000810B5014600208B6946
:1006B0008A6A4FF0C07453B1B3F5005F15D072B1C0
:1006C000012A0CD0022A0AD0032A09D104E01AB167
:1006D000012A06D0022A03D1C96AC90100D5012026
:1006E00010BDC96AA142FAD010BD002AF7D0012A74
:1006F000F2D0022AF3D0032AF3D010BD70470000D5
:100700002DED028B00259FED188A01242046B0EEC6
:10071000480A02F0A4F8641CE4B2042CF6D90524BB
:10072000B0EE480A204602F0A6F8641CE4B2142C8D
:10073000F6D96D1CEDB2052DE7D372B65FF001045A
:10074000B0EE480A204602F08AF8641CE4B2042C99
:10075000F6D90524B0EE480A204602F08CF8641C55
:10076000E4B2142CF6D9E9E70000000090F820204C
:10077000012A07D0022A05D0416A41F48021416252
:1007800001207047006842690A43426100207047B7
:10079000F0B590F820500468A468012D05D0022D12
:1007A00003D0416A41F4802157E014F0406F01D139
:1007B000E5004FD5C4F301640125A5401D608D6897
:1007C0004FF4C0739DB1CE6835434E6845EAC60507
:1007D000066803EB0417F5514FF4C275076805EB83
:1007E00004150E697E51097D012905D009E00E88A6
:1007F000CD6845EA4655EBE701684E5946F48076E8
:100800004E511179D579567941EA056195792D04D2
:1008100045EA062529434FF4C676056806EB04161B
:10082000A9511178D57841EA0561957852782D045F
:1008300045EA022211434FF4C475026805EB041522
:100840005151006803EB0411425842F0010242503A
:100850000020F0BD416A41F4001141620120F0BD69
:1008600010B590F82020012A07D0022A05D0416A4D
:1008700041F480214162012010BD3B48D0F80022A4
:1008800042F00102C0F80022D0F8002222F47C528B
:10089000C0F80022D0F800224B6A42EA0322C0F8D6
:1008A00000220A7D02F01F0301229A40D0F81C3278
:1008B0009343C0F81C32CB69B3B9D0F80C329343E0
:1008C000C0F80C328C894B6864F31F434C6900EB11
:1008D000C404C4F840320C890B6864F31F434C69AC
:1008E00000EBC404C4F84432CB69012B16D1D0F814
:1008F0000C321343C0F80C320C884B6864F31F436E
:100900004C6900EBC404C4F840320C89CB6864F332
:100910001F434C6900EBC404C4F844328B69002BBC
:10092000D0F804320ED01343C0F804320B69002B08
:10093000D0F8143208D01343C0F81432096A0129E0
:1009400004D008E09343EFE79343F5E7D0F81C1297
:100950001143C0F81C12D0F8001221F00101C0F8B8
:100960000012002010BD000000640040704770B508
:1009700090F82040012C05D0022C03D0416A41F4AC
:10098000802128E0046809B32469A40720D04FF42B
:10099000D874056804EB01142D5915F00405956011
:1009A00005682D591AD0ED08556005682C5904F0DA
:1009B0000204D4604FF4DA74056804EB01142E5974
:1009C00006F00F06082E0CD308250DE0E468DCE7DE
:1009D000416A41F400114162012070BD6D0D156046
:1009E000E3E72D5905F00F05156105682D59C5F38D
:1009F0000725956105682C59240C54614FF4DC726D
:100A0000046802EB0112A4581C700468A458240A5C
:100A10005C700468A458240C9C700468A258120EE0
:100A2000DA704FF4DE72046802EB0112A4581C71F4
:100A30000468A458240A5C710468A458240C9C71AE
:100A40000468A258120EDA71006829B1016941F0F8
:100A500020010161002070BDC16841F02001C1602A
:100A6000F8E72DE9F05F0546006800244669D0F8F4
:100A700004908768D0F80CB0D0F810A0D0F8188097
:100A8000F10748D0F90714D001218160B80703D5D8
:100A9000284600F0B6FA0CE0780702D54FF400645F
:100AA00007E0380702D54FF4805402E0284600F0F2
:100AB000A7FAF80516D529684FF480708860B80544
:100AC00003D5284600F09FFA0CE0780502D544F4DF
:100AD000005407E0380502D544F4804402E028467B
:100AE00000F090FAF80316D529684FF4803088603A
:100AF000B80303D5284600F088FA0CE0780302D545
:100B000044F4004407E0380302D544F4803402E0A2
:100B1000284600F079FA300707D55FEACB6004D5A4
:100B20002968102044F40074C86070074FF008076B
:100B300007D55FEA0B7004D52868C760284600F027
:100B4000ABF9B00706D52868C068800702D02846F0
:100B500000F0A3F9700607D55FEACA6004D52968DA
:100B6000102044F480640861B00607D55FEA0A707B
:100B700004D528680761284600F090F9F00606D5EC
:100B800028680069800702D0284600F089F9B00380
:100B900008D55FEAC96005D5296810204860284655
:100BA00000F000FAF00307D55FEA097004D5286861
:100BB0004760284600F02AFA300446D55FEA4970BB
:100BC00040D5F00504D55FEAC87001D044F00104B7
:100BD000B00504D55FEA887001D544F002047005C1
:100BE00004D55FEA487001D544F00404300529D5E6
:100BF00018F0700F26D008F07000402815D006DCE1
:100C0000102809D020280AD0302816D10AE0502810
:100C10000ED0602811D10EE044F008040DE044F03D
:100C200010040AE044F0200407E044F0400404E02B
:100C300044F0800401E044F480742868816921F064
:100C400070018161296804204860002C05D0686A21
:100C5000204368622846FFF789FEBDE8F09F70B523
:100C6000040003D094F8200010B104E0012070BD0E
:100C7000204600F081F82068016841F00101016020
:100C800000F060FC0546052604E000F05BFC401B1C
:100C90000A2811D820684068C007F6D0206801688B
:100CA00021F00201016000F04DFC05460BE000F070
:100CB00049FC401B0A2806D9606A40F40030606293
:100CC00084F82060D2E7206840688007EFD4207E57
:100CD0000128206801683DD021F080010160607E1C
:100CE00001282068016838D021F040010160A07E11
:100CF00001282068016833D021F020010160E07EE6
:100D00000128206801682ED041F010010160207F89
:100D100001282068016829D021F008010160607F66
:100D200001282068016824D021F004010160D4E981
:100D300002010843D4E90412114308436168491EC3
:100D400008432168C86100206062012084F8200007
:100D5000002070BD41F08001C0E741F04001C5E7CF
:100D600041F02001CAE721F01001CFE741F008016E
:100D7000D4E741F00401D9E7F0B587B00446142167
:100D80006846FFF738FB3F4B3F48DFF8F4E019684F
:100D9000D4F800C03C4A022503260927103000245D
:100DA000491CF4452CD11960012907D1016841F093
:100DB00000710160006800F000700590106840F05C
:100DC00001001060106802AB00F0010005904FF4C4
:100DD000C050CDE9000583E8D00069462B4800F0FB
:100DE000BDFA00221146142000F01AFC142000F075
:100DF00009FC00221146152000F012FC15203BE0F2
:100E0000DFF88CE0F44539D1D0F800C04CF0806CAC
:100E1000C0F800C0D0F800C001290CF0806CCDF8FB
:100E200014C0196007D1016841F0007101600068C9
:100E300000F000700590106840F00200106010682B
:100E400002AB00F0020005904FF44050CDE90005E0
:100E500083E8D00069460F4800F080FA002211466E
:100E6000402000F0DDFB402000F0CCFB00221146CA
:100E7000412000F0D5FB412000F0C4FB07B0F0BDDD
:100E800000640040C80000203038024000000240EA
:100E9000006800400004024070477047704700003F
:100EA00070B53E4B3E4A0121FFF761FD3C483B4C8B
:100EB0003B4B0068B83C4109217000F01F01617094
:100EC000C0F34301617400F001013333334DA17469
:100ED000022828D0032804D0042833D005283FD185
:100EE00010E02E4802F0E8FF84ED1C0A281D02F0F5
:100EF000E3FF84ED1D0AE08A401CE0825878401C24
:100F000058702DE0254802F0D7FF84ED1E0A281DF9
:100F100002F0D2FF84ED1F0A608B401C6083D878FA
:100F2000401CD8701CE0288840BA00EE100AB8EEC9
:100F3000400A84ED0E0A208B401C20839878401CC8
:100F400098700DE0288840BA00EE100AB8EE400A0A
:100F500084ED0F0A608B401C60831879401C187167
:100F6000607801280FD0092817D10120FFF7E4FA93
:100F70000B492078543101EB800181ED000ABDE876
:100F80007040FFF7ABBA064920781C310A5C521C4E
:100F90000A54034A29793D32115470BDB80000202B
:100FA000740200207047000070B5044690F82000DD
:100FB000012804D0606A40F40020606218E002203A
:100FC00084F820002068016821F00101016000F030
:100FD000B9FA05460EE000BF00F0B4FA401B0A283B
:100FE00008D9606A40F400306062052084F820006F
:100FF000012070BD20684068C007EDD1606270BDFF
:1010000070477047704770477047704770472DE9C9
:10101000F0410446876D00F095FA064694F83500D5
:101020000025022806D08020606584F83450012015
:10103000BDE8F0812068016821F016010160206898
:10104000416921F080014161206C08B9A06C20B198
:101050002068016821F0080101602068016821F022
:10106000010101600CE000F06DFA801B052807D932
:1010700020206065032084F8350084F83450D7E7D9
:1010800020680068C007EED194F85C103F208840CB
:10109000B860012084F8350084F834500020C7E798
:1010A00090F83510022903D0802141650120704756
:1010B000052180F835100068016821F00101016008
:1010C000002070472DE9F84304464FF00009CDF8A1
:1010D000009063484FF41651A56D0068B0FBF1F71E
:1010E0002E6894F85C10082000FA01F131420FD00C
:1010F00021680A6852070BD50A6822F004020A60C8
:1011000094F85C108840A860606D40F00100606554
:1011100094F85C104FF0010808FA01F0304208D052
:1011200021684969090604D5A860606D40F0020095
:10113000606594F85C1004208840304208D0216833
:101140000968890704D5A860606D40F004006065F7
:1011500094F85C1010208840304218D0216809684B
:10116000090714D5A86020680168490304D5006800
:10117000000308D5A16C07E00168C90503D4016824
:1011800021F008010160216C09B12046884794F8DC
:101190005C1020208840304231D021680968C9069F
:1011A0002DD5A86094F8350005282068016806D080
:1011B000490347D5006800031DD4616C1CE021F091
:1011C000160101602068416921F080014161206CB5
:1011D00008B9A06C20B12068016821F00801016005
:1011E00094F85C103F208840A86084F8358084F82B
:1011F0003490216D1FE0E16B09B120468847606D96
:1012000000282BD0606DC00714D0052084F835006D
:101210002068016821F0010101600098401C0090E5
:10122000B84203D820680068C007F6D184F835803A
:1012300084F83490E16C002910D001B02046BDE85C
:10124000F04308470168C905D5D4016821F01001B1
:10125000016084F8358084F83490CCE7BDE8F883E9
:10126000D80000202DE9F041044600F06BF9064655
:101270005CB1022084F83500002584F834502068E1
:10128000016821F0010101600DE00120BDE8F0815D
:1012900000F058F9801B052805D92020606503203F
:1012A00084F83500F2E720680068C007F0D12268B2
:1012B000116820480140D4E901031843D4E90336FA
:1012C0003343184363691843A3691843E369184318
:1012D000236A18430843616A042903D1D4E90B1334
:1012E00019430843106020684069666A20F00701CE
:1012F00030460E43012704280CD1A06A0643E06A59
:1013000040B12046FFF7D0F920B14020606584F855
:101310003570BAE7206846612046FFF7B1F994F8C6
:101320005C203F2191408160656584F83570002024
:10133000ACE700003F8010F070B5044600F002F901
:101340000546601C02D004480078044400F0FAF816
:10135000401BA042FAD370BDCC0000202DE9F84F0D
:10136000DFF8ACA10022012403254FF00F090AF198
:10137000040BAAF1040E00BF0B6804FA02F6334016
:10138000B3426ED10F7907F00307012F01D0022F6E
:1013900016D187684FEA420805FA08FC27EA0C07CD
:1013A000D1F80CC00CFA08FC4CEA070CC0F808C0D5
:1013B0004768B7430E79C6F3001696403E43466031
:1013C0000E79F643B6070AD0C6684FEA420C05FA12
:1013D0000CF7BE438F6807FA0CF73743C7600E79E6
:1013E00006F00306022E10D1D60800EB8608D8F8C6
:1013F000206057074FEAD76C09FA0CF7BE430F6914
:1014000007FA0CF73743C8F8207006684FEA420C19
:1014100005FA0CF7BE430F7907F0030707FA0CF73C
:10142000374307604E6816F4403F6BD0394E37683B
:1014300047F480473760366822F0030706F4804699
:101440000096354E07EB060CDCF8086897074FEA64
:10145000177809FA08F7BE43304FB84202D1002787
:101460001FE04FE02E4FB84201D1012719E02D4F68
:10147000B84201D1022714E02B4FB84201D1032713
:101480000FE02A4FB84201D104270AE0284FB842A2
:1014900001D1052705E0274FB84201D1062700E01A
:1014A000072707FA08F73743CCF80878DAF800601E
:1014B0005746D1F804C09E435FEACC2C00D51E43AA
:1014C0003E60DBF800605F46D1F804C09E435FEAEF
:1014D0008C2C00D51E433E60DEF800607746D1F8C4
:1014E00004C09E435FEA8C3C00D51E433E60084F1B
:1014F000083F3E68D1F804C09E435FEACC3C00D56B
:101500001E433E60521C102AFFF436AFBDE8F88F30
:10151000083C0140443802400030014000000240D5
:101520000004024000080240000C0240001002408B
:1015300000140240001802400AB18161704709049A
:10154000FBE700000148806870470000CC000020E5
:10155000024881680278114481607047CC00002005
:101560000B4810B5016841F400710160016841F455
:1015700080610160016841F480710160032000F026
:101580006FF80F2000F006F800F024F8002010BDDE
:10159000003C024070B50D4D04464FF47A71287836
:1015A000B1FBF0F00A490968B1FBF0F000F004FC6F
:1015B00048B9102C07D200222146501E00F030F806
:1015C00000206C6070BD012070BD0000CC000020C8
:1015D000D80000200A4808B5016841F48041016044
:1015E000006800F4804000900548001F016841F049
:1015F00080510160006800F08050009008BD00003C
:1016000044380240002809DB00F01F02012191400C
:101610004009800000F1E020C0F800117047000090
:10162000F0B40E4B1B680C46C3F30223C3F107054D
:10163000042D00D90425191D072901D2002300E03B
:10164000DB1E012606FA05F1491E214099409E4005
:10165000761E16403143F0BC01F04EBD0CED00E0AB
:10166000064900F0070208684FF6FF03184040EAF9
:101670000220034A10430860704700000CED00E0B0
:101680000000FA052DE9F8431748016841F0805140
:1016900001600068154F00F08050012600903E6404
:1016A000FFF750FF05464FF47A78114C05E000BF74
:1016B000FFF748FF401B40450DD86068C003F7D5D1
:1016C0007E64FFF73FFF0546464607E0FFF73AFF17
:1016D000401BB04202D90320BDE8F8836068800354
:1016E000F4D50020F8E700004038024000000E4228
:1016F000007000402DE9F0470E46050065D0DFF888
:101700001481D8F80000F7B200F00F00B04207D201
:1017100088F80070D8F8000000F00F00B04254D1F3
:1017200028683D4C810712D5400703D5206840F456
:10173000E05020602878000703D5206840F460401E
:1017400020602068A96820F0F00008432060287815
:10175000C0072DD0304968680839012812D0022806
:1017600013D0032811D00968890700292DDA2168D0
:1017700021F0030101432160FFF7E4FE814641F2BD
:10178000883A0EE009688903EFE709688901ECE708
:10179000FFF7D8FEA0EB0901514502D90320BDE8AF
:1017A000F0872068696800F00C00B0EB810FEFD182
:1017B000D8F80010404601F00F01B14207D9077078
:1017C000006800F00F00B04201D00120E7E7287860
:1017D000400705D52068E96820F4E0500843206000
:1017E0002878000706D52068296920F4604040EA7F
:1017F000C100206000F038F82168084AC1F30311E5
:10180000515CC8400649086006480068FFF7C2FE00
:101810000020C4E7003C024008380240E24B0008C8
:10182000D8000020D000002004480549006809685D
:10183000044AC1F38221515CC8407047D80000209F
:1018400008380240F24B000804480549006809685E
:10185000044AC1F34231515CC8407047D8000020AF
:1018600008380240F24B0008224810B5006810F01A
:101870000C02214815D04110042A11D01D4C241F00
:10188000082A0FD00C2A0CD12268236802F03F02EC
:101890005B0221D52068C0F38810A0FB010120E085
:1018A000084610BD2268236802F03F025B0205D59E
:1018B0002068C0F38810A0FB010104E02168C1F397
:1018C0008811A1FB00010023FEF7ECFC2168C1F3A5
:1018D0000141491C49000AE02168C1F38811A1FBBC
:1018E00000010023FEF7DEFC2168C1F30271B0FBAA
:1018F000F1F010BD083802400024F4002DE9F84F43
:1019000004007DD0DFF878B32078ABF10407C0077E
:10191000A7F1040550D0DBF800105846C1F381014F
:1019200001290FD00168C1F38101022902D1396870
:10193000490207D40068C0F38100032809D1386840
:10194000400206D52868800336D560680028D8D0C4
:1019500032E06068B0F5803F10D0B0F5A02F286865
:1019600010D020F480302860286820F4802028607F
:101970006068A0B1FFF7E6FD06460CE0286840F479
:101980008030F4E740F480202860F7E7FFF7DAFDC5
:10199000801B642876D828688003F7D50CE0FFF711
:1019A000D1FD064605E000BFFFF7CCFD801B642893
:1019B000F0D828688003F7D42078DFF8C892800731
:1019C0004FF0000A44D5DBF80010584611F00C0F18
:1019D0000FD00168C1F38101022902D1396849029F
:1019E00007D50068C0F3810003280AD13868400297
:1019F00007D42868800715D5E068012800D111E0D8
:101A00003AE1E068B0B10120C9F80000FFF79AFDA3
:101A1000064604E0FFF796FD801B0228BAD8286826
:101A20008007F7D52868216920F0F80040EAC10056
:101A300028600DE0C9F800A0FFF784FD064604E029
:101A4000FFF780FD801B02281CD828688007F7D488
:101A50002078000727D5DFF828828B48616908F1D4
:101A60006C0881B101210160FFF76CFD064604E0BE
:101A7000FFF768FD801B022804D8D8F80000800713
:101A8000F6D510E089E0C0F800A0FFF75BFD064640
:101A900005E000BFFFF756FD801B02287DD8D8F86F
:101AA00000008007F6D42078400769D574484FF0CD
:101AB000000838300068C0000BD471483830016825
:101AC00041F08051016000684FF0010800F0805043
:101AD00000906E4E3068C00511D4306840F48070BC
:101AE0003060FFF72FFD009006E000BFFFF72AFDF2
:101AF0000099401A022850D83068C005F6D5604ECB
:101B0000A068683601280FD00528306810D020F072
:101B100001003060306820F004003060A068B8B187
:101B2000FFF710FD00900FE0306840F00100F4E78F
:101B300040F004003060F7E7FFF704FD0099411A18
:101B400041F28830814264D830688007F4D50EE0D5
:101B5000FFF7F8FC009007E0FFF7F4FC0099411A4A
:101B600041F28830814254D830688007F4D4B8F10B
:101B7000000F05D042483830016821F080510160E3
:101B8000A069A8B3DBF80010C1F38101022947D096
:101B90000228C9F860A005D000E03AE0FFF7D2FCC7
:101BA000044639E0FFF7CEFC064604E0FFF7CAFC26
:101BB000801B02282DD828688001F7D4F4E907019A
:101BC0000843E168324A490802EB0141A26841EA50
:101BD00082110843217C40EA0160217D40EA0170C6
:101BE00038600120C9F86000FFF7ACFC044606E04D
:101BF00044E000BFFFF7A6FC001B022809D82868B4
:101C00008001F7D53AE000BFFFF79CFC001B0228DB
:101C100002D90320BDE8F88F28688001F4D42DE0B4
:101C20000128F7D03868E26900F48001914223D19D
:101C3000226A00F03F0191421ED147F6C071626AEC
:101C40000140B1EB821F17D1A26A4FF0FF3300F4BD
:101C5000403103EB5202B1EB024F0DD194F82C202E
:101C600000F07061B1EB026F06D194F8301000F013
:101C7000E040B0EB017F01D00120CBE70020C9E7B5
:101C80000838024000004742800E47420070004082
:101C90000000FFFF70B5040009D0606A002540B164
:101CA00025616561A56294F8510040B10CE0012006
:101CB00070BD6068B0F5827FF4D0E561F2E784F82A
:101CC0005050204600F044F8022084F8510020686B
:101CD000016821F040010160A088218900F4827030
:101CE00001F404410843A18901F400610843217C07
:101CF00001F002010843217D01F001010843218B1D
:101D000001F400710843217F01F03801084394F881
:101D1000201001F080010843218D01F40051084397
:101D200021680860A069042101EA104094F8241099
:101D300001F010010843216848602068C16921F45E
:101D40000061C1616565012084F85100002070BD0B
:101D500010B586B0044614216846FEF74CFB1349C3
:101D60002068884220D112480021026842F4805243
:101D70000260006800F4805005900D481438026835
:101D800042F001020260006800F001000590E020CE
:101D900000900220CDE9010103200390052004906A
:101DA00069460448FFF7DAFA06B010BD003001407A
:101DB000443802400000024010B5401EB0F1807F60
:101DC00001D3012010BD4FF0E02460610F216017A6
:101DD00001F092F90020A06107202061002010BDD1
:101DE0007047704710B5040003D094F83D0010B15F
:101DF00007E0012010BD002084F83C00204600F0E0
:101E00001FF8022084F83D00211D206800F060FFCB
:101E1000012084F8460084F83E0084F83F0084F8EE
:101E2000400084F8410084F8420084F8430084F8BC
:101E3000440084F8450084F83D00002010BD0000F7
:101E400008B500680B49884212D10B48016841F47B
:101E5000807101600068002200F4807000901146DB
:101E60002D20FFF7DDFBBDE808402D20FFF7CABBA2
:101E700008BD0000002000404038024070472DE9B6
:101E8000F04104460068C66805694FF00007A907DD
:101E900013D5B10711D5F91E016101202077206803
:101EA00080698007204602D0FFF7E8FF04E000F0D9
:101EB0007EF8204600F07CF82777680716D5700773
:101EC00014D521686FF00400086102202077206893
:101ED000806910F4407F204602D0FFF7CFFF04E076
:101EE00000F065F8204600F063F82777280715D53D
:101EF000300713D521686FF00800086104202077AF
:101F00002068C0698007204602D0FFF7B7FF04E0D1
:101F100000F04DF8204600F04BF82777E80616D57C
:101F2000F00614D521686FF01000086108202077B2
:101F30002068C06910F4407F204602D0FFF79EFF62
:101F400004E000F034F8204600F032F82777E80784
:101F500008D0F00706D021686FF001000861204624
:101F600000F027F8280608D5300606D521686FF05E
:101F7000800008612046FFF733FF680608D5700629
:101F800006D521686FF040000861204600F012F885
:101F9000A8060AD5B00608D521686FF020000861B0
:101FA0002046BDE8F041FFF71CBFBDE8F081704757
:101FB000704770477047704770470000F8B5016878
:101FC00004460868CA684B6910F00F0F4FF000050F
:101FD00059D003F0010602F49077374365D0C1076A
:101FE00005D0D10503D5616C41F001016164410761
:101FF00005D5D90703D0616C41F002016164810706
:1020000005D5D90703D0616C41F004016164010773
:1020100007D502F02001314303D0616C41F0080183
:102020006164616C00293AD0800604D5900602D51F
:10203000204600F046FF20684069616CC0F38010C4
:10204000090700D460B3204600F014FF20684069FF
:10205000400621D52068143050E8001F21F04001CF
:1020600040E80012002AF5D1E06BA8B16E49016585
:10207000E06BFFF715F8002811D0E06B016D01B09F
:10208000BDE8F040084783060FD593060DD52046DE
:10209000BDE8F84000F015BF2046FFF78DFFF8BD02
:1020A0002046FFF789FF6564F8BD266B2023012ECB
:1020B0007DD1C6067BD5D60679D5086848680090DC
:1020C00048694FF00206400641D5E16B0868406858
:1020D0000004000CE8D0A28D8242E5D9E085C869F1
:1020E000B0F5807F2DD020680C3050E8001F21F41F
:1020F000807140E80012002AF5D12068143050E8C1
:10210000001F21F0010140E80012002AF5D12068EB
:10211000143050E8001F21F0400140E80012002A6E
:10212000F5D184F84230256320680C3050E8001F58
:1021300021F0100140E80012002AF5D1E06BFEF713
:1021400066FF6663A08DE18D401A81B22AE0A08D02
:10215000E18D401A81B2E08D0028A5D00029A3D0DE
:1021600022680C3252E8000F20F4907042E8000719
:10217000002FF5D12068143050E8002F22F0010222
:1021800040E80027002FF5D184F84230256320680D
:102190000C3050E8002F22F0100240E80023002B02
:1021A000F5D166632046FFF706FFF8BDFFE7050699
:1021B0002BD5150629D594F841002128F5D1A06822
:1021C000B0F5805F01D12069B0B1206A411C216265
:1021D000216800784860E08C401E0004000CE08418
:1021E000E3D12068C16821F08001C1602068C16826
:1021F00041F04001C160D8E7206A0088C0F30800C0
:102200004860206A801C2062E5E74006CDD5500674
:10221000CBD5CA68204622F04002CA6084F841301B
:1022200000F0EEF8C1E70000652E000870B504006C
:1022300004D094F84100002510B106E0012070BDE3
:1022400084F84050204600F023F8242084F8410010
:102250002068C16821F40051C160204600F092FE60
:102260002068016921F4904101612068416921F0F1
:102270002A0141612068C16841F40051C160656470
:10228000202084F8410084F842006563002070BD7E
:102290002DE9F04186B0064614216846FEF7ABF8FA
:1022A0004148DFF800C1336800253F491038032456
:1022B0000227082263451FD10B6843F400230B60FB
:1022C000096801F400210591016841F001010160F4
:1022D0000068CDE9004700F00100CDE90420CDE918
:1022E000025469463148FFF739F80022114634207C
:1022F000FFF796F9342050E0DFF8B4C063454ED1C3
:102300000B6843F480130B60096801F48011059198
:10231000016841F004010160016801F004010591C8
:10232000016841F0080101600068CDE9025400F045
:10233000080005904FF48050CDE9000790466946AB
:1023400004921C48FFF70AF80420CDE90007CDE904
:1023500002546946CDF810801748FEF7FFFF184C6D
:10236000164820604FF0006060604020C4E902051C
:102370000001C4E90405A561E561256220466562A6
:10238000FEF770FF08B1FEF7BBF9B46300221146F7
:102390003520A663FFF744F93520FFF733F906B07F
:1023A000BDE8F081004C004040380240000002408F
:1023B0000050004000080240000C0240B86002409B
:1023C0009003002090F84230202B01D0022070476B
:1023D00021B11AB10023036300F05ABE01207047F7
:1023E00010B5082204490548FFF7ECFF0248A83859
:1023F000818A491C818210BDA8000020CC010020E8
:102400007047FEE70E49A1F1A8000A78AA2A10D168
:10241000CA79FF2A0DD14A7882708A7802B9C278C7
:10242000C270CA7842710A79C2714A790271897997
:1024300081714179002901D101214171704700006A
:10244000A80000209FED091ADFED070AC0EE011A6F
:102450009FED071A61EEA00A80EE810ADFED050A02
:1024600020EE200A7047000000007A4414E7AA3FDB
:10247000000061450000E44230B517488BB01549B3
:1024800001600C210024C0E901144FF42021C0E9AF
:1024900003414FF4001101254161057644768476AD
:1024A000C57604774477FEF7DAFB08B1FEF728F922
:1024B00004940E20CDE908500594019402940094F0
:1024C000694603940448CDE90645FEF7C9F90BB007
:1024D00030BD000000640040DC00002030B517482B
:1024E0008BB0154901600C210024C0E901144FF4A0
:1024F0002021C0E903414FF4001101254161057617
:1025000044768476C57604774477FEF7A8FB08B155
:10251000FEF7F6F8009401940895029405A90E20A0
:10252000CDE9034581E83100099069460348FEF78B
:1025300097F90BB030BD0000006800400401002096
:102540002DE9F04387B014216846FDF754FF374862
:102550000024016841F004010160016801F00401F8
:102560000591016841F080010160016801F080017E
:102570000591016841F001010160016801F001016C
:102580000591016841F002010160016801F002015A
:102590000591016841F0080101600068DFF8909042
:1025A00000F008004FF403550590002229464846E4
:1025B000FEF7C2FF1F4F002210213846FEF7BCFF76
:1025C000DFF8748040F20636002231464046FEF7BE
:1025D000B3FF00950125CDE90154694648460394AF
:1025E000FEF7BCFE0420CDE900046946384602949B
:1025F000FEF7B4FE10200090CDE90154694638463C
:102600000394FEF7ABFE0096CDE9015469464046BF
:102610000394FEF7A3FEE802CDE9000469464846AC
:102620000294FEF79BFE07B0BDE8F083303802400D
:102630000008024000000240000402400E4810B5AD
:102640000C4901604FF48271416000218160C160DA
:102650004FF400720161C0E90512C161016241627B
:1026600081620A21C162FFF715FB002801D0FEF745
:1026700047F810BD003001402C01002010B5194C66
:102680009FED190AA078012818D084ED080A00BF30
:10269000D4ED090A94ED080AF4EE400AF1EE10FABE
:1026A0000BD00C2000F0E7F894ED080A0D2000F0A4
:1026B000E2F894ED080A84ED090A10BD217A207928
:1026C0008142E5D020B1012806D0022802D106E0DF
:1026D00084ED080A2072DBE7B3EE0E0AF8E7BBEEE2
:1026E0000E0AF5E70000002000000000FEE7FEE70C
:1026F00070B5544C2DED028BE0789FED538A002885
:1027000079D0A17A002976D0A178012973D000EB85
:10271000800000EE100A4D49F8EE400A10EE900AD3
:10272000C4ED0B0A884201DDF3EE040AC4ED0B0A86
:1027300000F03AFB61790020012901D06064206437
:10274000A064D4ED100A94ED0B0AF8EEE00A70EEE6
:10275000200A70EE880AFCEEE00A10EE900AC1B280
:10276000E172D4ED110AF8EEE00A30EE200ABCEE78
:10277000C00A10EE100A2073607B814202D900F17A
:10278000010002E015D2A0F10100C0B200EE100A73
:10279000E0734FF002034FF00402B8EE400A19460E
:1027A0004FF00100FDF7E4FE0120FEF7C5FDE07BE0
:1027B0006073217BA07B81421ED900F1010020744F
:1027C0004FF00205207C4FF0020300EE100A4FF09C
:1027D00004021946B8EE400A2846FDF7C9FE01205A
:1027E000FEF7AAFD6D1CEDB2042DEBD3207CA07387
:1027F000BDEC028B70BD16E0FAD2401E207402259B
:10280000207C022300EE100A04221946B8EE400A8A
:102810002846FDF7ADFE0120FEF78EFD6D1CEDB2E2
:10282000042DEDD3E2E70124B0EE480A204600F083
:1028300016F80120FEF780FD641CE4B2042CF3D3EB
:10284000D6E7000000000020000000000000A041CA
:1028500070477047022304220B21FDF789BE08B19F
:10286000032801D1B1EE400A02230422B1EE400A4E
:102870000121FDF77DBE022304220021FDF778BE71
:102880000C4A10B511630C4904220A4B0A6100225C
:102890008A60CA60072202EB4010143B086003F113
:1028A0004402A1F5AC70FDF773FFBDE810401420A1
:1028B000FEF742BD800000205C02002070B5BC4CD9
:1028C0002DED068BE07906465A3800D5404201F0DE
:1028D0001EFEB74D80359FEDB71B53EC112B01F059
:1028E0007DFE41EC100B592E85ED000B0AD29FEDB9
:1028F000B31B51EC100B53EC112B01F081FCC5E91B
:10290000000106E0593E032E03D29FEDAE0B85ED8C
:10291000000B9FEDAE8B95ED000B53EC182B51EC9B
:10292000100B01F05BFE41EC100B00F0F5FB53ECDB
:10293000182B51EC100B01F063FC41EC100B85EDF2
:10294000000B9FEDA4AB53EC1A2B01F047FE9FED5B
:10295000A38B53EC182B01F053FC41EC100B00F04F
:102960004BFC53EC102B9FED9F9B51EC190B01F08E
:1029700047FC01F05FFBE06495ED000B53EC1A2B74
:1029800051EC100B01F02AFE53EC182B01F038FC2F
:1029900041EC100B00F094FC53EC102B51EC190B94
:1029A00001F02EFC94ED138A41EC190B18EE100A7D
:1029B00002F098F853EC192B01F0AAFF01F03AFB52
:1029C00000EE100A84ED140AE679DFED880A592E2C
:1029D00004D238EE400A30EE600A08E05B2E04D9DB
:1029E00038EE400A30EE200A01E09FED810ADFED6B
:1029F000810A80EE208A84ED158A9FED7F0B53ECCF
:102A0000102B95ED000B51EC100B01F0E7FD9FED45
:102A10007C1B53EC112B01F0F3FB01F00BFB00EEE0
:102A2000100A592E84ED160A01D3B1EE400A84ED46
:102A3000160A84ED170AB1EE400A84ED180AD4EDA7
:102A40000B0AB3EE081A80EE810A10EE100A02F0AB
:102A500049F841EC100B85ED080B9FED6B1B53EC17
:102A6000112B01F0BBFD41EC190B18EE100A02F01E
:102A700039F853EC192B01F0C3FB41EC190B85ED30
:102A8000029BDFED638A38EE680A10EE100A02F04E
:102A900029F853EC192B01F0B3FB9FED5E9B53EC2F
:102AA000192B01F09BFD41EC100B85ED040B01F09F
:102AB000C1FA00EE100AFFF7C5FCD4ED0B0A30EEA8
:102AC000600A10EE100A02F00DF8C5E9040194ED59
:102AD000150A30EE280A10EE100A02F003F895ED00
:102AE000021B53EC112B01F08BFB53EC192B01F063
:102AF00075FD41EC100B85ED060B01F09BFA00EE25
:102B0000100AFFF79FFCD4ED0B0A30EE600A10EEBE
:102B1000100A01F0E7FF41EC180B85ED068BE07918
:102B2000592809D295ED040B51EC100B01F0C0FCB3
:102B3000206451EC180B0AE05B280CD951EC180BFF
:102B400001F0B6FC206495ED040B51EC100B01F084
:102B5000AFFC606402E0002060642064D4ED190AD8
:102B600094ED170AF4EE400AF1EE10FA09D00720AE
:102B7000FFF770FE0120FEF7DFFB94ED170A84EDEE
:102B8000190AD4ED1A0A94ED180AF4EE400AF1EE8F
:102B900010FA09D00820FFF75DFE0120FEF7CCFBFC
:102BA00094ED180A84ED1A0ABDEC068B70BD000086
:102BB00000000020C173EFE192E3D83F9A99999900
:102BC000999906400000000000000000000000008D
:102BD0000000244050455254FB21094000000000F1
:102BE000008066400000000000908A400000AB4476
:102BF0000000000000007A44000000000000534084
:102C00000000000000807640EE7C3F355EBAD13F88
:102C1000A01AAF3FCDCCCCCCCCCC0C40FEF798BCAE
:102C200030B593B034216846FDF7E5FB14210DA8BB
:102C3000FDF7E1FB1D480025016841F0805101606E
:102C4000006800F0805012901948016841F440413A
:102C500001600068022400F44040129001200090BE
:102C6000000401908001CDE9064004200890B420C2
:102C7000CDE909040B9468460C94FEF73FFE88B931
:102C8000FEF700FD70B90DA90F2081E831004FF467
:102C9000A0501090E002119005210DA8FEF72AFD2A
:102CA000002801D0FDF72CFD13B030BD40380240A4
:102CB000007000400248016841F4700101607047F3
:102CC00088ED00E00148FFF7DAB800008401002039
:102CD000F0B50268294C2A4D2A4E2B4F2B4B4FF052
:102CE000804CA04209D0604507D0A84205D0B04230
:102CF00003D0B84201D0984204D122F0700E4A6845
:102D000042EA0E02A0421BD0604519D0A84217D05B
:102D1000B04215D0B84213D0984211D01C4DA842F1
:102D20000ED01C4DA8420BD01B4DA84208D01B4D05
:102D3000A84205D01A4DA84202D01A4DA84203D18C
:102D400022F44075CA682A434D6922F080022A4362
:102D500002608A68C2620A688262A04201D0984218
:102D600001D109690163012141610169C90703D0EA
:102D7000016921F001010161F0BD00000000014086
:102D80000004004000080040000C00400004014026
:102D9000004001400044014000480140001800404C
:102DA000001C00400020004070B5264DA878022885
:102DB00011D1297A287981420DD038B129460128CC
:102DC00091ED0A0A04D0022804D124E09FED1E0AE6
:102DD00085ED0C0A2872D5ED0D0A95ED0C0AF4EE7E
:102DE000400AF1EE10FA15D068794FF0010402287C
:102DF00015D000BF95ED0C0A2046FFF730FD0120ED
:102E0000FEF79AFA641CE4B2042CF3D395ED0C0A95
:102E100085ED0D0A70BDB1EE400AD9E764B195EDBC
:102E20000C0A00BF85ED0C0A2046FFF718FD641C54
:102E3000E4B2042CF2D3E9E795ED0C0AB1EE400AB6
:102E4000F0E7000000000020000000000148FFF74C
:102E5000B5B80000CC0100200148FFF7AFB8000072
:102E60001402002010B5806B0021C185C184FFF7DA
:102E7000A3F810BD01680C3151E8002F22F49072C4
:102E800041E80023002BF5D10168143151E8002FEF
:102E900022F0010241E80023002BF5D1016B01294A
:102EA00009D101680C3151E8002F22F0100241E8ED
:102EB0000023002BF5D1202180F84210002101636E
:102EC000704708B590F84210222901D0022008BDB1
:102ED00082684FF480539A4201D1016921B1816A1D
:102EE0009A421BD04AB10AE00268816A5268C2F372
:102EF00008020A80816A891C08E0026972B10268CE
:102F0000526802F07F020A70816A491C8162C18D99
:102F1000491E0904090CC18503D01BE002685268F0
:102F2000F1E70168CA6822F02002CA600168CA6835
:102F300022F48072CA6001684A6922F001024A6183
:102F4000202180F8421000214163026B012A03D046
:102F5000FFF746FA002008BD016301680C3151E813
:102F6000002F22F0100241E80023002BF5D1016868
:102F70000A68D20602D50A6849680091818DFFF778
:102F80001AF8E7E770B5044600680169E26821F4C1
:102F90004051114301612169A068E26908436169F8
:102FA000114308432168CA6849F20C639A430243FB
:102FB000CA6020684169A26921F4407111434161EE
:102FC00031492068884202D03049884202D1FEF758
:102FD0003BFC01E0FEF728FCE2690023192164258F
:102FE0003226B2F5004F626828D0A0FB0101930F92
:102FF0009200FDF757F90146B0FBF5F06FF01802AB
:10300000504301EB800006EB0010B0FBF5F000F040
:10301000F002B1FBF5F002EB0012B1FBF5F06FF03E
:103020001803584301EB800006EB0010B0FBF5F0ED
:1030300000F00F0021681044886070BDA0FB010102
:1030400092185B41FDF72EF90146B0FBF5F0020145
:10305000B1FBF5F06FF01803584301EB800006EB6D
:10306000C000B0FBF5F000F0F80002EB4002B1FB4D
:10307000F5F0584301EB800006EBC000B0FBF5F023
:1030800000F00700D6E700000010014000140140E6
:1030900081628285C28500214164222180F842102C
:1030A000016921B10168CA6842F48072CA6001688E
:1030B0004A6942F001024A610068C16841F020019A
:1030C000C16000207047FEE703B4019841000098FA
:1030D00050EAC12018BF04204A0D18BF40F001007B
:1030E00040F2FF72B2EB515F08BF40F002000128CE
:1030F00008BF052002B070470907090E002804DB4D
:1031000000F1E02080F80014704700F00F0000F19B
:10311000E02080F8141D704710B52DED020B2DED49
:10312000088B84B09DED0C0B51EC100B01F08AFB69
:1031300041EC180B9DED0C0B53EC182B51EC100BC4
:1031400001F0E6FB41EC190B0D989FED290B10F0F7
:10315000004F53EC102B51EC190B9FED21AB9FED61
:1031600022BB0ED001F0FEF90ED953EC1B2B51EC13
:10317000190B01F031FB1CD214E000BF41EC180B1D
:1031800017E001F0EFF906D253EC1A2B51EC180BB3
:1031900001F0BEFBF2E753EC1B2B51EC190B01F0D5
:1031A0001BFB06D853EC1A2B51EC180B00F074FFE4
:1031B000E4E78DED028B9DED0C0B18EE901A10EEEE
:1031C000900A8DED000B61F31E0003909DED020B44
:1031D00004B0BDEC088B02B010BD00000000000080
:1031E000000000000000F03F000000000000E03F91
:1031F000000000000000E0BF10B52F499FED2C1B20
:103200002DED020B84B0059820F000408842DCBF11
:1032100000209DED040B32DD2849884209D1049835
:1032200040B94FF00100FDF715F900F025FE06B09A
:1032300010BD05DB9DED040B00F012FE06B010BDC5
:1032400068469DED040B00F07BF810F0030011D0F0
:10325000012818D09DED021B9DED000B02281AD00D
:1032600000F08AFA51EC100B00F0D8FE06B041ECE9
:10327000100B10BD9DED021B9DED000B012000F019
:10328000AFFB06B010BD9DED021B9DED000B00F0E5
:1032900073FA06B010BD012000F0A2FB51EC100B38
:1032A00000F0BCFE06B041EC100B10BD00000000A9
:1032B0000000000000000000FB21E93F0000F07F5B
:1032C00010B51D499FED1A1B2DED020B84B005981A
:1032D00020F000408842DCBF01209DED040B21DD81
:1032E0001649884209D1049840B94FF00100FDF712
:1032F000B1F800F0C1FD06B010BD05DB9DED040B7B
:1033000000F0AEFD06B010BD68469DED040B00F068
:1033100017F800F001000121A1EB40009DED021B18
:103320009DED000B00F0F4FB06B010BD00000000A6
:103330000000000000000000FB21E93F0000F07FDA
:103340002DE9F14F04462DED020B2DED088B8AB0CF
:103350009FEDE70B80ED020B139EE74826F000453A
:1033600085420ADC9DED120B002084ED000B0AB0B3
:10337000BDEC088B03B0BDE8F08FE0489FEDE0ABFB
:103380009FEDE1BBA84247DDE14F9FEDE39B9FED41
:10339000E48B9DED120B53EC1A2B51EC100B002E0D
:1033A0001CDD01F0B5FA41EC100BBD4208D053EC26
:1033B0001B2B51EC100B01F0ABFAC4E900010BE040
:1033C00053EC192B51EC100B01F0A2FA53EC182B13
:1033D00001F09EFAC4E900010120C8E700F05CFE9C
:1033E00041EC100BBD4208D053EC1B2B51EC100BE1
:1033F00000F052FEC4E900010BE053EC192B51EC34
:10340000100B00F049FE53EC182B00F045FEC4E908
:1034100000014FF0FF30AAE7C348A84279DB9DEDD9
:10342000120B51EC100B00F052FD41EC180B9FED0C
:10343000C00B53EC102B01F0D1F89FEDBF1B53ECE8
:10344000112B00F029FE01F033F8074601F05FF878
:1034500041EC190B53EC1A2B01F0C0F853EC182B6C
:1034600001F04AFA41EC180B53EC1B2B51EC190BF1
:1034700001F0B4F8DFF8C8A241EC100B4FEA155880
:103480000125FA4453EC102B51EC180B01F040FAD3
:10349000032DC4E900013DD0C1F30A5005EB4511ED
:1034A000A8EB00001139814234DA0AEB051BB0EEBB
:1034B00048AA9BED000BF0EE68AA53EC102B51ECE0
:1034C000190B01F08BF841EC1B0B51EC1A0B53EC70
:1034D0001B2B01F01DFA41EC180B51EC1A0B53ECAD
:1034E000182B01F015FA53EC1B2B01F011FA9BED90
:1034F000020B41EC1A0B53EC102B51EC190B01F0A1
:103500006DF853EC1A2B01F003FA41EC100B6D1C13
:10351000B8E70EE0002EA8BF3846BFF628AF94EDFE
:10352000000B51EC100B00F079FDC4E9000178426A
:103530001DE7C6F3130040F4801EC6F30A50A0F244
:10354000F530471100F01F05C5F12000DDF848B047
:1035500008900020069007900520EC467949002D40
:1035600007EB0002794408BF51F8221009D051F846
:10357000223001EB8201AB404A68089922FA01F13E
:103580001943A1FB0E26A1FB0B131A449A4234BF28
:103590000123002303EB06080CEB8003D3E901A60B
:1035A0000E448E4234BF0121002192448A4411B15D
:1035B000924502D903E0924501D2012100E00021A9
:1035C000C3E901A641444CF82010011EA0F10100FE
:1035D000C4DC029800F10050850F0298DDE9036712
:1035E0008000DDF8148000F092FF41EC1A0B3046A9
:1035F00000F0A4FF9FED541B53EC112B00F0EEFFE5
:1036000041EC1B0B384600F099FF9FED511B53EC2A
:10361000112B00F0E3FF41EC180B404600F08EFF49
:103620009FED4D1B53EC112B00F0D8FF41EC190B13
:1036300051EC180B53EC192B00F02EFD53EC1B2B07
:1036400000F02AFD53EC1A2B00F026FDCDE908010D
:10365000002008909DED080B53EC1A2B51EC100B39
:1036600001F056F953EC1B2B01F052F953EC182BD7
:1036700001F04EF953EC192B01F03EF99FED381B88
:1036800053EC112B00F0AAFF9FED370B41EC180B08
:1036900053EC102B9DED080B51EC100B00F09EFF2E
:1036A00053EC182B00F0F8FC9FED310B41EC180B9C
:1036B00053EC102B9DED080B51EC100B00F08EFF1E
:1036C00053EC182B00F0E8FC41EC100B139810F0B1
:1036D000004F06D06D4251EC100B00F09FFC41EC06
:1036E000100B284684ED000B41E6000000000000AE
:1036F0000000000000000000FB21E93F7CD90240EF
:1037000000004054FB21F93F3163621A61B4D03D9F
:10371000FB21F93F000000000000601A61B4D03DB9
:103720007370032E8A19A33BFB213941000000006E
:1037300083C8C96D305FE43F000000000000E03F37
:10374000AA170000F8160000000000000000103E5C
:10375000000000000000103C000000000000103AD3
:10376000182D4454FB21F93D3326A611460B113C7C
:1037700000000054FB21F93D10B52DED040B2DED9B
:10378000088B82B0B0EE419AF0EE619A0B9820F06F
:1037900000449FED4BABB4F1795F11DA9DED0A0B5C
:1037A00051EC100B00F084FE002801BFB0EE4A0A75
:1037B000F0EE6A0A02B0BDEC088B04BF04B010BD85
:1037C0009DED0A0B53EC102B51EC100B00F006FF93
:1037D00041EC180B3C480621B0EE480AF0EE680AAE
:1037E000784400F081F853EC182B51EC100B00F0EA
:1037F000F5FE9DED0A0B41EC1B0B53EC192B51EC24
:10380000100B00F0EBFE41EC190B53EC1B2B51ECB1
:10381000180B00F0E3FE53EC192B01F079F89FED43
:103820002C0B41EC190B53EC102B51EC180B00F046
:10383000D5FE41EC100B2848844210DA53EC192BCA
:1038400051EC100B01F064F853EC1A2B01F054F812
:1038500041EC100B02B0BDEC088B04B010BD1F484A
:10386000A042BCBF9FED1E1B8DED001B06DBA4F527
:1038700000100190002000909DED001B51EC100BFA
:1038800053EC112B01F044F89DED000B41EC180BAB
:1038900053EC102B51EC1A0B01F03AF841EC1A0BD7
:1038A00053EC192B51EC180B01F032F853EC1A2B96
:1038B00001F022F841EC100BCCE700000000000002
:1038C000000000000000F03F1C1400000000000099
:1038D000000000000000E03F3333D33F0000E93F29
:1038E000000000000000D23F70B504462DED028BB1
:1038F0004D1E00EBC500B0EE408AF0EE608A90ED00
:10390000000B35F0060017D053EC182B51EC100BC0
:1039100000F064FE41EC100B6D1E04EBC50090ED51
:10392000001B51EC100B53EC112B00F0B5FB41ECDC
:10393000100B35F00600E7D1022D36D0042D1CD037
:10394000062D1CBFBDEC028B70BD53EC182B51EC47
:10395000100B00F043FE94ED0A1B53EC112B00F00A
:103960009BFB53EC182B00F039FE94ED081B53EC35
:10397000112B00F091FB41EC100B53EC182B51EC88
:10398000100B00F02BFE94ED061B53EC112B00F0F6
:1039900083FB53EC182B00F021FE94ED040B53EC49
:1039A000102B00F079FB41EC100B53EC182B51EC71
:1039B000100B00F013FE94ED021B53EC112B00F0E2
:1039C0006BFB53EC182B00F009FE94ED001B53EC3D
:1039D000112B00F061FBBDEC028B41EC100B70BDB4
:1039E00031B504462DED040B2DED0A8BB0EE41BA36
:1039F000F0EE61BA0B989DED0A0B20F00040B0F19B
:103A0000795F0DDA51EC100BFFF75EFB042808BF5D
:103A100000F042FA9DED0A0BBDEC0A8B05B030BDFB
:103A200053EC102B51EC100B00F0D8FD41EC180BAF
:103A30009DED0A0B53EC182B51EC100B00F0CEFD52
:103A400041EC190B2C48B0EE480AF0EE680A05214B
:103A50007844FFF749FF9FED2ACBB0EE40AAF0EE85
:103A600060AA9CB353EC1C2B51EC190B00F0B6FD73
:103A700041EC1C0B53EC1A2B51EC190B00F0AEFD72
:103A80009FED210B41EC190B53EC102B51EC1B0B50
:103A900000F0A4FD53EC192B00F03AFF53EC182B67
:103AA00000F09CFD53EC1B2B00F032FF53EC1C2B61
:103AB00000F02EFF9DED0A1B53EC112B00F01CFFB4
:103AC000BDEC0A8B05B041EC100B30BDFFE753ECA9
:103AD0001A2B51EC180B00F081FD53EC1C2B00F05D
:103AE000DBFA53EC192B00F079FD9DED0A1B53EC2A
:103AF000112B00F0D1FAE3E7A4120000000000004F
:103B0000495555555555C5BF000000000000E03F20
:103B1000F1B506462DED040BBD482DED0C8B8AB09A
:103B2000B0EE418AF0EE618A179D25F000449FEDCA
:103B3000BABB9FEDBBCB844208DA9DED160B51EC6E
:103B4000100B00F0B5FC002800F0E980B64FA7424A
:103B500031DC002D0DDA9DED160B51EC100B00F051
:103B60005DFACDE9160151EC180B00F057FA41EC63
:103B7000180B9FEDAF0B53EC102B9DED160B51EC7A
:103B8000100B00F0B9FE53EC182B9FEDAB0BCDE9F9
:103B9000040151EC100B00F0BBFE41EC100B53EC98
:103BA000102B9DED040B51EC100B00F075FA9FEDFE
:103BB000A48BCDE916019DED160B53EC102B51ECA7
:103BC000100B00F00BFDCDE904019DED040B53EC4F
:103BD000102B51EC100B00F001FD41EC190B9A4831
:103BE0000621B0EE490AF0EE690A7844FFF77CFE40
:103BF0009648B0EE40DAF0EE60DAB0EE490AF0EE48
:103C0000690A06217844FFF76FFE9DED041B51EC15
:103C1000100B53EC112B00F0E1FC9DED040B41EC7B
:103C20001A0B53EC102B9DED160B51EC100B00F002
:103C3000D5FC41EC190B53EC1A2B51EC1D0B00F089
:103C40002BFA53EC192B00F0C9FC53EC182B00F0A5
:103C500023FA9DED041B53EC112B00F0BFFC53EC39
:103C6000182B00F019FA41EC180B9FED790B51EC71
:103C7000190B53EC102B00F0B1FC53EC182B00F097
:103C80000BFA41EC190B9DED160B53EC192B51EC73
:103C9000100B00F001FA41EC180BA74269DC30462A
:103CA00000F035FC41EC1A0B51EC180B53EC1A2BBD
:103CB00000F0F2F941EC1B0B53EC182B51EC180BF4
:103CC00000F08CFC53EC1B2B00F09AFA53EC192BF0
:103CD00000F01EFE9DED161B53EC112B00F00CFEA8
:103CE0009FED5D1B53EC112B00F078FC53EC1A2B6D
:103CF00000F002FE41EC180B022000EAA570C0F1B2
:103D0000010000F004FC53EC182B00F067FC00BF2E
:103D100041EC100B0AB0BDEC0C8B05B0F0BD711C72
:103D20001698214308430CD09DED160B012E1CBFA5
:103D300053EC102B51EC1C0B10D000BF00F060FABC
:103D4000E6E79DED160B51EC100B00F0C0F841ECCE
:103D5000100B51EC1B0B53EC102BEFE751EC100B3D
:103D6000FFF7B2F9042808BF00F096F89DED160B96
:103D7000D0E7012E04BFB0EE480AF0EE680AC9D0C1
:103D80008DED048B002404949DED040B53EC102B5B
:103D90009DED160B51EC100B00F0AEFD53EC192B02
:103DA00000F0AAFD41EC190B53EC182B51EC1C0B45
:103DB00000F026FA41EC180B8DED008B00949DED80
:103DC000040B53EC102B9DED000B51EC100B00F08D
:103DD00005FC53EC1B2B00F05FF99DED000B41EC53
:103DE0001A0B53EC192B51EC100B00F0F7FB53ECB2
:103DF0001A2B00F051F953EC182B00F0EFFB9DED5E
:103E0000001B53EC112B00F047F981E70000000084
:103E10000000303E00000000000000000000F03F05
:103E2000000000000000F0BF2894E53F0000000003
:103E3000182D4454FB21E93F075C143326A6813C2E
:103E400000000000000000003211000048110000D6
:103E5000635555555555D53F000000000000004002
:103E600010B553EC102B51EC100B00F015F941EC90
:103E7000100B10BD000000009FED050B10B553ECBA
:103E8000102B51EC100B00F0BBF941EC100B10BDE6
:103E900000000000000000009FED050B10B553EC82
:103EA000102B51EC100B00F099FB41EC100B10BDE6
:103EB00000000000000000100188827849BA09045F
:103EC000C07841EA0221014300EE101A704782B027
:103ED000CDE9000121F0004001909DED000B02B002
:103EE00051EC100B7047000008B5FDF739FBFEF7E9
:103EF00097FEFEF725FB42480024016841F40011BB
:103F000001600068224600F40010009021462F2036
:103F1000FDF786FB2F20FDF775FBFEF7ADFAFEF7E8
:103F2000DDFAFEF78BFB38483649016042F2273153
:103F3000C0E9011440F2E731C0E903148461FDF7E0
:103F400051FFE0BB4FF41670FDF7F6F92E488038AC
:103F5000FDF72AF86420FDF7EFF92B48102180388F
:103F6000FCF704FC0C25052208212846FEF788FCF6
:103F70006D1CEDB20E2DF6D34FF47A70FDF7DCF91F
:103F80002148224948304FF4E1350160C0E901542D
:103F90000C26C460C0E904468461C461FEF746F99A
:103FA00068B919481A4990300160C0E90154C460E9
:103FB000C0E904468461C461FEF738F908B1FCF732
:103FC0009FFB1148082213494830FEF7FBF9124CB9
:103FD000012240212046FDF7AFFA01228021204630
:103FE000FDF7AAFA0B490120A8398872FEF70AFAF0
:103FF000FEF744FBFEF762FCFEF77AFBF6E70000F3
:10400000303802400020004084010020004C004075
:1040100000500040A80000200008024081F000414C
:10402000704780F00040704721F00041704720F059
:104030000040704721F00042A2F16052B2F5801FAB
:1040400001F0004328BFD2F17F6C0BD95FEA001C5E
:1040500043EAC20242EB507018BF704728BF20F0FD
:1040600001007047B2F5801FBCBF184670474FEA89
:10407000410C1CF5001F02D2084600F0A9BD70B526
:1040800000F056FB00000089FFF7F6BF4FF000403C
:10409000A0F580007047000010B591EA030F48BFFB
:1040A00083F0004300F13C84841A71EB030C05D2C9
:1040B000121943EB0C03001B61EB0C01DFF824E148
:1040C0004FEA1154A4EB135C1EEA430F18BF9EEA9B
:1040D000445F73D023EA0E03DCF1200E21EA045181
:1040E00043F4801332D322FA0CFE10EB0E0023FAB5
:1040F0000CFE41EB0E01CCF1200E03FA0EFE10EB8C
:104100000E0051F10001B1F5801FCCF1200E32D22A
:1041100001EB045112FA0EF2BDE8104058BF70478F
:10412000401C38BF5FEA420218BF7047002814BF26
:1041300020F0010041F100014FEA410313F5001F97
:1041400038BF7047A1F1C04100F040BB012A43EBEA
:104150000302ACF1200CDCF11F0E32BF4FF0000E59
:1041600023FA0CF310EB030041EB0451B4EB115FA5
:10417000D0D0A1EB045101F5801149085FEA30006D
:1041800001EB04510ED350F1000038BF12FA0EFEBD
:1041900008D1BDE81040C9E7401C38BF5FEA4202C1
:1041A000CAD1C3E7BDE810404FEA410313F5001F31
:1041B00038BF7047A1F1C04100F008BB9EEA445FE0
:1041C00008D011EA5E0FBDE8104004BF01F00041C5
:1041D00000207047BDE8104070B500F0A9FA00BF9C
:1041E00064FBBE3E0000E0FF491058BFC1F14041F2
:1041F0005B1058BFC3F140438B42EFF30080704720
:104200002DE9C04130B4DFF8A0C23CEA111418BF58
:104210003CEA131400F0EC8081EA03051CEA111457
:1042200044EAD57418BF1CEA131500F0C780A4EB4C
:1042300005044FF0004545EAC12145EAC32341EAA0
:10424000505143EA525304F17F74994204F500340B
:104250004FEAC0204FEAC22208BF904200F09C8083
:104260004FEA13650FF24016765D4FEA134506FBE1
:1042700005F7C7F1807706FB07F74FEAD737A7FBAB
:1042800003687642C8F58038A7FB06CE38BFA8F190
:10429000010807FB08E64FF0000EA6FB028CE6FBC8
:1042A00003CEDCF1000CCEF1004E38BFAEF1010EB2
:1042B000A6FB0C584FF000074FF00005E6FB0E87F9
:1042C000A1FB08C6A0FB07CE16EB0E0645F10005C4
:1042D000E1FB076515F1E04E7EBFA4F580345FEA8F
:1042E00046066D4116F1800745F100054FEA172794
:1042F0004FEA066647EA0567A6F1DE46B6F1805F3B
:104300004FEA15251FD9384624F0010C05EBC4717E
:10431000BCF1FE6F01EB0C1102D8F0BCBDE80081CE
:1043200024425CBF01F5801E9EEAC47F02D4F0BC2B
:10433000BDE80081244238D4F0BCA1F1C041BDE801
:10434000004100F043BA4FEAD22242EA43524FEA18
:10435000D323A7FB02864FEAD02040EA415007FB57
:1043600003661EEA0E0F4FEAD12105FB026658BF15
:10437000A6EB0056B6EB00564FEA520E4EEAC37E4D
:1043800018EB0E0E56EB530EBDD518EB02085E412E
:104390007F1C55F10005B6E74FF480154FF000077C
:1043A0004FF000064FF00008ADE7F0BC4FF0000002
:1043B00001F1C04101F00041BDE8008111EA0C1F8C
:1043C0000CEA131500D00CE013EA0C1F00F0258056
:1043D0004FF00000F0BC81EA030101F00041BDE8AC
:1043E0000081F0BCBDE8004181EA030100F0EEB9B4
:1043F000F0BCBDE8004170B500F09AF9097EFC3EC2
:1044000000F007B881EA03014FF0000001F000411D
:10441000704781EA030100F0D9B9F0BCBDE8004162
:104420004FF0000021497047FFFDFBF9F7F5F4F26A
:10443000F0EEEDEBE9E8E6E4E3E1E0DEDDDBDAD83F
:10444000D7D5D4D3D1D0CFCDCCCBCAC8C7C6C5C49D
:10445000C2C1C0BFBEBDBCBBBAB9B8B7B6B5B4B3B4
:10446000B2B1B0AFAEADACABAAA9A8A8A7A6A5A49F
:10447000A3A3A2A1A09F9F9E9D9C9C9B9A99999863
:104480009797969595949393929191908F8F8E8E06
:104490008D8C8C8B8B8A8989888887878685858493
:1044A00084838382828181800000FF070000F87F7F
:1044B0004FEA41034FEA5353A3F58063D3F11E0340
:1044C000C8BFD3F1210C0CDD4FF0004242EAC122FB
:1044D00042EA505232FA03FC8CEAE17CACEBE17028
:1044E0007047102BC4BF0020704703F5787CBCF1E7
:1044F000FF3F04D06FF0004282EA2100704770B5A0
:1045000000F016F94992248000207047F2E710F07D
:10451000004248BF4042B0FA80F310FA03F10AD0DB
:10452000C3F11D0303F580634FEA415002EB0352D0
:1045300002EBD12170474FF000007047B0FA80F3D2
:1045400010FA03F10AD0C3F11D0303F580634FEAAB
:1045500041504FEA035202EBD12170474FF0000067
:104560007047000051EA030C17D41CF5801F58BF98
:10457000BCF5801F00F10680994218BF704708BF44
:104580009042704707D711F5801F58BF13F5801F61
:1045900019D499427047894270471CF5801F08D58D
:1045A000BCF5801FF7D58B4218BF704708BF824209
:1045B00070474FF4001C1CEB410F38BF1CEB430F3E
:1045C00001D28B42704770B500F0B2F892244900D6
:1045D0004FF000514FF08053FFF706BEDFF848C19F
:1045E00070B51CEA111E1EBF1CEA13159EEA0C0FC3
:1045F00095EA0C0F00F06F8081EA030423EA4C1364
:104600004EEAD47E21EA4C1141F4801143F4801328
:10461000AE44A1FB024CA0FB0365AEF17F7E3619D0
:1046200055EB0C05A1FB034C4CF10003A0FB021C55
:1046300016EB0C06654153F10003094218BF46F022
:10464000010613F4007F0BD14FEA03314FEA053026
:10465000340341EA155140EA16506FF003020AE0B4
:104660004FEAC3214FEAC520F40241EA555140EA1E
:1046700056506FF0020202EB2E4201EB025585EA22
:10468000CE710AD05FEA440C18BF24F0004450F108
:10469000000041F1000120EAD47040F2FE7C624546
:1046A00000D270BDA84214BF4FF080444FF0404488
:1046B000002E08BF0024BEF1806FA8BFA1F1C04149
:1046C000BDE8704080F282804FF0000001F1C041EF
:1046D00001F0004170479EEA0C0F0CEA131518BF59
:1046E00095EA0C0F06D04FF0000081EA030E0EF0A1
:1046F000004170BD00F01CF88900013E00F007B8D1
:1047000000F009B84FEA430C5FEA5C5C08D081EA2C
:10471000030100F05BB84FEA410C5FEA5C5CF6D144
:104720004FF00000014970470000FF070000F87FCC
:104730000EF1020E2EF0030E5EF8046B364205D425
:10474000012A43EB030515F5001F12D8012841EBA0
:10475000010C1CF5001F0CD80ED14FEAD17C15F5C9
:10476000001F0CEB4C0C0CF1020C08BF4CEBD37C83
:1047700004E04FF0080C01E04FEAD37C0CEB4C0551
:1047800026FA05F606F00706B6F1040C06D20EEB83
:10479000860CBDE870404CF0010C6047DFE80CF07F
:1047A000090B02024FF000414FF00000A1F500217B
:1047B00070BD19461046012851EB010418BFD4F50D
:1047C000001484BF002001F0004170BD0808A0F56E
:1047D00000114FEA3101704753EA010C17D41CF560
:1047E000801F58BFBCF5801F00F106808B4218BFA8
:1047F000704708BF8242704707D713F5801F58BF24
:1048000011F5801F19D48B4270479B4270471CF5ED
:10481000801F08D5BCF5801FF7D5994218BF704797
:1048200008BF904270474FF4001C1CEB430F38BF89
:104830001CEB410F01D2994270470FB40CBC03BC72
:10484000FFF7C1BE5FEA410C5FEA5C5CACF58063D8
:104850005B1C39D4D3F1340240F34580B2F120031C
:1048600014DA4FF0010C0CFA02FCACF10103034026
:10487000B3EB5C0220EA030008BF10EA0C0F98BFFC
:10488000704710EB0C0041F1000170470AD0C3F1F2
:10489000200201FA02FC012821FA03F101FA03F1D6
:1048A0004CF100004FF0010C0CFA03FCACF10103D9
:1048B000B0F1004F21EA030108BF11EA0C0F4FF0DD
:1048C000000088BF61447047B3F1FF3F28BF50EA42
:1048D000C12C01F000414FF0000084BF41F07C5139
:1048E00041F470017047B3F5806FB8BF704770B581
:1048F000FFF71EFF40DBB6BE91EA030F10B581F053
:1049000000413FF5D1AB83F0004300F009B800004F
:1049100010B591EA030F48BF83F000433FF5C4ABE5
:10492000841A71EB030C07D212198CF0004C43EB84
:104930000C03001B61EB0C01DFF8A4E14FEA1154FA
:10494000A4EB135C1EEA430F18BF9EEA445F00F01D
:10495000B08023EA6E03524221EA0451C3EB6E0396
:1049600038BF5B1EDCF1200E25D322FA0CFE10EBC3
:104970000E0043FA0CFE41EB0E01CCF1200E03FABF
:104980000EFE10EB0E0051F10001CCF1200E29D4E7
:1049900012FA0EF201EB0451BDE8104058BF704707
:1049A000401C1CBFB2F1004F704700280CBF491CCF
:1049B00020F00100704712EB020E43EB030218BF18
:1049C0004FF0010E4EEA4202ACF1200CDCF11E0E5B
:1049D00054D943FA0CFE10EB0E0051F1FF31CCF12B
:1049E0001E0ED5D50EF1010E12FA0EFE404141EB1E
:1049F000010101EB445C5FEA5C5C10D910EBDE70F6
:104A000001EB045138BFBEF1004FBDE8104018BFA4
:104A1000704700280CBF491C20F00100704730D2BD
:104A20004FEAD42C11F5001124F400641BD0B1FA24
:104A300081F20B3AA41AA41ED2F12003914030FA5D
:104A400003F31943904001EBCC71002C01EB0451AE
:104A5000BDE81040A8BF704701F1C0414FF0000011
:104A600001F000417047B0FA80F310FA03F100D171
:104A700010BDE41A173C4805C90AE4E701EB0451EC
:104A800010BD491001EB0451BDE810404FEA300061
:104A900002E04FF0000170474A0008BF0042F8D022
:104AA000B2F5001F28BF704701F000414FF0000031
:104AB00070479EEA445F07D011EA5E0FBDE81040E0
:104AC00004BF002100207047BDE8104070B5FFF71B
:104AD0002FFE00BF40DFF63E83F0004110467047D6
:104AE0000000E0FF43004FEAD30C4FEA3C0C434088
:104AF0001FBF40070CF1605113F0FE4F70471CF0D0
:104B0000006F03D100200CF0004170470CF000430F
:104B100043EA507010B540EACC0000F00EF800BF38
:104B2000000000924FEA0001FFF750BE4FF0004135
:104B30004FF00000A1F5002170470EF1020E2EF09B
:104B4000030E5EF8044B244204D44FEA4102B2F152
:104B50007F4F11D84FEA4003B3F17F4F0CD80ED1ED
:104B60004FEAD07CB2F17F4F0CEB4C0C0CF1020CF5
:104B700008BF4CEBD17C04E04FF0080C01E04FEA99
:104B8000D17C0CEB4C0324FA03F404F00704B4F1D9
:104B9000040C06D20EEB840CBDE810404CF0010C66
:104BA0006047DFE80CF0070802024FF00040A0F574
:104BB000800010BD0846420018BFD2F1807288BF45
:104BC00000F0004010BD4FF04070E1EE100A704759
:104BD000FF2141EAD050C0057047000610160006BC
:104BE0001016000000000000000001020304060788
:104BF000080900000000010203040000000000009A
:104C00004C5555555555A53F7751C1166CC156BFEA
:104C10009015CB19A001FA3EAD529C804F7E92BEFA
:104C2000C4B1B4BD9EEE213ED43888BEE9FAA8BD19
:104C300000004054FB21F93F3163621A61B4D03D5A
:104C40000000601A61B4D03D7370032E8A19A33B33
:104C50000000002E8A19A33BC14920259A837B3985
:104C600000000000000000006E83F9A22915444EE8
:104C7000D15727FCC0DD34F5999562DB4190433C68
:104C8000AB6351FE61C5BBDE3A6E24B7E0D24D4244
:104C9000EA2E49061C92D1091CEB1DFE3EA729B144
:104CA000F53582E88444BB2E26709CE9417E5FB4D2
:104CB00039D69139F43953838B5F849C3B28F9BDF5
:104CC000FF97F81F0F9805DE8B112FEF1F6D0A5A03
:104CD000CF7E366DB709CB27663F464F2DEA5F9EE4
:104CE000C7BA27757BF1E5EBF739073DEA92528A9F
:104CF000B15FFB6B085D8D1FA6F810111111813F8C
:104D0000D561C119A0012ABF7DFEB157E31DC73E81
:104D1000EB9C2B8AE6E55ABE7CD5CF5A3AD9E53DC5
:104D20007AFE10111111C13F37D60684F464963F04
:104D3000280356C9226D6D3F0165F2F2D844433F06
:104D4000A69237A0887E143F735360DBCB75F3BE09
:104D5000FE41B31BBAA1AB3F93846EE9E326823FC9
:104D60001583E0FEC8DB573F68108D1AF726303FE9
:104D7000E9A7F0320FB8123FD47ABF74702AFB3E15
:104D8000A04D000800000020DC0000000002000828
:104D90007C4E0008DC000020740900001C020008A2
:104DA000000001010001005A0000010A0A1E1E0055
:104DB00000000000000000000000000000000000F3
:104DC0000000000000000000000040400000204102
:104DD00000000000000000000000000000000000D3
:104DE00000000000000000000000000000000000C3
:104DF00000000000000000000000000000000000B3
:104E000000000000000000000000000000000000A2
:104E10000000000000000000000000000000000092
:104E20000000000000000000000000000000000082
:104E30000000000000000000000000000000000072
:104E40000000000000000000000000000000000062
:104E50000000000000000000000000000000000052
:104E60000000000000000000000000000100000041
:0C4E700010000000000000000024F4000E
:04000005080001C529
:00000001FF
