:020000040800F2
:10000000A80A0020650200086B3B0008432B00088B
:10001000693B0008790500087B45000800000000E6
:10002000000000000000000000000000CF3C0008BD
:100030007107000800000000CD3C0008CD4000081A
:100040007F0200087F0200087F0200087F0200088C
:100050007F0200087F0200087F0200087F0200087C
:100060007F0200087F0200087F0200087F0200086C
:100070007F0200087F0200087F0200087F0200085C
:100080007F0200087F0200087F0200087F0200084C
:100090007D050008890500087F0200087F0200082E
:1000A0007F0200087F0200087F0200087F0200082C
:1000B0007F0200087F0200087F020008512B000821
:1000C000452B00087F0200087F0200087F0200081D
:1000D0007F0200087F0200087F0200087F020008FC
:1000E0007F0200087F0200087F0200087F020008EC
:1000F0007F020008754100087F020008E906000839
:100100007F0200087F0200087F0200087F020008CB
:10011000014300080D4300087F0200087F02000829
:100120007F0200087F0200087F0200087F020008AB
:100130007F02000800000000000000007F020008AD
:1001400095050008A10500087F0200087F0200084D
:100150007F0200087F0200087F0200087F0200087B
:100160007F0200087F0200087F0200087F0200086B
:100170007F0200087F0200087F02000800000000E4
:10018000000000007F0200080000000000000000E6
:100190007F02000800000000000000007F0200084D
:1001A0000000000000000000000000007F020008C6
:1001B0007F0200087F0200087F0200087F0200081B
:1001C0007F02000800F002F800F03CF80AA090E876
:1001D000000C82448344AAF10107DA4501D100F002
:1001E00031F8AFF2090EBAE80F0013F0010F18BF93
:1001F000FB1A43F001031847D8640000F8640000BC
:10020000103A24BF78C878C1FAD8520724BF30C842
:1002100030C144BF04680C60704700000023002414
:1002200000250026103A28BF78C1FBD8520728BF06
:1002300030C148BF0B6070471FB506F04EF91FBDB7
:1002400010B510BD00F03EF91146FFF7F5FF05F0BF
:10025000A3FA00F05CF903B4FFF7F2FF03BC00F06F
:100260005FF900000948804709480047FEE7FEE7BC
:10027000FEE7FEE7FEE7FEE7FEE7FEE7FEE7FEE756
:1002800004480549054A064B7047000065410008CF
:10029000C5010008A8040020A80A0020A806002024
:1002A000A806002053EA020C00F069802DE9F04B0B
:1002B0004FF00006002B1FBFB3FA83F503FA05F4D5
:1002C00024FA05F65E4012BF1643B2FA82F502FA2E
:1002D00005F4C5F120051EBF22FA05FC44EA0C0412
:1002E000203556EA044C4FEA144418BF641C4FF002
:1002F00000084FF00009904271EB030C39D300293C
:1003000019BFB1FA81F701FA07F6B0FA80F700FADF
:1003100007F6C7F120071EBF20FA07FC46EA0C06C5
:100320002037B6FBF4FCA7EB0507103F07F01F0BC7
:10033000CBF120060CFA0BFB2CFA06F644BFB346B1
:100340000026202FA4BF5E464FF0000B5BEA060C90
:1003500008BF4FF0010B19EB0B09ABFB027C48EB1C
:100360000608C01B06FB02CC0BFB03CC71EB0C0197
:10037000C1E70B46024641464846BDE8F08B13B53F
:100380004FF000004FF00001AFF30080BDE81C40CB
:10039000704710B5203AC0F00B80B1E81850203AF1
:1003A000A0E81850B1E81850A0E81850BFF4F5AF15
:1003B0005FEA027C24BFB1E81850A0E8185044BF9F
:1003C00018C918C0BDE810405FEA827C24BF51F80C
:1003D000043B40F8043B08BF7047D20728BF31F800
:1003E000023B48BF11F8012B28BF20F8023B48BF51
:1003F00000F8012B704702F0FF0343EA032242EAB0
:10040000024200F037B84FF0000200B513469446A0
:100410009646203922BFA0E80C50A0E80C50B1F15C
:100420002001BFF4F7AF090728BFA0E80C5048BF70
:100430000CC05DF804EB890028BF40F8042B08BF0E
:10044000704748BF20F8022B11F0804F18BF00F80A
:10045000012B704770477047704710B500F02AF8BD
:10046000006810BD10B5044600F024F8046010BD0B
:100470004FF000020429C0F0128010F0030C3FF48A
:10048000C4AFCCF1040CBCF1020F18BF00F8012B73
:10049000A8BF20F8022BA1EB0C01FFF7B6BF5FEA63
:1004A000C17C24BF00F8012B00F8012B48BF00F8E5
:1004B000012B7047004870474404002000487047F3
:1004C000440400207546FFF7F9FFAE460500694673
:1004D000534620F00700854618B020B5FFF7D0FE40
:1004E000BDE820404FF000064FF000074FF0000835
:1004F0004FF0000B21F00701AC46ACE8C009ACE8B6
:10050000C009ACE8C009ACE8C0098D46704710B519
:100510000446AFF300802046BDE81040FFF79BBEC5
:1005200001491820ABBEFEE726000200704700001C
:10053000084A0749926B41F8202000EE102A044A2D
:10054000BDEEC00A503210EE101A22F8101070479B
:100550006C030020800000200548417C05480129EB
:1005600003D00022022101F067B80122FAE700005F
:100570000000002000040240FEE70000014800F0F7
:10058000ECBA0000DC000020014800F0E6BA0000F0
:10059000DC000020014800F0E0BA00000401002067
:1005A000014800F0DABA0000040100200C4B10B53D
:1005B00003F1380202F1080148B101280ED10020F0
:1005C000141824790C54401C0328F9DD04E0145C51
:1005D0000C54401C0328FADD93ED100A10BD0000F6
:1005E000800000202DE9FF413D4C00262DED020B3F
:1005F000054666602675A6602261012B01D0022B9C
:1006000012D00220374FE06018291CD2DFE801F039
:100610000E393F4B4D5355571B4F5D141B1B1B1B76
:100620001B1B1B1B1B1B1B630020EBE769462D4894
:10063000FFF7AFFE0D204FE069462A48FFF7A9FEFD
:100640000C2049E02060274D0024B03D254B244973
:10065000443B244AA1F5D67000F016F9012000F0C1
:10066000EBFEE869641C401CE4B2E861032CEDD3A6
:1006700000203E54401CC0B20828FAD306B0BDE8A2
:10068000F08169461748FFF784FE0E2024E08C2095
:10069000B8714220F871134800993038016308207E
:1006A00020610F2018E0032002E0042000E0052074
:1006B00000EB4510C6E714200EE009200CE0694667
:1006C0000848FFF766FE1C2006E069460548FFF76C
:1006D00060FE152000E0172040EA4510B2E7000058
:1006E000B0020020B0000020014800F06BBD000007
:1006F000E403002001681823CAB2103AB2FBF3F2F7
:10070000054B6FF30901032A9B5CC36500D9091DE2
:100710008165084670470000EE64000810B5014688
:1007200000208B698A6A4FF0C07453B1B3F5005F43
:1007300015D072B1012A0CD0022A0AD0032A09D19D
:1007400004E01AB1012A06D0022A03D1C96AC901FC
:1007500000D5012010BDC96AA142FAD010BD002AFF
:10076000F7D0012AF2D0022AF3D0032AF3D010BD29
:100770007047000010B504462DED028B8CB09FED44
:10078000190B03F025FFB0EE401AF0EE601AB0EE40
:10079000418AF0EE618A9FED150B03F019FF53ECCF
:1007A000182B51EC100B05F079F905F00BFB844088
:1007B000A4B2FF22202103A8FFF71DFE4FF47A7296
:1007C000202103A88DE8070002232246AE21094814
:1007D00001F080F9052000F02FFE0CB0BDEC028B7B
:1007E00010BD0000000000000000004000000000FC
:1007F000000040402C0100202DED028B00259FEDD4
:10080000188A01242046B0EE480A03F066FA641CF8
:10081000E4B2042CF6D90524B0EE480A204603F0D1
:1008200068FA641CE4B2142CF6D96D1CEDB2052DE7
:10083000E7D372B65FF00104B0EE480A204603F039
:100840004CFA641CE4B2042CF6D90524B0EE480A34
:10085000204603F04EFA641CE4B2142CF6D9E9E702
:100860000000000090F82020012A07D0022A05D0BD
:10087000416A41F480214162012070470068426969
:100880000A43426100207047F0B590F82050046898
:10089000A468012D05D0022D03D0416A41F48021C6
:1008A00057E014F0406F01D1E5004FD5C4F3016467
:1008B0000125A5401D608D684FF4C0739DB1CE68C1
:1008C00035434E6845EAC605066803EB0417F55143
:1008D0004FF4C275076805EB04150E697E51097D5A
:1008E000012905D009E00E88CD6845EA4655EBE7B9
:1008F00001684E5946F480764E511179D579567972
:1009000041EA056195792D0445EA062529434FF40E
:10091000C676056806EB0416A9511178D57841EA28
:100920000561957852782D0445EA022211434FF46F
:10093000C475026805EB04155151006803EB0411FE
:10094000425842F0010242500020F0BD416A41F499
:10095000001141620120F0BD10B590F82020012A5D
:1009600007D0022A05D0416A41F48021416201206A
:1009700010BD3B48D0F8002242F00102C0F800222E
:10098000D0F8002222F47C52C0F80022D0F80022D5
:100990004B6A42EA0322C0F800220A7D02F01F03DC
:1009A00001229A40D0F81C329343C0F81C32CB6924
:1009B000B3B9D0F80C329343C0F80C328C894B6831
:1009C00064F31F434C6900EBC404C4F840320C8943
:1009D0000B6864F31F434C6900EBC404C4F8443251
:1009E000CB69012B16D1D0F80C321343C0F80C326E
:1009F0000C884B6864F31F434C6900EBC404C4F8D3
:100A000040320C89CB6864F31F434C6900EBC4048B
:100A1000C4F844328B69002BD0F804320ED0134353
:100A2000C0F804320B69002BD0F8143208D01343FD
:100A3000C0F81432096A012904D008E09343EFE7B3
:100A40009343F5E7D0F81C121143C0F81C12D0F8FC
:100A5000001221F00101C0F80012002010BD0000BA
:100A600000640040704770B590F82040012C05D01C
:100A7000022C03D0416A41F4802128E0046809B3C4
:100A80002469A40720D04FF4D874056804EB01143E
:100A90002D5915F00405956005682D591AD0ED08FB
:100AA000556005682C5904F00204D4604FF4DA74E0
:100AB000056804EB01142E5906F00F06082E0CD31E
:100AC00008250DE0E468DCE7416A41F40011416269
:100AD000012070BD6D0D1560E3E72D5905F00F0580
:100AE000156105682D59C5F30725956105682C59D1
:100AF000240C54614FF4DC72046802EB0112A45818
:100B00001C700468A458240A5C700468A458240C5F
:100B10009C700468A258120EDA704FF4DE720468FA
:100B200002EB0112A4581C710468A458240A5C71D9
:100B30000468A458240C9C710468A258120EDA713F
:100B4000006829B1016941F020010161002070BDF8
:100B5000C16841F02001C160F8E72DE9F05F05466A
:100B6000006800244669D0F804908768D0F80CB07B
:100B7000D0F810A0D0F81880F10748D0F90714D0A9
:100B800001218160B80703D5284600F0B6FA0CE0D1
:100B9000780702D54FF4006407E0380702D54FF418
:100BA000805402E0284600F0A7FAF80516D5296817
:100BB0004FF480708860B80503D5284600F09FFA8E
:100BC0000CE0780502D544F4005407E0380502D55E
:100BD00044F4804402E0284600F090FAF80316D569
:100BE00029684FF480308860B80303D5284600F0A8
:100BF00088FA0CE0780302D544F4004407E0380397
:100C000002D544F4803402E0284600F079FA300737
:100C100007D55FEACB6004D52968102044F400743E
:100C2000C86070074FF0080707D55FEA0B7004D55E
:100C30002868C760284600F0ABF9B00706D52868D9
:100C4000C068800702D0284600F0A3F9700607D5D7
:100C50005FEACA6004D52968102044F48064086102
:100C6000B00607D55FEA0A7004D5286807612846F0
:100C700000F090F9F00606D528680069800702D0D8
:100C8000284600F089F9B00308D55FEAC96005D5A8
:100C9000296810204860284600F000FAF00307D5C4
:100CA0005FEA097004D528684760284600F02AFAF0
:100CB000300446D55FEA497040D5F00504D55FEAB7
:100CC000C87001D044F00104B00504D55FEA887013
:100CD00001D544F00204700504D55FEA487001D5DF
:100CE00044F00404300529D518F0700F26D008F020
:100CF0007000402815D006DC102809D020280AD022
:100D0000302816D10AE050280ED0602811D10EE00C
:100D100044F008040DE044F010040AE044F020041C
:100D200007E044F0400404E044F0800401E044F4AF
:100D300080742868816921F070018161296804202C
:100D40004860002C05D0686A204368622846FFF797
:100D500089FEBDE8F09F70B5040003D094F8200030
:100D600010B104E0012070BD204600F081F8206839
:100D7000016841F00101016000F064FC05460526B0
:100D800004E000F05FFC401B0A2811D8206840688E
:100D9000C007F6D02068016821F00201016000F070
:100DA00051FC05460BE000F04DFC401B0A2806D91B
:100DB000606A40F40030606284F82060D2E7206806
:100DC00040688007EFD4207E0128206801683DD06C
:100DD00021F080010160607E01282068016838D020
:100DE00021F040010160A07E01282068016833D015
:100DF00021F020010160E07E0128206801682ED0EA
:100E000041F010010160207F01282068016829D08D
:100E100021F008010160607F01282068016824D06A
:100E200021F004010160D4E902010843D4E904126D
:100E3000114308436168491E08432168C8610020C6
:100E40006062012084F82000002070BD41F0800124
:100E5000C0E741F04001C5E741F02001CAE721F0B9
:100E60001001CFE741F00801D4E741F00401D9E7D0
:100E7000F0B587B0044614216846FFF7C4FA3F4B2B
:100E80003F48DFF8F4E01968D4F800C03C4A022576
:100E90000326092710300024491CF4452CD1196081
:100EA000012907D1016841F000710160006800F07C
:100EB00000700590106840F001001060106802ABEF
:100EC00000F0010005904FF4C050CDE9000583E823
:100ED000D00069462B4800F0C1FA002211461420C8
:100EE00000F03EFF142000F02DFF002211461520D7
:100EF00000F036FF15203BE0DFF88CE0F44539D1F7
:100F0000D0F800C04CF0806CC0F800C0D0F800C031
:100F100001290CF0806CCDF814C0196007D101686C
:100F200041F000710160006800F0007005901068E9
:100F300040F002001060106802AB00F00200059063
:100F40004FF44050CDE9000583E8D00069460F48D2
:100F500000F084FA00221146402000F001FF4020FA
:100F600000F0F0FE00221146412000F0F9FE412081
:100F700000F0E8FE07B0F0BD00640040C8000020AB
:100F80003038024000000240006800400004024087
:100F9000704770477047000070B53E4B3E4A0121D4
:100FA000FFF761FD3C483B4C3B4B0068B83C4109B6
:100FB000217000F01F016170C0F34301A17400F0C3
:100FC00001013333334DE174022828D0032804D0C3
:100FD000042833D005283FD110E02E4804F0C4FB8C
:100FE00084ED1C0A281D04F0BFFB84ED1D0AE08A75
:100FF000401CE0825878401C58702DE0254804F0D1
:10100000B3FB84ED1E0A281D04F0AEFB84ED1F0A1D
:10101000608B401C6083D878401CD8701CE0288806
:1010200040BA00EE100AB8EE400A84ED0E0A208B9A
:10103000401C20839878401C98700DE0288840BAA6
:1010400000EE100AB8EE400A84ED0F0A608B401CD7
:1010500060831879401C1871607801280FD0092826
:1010600017D10120FFF7A2FA0B492078543101EB88
:10107000800181ED000ABDE87040FFF759BA0649CA
:1010800020781C310A5C521C0A54034A29793D32EB
:10109000115470BDB8000020C80200207047000045
:1010A00070B5044690F82000012804D0606A40F42E
:1010B0000020606218E0022084F8200020680168A7
:1010C00021F00101016000F0BDFA05460EE000BF0D
:1010D00000F0B8FA401B0A2808D9606A40F40030D2
:1010E0006062052084F82000012070BD20684068FF
:1010F000C007EDD1606270BD7047704770477047A0
:101100007047704770472DE9F0410446876D00F045
:1011100099FA064694F835000025022806D080206A
:10112000606584F834500120BDE8F08120680168D2
:1011300021F0160101602068416921F080014161C0
:10114000206C08B9A06C20B12068016821F008016A
:1011500001602068016821F0010101600CE000F0ED
:1011600071FA801B052807D920206065032084F8C8
:10117000350084F83450D7E720680068C007EED106
:1011800094F85C103F208840B860012084F8350056
:1011900084F834500020C7E790F83510022903D0B6
:1011A0008021416501207047052180F835100068D5
:1011B000016821F0010101600020704790F83500BE
:1011C000704700002DE9F84304464FF00009CDF8C0
:1011D000009063484FF41651A56D0068B0FBF1F71D
:1011E0002E6894F85C10082000FA01F131420FD00B
:1011F00021680A6852070BD50A6822F004020A60C7
:1012000094F85C108840A860606D40F00100606553
:1012100094F85C104FF0010808FA01F0304208D051
:1012200021684969090604D5A860606D40F0020094
:10123000606594F85C1004208840304208D0216832
:101240000968890704D5A860606D40F004006065F6
:1012500094F85C1010208840304218D0216809684A
:10126000090714D5A86020680168490304D50068FF
:10127000000308D5A16C07E00168C90503D4016823
:1012800021F008010160216C09B12046884794F8DB
:101290005C1020208840304231D021680968C9069E
:1012A0002DD5A86094F8350005282068016806D07F
:1012B000490347D5006800031DD4616C1CE021F090
:1012C000160101602068416921F080014161206CB4
:1012D00008B9A06C20B12068016821F00801016004
:1012E00094F85C103F208840A86084F8358084F82A
:1012F0003490216D1FE0E16B09B120468847606D95
:1013000000282BD0606DC00714D0052084F835006C
:101310002068016821F0010101600098401C0090E4
:10132000B84203D820680068C007F6D184F8358039
:1013300084F83490E16C002910D001B02046BDE85B
:10134000F04308470168C905D5D4016821F01001B0
:10135000016084F8358084F83490CCE7BDE8F883E8
:10136000D80000202DE9F041044600F06BF9064654
:101370005CB1022084F83500002584F834502068E0
:10138000016821F0010101600DE00120BDE8F0815C
:1013900000F058F9801B052805D92020606503203E
:1013A00084F83500F2E720680068C007F0D12268B1
:1013B000116820480140D4E901031843D4E90336F9
:1013C0003343184363691843A3691843E369184317
:1013D000236A18430843616A042903D1D4E90B1333
:1013E00019430843106020684069666A20F00701CD
:1013F00030460E43012704280CD1A06A0643E06A58
:1014000040B12046FFF78AF920B14020606584F89A
:101410003570BAE7206846612046FFF76BF994F80B
:101420005C203F2191408160656584F83570002023
:10143000ACE700003F8010F070B5044600F002F900
:101440000546601C02D004480078044400F0FAF815
:10145000401BA042FAD370BDCC0000202DE9F84F0C
:10146000DFF8ACA10022012403254FF00F090AF197
:10147000040BAAF1040E00BF0B6804FA02F6334015
:10148000B3426ED10F7907F00307012F01D0022F6D
:1014900016D187684FEA420805FA08FC27EA0C07CC
:1014A000D1F80CC00CFA08FC4CEA070CC0F808C0D4
:1014B0004768B7430E79C6F3001696403E43466030
:1014C0000E79F643B6070AD0C6684FEA420C05FA11
:1014D0000CF7BE438F6807FA0CF73743C7600E79E5
:1014E00006F00306022E10D1D60800EB8608D8F8C5
:1014F000206057074FEAD76C09FA0CF7BE430F6913
:1015000007FA0CF73743C8F8207006684FEA420C18
:1015100005FA0CF7BE430F7907F0030707FA0CF73B
:10152000374307604E6816F4403F6BD0394E37683A
:1015300047F480473760366822F0030706F4804698
:101540000096354E07EB060CDCF8086897074FEA63
:10155000177809FA08F7BE43304FB84202D1002786
:101560001FE04FE02E4FB84201D1012719E02D4F67
:10157000B84201D1022714E02B4FB84201D1032712
:101580000FE02A4FB84201D104270AE0284FB842A1
:1015900001D1052705E0274FB84201D1062700E019
:1015A000072707FA08F73743CCF80878DAF800601D
:1015B0005746D1F804C09E435FEACC2C00D51E43A9
:1015C0003E60DBF800605F46D1F804C09E435FEAEE
:1015D0008C2C00D51E433E60DEF800607746D1F8C3
:1015E00004C09E435FEA8C3C00D51E433E60084F1A
:1015F000083F3E68D1F804C09E435FEACC3C00D56A
:101600001E433E60521C102AFFF436AFBDE8F88F2F
:10161000083C0140443802400030014000000240D4
:101620000004024000080240000C0240001002408A
:1016300000140240001802400AB181617047090499
:10164000FBE700000148806870470000CC000020E4
:10165000704770472DE9F041016804464A694E68B9
:1016600090F83E000025D743FA0506D4F243D20590
:1016700003D46FF4807201254A61B90508D4F1439F
:10168000C90505D422686FF4007145F00205516167
:10169000790525D4F143C90522D4638D94F83D1012
:1016A000226B202808D13BB9212910D029290ED03E
:1016B000282901D1212A0AD022686FF48061516162
:1016C00045F00405102806D0402804D008E0204644
:1016D00001F090FE04E02068016841F400710160AF
:1016E000380508D4F043C00505D421686FF40060C4
:1016F00045F008054861002D07D0206C2843206480
:101700002046BDE8F04101F08FBABDE8F0812DE937
:10171000F047026800215368C66A90F83E4090F88E
:101720003D50102C12D0402C10D0046C002C7DD0D9
:101730005469E443A6077AD4DE43B60577D4036C34
:1017400003B19169BDE8F04701F030BE9769516976
:101750004FF42A0CC9435FEAC1784FF02A4904D0FC
:1017600066452AD04E4528D010E0DE43B6050DD49C
:10177000C16A614501D1012103E0C16A494501D136
:101780000821C162BDE8F04701F022BD0E0716D462
:10179000DE43B60513D4416CC9B21161416B09B186
:1017A000C96B29B9816B002907D0C96B002904D006
:1017B0000068416841F400614160BDE8F0878E0730
:1017C00006D4DE43B60503D4BDE8F04701F074BC8F
:1017D000FE43526876074FEA02521DD4002AECDB22
:1017E0000A0608D4DA43520505D4490705D5BDE8F1
:1017F000F04701F005BC4907DFD4D9438905DCD4A3
:10180000212D05D0402CD8D1BDE8F04701F026BDF0
:10181000BDE8F04701F0B2BB002ACEDB4A060BD48C
:10182000DA43520508D4490708D501E00DE00EE07F
:10183000BDE8F04701F028BB4907BED4D94389056C
:10184000BBD4BDE8F04701F0B2BA916970E7E10698
:1018500006D4D943890503D4BDE8F04701F012BE90
:101860002821212D27D0292D25D0650655D4DD43EB
:101870006D0552D4640752D590F83D30448D002C4C
:101880009BD01269446A2270426A521C4262428DA5
:10189000521E4285428D002A8FD12A2B8DD102689B
:1018A000536823F4806353602222026380F83D1062
:1018B00000F0ECF981E7250623D4DD436D0520D443
:1018C000640720D590F83D30448D002CF2D0446A56
:1018D00024781461426A521C4262428D521E428533
:1018E000428D002AE6D1292BE4D10268536823F403
:1018F000806353602122026380F83D1000F0C7F935
:101900005BE76107D6D4D9438905D3D4418D00293B
:10191000D0D0416A097811610AE06107CAD4D9437D
:101920008905C7D4418D0029C4D01169426A11705C
:10193000416A491C4162418D491E41853DE770471E
:1019400070B5040025D094F83D00002520B984F836
:101950003C50204600F056F9242084F83D002068D1
:10196000016821F0010101602068016841F4004133
:1019700001602068016821F40041016000F0F4FA80
:101980004D4A6168914201D84C4900E04C49884277
:1019900001D2012070BD4B492368B0FBF1F15E68B4
:1019A00026F03F060E435E606368934206D94FF40B
:1019B000967359434FF47A73B1FBF3F12368491CD2
:1019C0001E6A26F03F06314319626168914210D8C1
:1019D0004900401EB0FBF1F2521CC2F30B02042A74
:1019E00001D2042022E0B0FBF1F0401CC0F30B0058
:1019F0001CE0A268F2B301EBC10303EB0116431E26
:101A0000B3FBF6F35B1C43F480431B0549D092B350
:101A100001EBC10202EB0111401EB0FBF1F0401CD2
:101A2000C0F30B0040F4804040F400402168CA69D4
:101A30004CF6FF739A431043C861D4E90710014381
:101A40002068026822F0C00211430160D4E903015A
:101A500001432068826848F2FF339A431143816052
:101A6000D4E9050108432168CA6822F0FF02104347
:101A7000C86001E00EE016E02068016841F0010155
:101A800001602564202084F83D00256384F83E50E1
:101A9000002070BD01EB4106431EB3FBF6F35B1C57
:101AA000B3E70120C2E701EB4101401EB0FBF1F0BA
:101AB000401CC0F30B00B7E7A086010080841E0025
:101AC00000093D0040420F00704770477047704763
:101AD000704700002DE9FF4F83B09A46DDE911976A
:101AE00093460446DDF84080FFF7ACFD054694F8C8
:101AF0003D0020287FD1192301224049204600952E
:101B000001F09AFD002876D194F83C00012872D0AB
:101B1000012084F83C0020680168C90703D10168EE
:101B200041F0010101602068016821F40061016059
:101B3000212084F83D00402084F83E0000262664E1
:101B4000C4F82480A4F82A90608D20852C48E06297
:101B5000CDE9007553465A462046049901F0D2FB60
:101B600070B930E02A463946204601F00BFE58B1E4
:101B7000206C042804D12068016841F400710160E0
:101B8000012007B0BDE8F08F606A21680078086125
:101B9000606A401C6062218D491E89B22185628D78
:101BA000521E628522685369DB435B070BD469B11F
:101BB00000781061606A401C6062208D401E2085A4
:101BC000608D401E6085208D0028CBD12A46394685
:101BD000204601F005FD0028CAD154F83D0B0168EC
:101BE00041F400710160202004F81E09E677667751
:101BF0000020C6E7FFE70220C3E700000200100054
:101C00000000FFFF10B586B0044614216846FEF7B9
:101C1000FAFB1B492068884230D11A48002102682B
:101C200042F002020260006800F002000590C0204D
:101C300000901220CDE901010320039004200490BC
:101C400069461148FFF70AFC0E481030016841F45C
:101C5000001101600068002200F400100590114698
:101C60001F2000F07DF81F2000F06CF800221146C4
:101C7000202000F075F8202000F064F806B010BDB8
:101C80000054004030380240000402407047704762
:101C9000024881680278114481607047CC000020BE
:101CA0000B4810B5016841F400710160016841F40E
:101CB00080610160016841F480710160032000F0DF
:101CC0006FF80F2000F006F800F024F8002010BD97
:101CD000003C024070B50D4D04464FF47A712878EF
:101CE000B1FBF0F00A490968B1FBF0F000F004FC28
:101CF00048B9102C07D200222146501E00F030F8BF
:101D000000206C6070BD012070BD0000CC00002080
:101D1000D80000200A4808B5016841F480410160FC
:101D2000006800F4804000900548001F016841F001
:101D300080510160006800F08050009008BD0000F4
:101D400044380240002809DB00F01F0201219140C5
:101D50004009800000F1E020C0F800117047000049
:101D6000F0B40E4B1B680C46C3F30223C3F1070506
:101D7000042D00D90425191D072901D2002300E0F4
:101D8000DB1E012606FA05F1491E214099409E40BE
:101D9000761E16403143F0BC02F008BC0CED00E0AA
:101DA000064900F0070208684FF6FF03184040EAB2
:101DB0000220034A10430860704700000CED00E069
:101DC0000000FA052DE9F8431748016841F08051F9
:101DD00001600068154F00F08050012600903E64BD
:101DE000FFF730FC05464FF47A78114C05E000BF50
:101DF000FFF728FC401B40450DD86068C003F7D5AD
:101E00007E64FFF71FFC0546464607E0FFF71AFC15
:101E1000401BB04202D90320BDE8F883606880030C
:101E2000F4D50020F8E700004038024000000E42E0
:101E3000007000402DE9F0470E46050065D0DFF840
:101E40001481D8F80000F7B200F00F00B04207D2BA
:101E500088F80070D8F8000000F00F00B04254D1AC
:101E600028683D4C810712D5400703D5206840F40F
:101E7000E05020602878000703D5206840F46040D7
:101E800020602068A96820F0F000084320602878CE
:101E9000C0072DD0304968680839012812D00228BF
:101EA00013D0032811D00968890700292DDA216889
:101EB00021F0030101432160FFF7C4FB814641F299
:101EC000883A0EE009688903EFE709688901ECE7C1
:101ED000FFF7B8FBA0EB0901514502D90320BDE88B
:101EE000F0872068696800F00C00B0EB810FEFD13B
:101EF000D8F80010404601F00F01B14207D9077031
:101F0000006800F00F00B04201D00120E7E7287818
:101F1000400705D52068E96820F4E05008432060B8
:101F20002878000706D52068296920F4604040EA37
:101F3000C100206000F038F82168084AC1F303119D
:101F4000515CC8400649086006480068FFF7C2FEB9
:101F50000020C4E7003C024008380240F664000854
:101F6000D8000020D0000020044805490068096816
:101F7000044AC1F38221515CC8407047D800002058
:101F800008380240066500080448054900680968E9
:101F9000044AC1F34231515CC8407047D800002068
:101FA0000838024006650008224810B5006810F0A5
:101FB0000C02214815D04110042A11D01D4C241FB9
:101FC000082A0FD00C2A0CD12268236802F03F02A5
:101FD0005B0221D52068C0F38810A0FB010120E03E
:101FE000084610BD2268236802F03F025B0205D557
:101FF0002068C0F38810A0FB010104E02168C1F350
:102000008811A1FB00010023FEF74CF92168C1F300
:102010000141491C49000AE02168C1F38811A1FB74
:1020200000010023FEF73EF92168C1F30271B0FB05
:10203000F1F010BD083802400024F4002DE9F84FFB
:1020400004007DD0DFF878B32078ABF10407C00737
:10205000A7F1040550D0DBF800105846C1F3810108
:1020600001290FD00168C1F38101022902D1396829
:10207000490207D40068C0F38100032809D13868F9
:10208000400206D52868800336D560680028D8D07D
:1020900032E06068B0F5803F10D0B0F5A02F28681E
:1020A00010D020F480302860286820F48020286038
:1020B0006068A0B1FFF7C6FA06460CE0286840F455
:1020C0008030F4E740F480202860F7E7FFF7BAFAA1
:1020D000801B642876D828688003F7D50CE0FFF7CA
:1020E000B1FA064605E000BFFFF7ACFA801B642892
:1020F000F0D828688003F7D42078DFF8C8928007EA
:102100004FF0000A44D5DBF80010584611F00C0FD0
:102110000FD00168C1F38101022902D13968490257
:1021200007D50068C0F3810003280AD1386840024F
:1021300007D42868800715D5E068012800D111E090
:102140003AE1E068B0B10120C9F80000FFF77AFA7F
:10215000064604E0FFF776FA801B0228BAD8286802
:102160008007F7D52868216920F0F80040EAC1000F
:1021700028600DE0C9F800A0FFF764FA064604E005
:10218000FFF760FA801B02281CD828688007F7D464
:102190002078000727D5DFF828828B48616908F18D
:1021A0006C0881B101210160FFF74CFA064604E09A
:1021B000FFF748FA801B022804D8D8F800008007EF
:1021C000F6D510E089E0C0F800A0FFF73BFA06461C
:1021D00005E000BFFFF736FA801B02287DD8D8F84B
:1021E00000008007F6D42078400769D574484FF086
:1021F000000838300068C0000BD4714838300168DE
:1022000041F08051016000684FF0010800F08050FB
:1022100000906E4E3068C00511D4306840F4807074
:102220003060FFF70FFA009006E000BFFFF70AFAF0
:102230000099401A022850D83068C005F6D5604E83
:10224000A068683601280FD00528306810D020F02B
:1022500001003060306820F004003060A068B8B140
:10226000FFF7F0F900900FE0306840F00100F4E76C
:1022700040F004003060F7E7FFF7E4F90099411AF5
:1022800041F28830814264D830688007F4D50EE08E
:10229000FFF7D8F9009007E0FFF7D4F90099411A49
:1022A00041F28830814254D830688007F4D4B8F1C4
:1022B000000F05D042483830016821F0805101609C
:1022C000A069A8B3DBF80010C1F38101022947D04F
:1022D0000228C9F860A005D000E03AE0FFF7B2F9A3
:1022E000044639E0FFF7AEF9064604E0FFF7AAF925
:1022F000801B02282DD828688001F7D4F4E9070153
:102300000843E168324A490802EB0141A26841EA08
:1023100082110843217C40EA0160217D40EA01707E
:1023200038600120C9F86000FFF78CF9044606E028
:1023300044E000BFFFF786F9001B022809D828688F
:102340008001F7D53AE000BFFFF77CF9001B0228B7
:1023500002D90320BDE8F88F28688001F4D42DE06D
:102360000128F7D03868E26900F48001914223D156
:10237000226A00F03F0191421ED147F6C071626AA5
:102380000140B1EB821F17D1A26A4FF0FF3300F476
:10239000403103EB5202B1EB024F0DD194F82C20E7
:1023A00000F07061B1EB026F06D194F8301000F0CC
:1023B000E040B0EB017F01D00120CBE70020C9E76E
:1023C0000838024000004742800E4742007000403B
:1023D0000000FFFF70B5040009D0606A002540B11D
:1023E00025616561A56294F8510040B10CE00120BF
:1023F00070BD6068B0F5827FF4D0E561F2E784F8E3
:102400005050204600F044F8022084F85100206823
:10241000016821F040010160A088218900F48270E8
:1024200001F404410843A18901F400610843217CBF
:1024300001F002010843217D01F001010843218BD5
:1024400001F400710843217F01F03801084394F83A
:10245000201001F080010843218D01F40051084350
:1024600021680860A069042101EA104094F8241052
:1024700001F010010843216848602068C16921F417
:102480000061C1616565012084F85100002070BDC4
:1024900010B586B0044614216846FDF7B4FF134911
:1024A0002068884220D112480021026842F48052FC
:1024B0000260006800F4805005900D4814380268EE
:1024C00042F001020260006800F001000590E02087
:1024D00000900220CDE90101032003900520049023
:1024E00069460448FEF7BAFF06B010BD003001404F
:1024F000443802400000024010B5401EB0F1807F19
:1025000001D3012010BD4FF0E02460610F2160175E
:1025100002F04CF80020A06107202061002010BDCF
:102520007047704710B5040003D094F83D0010B117
:1025300007E0012010BD002084F83C00204600F098
:102540001FF8022084F83D00211D206801F018FECC
:10255000012084F8460084F83E0084F83F0084F8A7
:10256000400084F8410084F8420084F8430084F875
:10257000440084F8450084F83D00002010BD0000B0
:1025800008B500680B49884212D10B48016841F434
:10259000807101600068002200F480700090114694
:1025A0002D20FFF7DDFBBDE808402D20FFF7CABB5B
:1025B00008BD0000002000404038024070472DE96F
:1025C000F04104460068C66805694FF00007A90796
:1025D00013D5B10711D5F91E0161012020772068BC
:1025E00080698007204602D0FFF7E8FF04E000F092
:1025F0007EF8204600F07CF82777680716D570072C
:1026000014D521686FF0040008610220207720684B
:10261000806910F4407F204602D0FFF7CFFF04E02E
:1026200000F065F8204600F063F82777280715D5F5
:10263000300713D521686FF0080008610420207767
:102640002068C0698007204602D0FFF7B7FF04E08A
:1026500000F04DF8204600F04BF82777E80616D535
:10266000F00614D521686FF010000861082020776B
:102670002068C06910F4407F204602D0FFF79EFF1B
:1026800004E000F034F8204600F032F82777E8073D
:1026900008D0F00706D021686FF0010008612046DD
:1026A00000F027F8280608D5300606D521686FF017
:1026B000800008612046FFF733FF680608D57006E2
:1026C00006D521686FF040000861204600F012F83E
:1026D000A8060AD5B00608D521686FF02000086169
:1026E0002046BDE8F041FFF71CBFBDE8F081704710
:1026F000704770477047704770470000F8B5016831
:1027000004460868CA684B6910F00F0F4FF00005C7
:1027100059D003F0010602F49077374365D0C10722
:1027200005D0D10503D5616C41F001016164410719
:1027300005D5D90703D0616C41F0020161648107BE
:1027400005D5D90703D0616C41F00401616401072C
:1027500007D502F02001314303D0616C41F008013C
:102760006164616C00293AD0800604D5900602D5D8
:10277000204601F000FE20684069616CC0F38010C3
:10278000090700D460B3204601F0CEFD20684069FF
:10279000400621D52068143050E8001F21F0400188
:1027A00040E80012002AF5D1E06BA8B16E4901653E
:1027B000E06BFEF7F1FC002811D0E06B016D01B079
:1027C000BDE8F040084783060FD593060DD5204697
:1027D000BDE8F84001F0CFBD2046FFF78DFFF8BD02
:1027E0002046FFF789FF6564F8BD266B2023012E84
:1027F0007DD1C6067BD5D60679D508684868009095
:1028000048694FF00206400641D5E16B0868406810
:102810000004000CE8D0A28D8242E5D9E085C869A9
:10282000B0F5807F2DD020680C3050E8001F21F4D7
:10283000807140E80012002AF5D12068143050E879
:10284000001F21F0010140E80012002AF5D12068A4
:10285000143050E8001F21F0400140E80012002A27
:10286000F5D184F84230256320680C3050E8001F11
:1028700021F0100140E80012002AF5D1E06BFEF7CC
:1028800042FC6663A08DE18D401A81B22AE0A08DE2
:10289000E18D401A81B2E08D0028A5D00029A3D097
:1028A00022680C3252E8000F20F4907042E80007D2
:1028B000002FF5D12068143050E8002F22F00102DB
:1028C00040E80027002FF5D184F8423025632068C6
:1028D0000C3050E8002F22F0100240E80023002BBB
:1028E000F5D166632046FFF706FFF8BDFFE7050652
:1028F0002BD5150629D594F841002128F5D1A068DB
:10290000B0F5805F01D12069B0B1206A411C21621D
:10291000216800784860E08C401E0004000CE084D0
:10292000E3D12068C16821F08001C1602068C168DE
:1029300041F04001C160D8E7206A0088C0F3080078
:102940004860206A801C2062E5E74006CDD550062D
:10295000CBD5CA68204622F04002CA6084F84130D4
:1029600000F0EEF8C1E700001943000870B504005C
:1029700004D094F84100002510B106E0012070BD9C
:1029800084F84050204600F023F8242084F84100C9
:102990002068C16821F40051C160204601F04CFD5F
:1029A0002068016921F4904101612068416921F0AA
:1029B0002A0141612068C16841F40051C160656429
:1029C000202084F8410084F842006563002070BD37
:1029D0002DE9F04186B0064614216846FDF713FD47
:1029E0004148DFF800C1336800253F49103803240F
:1029F0000227082263451FD10B6843F400230B60B4
:102A0000096801F400210591016841F001010160AC
:102A10000068CDE9004700F00100CDE90420CDE9D0
:102A2000025469463148FEF719FD00221146342050
:102A3000FFF796F9342050E0DFF8B4C063454ED17B
:102A40000B6843F480130B60096801F48011059151
:102A5000016841F004010160016801F00401059181
:102A6000016841F0080101600068CDE9025400F0FE
:102A7000080005904FF48050CDE900079046694664
:102A800004921C48FEF7EAFC0420CDE90007CDE9DA
:102A900002546946CDF810801748FEF7DFFC184C49
:102AA000164820604FF0006060604020C4E90205D5
:102AB0000001C4E90405A561E5612562204665625F
:102AC000FEF750FC08B1FDF797FEB46300221146F3
:102AD0003520A663FFF744F93520FFF733F906B038
:102AE000BDE8F081004C0040403802400000024048
:102AF0000050004000080240000C0240B860024054
:102B0000E403002090F84230202B01D002207047CF
:102B100021B11AB10023036301F014BD01207047F5
:102B200010B5082204490548FFF7ECFF0248A83811
:102B3000818A491C818210BDA8000020200200204B
:102B40007047FEE70148FEF785BD00002C0100201C
:102B50000148FEF7DCBD00002C01002038B5806B79
:102B6000002190F83D202B4B46F2A8141B68B3FBC4
:102B7000F4F3C3EBC30303EB830300933BB15B1E8E
:102B8000009303681B689B0505D5009BF6E7036C63
:102B900043F020030364436B03B1D963836B03B138
:102BA000D96303681C6824F480641C604185436B0E
:102BB00003B11965836B03B1196503681C6824F0C0
:102BC00001041C6090F83D402023602C0BD0282489
:102BD00034EA02020FD080F83D3080F83E1000BF8A
:102BE000FEF7ADFE38BD80F83D3080F83E10016440
:102BF000FEF72EFD38BD0268136843F00103136031
:102C00000268136843F480631360016380F83D40F9
:102C1000E6E70000D800002000684169C9430906C2
:102C200001D400210161704770B5044690F83D0061
:102C300094F83E10102901D0402906D1222804D151
:102C400021680A6822F400620A60282131EA000241
:102C50004FF000054FF0200626D02168496809058D
:102C600005D4602803D084F83D6084F83E50256385
:102C700020684168090537D5416821F40061416049
:102C8000606B90F835203C49012A11D00165606BDA
:102C9000FEF782FA38B32068016821F00101016073
:102CA00084F83D60606B1CE0256384F83D10DFE72D
:102CB000A06B0165A06BFEF76FFAA0B120684169B7
:102CC000C943490605D40069616A0870606A401CFE
:102CD00060622068016821F00101016084F83D60B4
:102CE000A06B016D884710E094F83D10602910D06A
:102CF0004169C943490605D40069616A0870606A80
:102D0000401C60622046FEF71AFE206CC1071CD1F1
:102D100015E084F83D6025644169C943490605D43E
:102D20000069616A0870606A401C6062206801681E
:102D300021F0010101602046FEF78AFCE5E78107EA
:102D400003D4410701D4000704D52068416821F469
:102D5000E061416094F83D00216C49070BD52828BB
:102D600009D10648E062256384F83D6084F83E504E
:102D70002046FEF7A9FE70BD5D2B00080000FFFF96
:102D800001684A69D24352050FD46FF480624A61E8
:102D9000002140F8301F202242738173026942F003
:102DA000040202610173012070470020704710B5D2
:102DB000C26A438D0168042B06D0438D032B08D0D3
:102DC000438D022B1DD012E04A6822F480624A60D3
:102DD0000CE04B6823F480634B60042A06D0022A7F
:102DE00004D001680A6822F480620A6001680969F7
:102DF000426A1170416A491C4162418D491E4185F8
:102E000010BD012A34D0102A32D0042A34D0022A2C
:102E100032D00B6843F400730B6001680969436AA0
:102E20001970416A491C4162438D5B1E43850368EA
:102E30001B690B70416A491C4162418D491E4185E5
:102E400001684B6823F440734B60202180F83D10EB
:102E500090F83E300021402B80F83E1010D0082A18
:102E600002D0202A00D012210163FEF72EFE10BDF1
:102E70000B6823F48063CFE70B6843F48063CBE7F0
:102E80000163FEF724FE10BD38B590F83D102229ED
:102E900010D1C36A418D03290DD901680969426ABD
:102EA0001170416A491C4162418D491E4185418D25
:102EB000032906D038BDC26A022A02D0012906D0F1
:102EC00029B10068416821F48061416038BD2A4A17
:102ED00046F2A81400211268B2FBF4F202EB82025F
:102EE000009202682024009D6D1E009526D0156872
:102EF000AD05F8D4156825F480651560026855683D
:102F000025F4E065556002681269456A2A70426AD4
:102F1000521C4262428D521E428580F83D4090F81C
:102F20003E2080F83E10402A21D0082B02D0202BD2
:102F300000D012210163FEF7C8FD38BD036C43F0D9
:102F400020030364536823F4E0635360026812694A
:102F5000436A1A70426A521C4262428D521E428576
:102F600080F83D4080F83E10FEF7E9FC38BD016373
:102F7000FEF7ADFD38BD0000D800002010B5C26AD4
:102F800090F83D1021290BD1418D51B1416A026861
:102F900009781161416A491C4162418D491E418590
:102FA00010BD20230021082A13D0202A11D012F5A9
:102FB000803F0ED00268546824F4E064546011220B
:102FC000026380F83E1080F83D3000BFFEF77EFDC2
:102FD00010BD0268546824F4E06454600268146808
:102FE00044F400741460016380F83D3090F83E2092
:102FF00080F83E10402AE9D1FEF76AFD10BD0000BE
:1030000010B590F83D1090F83E30C26A048DB4B10E
:10301000212903D0402B11D122290FD1418DE1B3B9
:1030200090F83E10402942D0416A02680978116147
:10303000416A491C4162418D491E418510BD2129CB
:10304000E8D120230021082A13D0202A11D012F51C
:10305000803F0ED00268546824F4E064546011226A
:10306000026380F83E1080F83D3000BFFEF72EFD71
:1030700010BD0268546824F4E06454600268146867
:1030800044F400741460016380F83D3090F83E20F1
:1030900080F83E10402AE9D100E002E0FEF718FD7A
:1030A00010BD0068416821F48061416010BDBDE839
:1030B000104000F0D3B8000078B590F83E50C26AD6
:1030C000036B90F83D6000240168222E7AD1066DD2
:1030D0000EB9402D76D0056D1DB90569B5F5404F87
:1030E00009D0458D05B3468D384D012E0ED0438D48
:1030F000022B3AD05DE04A698A6900920A6842F47C
:1031000080720A60016D491C016578BDAA4213D125
:103110000A6822F480620A6001684A68120503D5D1
:103120000A6822F4806216E04A698A6900920A6895
:1031300042F400720A6039E0082A10D0202A0ED02A
:10314000122B0AD0042A03D0022A01D0102AE7D178
:103150000A6842F480620A6024E0012AE0D00A682A
:1031600022F480620A600168DEE7042A21D0022A84
:103170001FD0102A1DD00B6823F480630B600168F8
:103180000B6843F400630B6001684B681B0509D5AD
:10319000AA4212D0012A10D0082A0ED0102A0CD030
:1031A000202A0AD001684A6989690091046578BDBE
:1031B00008E00B6843F48063E5E74A6842F4805214
:1031C0004A60EFE7486988690090F0E70000FFFF78
:1031D00090F83E10402910D00169B1F5804F19D008
:1031E000016DA9B3016D012910D1416C5FF0F102AD
:1031F00001F4407142EAD11106E0016D0029416CF1
:1032000005D0C9B241F0010100680161704701F0C9
:10321000FE01F9E790F83D102129416C09D0C9B2AF
:1032200041F0010102681161416B29B1C96B49B9D3
:1032300002E001F0FE01F5E7816B0029E6D0C96BE1
:103240000029E3D00068416841F4006141607047A3
:10325000FFE7416CF02201F44071CBE710B590F824
:103260003D10026D4AB1026D012A14D0026D022A8E
:1032700016D0BDE81040FFF7CFBCC16C0129816CAE
:1032800002D0C1F3072108E00268C9B21161016DE3
:10329000891C016510BD816CC9B20268116123E00F
:1032A00022291CD0428D0AB1212920D0428D002A2A
:1032B000F0D12129EED101684A6822F4E0624A6027
:1032C00001680A6842F400720A600021016320224A
:1032D00080F83D2080F83E10FEF7FAFB10BD016833
:1032E0000A6842F480720A60016D491CD1E7416AA4
:1032F000026809781161416A491C4162418D491E89
:10330000418510BD2DE9F843044600680D46DDE90E
:10331000089701689846164641F4807101604B4653
:1033200000224FF001112046009700F085F948B1C6
:1033300020680068C00502D54FF4007020640320A7
:10334000BDE8F883216805F0FE0008613B464A4667
:103350001549204600F0B8F988B9206841698069AC
:1033600000903A464946204600F00CFA48B1206CDD
:10337000042804D12068016841F400710160012033
:10338000DEE7F5B2B8F1010F09D02168300A086113
:103390003A464946204600F0F5F90028E7D1206872
:1033A00005610020CCE700000200010038B50C46A2
:1033B00090F83D2000212825954302680B4605D052
:1033C00051699169009180F83C3038BD556825F409
:1033D00080655560E243540700D50121120601D5EE
:1033E000828900E0028B80F83C3092B2FEF731F91E
:1033F00038BD00002DE9F04190F83D300446C26A26
:10340000002120261E4F00686FF48065082A01D035
:10341000202A01D1282B04D0212B17D04561BDE8EB
:10342000F081E762426822F4E06242602068456110
:103430002068026822F480620260216384F83D60A3
:1034400084F83E102046FEF73FFBE8E7E7622122C2
:10345000226384F83D6084F83E10416821F4E06105
:103460004160206845612068016821F48061016045
:103470002046FFF7D1FB2046FEF709FCCFE700000E
:103480000000FFFFF8B590F83D6004460068416811
:1034900021F4E061416020680025416900910168E4
:1034A00041F0010101602068016821F48061016040
:1034B00020684168090520D5474F222E48D02A2E82
:1034C00046D0616B096849686185618D19B1216CCD
:1034D00041F004012164416821F400614160606BA6
:1034E000FDF76CFE012808D0606B0765606BFDF787
:1034F00053FE10B1606B016D8847608D08B3206882
:103500004169C943490708D40069616A0870606A63
:10351000401C6062608D401E608520684169C9431F
:10352000490608D40069616A0870606A401C6062DC
:10353000608D401E6085608D18B1206C40F00400E5
:103540002064206C00B32046BDE8F840FFF76CBB58
:10355000A16B096849686185618D19B1216C41F0E1
:1035600004012164416821F400614160A06BFDF712
:1035700025FE0128C1D0A06B0765A06BFDF70CFEEE
:103580000028BAD0A06BB6E72A2E06D125632820E2
:1035900084F83D002046FEF779FB94F83D1020208A
:1035A00028290DD0216B222901D0222E07D1256395
:1035B00084F83D0084F83E502046FEF767FBF8BDD6
:1035C0000649E162256384F83D0084F83E502046B8
:1035D000FEF77AFAF8BD00005D2B00080000FFFF3F
:1035E00070B516460D4604461EE02046FFF7C8FBA0
:1035F00008B1012070BD681C16D0FEF723F8801BAF
:10360000A84200D885B920684069C04340070BD55F
:10361000002044F8300F20216173A073216941F02C
:10362000200121612073E4E720684069C04340071E
:10363000DBD4002070BD00002DE9F0479846174606
:103640000D460446C1F30746DDF820902AE000BF8E
:10365000B8F1FF3F26D0FDF7F5FFA0EB090141458A
:1036600002D8B8F1000F1DD12068012E16D0806954
:1036700025EA00000004000C12D00020B84211D14D
:10368000002044F8300F20216173A073216941F0BC
:103690002001216120730120BDE8F0874069E7E740
:1036A0000120EBE72068012E0AD0806925EA00009E
:1036B0000004000C06D00020B842C9D00020EBE77F
:1036C0004069F3E70120F7E72DE9F04798461646F1
:1036D0000D4604464FF000094FF0200AC1F307479A
:1036E00023E020684069C043400515D42068016884
:1036F00041F40071016021686FF480604861C4F892
:10370000309084F83DA084F83E90216C41F0040193
:10371000216484F83C9021E0701C06D0FDF792FFF4
:10372000A0EB0800B04203D816B1012F1FD021E052
:103730002068012F15D0806925EA00000004000CE4
:1037400018D000BF44F8309F84F80DA084F80E9084
:10375000216941F02001216184F80C900120BDE82D
:10376000F087406925EA00000004000CEAD12068D7
:10377000406901E02068806925EA00000004000C2F
:10378000AFD1ECE770B516460D4604461EE0204664
:10379000FFF7F6FA08B1012070BD681C16D0FDF7DE
:1037A00051FF801BA84200D885B920684069C043FA
:1037B00000060BD5002044F8300F20216173A07360
:1037C000216941F0200121612073E4E7206840690C
:1037D000C0430006DBD4002070BD00000E49A1F1FB
:1037E000A8000A78AA2A10D1CA79FF2A0DD14A78EE
:1037F00082708A7802B9C278C270CA7842710A7936
:10380000C2714A790271897981714179002901D1A6
:103810000121417170470000A80000209FED091AA6
:10382000DFED070AC0EE011A9FED071A61EEA00A4C
:1038300080EE810ADFED050A20EE200A70470000C5
:1038400000007A4414E7AA3F000061450000E4420A
:1038500030B517488BB0154901600C210024C0E930
:1038600001144FF42021C0E903414FF40011012558
:103870004161057644768476C57604774477FDF712
:103880006AFA08B1FCF7B8FF04940E20CDE908509D
:103890000594019402940094694603940448CDE988
:1038A0000645FDF759F80BB030BD0000006400403C
:1038B000DC00002030B517488BB0154901600C21A1
:1038C0000024C0E901144FF42021C0E903414FF462
:1038D000001101254161057644768476C57604772A
:1038E0004477FDF738FA08B1FCF786FF009401949D
:1038F0000895029405A90E20CDE9034581E8310021
:10390000099069460348FDF727F80BB030BD000069
:1039100000680040040100202DE9F04387B0142125
:103920006846FCF770FD37480024016841F0040147
:103930000160016801F004010591016841F0800116
:103940000160016801F080010591016841F0010109
:103950000160016801F001010591016841F0020177
:103960000160016801F002010591016841F0080160
:1039700001600068DFF8909000F008004FF40355F4
:103980000590002229464846FDF756FE1F4F0022AB
:1039900010213846FDF750FEDFF8748040F20636FD
:1039A000002231464046FDF747FE00950125CDE94E
:1039B0000154694648460394FDF750FD0420CDE9C3
:1039C0000004694638460294FDF748FD1020009037
:1039D000CDE90154694638460394FDF73FFD009652
:1039E000CDE90154694640460394FDF737FDE802EE
:1039F000CDE90004694648460294FDF72FFD07B063
:103A0000BDE8F08330380240000802400000024068
:103A1000000402400C4810B50A4901600B4941609E
:103A200000214FF480428160C0E90312416181614D
:103A3000C1610162FDF784FF002801D0FCF7DCFEC4
:103A400010BD0000005400402C010020A0860100A1
:103A50000E4810B50C4901604FF48271416000219D
:103A60008160C1604FF400720161C0E90512C1615B
:103A70000162416281620A21C162FEF7ABFC00284B
:103A800001D0FCF7B9FE10BD0030014080010020DC
:103A90000B4810B5094901604FF4E1314160002144
:103AA00081600C22C160C0E904128161C161FEF72E
:103AB0005DFF002801D0FCF79FFE10BD004C0040C8
:103AC000200200200B4810B5094901604FF4E13194
:103AD0004160002181600C22C160C0E90412816153
:103AE000C161FEF743FF002801D0FCF785FE10BD41
:103AF000005000406802002010B5194C9FED190AD3
:103B0000A078012818D084ED080A00BFD4ED090A76
:103B100094ED080AF4EE400AF1EE10FA0BD00C20F6
:103B200000F0E7F894ED080A0D2000F0E2F894EDBB
:103B3000080A84ED090A10BD217A20798142E5D076
:103B400020B1012806D0022802D106E084ED080A3F
:103B50002072DBE7B3EE0E0AF8E7BBEE0E0AF5E7DC
:103B60000000002000000000FEE7FEE770B5544CA6
:103B70002DED028BE0789FED538A002879D0A17A51
:103B8000002976D0A178012973D000EB800000EEE7
:103B9000100A4D49F8EE400A10EE900AC4ED0B0AE7
:103BA000884201DDF3EE040AC4ED0B0A00F054FB79
:103BB00061790020012901D060642064A064D4ED03
:103BC000100A94ED0B0AF8EEE00A70EE200A70EE8F
:103BD000880AFCEEE00A10EE900AC1B2E172D4ED60
:103BE000110AF8EEE00A30EE200ABCEEC00A10EE30
:103BF000100A2073607B814202D900F1010002E0CB
:103C000015D2A0F10100C0B200EE100AE0734FF02F
:103C100002034FF00402B8EE400A19464FF00100CB
:103C2000FCF7E0FC0120FDF707FCE07B6073217BE3
:103C3000A07B81421ED900F1010020744FF00205E3
:103C4000207C4FF0020300EE100A4FF004021946E8
:103C5000B8EE400A2846FCF7C5FC0120FDF7ECFB56
:103C60006D1CEDB2042DEBD3207CA073BDEC028B58
:103C700070BD16E0FAD2401E20740225207C02237B
:103C800000EE100A04221946B8EE400A2846FCF756
:103C9000A9FC0120FDF7D0FB6D1CEDB2042DEDD386
:103CA000E2E70124B0EE480A204600F016F80120B1
:103CB000FDF7C2FB641CE4B2042CF3D3D6E700008A
:103CC00000000020000000000000A0417047704785
:103CD000022304220B21FCF785BC08B1032801D183
:103CE000B1EE400A02230422B1EE400A0121FCF7A2
:103CF00079BC022304220021FCF774BC0C4A10B5E5
:103D000011630C4904220A4B0A6100228A60CA60CE
:103D1000072202EB4010143B086003F14402A1F5B6
:103D2000D670FCF7B1FDBDE810401420FDF784BB50
:103D300080000020B00200202DE9F041C64C002791
:103D40002DED068B6079012802D002287DD059E143
:103D5000E07906465A3800D5404202F062F8BE4D7E
:103D600080359FEDBE1B53EC112B02F0C1F841ECE6
:103D7000100B592E85ED000B0AD29FEDBA1B51ECAA
:103D8000100B53EC112B01F089FEC5E9000106E090
:103D9000593E032E03D29FEDB50B85ED000B9FED31
:103DA000B58B95ED000B53EC182B51EC100B02F07A
:103DB0009FF841EC100B00F0EFFD53EC182B51EC89
:103DC000100B01F06BFE41EC100B85ED000B9FED2D
:103DD000AB8B53EC182B02F08BF89FEDAA9B53ECA6
:103DE000192B01F05BFE41EC100B00F045FE53EC8B
:103DF000102B9FEDA6AB51EC1A0B01F04FFE01F01A
:103E000067FDE06495ED000B53EC182B51EC100BA3
:103E100002F06EF853EC192B01F040FE41EC100B50
:103E200000F08EFE53EC102B51EC1A0B01F036FE15
:103E300094ED138A41EC190B18EE100A02F0DCFA2B
:103E400053EC192B02F0EEF900E0CFE001F040FD59
:103E500000EE100A84ED140AE679DFED8E0A592E81
:103E600004D238EE400A30EE600A08E05B2E04D936
:103E700038EE400A30EE200A01E09FED870ADFEDC0
:103E8000870A80EE208A84ED158A9FED850B53EC1E
:103E9000102B95ED000B51EC100B02F029F89FED63
:103EA000821B53EC112B01F0F9FD01F011FD00EE26
:103EB000100A592E84ED160A01D3B1EE400A84EDA2
:103EC000160A84ED170AB1EE400A84ED180AD4ED03
:103ED0000B0AB3EE081A80EE810A10EE100A02F007
:103EE0008BFA41EC100B85ED080B9FED711B53EC29
:103EF000112B01F0FDFF41EC190B18EE100A02F036
:103F00007BFA53EC192B01F0C9FD41EC190B85ED3F
:103F1000029B9FED69AA38EE4A0A10EE100A02F0E1
:103F20006BFA53EC192B01F0B9FD9FED648B53EC48
:103F3000182B01F0DDFF41EC100B85ED040B01F0B7
:103F4000C7FC00EE100AFFF769FCD4ED0B0A30EE57
:103F5000600A10EE100A02F04FFAC5E9040194ED70
:103F6000150A30EE0A0A10EE100A02F045FA95ED35
:103F7000021B53EC112B01F091FD53EC182B01F0B7
:103F8000B7FF41EC100B85ED060B01F0A1FC00EE34
:103F9000100AFFF743FCD4ED0B0A30EE600A10EE76
:103FA000100A02F029FA41EC180B85ED068BE07936
:103FB000592809D295ED040B51EC100B01F002FFCA
:103FC000206451EC180B0AE05B280CD951EC180B5B
:103FD00001F0F8FE206495ED040B51EC100B01F09C
:103FE000F1FE60640EE0676427640BE067649FED98
:103FF000350A276484ED160A84ED170A9FED320A0C
:1040000084ED180AD4ED190A94ED170AF4EE400A6B
:10401000F1EE10FA09D00720FFF75AFE0120FDF754
:104020000BFA94ED170A84ED190AD4ED1A0A94EDEF
:10403000180AF4EE400AF1EE10FA09D00820FFF752
:1040400047FE0120FDF7F8F994ED180A84ED1A0AED
:10405000BDEC068BBDE8F08100000020C173EFE1EC
:1040600092E3D83F9A9999999999064000000000E7
:1040700000000000000000000000244050455254A1
:10408000FB210940000000000080664000000000A5
:1040900000908A400000AB440000000000007A4419
:1040A0000000000000005340000000000080764047
:1040B000EE7C3F355EBAD13FA01AAF3FCDCCCCCC21
:1040C000CCCC0C40C3F5E840C3F5E8C0FDF7E0BD3B
:1040D00030B593B034216846FCF795F914210DA84A
:1040E000FCF791F91D480025016841F080510160FD
:1040F000006800F0805012901948016841F4404176
:1041000001600068022400F44040129001200090F9
:10411000000401908001CDE9064004200890B420FD
:10412000CDE909040B9468460C94FDF787FF88B924
:10413000FDF748FE70B90DA90F2081E831004FF45A
:10414000A0501090E002119005210DA8FDF772FE1D
:10415000002801D0FCF750FB13B030BD40380240BE
:10416000007000400248016841F47001016070472E
:1041700088ED00E00148FEF722BA0000D8010020D7
:10418000F0B50268294C2A4D2A4E2B4F2B4B4FF08D
:10419000804CA04209D0604507D0A84205D0B0426B
:1041A00003D0B84201D0984204D122F0700E4A6880
:1041B00042EA0E02A0421BD0604519D0A84217D097
:1041C000B04215D0B84213D0984211D01C4DA8422D
:1041D0000ED01C4DA8420BD01B4DA84208D01B4D41
:1041E000A84205D01A4DA84202D01A4DA84203D1C8
:1041F00022F44075CA682A434D6922F080022A439E
:1042000002608A68C2620A688262A04201D0984253
:1042100001D109690163012141610169C90703D025
:10422000016921F001010161F0BD000000000140C1
:104230000004004000080040000C00400004014061
:104240000040014000440140004801400018004087
:10425000001C00400020004070B5274DA8780228BF
:1042600011D1297A287981420DD038B12946012807
:1042700091ED0A0A04D0022804D124E09FED1F0A20
:1042800085ED0C0A2872D5ED0D0A95ED0C0AF4EEB9
:10429000400AF1EE10FA15D068794FF001040228B7
:1042A00025D000BF95ED0C0A2046FFF716FD012032
:1042B000FDF7C2F8641CE4B2042CF3D395ED0C0AAC
:1042C00085ED0D0A70BDB1EE400AD9E7012C0ED084
:1042D00095ED0C0A204685ED0C0AFFF7FEFC012047
:1042E000FDF7AAF8641CE4B2042CEFD3E6E795EDE1
:1042F0000C0AB1EE400AEDE70000002000000000CB
:104300000148FEF7FBB90000200200200148FEF73B
:10431000F5B900006802002010B5806B0021C1854E
:10432000C184FEF7E9F910BD01680C3151E8002F96
:1043300022F4907241E80023002BF5D1016814317A
:1043400051E8002F22F0010241E80023002BF5D1B3
:10435000016B012909D101680C3151E8002F22F0CD
:10436000100241E80023002BF5D1202180F84210F3
:1043700000210163704708B590F84210222901D04E
:10438000022008BD82684FF480539A4201D101692E
:1043900021B1816A9A421BD04AB10AE00268816A5F
:1043A0005268C2F308020A80816A891C08E0026927
:1043B00072B10268526802F07F020A70816A491C79
:1043C0008162C18D491E0904090CC18503D01BE01F
:1043D00002685268F1E70168CA6822F02002CA60E8
:1043E0000168CA6822F48072CA6001684A6922F0D2
:1043F00001024A61202180F8421000214163026BD2
:10440000012A03D0FEF78CFB002008BD0163016880
:104410000C3151E8002F22F0100241E80023002B5C
:10442000F5D101680A68D20602D50A684968009188
:10443000818DFEF760F9E7E770B504460068016911
:10444000E26821F44051114301612169A068E269E9
:1044500008436169114308432168CA6849F20C6343
:104460009A430243CA6020684169A26921F44071FD
:104470001143416131492068884202D03049884265
:1044800002D1FDF781FD01E0FDF76EFDE269002339
:10449000192164253226B2F5004F626828D0A0FBAE
:1044A0000101930F9200FBF7FDFE0146B0FBF5F012
:1044B0006FF01802504301EB800006EB0010B0FBD8
:1044C000F5F000F0F002B1FBF5F002EB0012B1FBE9
:1044D000F5F06FF01803584301EB800006EB001075
:1044E000B0FBF5F000F00F0021681044886070BD4B
:1044F000A0FB010192185B41FBF7D4FE0146B0FB23
:10450000F5F00201B1FBF5F06FF01803584301EB31
:10451000800006EBC000B0FBF5F000F0F80002EB05
:104520004002B1FBF5F0584301EB800006EBC00000
:10453000B0FBF5F000F00700D6E7000000100140E6
:104540000014014081628285C285002141642221DC
:1045500080F84210016921B10168CA6842F4807292
:10456000CA6001684A6942F001024A610068C16894
:1045700041F02001C16000207047FEE703B40198BC
:104580004100009850EAC12018BF04204A0D18BF0E
:1045900040F0010040F2FF72B2EB515F08BF40F003
:1045A0000200012808BF052002B070470907090E64
:1045B000002804DB00F1E02080F80014704700F0D0
:1045C0000F0000F1E02080F8141D7047000000008B
:1045D00070B5D94B00242DED020B2DED108BDDE9CC
:1045E0001010984205DA20F000429A4201D809D111
:1045F00041B19DED100BBDEC108B02B0BDE87040D9
:1046000001F086B8B0F5801F26DA11430BD00028E0
:1046100013DA0120FBF726FFBDEC108B02B0BDE8DA
:10462000704001F081B80220FBF71CFF01F058F840
:1046300051EC100B01F040F99EE06FF035049FED56
:10464000C00B53EC102B9DED100B51EC100B01F037
:104650004FFCCDE91001084604EB2051C0F31304D0
:10466000B948A1F2FF31204400F4801080F07F624D
:1046700082F04052224301EB20559FEDB50B119281
:1046800053EC102B9DED100B51EC100B01F0CAFDFB
:1046900041EC180BA01CC0F313009FEDAFDB9FEDA6
:1046A000B0EBB14E7E4403286CD296ED000B51EC7A
:1046B000180B53EC102B01F049FB1DD1002D01BF4D
:1046C00096ED000BBDEC108B02B070BD284601F0DA
:1046D000A8FB41EC180B53EC1D2B01F009FC41EC3D
:1046E000190B53EC1E2B51EC180B01F001FC53EC91
:1046F000192B01F01FF93FE09FED9D0B51EC180BBA
:1047000053EC102B01F0F4FB9FED9B1B53EC112B92
:1047100001F07CFD41EC190B53EC182B51EC180BFC
:1047200001F0E6FB53EC192B01F0E2FB41EC190B15
:10473000002D04BF53EC192B51EC180B1AD028464E
:1047400001F06FFB41EC1A0B53EC1D2B01F0D0FB79
:1047500053EC192B01F05AFD53EC182B01F062FDBC
:1047600041EC180B53EC1E2B51EC1A0B01F0C0FB63
:1047700053EC182B01F056FDBDEC108B02B041EC50
:10478000100B70BD9FED7E0B51EC180B53EC102BF2
:1047900001F0D0F841EC100B51EC180B53EC102B3E
:1047A00001F07CF941EC190B284601F03AFB41EC91
:1047B0001B0B53EC192B51EC190B01F099FB41EC3D
:1047C0001A0B714853EC1A2B261851EC1A0B01F0F6
:1047D0008FFB41EC1F0B6D48C4F1510404F5D72445
:1047E000B0EE4F0AF0EE6F0A0321784400F0BCFCF3
:1047F00053EC1F2B51EC100B01F07AFB41EC1C0B1E
:104800006348B0EE4F0AF0EE6F0A0421784400F0DE
:10481000ABFC53EC1A2B51EC100B01F069FB344349
:1048200053EC1C2B01F086F841EC1C0B002C4CDDEA
:104830009FED510B51EC180B53EC102B01F058FB72
:1048400053EC182B01F054FB41EC1A0B55B353EC0D
:104850001D2B51EC1B0B01F04BFB41EC1D0B53ECE2
:104860001C2B51EC1A0B01F065F853EC192B01F0DD
:104870003FFB53EC1D2B01F05DF853EC1A2B01F0BC
:10488000C5FC53EC182B01F0CDFC41EC180B53EC9C
:104890001E2B51EC1B0B01F02BFB53EC182B01F0E2
:1048A000C1FC69E753EC1C2B51EC1A0B01F042F8E8
:1048B00053EC192B01F01CFB53EC1A2B01F0A6FC56
:1048C00053EC182B01F0A2FC56E735B353EC1D2B2B
:1048D00051EC1B0B01F00CFB41EC1A0B53EC1C2BA5
:1048E00051EC180B01F09EFC53EC192B01F000FB6E
:1048F00053EC1A2B01F096FC53EC182B01F092FCB0
:1049000041EC180B53EC1E2B51EC1B0B01F0F0FA91
:1049100053EC182B01F086FC2EE753EC1C2B51ECCA
:10492000180B01F07FFC53EC192B01F0E1FA53EC6A
:10493000182B01F06BFC1FE70000F07F0000000067
:104940000000000000005043645F09000000000008
:10495000000000000000F03F763C7935EF39EA3D79
:104960000000E0FE422EE63FD01E000000000000E6
:10497000555555555555D53F000000000000E03F06
:10498000000000000000004086EBF9FF221D00003F
:10499000181D00000000000010B52DED020B2DEDDC
:1049A000088B84B09DED0C0B51EC100B01F0D4FB87
:1049B00041EC180B9DED0C0B53EC182B51EC100B2C
:1049C00001F030FC41EC190B0D989FED290B10F014
:1049D000004F53EC102B51EC190B9FED21AB9FEDC9
:1049E00022BB0ED001F048FA0ED953EC1B2B51EC30
:1049F000190B01F07BFB1CD214E000BF41EC180B3B
:104A000017E001F039FA06D253EC1A2B51EC180BCF
:104A100001F008FCF2E753EC1B2B51EC190B01F0F1
:104A200065FB06D853EC1A2B51EC180B00F082FFF3
:104A3000E4E78DED028B9DED0C0B18EE901A10EE55
:104A4000900A8DED000B61F31E0003909DED020BAB
:104A500004B0BDEC088B02B010BD000000000000E7
:104A6000000000000000F03F000000000000E03FF8
:104A7000000000000000E0BF10B52F499FED2C1B87
:104A80002DED020B84B0059820F000408842DCBF79
:104A900000209DED040B32DD2849884209D104989D
:104AA00040B94FF00100FBF7DDFC00F03DFE06B021
:104AB00010BD05DB9DED040B00F02AFE06B010BD15
:104AC00068469DED040B00F07BF810F0030011D058
:104AD000012818D09DED021B9DED000B02281AD075
:104AE00000F08AFA51EC100B00F0E6FE06B041EC43
:104AF000100B10BD9DED021B9DED000B012000F081
:104B0000AFFB06B010BD9DED021B9DED000B00F04C
:104B100073FA06B010BD012000F0A2FB51EC100B9F
:104B200000F0CAFE06B041EC100B10BD0000000002
:104B30000000000000000000FB21E93F0000F07FC2
:104B400010B51D499FED1A1B2DED020B84B0059881
:104B500020F000408842DCBF01209DED040B21DDE8
:104B60001649884209D1049840B94FF00100FBF77B
:104B700079FC00F0D9FD06B010BD05DB9DED040BFE
:104B800000F0C6FD06B010BD68469DED040B00F0B8
:104B900017F800F001000121A1EB40009DED021B80
:104BA0009DED000B00F0F4FB06B010BD000000000E
:104BB0000000000000000000FB21E93F0000F07F42
:104BC0002DE9F14F04462DED020B2DED088B8AB037
:104BD0009FEDE70B80ED020B139EE74826F00045A2
:104BE00085420ADC9DED120B002084ED000B0AB01B
:104BF000BDEC088B03B0BDE8F08FE0489FEDE0AB63
:104C00009FEDE1BBA84247DDE14F9FEDE39B9FEDA8
:104C1000E48B9DED120B53EC1A2B51EC100B002E74
:104C20001CDD01F0FFFA41EC100BBD4208D053EC43
:104C30001B2B51EC100B01F0F5FAC4E900010BE05D
:104C400053EC192B51EC100B01F0ECFA53EC182B30
:104C500001F0E8FAC4E900010120C8E700F06AFEAB
:104C600041EC100BBD4208D053EC1B2B51EC100B48
:104C700000F060FEC4E900010BE053EC192B51EC8D
:104C8000100B00F057FE53EC182B00F053FEC4E954
:104C900000014FF0FF30AAE7C348A84279DB9DED41
:104CA000120B51EC100B00F06AFD41EC180B9FED5C
:104CB000C00B53EC102B01F01BF99FEDBF1B53EC05
:104CC000112B00F037FE01F07DF8074601F0A9F83E
:104CD00041EC190B53EC1A2B01F00AF953EC182B89
:104CE00001F094FA41EC180B53EC1B2B51EC190B0F
:104CF00001F0FEF8DFF8C8A241EC100B4FEA15589E
:104D00000125FA4453EC102B51EC180B01F08AFAF0
:104D1000032DC4E900013DD0C1F30A5005EB451154
:104D2000A8EB00001139814234DA0AEB051BB0EE22
:104D300048AA9BED000BF0EE68AA53EC102B51EC47
:104D4000190B01F0D5F841EC1B0B51EC1A0B53EC8D
:104D50001B2B01F067FA41EC180B51EC1A0B53ECCA
:104D6000182B01F05FFA53EC1B2B01F05BFA9BED63
:104D7000020B41EC1A0B53EC102B51EC190B01F008
:104D8000B7F853EC1A2B01F04DFA41EC100B6D1CE7
:104D9000B8E70EE0002EA8BF3846BFF628AF94ED66
:104DA000000B51EC100B00F087FDC4E900017842C4
:104DB0001DE7C6F3130040F4801EC6F30A50A0F2AC
:104DC000F530471100F01F05C5F12000DDF848B0AF
:104DD00008900020069007900520EC467949002DA8
:104DE00007EB0002794408BF51F8221009D051F8AE
:104DF000223001EB8201AB404A68089922FA01F1A6
:104E00001943A1FB0E26A1FB0B131A449A4234BF8F
:104E10000123002303EB06080CEB8003D3E901A672
:104E20000E448E4234BF0121002192448A4411B1C4
:104E3000924502D903E0924501D2012100E0002110
:104E4000C3E901A641444CF82010011EA0F1010065
:104E5000C4DC029800F10050850F0298DDE9036779
:104E60008000DDF8148000F0DCFF41EC1A0B3046C6
:104E700000F0EEFF9FED541B53EC112B01F038F8BE
:104E800041EC1B0B384600F0E3FF9FED511B53EC48
:104E9000112B01F02DF841EC180B404600F0D8FF23
:104EA0009FED4D1B53EC112B01F022F841EC190B37
:104EB00051EC180B53EC192B00F03CFD53EC1B2B61
:104EC00000F038FD53EC1A2B00F034FDCDE9080159
:104ED000002008909DED080B53EC1A2B51EC100BA1
:104EE00001F0A0F953EC1B2B01F09CF953EC182BAB
:104EF00001F098F953EC192B01F088F99FED381B5C
:104F000053EC112B00F0F4FF9FED370B41EC180B25
:104F100053EC102B9DED080B51EC100B00F0E8FF4B
:104F200053EC182B00F006FD9FED310B41EC180BF4
:104F300053EC102B9DED080B51EC100B00F0D8FF3B
:104F400053EC182B00F0F6FC41EC100B139810F00A
:104F5000004F06D06D4251EC100B00F0ADFC41EC5F
:104F6000100B284684ED000B41E600000000000015
:104F70000000000000000000FB21E93F7CD9024056
:104F800000004054FB21F93F3163621A61B4D03D07
:104F9000FB21F93F000000000000601A61B4D03D21
:104FA0007370032E8A19A33BFB21394100000000D6
:104FB00083C8C96D305FE43F000000000000E03F9F
:104FC0007A180000C8170000000000000000103E22
:104FD000000000000000103C000000000000103A3B
:104FE000182D4454FB21F93D3326A611460B113CE4
:104FF00000000054FB21F93D10B52DED040B2DED03
:10500000088B82B0B0EE419AF0EE619A0B9820F0D6
:1050100000449FED4BABB4F1795F11DA9DED0A0BC3
:1050200051EC100B00F0CEFE002801BFB0EE4A0A92
:10503000F0EE6A0A02B0BDEC088B04BF04B010BDEC
:105040009DED0A0B53EC102B51EC100B00F050FFB0
:1050500041EC180B3C480621B0EE480AF0EE680A15
:10506000784400F081F853EC182B51EC100B00F051
:105070003FFF9DED0A0B41EC1B0B53EC192B51EC40
:10508000100B00F035FF41EC190B53EC1B2B51ECCE
:10509000180B00F02DFF53EC192B01F0C3F89FED16
:1050A0002C0B41EC190B53EC102B51EC180B00F0AE
:1050B0001FFF41EC100B2848844210DA53EC192BE7
:1050C00051EC100B01F0AEF853EC1A2B01F09EF8E6
:1050D00041EC100B02B0BDEC088B04B010BD1F48B2
:1050E000A042BCBF9FED1E1B8DED001B06DBA4F58F
:1050F00000100190002000909DED001B51EC100B62
:1051000053EC112B01F08EF89DED000B41EC180BC8
:1051100053EC102B51EC1A0B01F084F841EC1A0BF4
:1051200053EC192B51EC180B01F07CF853EC1A2BB3
:1051300001F06CF841EC100BCCE70000000000001F
:10514000000000000000F03FE41400000000000038
:10515000000000000000E03F3333D33F0000E93F90
:10516000000000000000D23F70B504462DED028B18
:105170004D1E00EBC500B0EE408AF0EE608A90ED67
:10518000000B35F0060017D053EC182B51EC100B28
:1051900000F0AEFE41EC100B6D1E04EBC50090ED6F
:1051A000001B51EC100B53EC112B00F0C3FB41EC36
:1051B000100B35F00600E7D1022D36D0042D1CD09F
:1051C000062D1CBFBDEC028B70BD53EC182B51ECAF
:1051D000100B00F08DFE94ED0A1B53EC112B00F028
:1051E000A9FB53EC182B00F083FE94ED081B53EC45
:1051F000112B00F09FFB41EC100B53EC182B51ECE2
:10520000100B00F075FE94ED061B53EC112B00F013
:1052100091FB53EC182B00F06BFE94ED040B53EC58
:10522000102B00F087FB41EC100B53EC182B51ECCA
:10523000100B00F05DFE94ED021B53EC112B00F0FF
:1052400079FB53EC182B00F053FE94ED001B53EC4C
:10525000112B00F06FFBBDEC028B41EC100B70BD0D
:1052600031B504462DED040B2DED0A8BB0EE41BA9D
:10527000F0EE61BA0B989DED0A0B20F00040B0F102
:10528000795F0DDA51EC100BFFF778F9042808BFAD
:1052900000F05AFA9DED0A0BBDEC0A8B05B030BD4B
:1052A00053EC102B51EC100B00F022FE41EC180BCC
:1052B0009DED0A0B53EC182B51EC100B00F018FE6F
:1052C00041EC190B2C48B0EE480AF0EE680A0521B3
:1052D0007844FFF749FF9FED2ACBB0EE40AAF0EEED
:1052E00060AA9CB353EC1C2B51EC190B00F000FE90
:1052F00041EC1C0B53EC1A2B51EC190B00F0F8FD90
:105300009FED210B41EC190B53EC102B51EC1B0BB7
:1053100000F0EEFD53EC192B00F084FF53EC182B3A
:1053200000F0E6FD53EC1B2B00F07CFF53EC1C2B34
:1053300000F078FF9DED0A1B53EC112B00F066FF87
:10534000BDEC0A8B05B041EC100B30BDFFE753EC10
:105350001A2B51EC180B00F0CBFD53EC1C2B00F07A
:10536000E9FA53EC192B00F0C3FD9DED0A1B53EC39
:10537000112B00F0DFFAE3E77413000000000000D7
:10538000495555555555C5BF000000000000E03F88
:10539000F1B506462DED040BBD482DED0C8B8AB002
:1053A000B0EE418AF0EE618A179D25F000449FED32
:1053B000BABB9FEDBBCB844208DA9DED160B51ECD6
:1053C000100B00F0FFFC002800F0E980B64FA74268
:1053D00031DC002D0DDA9DED160B51EC100B00F0B9
:1053E0006BFACDE9160151EC180B00F065FA41ECAF
:1053F000180B9FEDAF0B53EC102B9DED160B51ECE2
:10540000100B00F003FF53EC182B9FEDAB0BCDE915
:10541000040151EC100B00F005FF41EC100B53ECB4
:10542000102B9DED040B51EC100B00F083FA9FED57
:10543000A48BCDE916019DED160B53EC102B51EC0E
:10544000100B00F055FDCDE904019DED040B53EC6C
:10545000102B51EC100B00F04BFD41EC190B9A484E
:105460000621B0EE490AF0EE690A7844FFF77CFEA7
:105470009648B0EE40DAF0EE60DAB0EE490AF0EEAF
:10548000690A06217844FFF76FFE9DED041B51EC7D
:10549000100B53EC112B00F02BFD9DED040B41EC98
:1054A0001A0B53EC102B9DED160B51EC100B00F06A
:1054B0001FFD41EC190B53EC1A2B51EC1D0B00F0A6
:1054C00039FA53EC192B00F013FD53EC182B00F0B4
:1054D00031FA9DED041B53EC112B00F009FD53EC48
:1054E000182B00F027FA41EC180B9FED790B51ECCB
:1054F000190B53EC102B00F0FBFC53EC182B00F0B5
:1055000019FA41EC190B9DED160B53EC192B51ECCC
:10551000100B00F00FFA41EC180BA74269DC304683
:1055200000F07FFC41EC1A0B51EC180B53EC1A2BDA
:1055300000F000FA41EC1B0B53EC182B51EC180B4C
:1055400000F0D6FC53EC1B2B00F0A8FA53EC192BFF
:1055500000F068FE9DED161B53EC112B00F056FE7B
:105560009FED5D1B53EC112B00F0C2FC53EC1A2B8A
:1055700000F04CFE41EC180B022000EAA570C0F1CF
:10558000010000F04EFC53EC182B00F0B1FC00BF02
:1055900041EC100B0AB0BDEC0C8B05B0F0BD711CDA
:1055A0001698214308430CD09DED160B012E1CBF0D
:1055B00053EC102B51EC1C0B10D000BF00F06EFA16
:1055C000E6E79DED160B51EC100B00F0D8F841EC1E
:1055D000100B51EC1B0B53EC102BEFE751EC100BA5
:1055E000FEF7CCFF042808BF00F0AEF89DED160BC7
:1055F000D0E7012E04BFB0EE480AF0EE680AC9D029
:105600008DED048B002404949DED040B53EC102BC2
:105610009DED160B51EC100B00F0F8FD53EC192B1F
:1056200000F0F4FD41EC190B53EC182B51EC1C0B62
:1056300000F034FA41EC180B8DED008B00949DEDD9
:10564000040B53EC102B9DED000B51EC100B00F0F4
:105650004FFC53EC1B2B00F06DF99DED000B41EC62
:105660001A0B53EC192B51EC100B00F041FC53ECCE
:105670001A2B00F05FF953EC182B00F039FC9DED6C
:10568000001B53EC112B00F055F981E700000000DE
:105690000000303E00000000000000000000F03F6D
:1056A000000000000000F0BF2894E53F000000006B
:1056B000182D4454FB21E93F075C143326A6813C96
:1056C000000000000000000002120000181200009C
:1056D000635555555555D53F00000000000000406A
:1056E0009FED070B10B553EC102B9FED070B51EC02
:1056F000100B00F0D3F941EC100B10BD00000000BE
:105700000000000000000000000000000000F03F6A
:1057100010B553EC102B51EC100B00F00BF941ECD1
:10572000100B10BD000000009FED050B10B553ECF1
:10573000102B51EC100B00F0B1F941EC100B10BD27
:1057400000000000000000009FED050B10B553ECB9
:10575000102B51EC100B00F0CBFB41EC100B10BDEB
:1057600000000000000000100188827849BA090496
:10577000C07841EA0221014300EE101A704782B05E
:10578000CDE9000121F0004001909DED000B02B039
:1057900051EC100B7047000008B5FCF781FAFEF7DA
:1057A00097FCFEF7B9F83F480024016841F4001166
:1057B00001600068224600F40010009021462F206E
:1057C000FCF7CEFA2F20FCF7BDFAFEF741F8FEF702
:1057D00071F8FEF73DF9FEF75BF9FEF773F9334810
:1057E0003149016042F22731C0E9011440F2E7314A
:1057F000C0E903148461FCF795FE08B1FAF7FCFFD9
:10580000FEF708F94FF41670FBF716FE2748D43858
:10581000FBF746FC6420FBF70FFE24481021D43828
:10582000FBF720F80C24052208212046FEF766FA33
:10583000641CE4B20E2CF6D34FF47A752846FBF7BD
:10584000FBFDFEF725F9FEF73DF918480822184937
:105850004830FDF757F9174C012240212046FBF74D
:10586000EBFE012280212046FBF7E6FE10490120D5
:10587000A839002488722046FAF77CFF641CE4B241
:10588000FF2CF8D32846FBF7D7FD00BFFDF7A6FF96
:10589000FEF732F9FEF750FAFEF768F9FAF75CFE08
:1058A000F4E700003038024000200040D80100201A
:1058B000A80000200008024081F00041704780F0FD
:1058C0000040704721F00041704720F000407047D1
:1058D00021F00042A2F16052B2F5801F01F00043B6
:1058E00028BFD2F17F6C0BD95FEA001C43EAC202E9
:1058F00042EB507018BF704728BF20F0010070477E
:10590000B2F5801FBCBF184670474FEA410C1CF52A
:10591000001F02D2084600F0E5BD70B500F092FB12
:1059200000000089FFF7F6BF4FF00040A0F58000AF
:105930007047000010B591EA030F48BF83F00043A1
:1059400000F17884841A71EB030C05D2121943EB31
:105950000C03001B61EB0C01DFF824E14FEA11544A
:10596000A4EB135C1EEA430F18BF9EEA445F73D09A
:1059700023EA0E03DCF1200E21EA045143F48013E4
:1059800032D322FA0CFE10EB0E0023FA0CFE41EB90
:105990000E01CCF1200E03FA0EFE10EB0E0051F1B9
:1059A0000001B1F5801FCCF1200E32D201EB045181
:1059B00012FA0EF2BDE8104058BF7047401C38BFC5
:1059C0005FEA420218BF7047002814BF20F00100B0
:1059D00041F100014FEA410313F5001F38BF704742
:1059E000A1F1C04100F07CBB012A43EB0302ACF102
:1059F000200CDCF11F0E32BF4FF0000E23FA0CF327
:105A000010EB030041EB0451B4EB115FD0D0A1EBDC
:105A1000045101F5801149085FEA300001EB04519F
:105A20000ED350F1000038BF12FA0EFE08D1BDE8C7
:105A30001040C9E7401C38BF5FEA4202CAD1C3E741
:105A4000BDE810404FEA410313F5001F38BF70470F
:105A5000A1F1C04100F044BB9EEA445F08D011EAC6
:105A60005E0FBDE8104004BF01F000410020704708
:105A7000BDE8104070B500F0E5FA00BF64FBBE3E23
:105A80000000E0FF491058BFC1F140415B1058BF12
:105A9000C3F140438B42EFF3008070472DE9C041D2
:105AA00030B4DFF8A0C23CEA111418BF3CEA13146A
:105AB00000F0EC8081EA03051CEA111444EAD57475
:105AC00018BF1CEA131500F0C780A4EB05044FF0C3
:105AD000004545EAC12145EAC32341EA505143EA62
