:020000040800F2
:10000000B80B002065020008E54700088D3F000896
:10001000E14700081D050008B15A00080000000073
:100020000000000000000000000000004D4E00082D
:100030005D05000800000000494E00080956000850
:100040007F0200087F0200087F0200087F0200088C
:100050007F0200087F0200087F0200087F0200087C
:100060007F0200087F0200087F0200087F0200086C
:100070007F0200087F0200087F0200087F0200085C
:100080007F0200087F0200087F0200087F0200084C
:10009000210500082D0500087F0200087F020008E6
:1000A0007F0200087F0200087F0200087F0200082C
:1000B0007F0200087F0200087F02000865400008F8
:1000C000594000087F0200087F0200087F020008F4
:1000D0007F0200087F0200087F0200087F020008FC
:1000E0007F0200087F0200087F0200087F020008EC
:1000F0007F020008CD5600087F0200085105000865
:100100007F0200087F0200087F0200087F020008CB
:10011000A5580008B15800087F0200087F020008B7
:100120007F0200087F0200087F0200087F020008AB
:100130007F02000800000000000000007F020008AD
:1001400039050008450500087F0200087F02000805
:100150007F0200087F0200087F0200087F0200087B
:100160007F0200087F0200087F0200087F0200086B
:100170007F0200087F0200087F02000800000000E4
:10018000000000007F0200080000000000000000E6
:100190007F02000800000000000000007F0200084D
:1001A0000000000000000000000000007F020008C6
:1001B0007F0200087F0200087F0200087F0200081B
:1001C0007F02000800F002F800F03CF80AA090E876
:1001D000000C82448344AAF10107DA4501D100F002
:1001E00031F8AFF2090EBAE80F0013F0010F18BF93
:1001F000FB1A43F0010318472878000048780000F4
:10020000103A24BF78C878C1FAD8520724BF30C842
:1002100030C144BF04680C60704700000023002414
:1002200000250026103A28BF78C1FBD8520728BF06
:1002300030C148BF0B6070471FB507F008FB1FBDFA
:1002400010B510BD00F034F91146FFF7F5FF05F0C9
:1002500031FC00F052F903B4FFF7F2FF03BC00F0E9
:1002600055F900000948804709480047FEE7FEE7C6
:10027000FEE7FEE7FEE7FEE7FEE7FEE7FEE7FEE756
:1002800004480549054A064B70470000B956000866
:10029000C5010008B8050020B80B0020B8070020F1
:1002A000B807002053EA020C00F069802DE9F04BFA
:1002B0004FF00006002B1FBFB3FA83F503FA05F4D5
:1002C00024FA05F65E4012BF1643B2FA82F502FA2E
:1002D00005F4C5F120051EBF22FA05FC44EA0C0412
:1002E000203556EA044C4FEA144418BF641C4FF002
:1002F00000084FF00009904271EB030C39D300293C
:1003000019BFB1FA81F701FA07F6B0FA80F700FADF
:1003100007F6C7F120071EBF20FA07FC46EA0C06C5
:100320002037B6FBF4FCA7EB0507103F07F01F0BC7
:10033000CBF120062CFA06F60CFA0BFB44BFB346B1
:100340000026202FA4BF5E464FF0000B5BEA060C90
:1003500008BF4FF0010B19EB0B0948EB0608ABFB8C
:10036000027C06FB02CC0BFB03CCC01B71EB0C0127
:10037000C1E70B46024641464846BDE8F08B13B53F
:10038000084318BF4FF0FF300146AFF30080BDE8CF
:100390001C407047032A40F2308010F0030C00F03C
:1003A000158011F8013BBCF1020F624498BF11F8AF
:1003B00001CB00F8013B38BF11F8013BA2F1040268
:1003C00098BF00F801CB38BF00F8013B11F00303E0
:1003D00000F02580083AC0F0088051F8043B083A44
:1003E00051F804CBA0E80810F5E7121D5CBF51F8E6
:1003F000043B40F8043BAFF30080D20724BF11F860
:10040000013B11F801CB48BF11F8012B24BF00F8C4
:10041000013B00F801CB48BF00F8012B704710B535
:10042000203AC0F00B80B1E81850A0E81850B1E8AD
:100430001850A0E81850203ABFF4F5AF5FEA027CEC
:1004400024BFB1E81850A0E8185044BF18C918C01C
:10045000BDE810405FEA827C24BF51F8043B40F8BD
:10046000043B08BF7047D20728BF31F8023B48BFA2
:1004700011F8012B28BF20F8023B48BF00F8012BE0
:10048000704770477047704710B500F009F8006872
:1004900010BD10B5044600F003F8046010BD000064
:1004A000004870475000002000487047500000206E
:1004B0007546FFF7F9FFAE4605006946534620F042
:1004C0000700854618B020B5FFF7DAFEBDE82040EA
:1004D0004FF000064FF000074FF000084FF0000B00
:1004E000AC46ACE8C009ACE8C009ACE8C009ACE86F
:1004F000C00921F007018D46704710B50446AFF3DF
:1005000000802046BDE81040FFF7A5BE0149182035
:10051000ABBEFEE72600020070470000FEE70000C9
:1005200040F2F030C2F2000000F0EEBC40F2F030D9
:10053000C2F2000000F0E8BC40F2B420C2F20000B9
:1005400000F0E2BC40F2B420C2F2000000F0DCBCDB
:1005500040F21840C2F2000001F08CB87047000071
:100560002DE9F04F83B05E181C46814641EA4010E9
:10057000202E28BFC1F120041FFA84FB9246CDE94A
:10058000002B82B240F278401D464FF47A77C2F2D7
:100590000000AE210223029702F06CF90020B0EBBC
:1005A000561F22D076092F1B4FF47A7509F10109E5
:1005B000B9B23C464FEA4910202928BF20241AFA34
:1005C0008BF1A2B2CDE9001282B240F27840C2F2C1
:1005D0000000AE2102231FFA8BF8029502F04AF9BF
:1005E0003F1B013E18FA84FBE0D103B0BDE8F08F59
:1005F0009FED168A0120B0EE480A04F029FC022083
:10060000B0EE480A04F024FC0320B0EE480A04F0DF
:100610001FFC0420B0EE480A04F01AFC40F27C20D3
:10062000C2F2000000F1380440F23010C2F20000C3
:1006300040F2B00A4FF0AD094FF0000B00F1540545
:10064000C2F2000A40F2AD2802E000BF0000000044
:1006500040F2142740F2A816C2F20007C2F20006C8
:1006600047F8189F042046F818BF386120463946DD
:1006700032462B4687F814B0C7E901BBC7F80CB067
:1006800000F0E4FA012001F087F9DAF81C0039469D
:100690000130CAF81C00204632462B4600F0D6FA3C
:1006A000012001F079F9DAF81C0039460130CAF866
:1006B0001C00204632462B4600F0C8FA012001F00B
:1006C0006BF9DAF81C0009F120090130C145CAF8BC
:1006D0001C00C6F800B0C6F804B0B9D19FEDF68A88
:1006E0000120B0EE480A04F0B3FB0220B0EE480A45
:1006F00004F0AEFB0320B0EE480A04F0A9FB04208E
:10070000B0EE480A04F0A4FB4FF0AD094FF0000B27
:1007100040F2AD2840F2142740F2A816C2F20007BA
:10072000C2F2000647F8189F042046F818BF386147
:100730002046394632462B4687F814B0C7E901BB3C
:10074000C7F80CB000F082FA012001F025F9DAF8C0
:100750001C0039460130CAF81C00204632462B46A0
:1007600000F074FA012001F017F9DAF81C0039469C
:100770000130CAF81C00204632462B4600F066FACB
:10078000012001F009F9DAF81C0009F12009013013
:10079000C145CAF81C00C6F800B0C6F804B0B9D10B
:1007A0009FEDC58A0120B0EE480A04F051FB0220FB
:1007B000B0EE480A04F04CFB0320B0EE480A04F007
:1007C00047FB0420B0EE480A04F042FB4FF0AD09AD
:1007D0004FF0000B40F2AD2840F2142740F2A8166B
:1007E000C2F20007C2F2000647F8189F042046F83C
:1007F00018BF38612046394632462B4687F814B078
:10080000C7E901BBC7F80CB000F020FA012001F0E5
:10081000C3F8DAF81C0039460130CAF81C0020463B
:1008200032462B4600F012FA012001F0B5F8DAF852
:100830001C0039460130CAF81C00204632462B46BF
:1008400000F004FA012001F0A7F8DAF81C0009F121
:1008500020090130C145CAF81C00C6F800B0C6F82E
:1008600004B0B9D19FED948A0120B0EE480A04F09B
:10087000EFFA0220B0EE480A04F0EAFA0320B0EEE4
:10088000480A04F0E5FA0420B0EE480A04F0E0FA61
:100890004FF0AD094FF0000B40F2AD2840F21427A5
:1008A00040F2A816C2F20007C2F2000647F8189FED
:1008B000042046F818BF38612046394632462B4698
:1008C00087F814B0C7E901BBC7F80CB000F0BEF957
:1008D000012001F061F8DAF81C0039460130CAF84D
:1008E0001C00204632462B4600F0B0F9012001F0F2
:1008F00053F8DAF81C0039460130CAF81C002046CB
:1009000032462B4600F0A2F9012001F045F8DAF852
:100910001C0009F120090130C145CAF81C00C6F8C5
:1009200000B0C6F804B0B9D19FED638A0120B0EEE3
:10093000480A04F08DFA0220B0EE480A04F088FA62
:100940000320B0EE480A04F083FA0420B0EE480A0F
:1009500004F07EFA4FF0AD094FF0000B40F2AD28E5
:1009600040F2142740F2A816C2F20007C2F20006B5
:1009700047F8189F042046F818BF386120463946CA
:1009800032462B4687F814B0C7E901BBC7F80CB054
:1009900000F05CF9012000F0FFFFDAF81C00394696
:1009A0000130CAF81C00204632462B4600F04EF9B2
:1009B000012000F0F1FFDAF81C0039460130CAF8D6
:1009C0001C00204632462B4600F040F9012000F082
:1009D000E3FFDAF81C0009F120090130C145CAF82B
:1009E0001C00C6F800B0C6F804B0B9D19FED328A39
:1009F00072B604264FF0000840F2AD290120B0EE97
:100A0000480A04F025FA0220B0EE480A04F020FA61
:100A10000320B0EE480A04F01BFA0420B0EE480AA6
:100A200004F016FA4FF0AD0B40F21427C2F20007A3
:100A300047F818BFC7E9038640F2A816C2F20006BD
:100A400046F8188F2046394632462B4687F81480E0
:100A5000C7E9018800F0FAF8012000F09DFFDAF8FC
:100A60001C0039460130CAF81C00204632462B468D
:100A700000F0ECF8012000F08FFFDAF81C00394696
:100A80000130CAF81C00204632462B4600F0DEF842
:100A9000012000F081FFDAF81C000BF1200B01307F
:100AA000C6F80080CB45C6F804804FF00406CAF8AB
:100AB0001C00B9D1A2E700BF000000002DE9F047FB
:100AC00040F2B005C2F20005E87808B1BDE8F08751
:100AD00040F20000C2F2000090ED060A90ED081A04
:100AE0009FED4B3A31EE401A9FED482A9FED460AA2
:100AF000B4EE431A9FED473A31EE022A80ED091A0F
:100B000031EE000AF1EE10FAB4EE431AB8BFB0EEBF
:100B1000421A40F23010BFEE002AF1EE10FAC8BFC0
:100B2000B0EE401AC2F200009FED3B0AB4EE421A4A
:100B3000B7EE002A80ED191AB8EE083AF1EE10FA75
:100B4000B8BFB0EE430AB4EE421A95ED0D1AB0EEFE
:100B5000083AF1EE10FAC8BFB0EE430AB4EE401AFC
:100B6000F1EE10FA85ED0C0A08BFBDE8F08740F2FF
:100B70001424C2F200042E2144F8181F4FF000097B
:100B80000421C4E9039140F2A81A40F27C21C2F288
:100B9000000AC2F200010AF1180801F1380700F159
:100BA0005406B1EE400A384621464246334684F8A0
:100BB0001490C4E901998AED060A00F047F8012073
:100BC00000F0EAFEE86921460130E8613846424615
:100BD000334600F03BF8012000F0DEFEE8692146D4
:100BE0000130E86138464246334600F02FF80120D4
:100BF00000F0D2FEE869296B0130E861CAE9069984
:100C00006963BDE8F08700BF0000B4C30000B443CF
:100C1000000034C3000034430000000090F820209E
:100C2000013A012A08D8006800F114020020136874
:100C300019431160704700BF00F1240201204FF4F6
:100C400080211368194311607047000010B590F8B7
:100C500020E0D0F800C0AEF1010EBEF1010FDCF8CB
:100C600008E00FD81EF0E05F16D0CEF3016E012031
:100C700000FA0EF018608B68C3B1486843EAC003FD
:100C800016E000BF00F1240101204FF480220B6820
:100C90001A430A6010BD00BF00F1240101204FF487
:100CA00000120B681A430A6010BD00BF08684305B4
:100CB000D1E9030403430CEB0E10C0F88031C0F8F7
:100CC0008441097D012905D100F5C2710B6843F407
:100CD00080730B605168C0F88C11126800F5C07108
:100CE000C0F88821002001220B681A430A6010BD59
:100CF000B0B590F82020013A012A2FD846F20060C2
:100D0000C4F20000026842F001020260026822F4AC
:100D10007C520260D1F814E0CC694A6A0368012C65
:100D200043EA022202600EF01F024FF0010303FAB1
:100D300002F2C3696FEA020C23EA0203C36113D013
:100D40002CBBC36803EA0C03C360CB688C8844EAFD
:100D5000034300EBCE0423640B4611E0416A41F4E7
:100D6000802141620120B0BDC3681343C3600B689A
:100D70008C8844EA034300EBCE04236401F10C03A6
:100D80008C681B8843EA044300EBCE046364436829
:100D90008D6943EA0204D1F810E0096A002D08BF0A
:100DA00003EA0C0444604369BEF1000F43EA020405
:100DB00008BF03EA0C040129446102D1C16911434F
:100DC000C161016821F0010101600020B0BD000097
:100DD0007047000010B590F82040013C012C7BD8F2
:100DE000D0F800C0002900F08180DCF81040A40792
:100DF00000F081800CEB011CDCF8B0410CF5D87ED2
:100E000014F004049460DCF8B04119BFE4085460A5
:100E1000640D1460DEF800400CF5DA7E04F0020484
:100E2000D460DCF8B44124075ABFDEF8004004F077
:100E30000F0408241461DEF800400029C4F30724DD
:100E40009461DEF800404FEA14445461DCF8B821A4
:100E50001A70026802EB0112D2F8B8214FEA12228E
:100E60005A70026802EB0112D2F8B8214FEA12421E
:100E70009A70026802EB0112D2F8B8214FEA1262AE
:100E8000DA70026802EB0112D2F8BC211A71026812
:100E900002EB0112D2F8BC214FEA12225A71026809
:100EA00002EB0112D2F8BC214FEA12429A71026899
:100EB00002EB0112D2F8BC214FEA1262DA7100682B
:100EC00014BF00F1100100F10C01002020220B687A
:100ED0001A430A6010BD00BF00F1240101204FF445
:100EE00080220B681A430A6010BD00BFDCF80C407A
:100EF000A4077FF47FAF00F1240101204FF400121A
:100F00000B681A430A6010BD2DE9F04F81B004460A
:100F100000684669D0F804908768D0F80CB0D0F823
:100F200010A0D0F81880F10704D1002530071DD497
:100F300024E000BFF90710D00121BA07816009D46D
:100F4000780700F1AF80380700F1B680204600F046
:100F500023FB02E0204600F021FB0025F80500F10C
:100F60008780F80300F1B180300707D51BF010002F
:100F700004D0206845F400751021C160700708D5C1
:100F80001BF0080005D020680821C160204600F051
:100F9000FFF9B00706D52068C068800702D0204658
:100FA00000F0F8F9700607D51AF0100004D0206898
:100FB00045F4806510210161B00608D51AF00800DB
:100FC00005D0206808210161204600F0E5F9F0060F
:100FD00006D520680069800702D0204600F0E0F9BD
:100FE000B00308D519F0100005D020681021416029
:100FF000204600F0A1FAF00308D519F0080005D04A
:10100000206808214160204600F0D2FA300440F107
:101010009B805FEA497040F1948006F4807008EA92
:10102000102028435FEA8871014648BF41F0020161
:10103000B20558BF01465FEA48700D4648BF45F00B
:101040000405700558BF0D46300540F17A8018F050
:10105000700000F076801038000905286CD8DFE8B1
:1010600000F003595D61656945F0080564E000BF63
:1010700020684FF48071BA0581600BD4780515D4CF
:1010800038051DD4204600F08BFAF8037FF56CAFCD
:101090001BE000BF204600F085FAF8037FF564AF3F
:1010A00013E000BF4FF4006558E700BF05F5005599
:1010B000F8037FF559AF08E04FF480554EE700BFC5
:1010C00005F58045F8037FF54FAF20684FF4803178
:1010D000BA0381600AD4780310D4380314D42046AC
:1010E00000F062FA30073FF541AF47E7204600F0D5
:1010F0005DFA30073FF53AAF40E700BF05F5004520
:1011000030073FF533AF39E705F5803530073FF558
:101110002DAF33E745F010050EE000BF45F0200588
:101120000AE000BF45F0400506E000BF45F080053D
:1011300002E000BF45F480752068816921F07001EC
:10114000816120680421416055B1606A40EA05016F
:101150002046616201B0BDE8F04FFFF739BE00BF25
:1011600001B0BDE8F08F0000B0B5C8B1044690F8FA
:10117000200010B9204600F071F82068016841F0A5
:101180000101016000F006FD054600BF20684168CE
:10119000C90707D100F0FEFC401B0B28F6D312E074
:1011A0000120B0BD016821F00201016000F0F2FCF5
:1011B000054600BF2068416889070DD500F0EAFCAC
:1011C000401B0B28F6D3606A052140F400306062B2
:1011D000012084F82010B0BD217E0268012922F090
:1011E000800208BF80320260617E0268012922F01D
:1011F000400208BF40320260A17E0268012922F04D
:10120000200208BF20320260E17E0268012922F03C
:10121000100218BF10320260217F0268012922F0FB
:10122000080208BF08320260617F0268012922F0CB
:10123000040208BF04320260D4E901C2D4E90335D4
:1012400061691A432A431143ACF101021143C161A0
:1012500000200121606284F82010B0BDB0B586B0D6
:10126000006846F60002C4F2000200219042CDE977
:101270000411CDE90211019134D046F20041C4F2CB
:101280000001884240F0828040F29C31C2F20001AD
:101290000A6843F64000C4F20200531C0B6052B9C6
:1012A00000210091016841F000710160016801F0C6
:1012B0000071009100990021009150F8101C152434
:1012C00041F0010140F8101C50F8100C142500F0FA
:1012D0000100009000984FF4C05001900020C4F22B
:1012E000020038E043F64000C4F2020000910168B9
:1012F00041F080610160016801F080610091009916
:1013000040F29C31C2F200010A68531C0B6052B9D2
:1013100000210091016841F000710160016801F055
:101320000071009100990021009150F8101C412497
:1013300041F0020140F8101C50F8100C402500F05C
:101340000200009000984FF4405001900020C4F239
:10135000020000F580600221029100210391032127
:1013600004910921059101A900F02AFB28460021DA
:10137000002201F0F7FC284601F0E4FC20460021A1
:10138000002201F0EFFC204601F0DCFC06B0B0BD0D
:101390007047000070470000704700000000000028
:1013A0002DE9F04381B040F2142540F2A817C2F2B3
:1013B0000005C2F2000705F1300207F12003012108
:1013C000FFF708FD2A6B40F2B004C2F20004C2F33A
:1013D0004303500902F01F01E37202F00103023AD5
:1013E000032A6070A17023736ED8DFE802F0031740
:1013F0002D4100BF388C00BA000C00EE100A608A44
:10140000B8EE400A0130608297F83A0084ED0E0A87
:10141000013087F83A0001B0BDE8F083D7E9080150
:1014200040F2000200BAC2F20002106208BA218A39
:101430005063481C97F839102082481C87F83900FF
:1014400001B0BDE8F08300BF388C00BA000C00EE9C
:10145000100AA08AB8EE400A0130A08297F83C003A
:1014600084ED0F0A013087F83C0001B0BDE8F0833D
:10147000B7F92000B7F9228005F089FE9FED2C0B0B
:1014800056EC105B2A46334605F0E8FE05F010FCEA
:1014900040F20009C2F20009C9F81C00404605F0FC
:1014A00076FE2A46334605F0D9FE05F001FCE18AB6
:1014B000C9F83000481C97F83B10E082481C87F8B8
:1014C0003B0001B0BDE8F08309290FD0012929D1E3
:1014D000C1B26A5C57FA80F001326A5497F824105E
:1014E00080F8421001B0BDE8F08300BFD7E90812D0
:1014F00040F2A033C0B2C2F20003BA6243F8202027
:1015000040F24C32C2F2000200EE101A42F82010F3
:10151000BDEEC00A40F2DC2210EE101AC2F2000248
:1015200022F8101001B0BDE8F08300BF00BF00BF7B
:10153000000000000000B03F70470000B0B5044656
:1015400090F8200001281DD1022084F82000206896
:10155000016821F00101016000F01CFB054600BF9D
:1015600020684068C00713D000F014FB401B0B2814
:10157000F6D3606A40F400306062052084F82000F1
:101580000120B0BD606A40F4002060620120B0BD5F
:1015900000206062B0BD000070470000704700008E
:1015A000704700007047000070470000704700005F
:1015B0007047000070B5866D044600F0EBFA94F8B1
:1015C000351002292ED105462068216C026822F0D0
:1015D00016020260426922F08002426109B9A16CE0
:1015E00019B1016821F008010160016821F00101D1
:1015F00001600068C00708D000F0CCFA401B052845
:1016000018D820680068C007F6D1E06D3F2101FAC4
:1016100000F0B060012084F835000020002184F83B
:10162000341070BD802060650120002184F83410E2
:1016300070BD00BF20206065032084F835000021C4
:1016400084F8341070BD000090F83510022909D1DB
:10165000052180F835100068016821F00101016062
:1016600000207047802141650120704790F83500C7
:1016700070470000F0B581B004460020009040F2B1
:101680004C00C2F200000268D4E9166048F2B513BB
:1016900037680821C1F64E3381403942A2FB032549
:1016A0000CD0226813685B0708D5136823F0040385
:1016B0001360B160616D41F00101616501218140FC
:1016C000394208D022685269120604D5B160616DB2
:1016D00041F00201616504218140394208D022684D
:1016E0001268920704D5B160616D41F00401616533
:1016F00010218140394217D020680268120713D5A3
:10170000B16002680168520308D4C90508D40168B1
:1017100021F008010160216C21B905E0080343D4E0
:10172000216C09B120468847E16D202000FA01F2C2
:101730003A4245D020680368DB0641D5B26094F890
:1017400035300268052B1FD122F016020260426973
:1017500022F080024261226C0AB9A26C1AB10268BE
:1017600022F0080202603F208840B060012084F827
:101770003500216D0020002984F8340058D020461F
:10178000884701B0F0BD00BF0168520310D4C905FD
:1017900012D4016821F010010160012084F83500A5
:1017A000002084F8340007E0A16C0029BAD1BBE71F
:1017B000080301D4616C00E0E16B09B12046884761
:1017C000606DA8B3606DC0072ED0052084F8350089
:1017D0002068A90A026822F001020260009A013220
:1017E0008A4200921AD80268D20717D0009A0132B2
:1017F0008A42009212D80268D2070FD0009A0132B2
:101800008A4200920AD80268D20707D0009A0132B1
:101810008A42009202D80268D207DFD1012084F800
:101820003500002084F83400E16C09B12046884777
:1018300001B0F0BD2DE9F041044600F0ABF9002CF9
:101840004ED00546022084F835000020216884F837
:101850003400086820F0010008600868C00708D05C
:1018600000F098F9401B05286CD821680868C0076B
:10187000F6D1086848F23F02CFF21002D4E90135F0
:10188000024004F10C0E9EE8C1511A432A43104352
:101890003043384340EA0800626A40EA0C00042AF8
:1018A00040EA0E0320D1D4E90A5E206B4EEA03021F
:1018B000104308604869BEF1000F20F0030040EAC1
:1018C000050040F0040C15D0B8F5005F42D0B8F127
:1018D000000F51D1022D52D0012D47D055B94EE005
:1018E0000120BDE8F08100BF0B60486920F00700CF
:1018F00040EA020C6FF00F004AF6AB2250FA81F07A
:10190000CAF6AA22A0FB02231A0947F61823C0F63A
:1019100000039A5C40F2FF335F284FF03F00C1F8AC
:1019200014C021EA030100FA02F088BF0431C4E9BF
:1019300016128860002301220020636584F8352098
:10194000BDE8F081032220230320636584F835205D
:10195000BDE8F081032DCDD8012240230120DFE82E
:1019600005F0030E030500BFE7E700BFAEF1C0704E
:10197000B0FA80F0400904E0032D04D3BAD1CEF3CD
:1019800000600028B6D0012240230120636584F85E
:101990003520BDE8F0810000B0B5044600F0FAF84B
:1019A000054640F24400C2F200000078611C18BFF6
:1019B000044400BF00F0EEF8401BA042FAD3B0BDD3
:1019C0002DE9F04F82B000F13E4241F6000502F1F0
:1019D000FF77C4F2020507224FEAB726A84208BFE4
:1019E0000622062E38BF4FEAB7224FF0010A002424
:1019F00000274FF00008009208E000BF023708F10E
:101A00000108202F04F1040400F0B4800E680AFAE3
:101A100008F916EA090FF1D0D1F804A00AF0030B77
:101A2000ABF10106012E17D80322866802FA07FEE1
:101A3000CA6826EA0E06BA40324382604268CAF398
:101A4000001522EA090205FA08F54FEA480C6FEA88
:101A50000E062A4342600BE00322BA40D643BBF194
:101A6000030FBC4604D1BC464FF0030B22E000BF7D
:101A7000C2688D68324005FA0CF52A43BBF1020FAB
:101A8000C26017D16FF0030202EA5802024404F068
:101A90001C030F25D2F820E005FA03FA0D692EEA9F
:101AA0000A0E05FA03F343EA0E031362D1F804A009
:101AB0000AF0030B02680BFA0CF332401A431AF4D3
:101AC000403F4FF0010A026098D0002243F64403E1
:101AD0000192C4F202031A6843F6004E42F48042B7
:101AE0001A601A68C4F2010E02F480420192019A4F
:101AF00028F003024FF6084C7244CFF6FF7C52F8F0
:101B00000C3004F00C060F25B540AB43009D05FAE0
:101B100006F6334342F80C30DEF808204B6842EA00
:101B2000090643F60C4CDD0258BF22EA0906CEF83E
:101B30000860C4F2010CDCF800209D0242EA0906AC
:101B400058BF22EA0906CCF80060DEF804209D03A5
:101B500042EA090658BF22EA0906CEF80460DEF818
:101B60000020DB0342EA090658BF22EA0906CEF844
:101B7000006043E702B0BDE8F08F00000069084054
:101B800018BF012070470000002A08BF09048161C6
:101B90007047000040F2B450C2F200000068704785
:101BA0007047000070470000F0B581B0044600683F
:101BB0004769426894F83E1002F480763E420FBFB7
:101BC00000256FF4807242610125BA0505D5002E0B
:101BD0001EBF02356FF4007242617A0516D5AEB1B0
:101BE000628D94F83D30D4F830C0202908BF002A17
:101BF00024D06FF48062402905F10405426101D0D0
:101C0000102903D1016841F400710160380507D53E
:101C100036B1206808356FF40061416101E000BF12
:101C200055B1206C40EA05012046216401B0BDE8B1
:101C3000F04002F0ABBA00BF01B0F0BD43F00801C4
:101C4000292909D0282B08BFBCF1210F04D06FF43B
:101C5000806141610435D9E794F83D10E26A202A99
:101C600001D0082A1ED121291ED028293CD10021CB
:101C7000CFF6FF71E162416821F4E06141606FF4E9
:101C800080614161016821F48061016000202021B0
:101C9000206384F83D1084F83E00204600F0E0FD0B
:101CA000B4E700BF21291FD10021CFF6FF71E16207
:101CB00021212163202184F83D10002184F83E1069
:101CC000426822F4E06242606FF48062426102681E
:101CD00022F4806202604269120648BF0161204618
:101CE00000F0C4FF92E700BF6FF4806141618DE7AF
:101CF0002DE9F04182B0D0F800800446C4465CF87B
:101D0000043FC06A94F83E5094F83D20402D01D025
:101D1000102D21D1D8F81860D8F81410CF0765D14C
:101D2000B0F12A4F00F0DA83B0F52A0F00F0D68325
:101D300013F400704FF0010787EA502E18BF11F01E
:101D4000080057D0606B616C0028C9B2C8F8101049
:101D500040F0078107E100BF206C00280CBFD8F8D5
:101D600018500025D8F8141013F4007618BF11F09D
:101D7000020040F0A980002E18BF11F0100040F0C2
:101D80000F8142F00800292840F09A81580540F15F
:101D9000C18101F08400802840F0BC8194F83D00AE
:101DA000618D002900F09A83616A292811F8012BBE
:101DB000C8F810206162618DA1F101016185618D1A
:101DC00008BF002940F08A83DCF80000282120F4B5
:101DD0008060CCF8000021202063204684F83D106C
:101DE00002B0BDE8F04100F041BF00BF980533D418
:101DF0004FF0010EBEF1000F34D111F0020031D0CE
:101E000094F83E00E26A216B94F83D30222B40F0BA
:101E1000BB804028236D08BF002B00F0B580206DEB
:101E2000002840F099812069B0F5404F40F094813E
:101E300000200190D8F814000190D8F81800019003
:101E40000198D8F8000040F48070C8F80000206DB8
:101E5000013000F0DABB00BFE06AB0F52A0F57D1BD
:101E600001205AE0DCF80000760700F4006000F181
:101E7000DD80002840F03283580540F1AB8101F04D
:101E80004400402840F0A68194F83D00222840F00C
:101E90002583E26A608D0428C0F09282D8F8100091
:101EA000616A0870606A01306062608D0138608527
:101EB000608D032840F012832068416821F480611E
:101EC000416002B0BDE8F081206C002818BFD8F84E
:101ED000185094F83D0000F02800282840F0E280D7
:101EE000DCF80000002320F48060CCF80000012022
:101EF00020EA950128064FF0180058BF0C20225AFE
:101F0000204684F83C3002B0BDE8F041FFF74ABEFD
:101F1000E06AB0F12A4F01D10820E06294F83E0057
:101F200040280DD1206D616C002801F0FE0018BF23
:101F300040F00100C8F8100002B0BDE8F08100BF19
:101F40002069B0F5804F40F0F58094F83D00616C59
:101F5000212801F0FE0118BF0131C8F81010606B94
:101F600008B1C06B38B9A06B002800F0B782C06B15
:101F7000002800F0B382DCF8000040F40060CCF8E8
:101F8000000002B0BDE8F08100200190D8F81400F4
:101F90000190D8F818000190019802B0BDE8F081D6
:101FA00094F83D50D8F8040020F4E060C8F804002C
:101FB00000200190D8F814000190D8F8000040F0FB
:101FC0000100C8F800000198D8F8000020F48060F3
:101FD000C8F80000D8F80400000540F15D8145F024
:101FE00008002A2840F03881A06B016849686185A3
:101FF000618D19B1216C41F004012164DCF80010FD
:1020000021F40061CCF80010FFF730FB012800F04C
:102010004381A06B44F27101C0F600010165FFF736
:1020200013FB002800F03881A06B33E1002840F05A
:102030005582580540F1F08001F08400802840F07E
:10204000EB8094F83D2094F83E00E16A212A40F0AC
:102050009B81238D002B40F0978111F5803F18BFA5
:10206000082940F05F82D8F80400202120F4E060C5
:10207000C8F80400D8F8000040F40070C8F8000068
:102080000020206384F83D1094F83E1084F83E0050
:102090004029204640F0588202B0BDE8F04100F0EF
:1020A000E7BB00BF00200190D8F814100191D8F8C8
:1020B00018100191019984F83C0002B0BDE8F0814C
:1020C00058056BD501F04400402867D194F83D00D5
:1020D000618D002900F00282D8F81010626A2A2867
:1020E0001170616A01F101016162618DA1F101016B
:1020F0006185618D08BF002940F0F081206841684A
:1021000021F480614160222028212063204684F848
:102110003D1021E1002E18BF11F0040000F0DE8117
:10212000608D002800F0DA81606A10F8011BC8F8A1
:10213000101069E0206D002842D0206D012840F089
:10214000CD81606C062101EAD010F130C8F8100092
:1021500002B0BDE8F08100BF608D70B1608D0128D4
:1021600040F00081202A18BF082A40F0C581D8F825
:10217000000020F48060C8F8000000200190D8F82A
:1021800014000190D8F8180001900198D8F80000C8
:1021900040F40070C8F8000036E200BF002E18BFFF
:1021A00011F0040000F09A81608D002800F0968103
:1021B000D8F81000616A0870606A013024E000BF3E
:1021C000606C062101EAD010F030C8F8100002B0AF
:1021D000BDE8F08101F00400012181EA900050EA9D
:1021E0000E0040F07B81E26A608D042840F0588147
:1021F000D8F8040020F48060C8F80400D8F8100073
:10220000616A0870606A01306062608D01386085C3
:1022100002B0BDE8F08100BF01F00400012181EAB5
:10222000900050EA0E0040F05981212A40F04E8182
:10223000E06A94F83D10212940F05081618D002919
:102240007FF472AF10F5803F18BF08283FF40BAF42
:1022500020283FF408AF68E1606B01684968618538
:10226000618D19B1216C41F004012164DCF800108A
:1022700021F40061CCF80010FFF7F8F901280BD029
:10228000606B44F27101C0F600010165FFF7DCF9F3
:1022900010B1606B016D8847608D60B12068416945
:1022A000490731D4416949063BD4608D18B1206C8F
:1022B00040F004002064206C30B1204602B0BDE83C
:1022C000F04101F063BF00BF2A2D07D10020206339
:1022D000282084F83D00204600F0C6FC94F83D001C
:1022E00028282BD10020CFF6FF70E06200212020AB
:1022F000216384F83D00204684F83E1002B0BDE81A
:10230000F04100F0ADBA00BF0069616A0870616A0F
:10231000206801316162618D013961854169490639
:10232000C3D50069616A0870606A01306062608DBF
:1023300001386085608D0028B9D1BCE7222D206B63
:1023400018BF222840F0CA8000212020216384F891
:102350003D00204684F83E1002B0BDE8F04100F098
:1023600083BC00BF608D022820D1102A00F220819A
:10237000012014219040C0F20101084200F01881B0
:102380004FF480601CE100BF212A04D0222A08BF3C
:10239000402840F0A380608D002800F0A38094F8CE
:1023A0003E00402800F09480BEE600BFD8F8000050
:1023B00040F48060C8F80000D8F8040007E100BFCE
:1023C000E16A012800F28E80022900F08B80002053
:1023D000019040F24C00C2F2000000684BF28951BB
:1023E000C008C1F2F841A0FB0101080A00EB80001F
:1023F00001900198013801900198002800F00E81A9
:10240000D8F80000800520D5019801380190019886
:10241000002800F00381D8F80000800515D5019848
:10242000013801900198002800F0F880D8F80000E9
:1024300080050AD50198013801900198002800F024
:10244000ED80D8F800008005D3D4D8F8000020F43F
:102450008060C8F80000D8F8040020F4E060C8F8F4
:102460000400D8F81000616A0870606A0021013029
:102470006062608D01386085202084F83D0094F80A
:102480003E0084F83E10402800F01681082A4FF0E4
:10249000000100F02081202A18BF12211BE100BF9B
:1024A000608D032856D1DCF80000022A20F48060F9
:1024B000CCF800003FF4A2AE042A3FF49FAED8F857
:1024C000000020F48060C8F8000097E6402D05D198
:1024D000204602B0BDE8F04101F018BF02B0BDE8EF
:1024E000F08100BFDCF8000020F48060CCF8000030
:1024F00002B0BDE8F08100BF12F5803F42D1D8F8AC
:10250000000020F48060C8F80000D8F8040000053E
:102510007FF533AED8F8000020F48060C8F80000E2
:1025200069E000BF20293FF49EADDCF800002021C7
:1025300020F4E060CCF8000011202063002084F833
:102540003E00204684F83D1002B0BDE8F04100F0A6
:102550008BB900BF608D02287FF450AE501E0F284B
:1025600000F28280DFE800F0087A807A8080808044
:102570008080808080808008D8F8000020F480600F
:1025800076E000BF012A02D012293FF4F0AD102AF4
:10259000C0D8012014219040C0F201010842B9D0F6
:1025A000D8F8000040F48060C8F8000023E000BFC5
:1025B000D8F8000020F48060C8F800004FF40060F4
:1025C000D8F800100843C8F80000DCF80000000547
:1025D00011D5501E1F281DD8012101FA00F048F224
:1025E0008101C8F20001084214D0DCF8000040F478
:1025F0008050CCF8000000200190D8F81400019021
:10260000D8F81800019001980020206502B0BDE8BC
:10261000F08100BF12F5803FE7D0ECE7206C40F07E
:1026200020002064D8F8040020F4E060C8F804001A
:10263000D8F81000616A0870606A00210130606299
:10264000608D01386085202084F83D00204684F8A4
:102650003E1002B0BDE8F04100F044B8D8F80000E8
:1026600040F4806004E000BFD8F8000040F400703F
:10267000C8F80000D8F81000616A0870606A216824
:10268000431C6362638D013B638509694170606A25
:10269000216801306062608D01386085486820F4EF
:1026A00040704860202084F83D0094F83E000021EE
:1026B000402884F83E1007D12046216302B0BDE8CF
:1026C000F04100F0D3B800BF082A4FF0000102D05B
:1026D000202A18BF12212046216302B0BDE8F04134
:1026E00000F0C0B87047000070B5B8B3044690F869
:1026F0003D0028B9002084F83C00204600F06EFA26
:10270000242084F83D002068016821F00101016067
:10271000016841F400410160016821F40041016059
:1027200000F04AFC48F28041C0F21E0140F600135E
:10273000D4F804E088424FF00001C0F23D0348F2B3
:10274000A16C4FF0000238BF01219842C0F2010C89
:1027500038BF0122E64538BF0A460AB1012070BDE4
:102760004DF68361C4F21B31A0FB01122168950C68
:102770004B684FF4967623F03F0343EA9243754348
:1027800044F6D3564B60C1F262060B6AA5FB0656AF
:10279000B50923F03F03E64538BF950C6A1C1A4380
:1027A0000A62CA6948F2A0664CF6FF73C0F20106DD
:1027B000B64522EA03020BD801384FEA4E03B0FBBC
:1027C000F3F001306FF31F30042898BF04201EE09F
:1027D000A368013863B119230EFB03F3B0FBF3F0D8
:1027E00001306FF31F3078B100F5804008E000BF82
:1027F0000EEB4E03B0FBF3F001306FF31F3028B146
:1028000000F5004003E000BF012000E0012010437C
:10281000C8610868D4E9072320F0C00010431843BA
:102820000860886848F2FF3204F10C0690434CCEF1
:1028300018431043A5698860C86820F0FF00304342
:102840002843C860086840F001000860002020218B
:10285000206484F83D10206384F83E0070BD0000C1
:10286000704700007047000070470000704700008C
:10287000704700002DE9F04383B0994616460F4695
:102880000446FFF787F994F83D10202920D105462A
:10289000206800BF8169890716D5FFF77BF9411BC6
:1028A00020681A29F6D381698907F3D500202021F1
:1028B000206384F83D1084F83E00216C41F0200133
:1028C000216484F83C0003E094F83C10012903D112
:1028D000022003B0BDE8F083012284F83C200368A5
:1028E000DDE90B180A9ADB0703D1036843F0010303
:1028F0000360036823F400630360222084F83D0032
:10290000402084F83E000020206462626185608D72
:10291000394620850020CFF6FF70E062204632461F
:102920004B46CDF80080019501F050FD20B101200B
:1029300003B0BDE8F08300BF208DA8B102282BD0E2
:10294000012835D121680A6822F480620A600022D9
:1029500002924A6902928A690292029A0A6842F4D1
:1029600000720A602CE000BF0020029020684169DC
:102970000291816902910299016841F4007101603C
:10298000202084F83D00002084F83E0084F83C00BC
:1029900003B0BDE8F08300BF21680A6822F48062BA
:1029A0000A600A6842F400620A600022029202E0B1
:1029B0000021029121684A69029289690291029973
:1029C00008F101061EE000BF016841F400710160DA
:1029D0000069616A0870606A2268411C6162218D29
:1029E00001392185618D0139618511694170606A04
:1029F000218D01306062481E2085618D013961851D
:102A00000104BDD080B2032810D8022832D001289A
:102A100054D1204641462A4601F02AFE00287FF480
:102A200086AF2068616A006921E000BF2046414608
:102A30002A4601F01DFE00287FF479AF2068616A04
:102A400000690870606A2268411C208D616201384B
:102A50002085638D013B638553695B07D0D580B2C8
:102A6000032803D1106820F480601060106908709A
:102A7000BDE700BF206841694907A5D4002E7BD07F
:102A8000B8F1000F0FD100BFFFF784F8206841694B
:102A9000490740F1918041694907F5D594E700BFA6
:102AA0004169490790D4FFF775F8411B20684145FB
:102AB000F6D941694907F3D47EE000BF2068416937
:102AC000490728D4D6B1B8F1000F0CD1FFF762F84E
:102AD0002068416949076FD541694907F6D51AE071
:102AE0004169490717D4FFF755F8411B2068414554
:102AF000F6D941694907F3D45EE000BF416949074F
:102B000009D4416949075CBF41695FEA417102D458
:102B100041694907F2D5016821F4806101600069CB
:102B2000616A0870606A218D013001396062218517
:102B30002068618D01396185416949073FF544AFDE
:102B400056B3B8F1000F0DD1FFF724F820684169A2
:102B5000490731D541694907F6D535E74169490744
:102B60003FF532AFFFF716F8411B20684145F5D914
:102B700041694907F2D41FE0416949073FF524AF95
:102B8000416949075CBF41695FEA41713FF51CAF8C
:102B900041694907F0D517E7416949073FF514AF87
:102BA000416949075CBF41695FEA41713FF50CAF7C
:102BB00041694907F0D507E700202021206384F808
:102BC0003D1084F83E00216C41F02001216484F81E
:102BD0003C00012003B0BDE8F0830000B0B586B032
:102BE000016845F20040C4F20000814202D006B004
:102BF000B0BD00BF002443F630050194C4F20205C5
:102C0000296800F5D83041F002012960296801F0F7
:102C1000020101910199C02101911221CDE9021413
:102C2000032104910421059101A9FEF7C9FE009436
:102C30002869002140F4001028612869002200F46E
:102C40000010009000981F2000F08CF81F2000F06A
:102C500079F820200021002200F084F8202000F0E4
:102C600071F806B0B0BD000070470000704700006A
:102C700040F2440040F2B451C2F20000C2F200013E
:102C800000780A68104408607047000080B543F679
:102C90000040C4F20200016841F400710160016863
:102CA00041F480610160016841F48071016003209A
:102CB00000F084F80F2000F005F800F027F800205D
:102CC00080BD000070B540F24406C2F2000640F23A
:102CD0004C013278C2F200014FF47A730968B3FBF9
:102CE000F2F20446B1FBF2F1084600F051FC0F2C61
:102CF0004FF0010508D838B94FF0FF3021460022C7
:102D0000002500F02FF87460284670BD82B00020C6
:102D100043F640010190C4F202014A6842F4804245
:102D20004A604A6802F480420192019A0090086861
:102D300040F080500860086800F0805000900098D3
:102D400002B07047002848BF704700F01F01012201
:102D500002FA01F14EF200124009CEF2000242F8EE
:102D60002010704710B54EF60C5CCEF2000CDCF86B
:102D70000030C3F3022E8EF00704042C28BF042475
:102D8000BEF103034FF0FF3E0EFA04F438BF0023F8
:102D9000A14399400EFA03F39A4300F00F03043B5A
:102DA0001143634409010C3300F16042B0F1FF3F6D
:102DB000C8BF02F56443197010BD00004EF60C51F7
:102DC000CEF200010A684FF6FF031A4060F30A22B0
:102DD00042F0806040F0FD700860704770B582B0CE
:102DE0000020019043F64000C4F202000168402632
:102DF00041F0805101600068C4F20E2600F080505E
:102E00000190019847F204050120C4F200053060EA
:102E1000FEF7C0FE044600BF2868C00306D4FEF7D4
:102E2000B9FE001BB0F57A7FF6D90EE00120706084
:102E3000FEF7B0FE044600BF2868800308D4FEF702
:102E4000A9FE001BB0F57A7FF6D9032002B070BD51
:102E5000002002B070BD00002DE9F041002800F014
:102E60008B8043F60808C4F202080446D8F8F80339
:102E70000D4600F00F00884207D288F8F853D8F8C2
:102E8000F80300F00F00A84276D12068810717D51B
:102E9000410705D5D8F8001041F4E051C8F80010FA
:102EA000010705D5D8F8001041F46041C8F80010BA
:102EB000D8F80010A26821F0F0011143C8F8001002
:102EC000C0073FD1D8F8F80300F00F00A84207D997
:102ED00088F8F853D8F8F80300F00F00A8424BD157
:102EE0002068410707D5D8F80010E26821F4E051C6
:102EF0001143C8F80010000708D5D8F80000216970
:102F000020F4604040EAC100C8F8000000F07CF8FE
:102F1000D8F8001047F60022C1F30311C0F60002F2
:102F2000515C40F24C0220FA01F140F24800C2F23A
:102F300000000068C2F200021160FFF7C3FE00202B
:102F4000BDE8F0816068811E022907D258F8081C8C
:102F500089015CBF0120BDE8F08111E0012807D1A3
:102F600058F8081C89035CBF0120BDE8F08107E028
:102F700058F8081C890703D40120BDE8F08100BF80
:102F8000D8F8001021F003010843C8F80000FEF74C
:102F900001FE064641F28837D8F80000616800F06B
:102FA0000C00B0EB810F8DD0FEF7F4FD801BB84212
:102FB000F2D90320BDE8F08140F24C0043F608014D
:102FC000C2F20000C4F202010068096847F610224C
:102FD000C1F38221C0F60002515CC8407047000076
:102FE00040F24C0043F60801C2F20000C4F20201B4
:102FF0000068096847F61022C1F34231C0F60002AA
:10300000515CC8407047000010B543F60404C4F298
:1030100002046068C0F3810142F20040C0F2F40093
:10302000DFE801F04402081841F20020C0F27A0003
:1030300010BD00BF216801F03F02216823684902EA
:10304000C3F3881116D4A1FB00010023FDF72AF970
:1030500017E000BF216801F03F02216823684902A0
:10306000C3F3881116D4A1FB00010023FDF71AF960
:1030700017E000BF41F20020C0F27A004843B0FBE5
:10308000F2F021680222C1F3014102EB4101B0FBE1
:10309000F1F010BD41F20020C0F27A004843B0FBCD
:1030A000F2F02168C1F30271B0FBF1F010BD000035
:1030B0002DE9F04182B0002800F0968004460078A7
:1030C00043F60006C007C4F202062BD0B06800F039
:1030D0000C00042820D0B06800F00C00082802D1B1
:1030E0007068400218D4B06800F00C000C2802D1BF
:1030F0007068400210D46068B0F5803F07D0B0F52A
:10310000A02F40F03B81306840F480203060306870
:1031100040F4803030603BE13068800302D5606865
:10312000002861D02078800722D5B06810F00C0FFD
:1031300011D0B06800F00C00082802D1706840027D
:1031400009D5B06800F00C000C2840F09F80706832
:10315000400200F19B803068800702D5E0680128BA
:1031600042D13068216920F0F80040EAC1003060A7
:10317000207800073CD42078400751D4A5698DB34E
:10318000B06800F00C00082840F0A880012D2BD07A
:103190007068E16900F480028A4225D1216A00F05A
:1031A0003F028A4220D147F6C071626A0140B1EB0A
:1031B000821F19D1A26A0023CFF6FF7303EBC2323C
:1031C00000F440316FF30F0291420DD1E16A00F03B
:1031D0007062B2EB016F07D1216B00F0E040B0EB01
:1031E000017F01D1002035E1012002B0BDE8F0816E
:1031F0006069002840F20000C4F247205ED001213F
:10320000C0F8801EFEF7C6FC054600BF706F800741
:10321000B1D4FEF7BFFC401B0228F7D9C5E000BFC0
:10322000306C10F080580AD100200190306C40F0D2
:1032300080503064306C00F080500190019847F26B
:103240000007C4F200073868C00511D4386840F49C
:1032500080703860FEF79EFC054600BF3868C005E8
:1032600006D4FEF797FC401B0228F7D99DE000BF6B
:10327000A068012805D0052852D1306F40F0040025
:103280003067306F40F00100306753E0E06800289D
:1032900060D00020C4F2472001210160FEF77AFCD3
:1032A000054600BF306880073FF55BAFFEF772FC54
:1032B000401B02284FF00300F4D9CBE00021C0F8F6
:1032C000801EFEF767FC0546706F80077FF553AFE1
:1032D000FEF760FC401B0228F6D966E00027C4F226
:1032E000472700203866FEF755FC022D05460BD116
:1032F000306880015ED5FEF74DFC401B02284FF080
:103300000300F5D9A6E000BF306880017FF56AAF01
:10331000FEF740FC401B02284FF00300F4D999E06F
:10332000316F002821F001013167316F21F0040174
:10333000316765D0FEF72EFC054641F2883700BFA5
:10334000306F80076ED4FEF725FC401BB842F7D9DA
:103350002BE000BF0020C4F2472000210160FEF7EF
:1033600019FC0546306880077FF502AFFEF712FCB6
:10337000401B02284FF00300F4D96BE031680028AD
:1033800021F480313160316821F48021316053D0E3
:10339000FEF700FC054600BF306880033FF5C2AE73
:1033A000FEF7F8FB401B6428F6D9032002B0BDE805
:1033B000F08100BF04F11C052FCD246B08430021D0
:1033C000CFF6FF7140EA821001EBC3316FF30F01BA
:1033D00040EA0560084340EA0470706001203866E6
:1033E000FEF7D8FB044600BF306880013FF5FAAE17
:1033F000FEF7D0FB001B02284FF00300F4D929E0B0
:10340000FEF7C8FB054641F2883700BF306F8007E2
:1034100008D5FEF7BFFB401BB8424FF00300F5D9BB
:1034200018E000BFB8F1000F7FF4A8AE306C20F0B8
:1034300080503064A2E600BFFEF7ACFB0546306862
:1034400080037FF56FAEFEF7A5FB401B64284FF0AD
:103450000300F4D902B0BDE8F081000070B558B1A6
:10346000D0F824C00446BCF1000F07D00021216130
:1034700004F1140108E000BF012070BD6168B1F5DE
:10348000827F03D004F11C0100220A600025A5629E
:1034900094F851104FF0000E41B9204684F8505076
:1034A00000F040F8D4E909C101F4005E022284F87A
:1034B0005120D4E90023D4E90201166803F4827391
:1034C00026F04006166000F404401844236901F415
:1034D0000061084403F002016369084403F001013C
:1034E000A369E669084403F40071084406F0380152
:1034F000266A084406F08001084340EA0E00106086
:10350000042000EA13400CF0100108445060D06918
:1035100020F40060D0610120656584F851002846E0
:1035200070BD000080B586B0016843F20000C4F2AF
:103530000100814202D006B080BD00BF002143F6E9
:1035400030020191C4F20202536900F5504043F485
:1035500080535361536903F480530193019B01919C
:10356000136843F001031360126802F00102019234
:10357000019AE02201920222CDE902210321049165
:103580000521059101A9FEF71BFA06B080BD0000D8
:10359000411E0020B0EB116F1CBF012070474EF29E
:1035A0001002CEF2000251604EF62351CEF200011D
:1035B000F0230B7007219060116070477047000086
:1035C00070470000002804BF0120704710B5044672
:1035D00090F83D0028B9002084F83C00204600F017
:1035E0001FF8022084F83D002068211D02F074F8C5
:1035F000012084F8460084F83E0084F83F0084F8F7
:10360000400084F8410084F8420084F8430084F8C4
:10361000440084F8450084F83D00002010BD0000FF
:1036200080B582B0006842F20001C4F20001884215
:103630001CBF02B080BD0020019043F64000C4F2E0
:1036400002000168002241F48071016000680021DD
:1036500000F48070019001982D20FFF783FB2D204E
:1036600002B0BDE88040FFF76DBB0000704700006E
:10367000B0B504460068C168026902EA0105A907FD
:1036800020D4680734D428074AD4E80660D4E80771
:1036900077D1280600F17F80680606D520686FF094
:1036A00040010161204600F087F8A80658BFB0BD70
:1036B00021686FF0200220460A61BDE8B040FFF7A4
:1036C0007FBF00BF6FF00201016101212177806996
:1036D000800703D02046FFF7C9FF05E0204600F031
:1036E00065F8204600F064F8002020776807CAD506
:1036F00020686FF00401016102212177806910F4D4
:10370000407F03D02046FFF7B1FF05E0204600F0E0
:103710004DF8204600F04CF8002020772807B4D55B
:1037200020686FF00801016104212177C0698007DA
:1037300004D02046FFF79AFF06E000BF204600F0C5
:1037400035F8204600F034F800202077E8069ED5B2
:1037500020686FF01001016108212177C06910F421
:10376000407F03D02046FFF781FF05E0204600F0B0
:103770001DF8204600F01CF800202077E8073FF4F1
:1037800088AF20686FF001010161204600F012F857
:1037900028067FF581AF20686FF080010161204627
:1037A000FFF70CFF68067FF580AF77E770470000F2
:1037B000704700007047000070470000704700002D
:1037C00070470000B0B582B0056804462968EA6811
:1037D000686901F02F03202B02F0200306D12BB1E2
:1037E000204602B0BDE8B04002F06EB85FEA017C4E
:1037F0001EBF00F0010E02F4907010EB0E002FD1EE
:10380000236B02EA0100C10618D5012B16D1002056
:1038100001902868019068680190019868694006E5
:1038200028D4A08DE18DE28D002A1CBF411A5FEAE9
:10383000014040F0D78102B0B0BD00BF010600F1E9
:10384000D3804006F7D5E868202120F04000E860EA
:10385000204684F8411002B0BDE8B04000F094BBAF
:10386000C80718BF12F4807040F0D280480700F1FA
:10387000D580DAE0E06B01684A6893B2002BDAD0B9
:10388000A18D8B42D7D2E285C069B0F5807F00F070
:10389000A08055E8030F216820F4807041E80302FE
:1038A000F2B1206850E8030F216820F4807041E8ED
:1038B0000302AAB1206850E8030F216820F4807049
:1038C00041E8030262B1206850E8030F216820F448
:1038D000807041E803021AB1206850E8030FDAE76C
:1038E000206850E8050F216820F0010041E805023A
:1038F000BAB3206850E8050F216820F0010041E8C4
:10390000050272B3206850E8050F216820F001001D
:1039100041E805022AB3206850E8050F216820F02D
:10392000010041E80502002ADAD11AE0206850E8D7
:10393000050F216820F0400041E80502DAB1206857
:1039400050E8050F216820F0400041E8050292B1DF
:10395000206850E8050F216820F0400041E805028A
:103960004AB1206850E8050F216820F0400041E886
:103970000502002ADAD1202084F8420000202063CA
:10398000206850E8030F216820F0100041E803028E
:10399000DAB1206850E8030F216820F0100041E8F8
:1039A000030292B1206850E8030F216820F0100054
:1039B00041E803024AB1206850E8030F216820F073
:1039C000100041E80302002ADAD1E06BFDF7F2FDB6
:1039D000A18D02206063E08D081A81B2204602B0FA
:1039E000BDE8B040FFF7EABE94F8410021287FF41B
:1039F00022AFA068B0F5805F03D12069002800F0F5
:103A00008981206A411C21620078686089E100BFD9
:103A1000606C40F001006064480706D5BEF1000FFD
:103A200003D0606C40F002006064880706D5BEF1E8
:103A3000000F03D0606C40F004006064BCF1000F24
:103A400006D55EEA030003D0606C40F008006064B5
:103A5000606C00283FF4EFAE02EA0100800603D557
:103A6000204601F031FF25686869616C00F0400074
:103A700001F00801401800F0AD8055E8030F00BFC9
:103A8000216820F4907041E80302D2B3206850E826
:103A9000030F216820F4907041E803028AB3206884
:103AA00050E8030F216820F4907041E8030242B30C
:103AB000206850E8030F216820F4907041E8030269
:103AC000FAB1206850E8030FDAE700BF206850E839
:103AD000050F216820F0010041E80502DAB12068F5
:103AE00050E8050F216820F0010041E8050292B17D
:103AF000206850E8050F216820F0010041E8050228
:103B00004AB1206850E8050F216820F0010041E823
:103B10000502002ADAD1206B012824D1206850E860
:103B2000030F216820F0100041E80302DAB1206899
:103B300050E8030F216820F0100041E8030292B121
:103B4000206850E8030F216820F0100041E80302CC
:103B50004AB1206850E8030F216820F0100041E8C6
:103B60000302002ADAD1202084F8420000202063DA
:103B700020684169490640F1C78050E8050F216877
:103B800020F0400041E80502002A00F0AB802068E8
:103B900050E8050F216820F0400041E80502002AA6
:103BA00000F0A080206850E8050F216820F0400058
:103BB00041E80502002A00F09580206850E8050FD2
:103BC000216820F0400041E80502002A00F08A80C8
:103BD0002068D2E72046FFF7F3FD0020606402B0C2
:103BE000B0BD00BF55E8030F226820F4907042E892
:103BF0000303D3B3206850E8030F226820F49070C9
:103C000042E803038BB3206850E8030F226820F4D6
:103C1000907042E8030343B3206850E8030F226822
:103C200020F4907042E80303FBB1206850E8030FD2
:103C3000DAE700BF206850E8050F226820F0010095
:103C400042E80503DBB1206850E8050F226820F048
:103C5000010042E8050393B1206850E8050F22688F
:103C600020F0010042E805034BB1206850E8050F41
:103C7000226820F0010042E80503002BDAD1202061
:103C800084F8420000202063206850E8030F226877
:103C900020F0100042E80303DBB1206850E8030F76
:103CA000226820F0100042E8030393B1206850E836
:103CB000030F226820F0100042E803034BB1206894
:103CC00050E8030F226820F0100042E80303002BA5
:103CD000DAD1022289B22046626302B0BDE8B04068
:103CE000FFF76CBDE06B78B145F6BD01C0F6000191
:103CF0000165FDF7A9FC00283FF49DADE06B016D67
:103D000002B0BDE8B0400847204602B0BDE8B04070
:103D1000FFF756BD206A30F8021B6FF35F21696020
:103D20002062E08C01380104E0847FF484ADE8680F
:103D300020F08000E860E86840F04000E86002B0F1
:103D4000B0BD0000002804BF0120704710B5044634
:103D500090F8410028B9002084F84000204600F087
:103D600021F8242084F841002068C16821F4005122
:103D7000C160204601F02AFE2068016921F49041CB
:103D80000161416921F02A014161C16841F400519A
:103D9000C16000202021606484F8411084F8421042
:103DA000606310BD2DE9F04786B00446006845F217
:103DB0000001C4F2000100268842CDE90466CDE985
:103DC0000266019630D044F60041C4F200018842F8
:103DD00040F09680002043F630010090C4F20201CA
:103DE0000A6942F400220A610A6902F40022009280
:103DF000009A00900A6842F001020A6009680222F3
:103E000001F0010100910099CDE902200820032171
:103E10000590002001910491C4F2020001A9FDF770
:103E2000CFFD342464E000BF43F630000096C4F2B6
:103E300002000169002741F4801101610169C4F2A7
:103E4000020701F48011009100990096016801AD0C
:103E500041F00401016001684FF0020801F0040123
:103E600000910099009601684FF0030941F00801A4
:103E7000016000684FF0080A00F008000090009808
:103E80004FF48050019007F500602946CDE9028685
:103E9000CDF81090CDF814A0FDF792FD0420CDE9E7
:103EA000010803A880E8400607F540602946FDF7B1
:103EB00087FD40F2184546F2B800C2F20005C4F290
:103EC00002004FF0006140224FF4806385E8470014
:103ED0002846C5E90436C5E90666C5E90866FDF762
:103EE000A9FC002818BFFCF783FBA563AC6335244D
:103EF000204600210022FEF735FF2046FEF722FF74
:103F000006B0BDE8F087000090F84230202B1CBFBF
:103F10000220704700294FF0010318BF002A01D189
:103F20001846704700230363816222218285C2857F
:103F3000436480F842100169006819B1C16841F416
:103F40008071C1604169002341F001014161C16894
:103F500041F02001C16018467047000080B540F272
:103F6000DC2040F2A811C2F20000C2F200012830A9
:103F700030310822FFF7C8FF40F2B000C2F2000063
:103F8000C1890131C18180BD70470000FEE700009A
:103F90002DE9F04F81B040F60004C4F2020405465A
:103FA0002046402100224FF00009FDF7EDFD20469C
:103FB00080210022FDF7E8FD01F082FA40F2A8100E
:103FC000C2F2000000EB050A9AF8421008292BD033
:103FD000690101F1160440F27C2100F1180640F25B
:103FE000301040F2142BC2F20001C2F20000C2F203
:103FF000000B4FF0040801F1380500F1540700BF31
:10400000594641F8184F284632463B46C1E90299C5
:10401000C1F81080FCF71AFE40F6B830FDF7BCFC82
:104020009AF842000828EBD140F2B00040F60004B4
:10403000C2F20000C4F2020480F80690204640213B
:104040000122FDF7A1FD20468021012201B0BDE83B
:10405000F04FFDF799BD000040F27840C2F2000039
:10406000FDF7A2BD40F27840C2F20000FDF740BE6D
:1040700010B582B000210191806B40F24C01C2F278
:10408000000190F83DC009684BF28952C908C1F29D
:10409000F842A1FB0212110A232251430191019916
:1040A00011B30199013901910168096889051FD58A
:1040B0000199C9B10199013901910168096889051E
:1040C00016D5019981B101990139019101680968F9
:1040D00089050DD5019939B101990139019101681D
:1040E00009688905DBD403E0016C41F0200101641B
:1040F000446B4FF0000E002C1CBF0021E163816B6C
:1041000000291CBF0022CA630268002C136823F434
:1041100080631360A0F82AE018BFC4F850E00029BB
:104120001CBF00230B65116821F00101116090F89C
:104130003D1060290AD1202180F83D10002180F82F
:104140003E100164FDF72CFD02B010BD0CF02801FB
:10415000282911D1116841F001011160116841F461
:104160008061116000210163282180F83D10FEF775
:10417000B9FA02B010BD00BF202180F83D10002127
:1041800080F83E10FEF7AEFA02B010BD10B504463E
:1041900090F83D1090F83E00402801D010280BD137
:1041A000222909D12068026822F400620260426874
:1041B000602939D141E000BF01F0280028282FD123
:1041C00000202063282084F83D002068416809050C
:1041D00038D5416821F400614160606B90F835107A
:1041E00001294DD1A06B44F27101C0F600010165B7
:1041F000FDF72AFA002856D020684169490606D5FD
:104200000069616A0870616A206801316162016851
:1042100021F001010160202084F83D00A06B40E006
:1042200020684268602908D012F4006105D120217D
:1042300084F83D10002184F83E100021216341687C
:104240000905C6D494F83D1060294FD1202184F887
:104250003D10002121644169490606D50069616A63
:104260000870616A206801316162016821F0010112
:1042700001602046FDF794FC206C000716D11AE07F
:1042800044F27101C0F600010165FDF7DDF950B19E
:104290002168606B0A6822F001020A60202184F81C
:1042A0003D10016D8847206C000704D020684168EC
:1042B00021F4E061416094F83D10206C282918BF7A
:1042C00010BD10F004000FD00020CFF6FF70E062A8
:1042D00000212020216384F83D00204684F83E1010
:1042E000BDE81040FEF7BCBA10BD00BF41694906E9
:1042F00005D50069616A0870606A01306062204615
:10430000FEF7F0F9206C0007D0D1D4E790F83D100B
:10431000026D5AB1026D012A14D10168826CD2B2C9
:104320000A61016D01310165704700BFC26C816C8B
:10433000012A15D10268C9B21161016D023101650E
:10434000704700BF026D022A12D1222918D10168DC
:104350000A6842F480720A60016D0131016570479C
:104360000268C1F307211161016D013101657047D8
:1043700000684169090644BF00210161704700BF20
:10438000428D21290AD14AB1416A026811F8013BE4
:1043900013614162418D0139418570472129428D68
:1043A00008BF002AEAD101684A6822F4E0624A6044
:1043B0000A6842F400720A6000212022016380F83A
:1043C0003D2080F83E10FEF753BA00002DE9F0477B
:1043D00082B0044600689A460368914643F48062BE
:1043E000026002680B9D42F48072026042690A9E7C
:1043F000D2070F463FD1711C33D026B911E000BF60
:104400004169C90737D1FDF7C5FB411B2068B1429F
:10441000F6D94169C907F3D109E000BF4169C9076D
:1044200029D1FDF7B7FB20684169C907F6D1002102
:104430002022216384F83D2084F83E10226C42F053
:104440002002226484F83C100068C00544BF4FF489
:1044500000702064032002B0BDE8F0874169C907FD
:1044600009D14169C90706D14169C90704BF41693A
:104470005FEAC171F2D040F20208C0F2010807F011
:10448000FE0707612046414632462B4600F078F889
:1044900020B1012002B0BDE8F08700BF00200190EC
:1044A00020682A464169019180693146019001984E
:1044B000204600F029F9B0B9BAF1010F09D02068FF
:1044C0004FEA19210161204631462A4600F01CF9C5
:1044D00048B920685FFA89F10161204631462A46D1
:1044E00000F012F960B1206C0428D2D12068016874
:1044F00041F400710160012002B0BDE8F08700BF07
:104500002068016841F4807101604169C90728D1C0
:10451000711C1CD01EB910E04169C90721D1FDF7FB
:1045200039FB411B2068B142F6D94169C907F3D173
:104530007DE700BF4169C90713D1FDF72BFB206858
:104540004169C907F6D172E74169C90709D14169D3
:10455000C90706D14169C90704BF41695FEAC17152
:10456000F2D047F0010101612046414632462B4618
:1045700000F006F8002818BF012002B0BDE8F0875F
:10458000F0B581B01D460368044658698FB23840C3
:10459000B84203D1002001B0F0BD00BF1646002A8A
:1045A00047D0701C22D15869400545D4586938401D
:1045B000B842EFD0586940053ED458693840B842F7
:1045C000E8D05869400537D458693840B842E1D03E
:1045D0005869400530D458693840B8424FF000005F
:1045E000E1D142E058693840B8423DD058694005B1
:1045F00022D4FDF7CFFA401B2368B042F2D95869A4
:104600003840B842EED000202021206384F83D10CD
:1046100084F83E00216C41F020011EE0FDF7BAFA5B
:10462000236858693840B842EDD158693840B842DB
:10463000B0D058694005F1D51868202140F40070C9
:1046400018606FF4806058610020206384F83D108A
:1046500084F83E00216C41F00401216484F83C00A0
:10466000012001B0F0BD00BF002001B0F0BD00008E
:1046700070B504460068154650F8143F5A0641D4F8
:104680000E4629B92AE000BF50F8141F490639D454
:104690000168C90625D4FDF77DFA411B2068B142A7
:1046A000F2D941694906EFD400202021206384F823
:1046B0003D1084F83E00216C41F02001216484F813
:1046C0003C00012070BD00BFFDF764FA206850F87F
:1046D000141F4906E8D50168490613D40168C906C4
:1046E000F2D56FF01001016000202021206384F8D2
:1046F0003D1084F83E00216C216484F83C000120C8
:1047000070BD00BF002070BD70B50368044653F84B
:10471000140F00062DD40E46481C24D066BB00BFE3
:10472000186840054AD4FDF735FA236853F8140F8A
:10473000000633D518680006F2D51AE0186840055F
:104740003CD41868000614D41868400536D418689C
:1047500000060ED41868400530D4186800064FF0E3
:10476000000048BF70BD1868400527D418680006CF
:10477000E4D5002070BD00BF154603E053F8140FC8
:104780000006F6D41868400518D4FDF703FA401B5C
:104790002368B042F2D958690006EFD400202021E6
:1047A000206384F83D1084F83E00216C41F0200124
:1047B000216484F83C00012070BD00BF6FF480606C
:1047C000186000202021206384F83D1084F83E000A
:1047D000216C41F00401216484F83C00012070BD8B
:1047E000FEE70000FEE700002DE9F04381B0FDF791
:1047F000D1F940F2142140F2A819C2F20001C2F22C
:104800000009897899F8582040F23016C2F2000663
:1048100040F2B0049142B0620FBF002389F85810F3
:1048200070620123C2F20004258A278B7363BD42A4
:1048300006D1E38A678BBB420AD191420ED01CE0BD
:1048400001232583F062F363E38A678BBB42F4D0D4
:10485000638301233063B36391420ED1716A0023F5
:10486000411ACA084A2A88BF0123B1F5167FB365E9
:1048700003D3217A706201312172217940F200481C
:104880000229C4F2020853D199F84610082917D119
:1048900094ED1B0AB2EE041AB0EEC00AB4EE410A5F
:1048A000F1EE10FA0CDAB4EE410AF1EE10FA4FDC38
:1048B000B16B00294CD1316B401AB0F57A7F47D3E8
:1048C000404602210022FDF75FF9B06A306399F893
:1048D00047000025082831D199F8480008282DD133
:1048E00094ED1C0AB0EEC01AB2EE040AB4EE401AFF
:1048F000F1EE10FA2ADA94ED1D2AB0EEC22AB4EED7
:10490000402AF1EE10FA2FDAB4EE401AF1EE10FA66
:1049100036DCB4EE402AF1EE10FA31DCB06B28BB85
:10492000B06A316B401AC0087C281FD9002505E009
:104930004046022100220025FDF726F940460421C9
:104940002A4601B0BDE8F043FDF71EB90025F5E7A2
:10495000404602210122FDF717F999F8470000258A
:104960000828B9D0EAE700BF0025E7E7F06B38B9BF
:10497000D6E90A01401AC0087C2801D90025DDE7E4
:104980000125DBE72DE9F04F81B02DED028B40F2E0
:104990000004C2F20004607880B3217971B32178F9
:1049A00001292BD000EB4000A17880009FEDC72AA1
:1049B00000EE100AB2EE081AB8EEC00A012908BFCC
:1049C000B0EE401AB4EE421AF1EE10FAC8BFB0EEE3
:1049D000421A84ED041A00F025FFA07840F2B009D5
:1049E0000128C2F2000929D199ED100A99ED111A96
:1049F000B8EEC00AB8EEC11A29E000BF9FEDB48A34
:104A00000120B0EE480A00F023FA0120FCF7C4FFB1
:104A10000220B0EE480A00F01BFA0120FCF7BCFFB0
:104A20000320B0EE480A00F013FA0120BDEC028B1F
:104A300001B0BDE8F04FFCF7AFBF00BF9FEDA41A77
:104A40000020B0EE410AC9F84000C9F8440094EDD6
:104A5000042A99F8033032EE000A32EE011ABDEE54
:104A6000C00ABDEEC11A40F23015002110EE102A26
:104A700011EE100AC2F20005C9F848106271A07167
:104A800043B1012B12D0022B40F0D081B8EE400A86
:104A900011E000BF9FEDEB0AE96495ED141AB4EE46
:104AA000401AF1EE10FA0FD161E000BF514200EE62
:104AB000101AB8EEC00A85ED130A95ED141AB4EE7B
:104AC000401AF1EE10FA52D040F21424C2F200045F
:104AD0002D2044F8180F4FF0000A0420C4E903A069
:104AE00040F2A81B40F27C20C2F2000BC2F2000090
:104AF0000BF1180800F1380705F154063846214635
:104B00004246334684F814A0C4E901AA8BED060A94
:104B1000FCF79CF80120FCF73FFFD9F81C00214668
:104B20000130C9F81C00384642463346FCF78EF87F
:104B30000120FCF731FFD9F81C0021460130C9F8EB
:104B40001C00384640F2000442463346C2F20004DC
:104B5000FCF77CF80120FCF71FFFD9F81C00E96C7A
:104B60000130C9F81C00A079CBE906AA2965E179D2
:104B7000884240F2AF80481C40F21424C1B289F848
:104B80000900C2F200044F2040F2A81A44F8180F9E
:104B9000C2F2000A44F28C204FF0000BAAF81E006B
:104BA0000820C4E903B040F27C20C2F2000000EE0D
:104BB000101A0AF1180800F1380705F15406B8EE8A
:104BC000400A384621464246334684F814B08AEDFE
:104BD000060AC4E901BBFCF739F80120FCF7DCFE4A
:104BE000D9F81C0021460130C9F81C00384642465D
:104BF0003346FCF72BF80120FCF7CEFED9F81C0059
:104C000021460130C9F81C00384642463346FCF7BD
:104C10001DF80120FCF7C0FED9F81C00CAE906BB4C
:104C20000130C9F81C000120FCF7B6FE99F8090014
:104C3000214600EE100A44F28C20AAF81E006F20D4
:104C4000C4E9000B0820B8EE400A2061384642460D
:104C5000334684F814B08AED060AC4E902BBFBF7B8
:104C6000F5FF0120FCF798FED9F81C002146013021
:104C7000C9F81C00384642463346FBF7E7FF0120DF
:104C8000FCF78AFED9F81C0021460130C9F81C0047
:104C9000384642463346FBF7D9FF0120FCF77CFE3D
:104CA000D9F81C00CAE906BB0130C9F81C00012074
:104CB000FCF772FE99F8090040F20001C2F200010F
:104CC000C871BDEC028B01B0BDE8F08F000010424E
:104CD00000000000F5D2481E40F21424C1B289F849
:104CE0000900C2F200044F2040F2A81844F8180F3F
:104CF000C2F2000844F28C204FF0000BA8F81E000E
:104D00000820C4E903B040F27C20C2F2000000EEAB
:104D1000101A08F1180A00F1380705F15406B8EE28
:104D2000400A384621465246334684F814B088ED8E
:104D3000060AC4E901BBFBF789FF0120FCF72CFE42
:104D4000D9F81C0021460130C9F81C0038465246EB
:104D50003346FBF77BFF0120FCF71EFED9F81C0051
:104D600021460130C9F81C00384652463346FBF74D
:104D70006DFF0120FCF710FED9F81C00C8E906BB46
:104D80000130C9F81C000120FCF706FE99F8090063
:104D9000214600EE100A44F28C20A8F81E006F2075
:104DA000C4E9000B0820B8EE400A2061384652469C
:104DB000334684F814B088ED060AC4E902BBFBF759
:104DC00045FF0120FCF7E8FDD9F81C002146013021
:104DD000C9F81C00384652463346FBF737FF01201E
:104DE000FCF7DAFDD9F81C0021460130C9F81C0097
:104DF000384652463346FBF729FF0120FCF7CCFD2D
:104E0000D9F81C00C8E906BB0130C9F81C00012014
:104E1000FCF7C2FD99F8090040F20001C2F200015E
:104E2000C871BDEC028B01B0BDE8F08F95ED130A9F
:104E300095ED141AB4EE401AF1EE10FA7FF444AE78
:104E400095E600BF000000007047000070470000BA
:104E5000032805D0002808BFB1EE400A02E000BFD9
:104E6000B1EE400A2DE9F04740F214244001C2F2AD
:104E700000040E3044F8180F4FF000080420C4E975
:104E8000038040F27C20C2F2000040F2A81900F139
:104E9000380740F23010C2F20009C2F2000009F1F6
:104EA000180500F15406B1EE400A384621462A465C
:104EB000334684F81480C4E9018889ED060AFBF7BB
:104EC000C5FE0120FCF768FD40F2B00AC2F2000AFC
:104ED000DAF81C0021460130CAF81C0038462A4680
:104EE0003346FBF7B3FE0120FCF756FDDAF81C0051
:104EF00021460130CAF81C0038462A463346FBF7E3
:104F0000A5FE0120FCF748FDDAF81C00C9E9068877
:104F10000130CAF81C00BDE8F08700000000000066
:104F20002DE9F04F81B02DED108B82B040F20002E0
:104F3000C2F20002907840F2B00A01380428C2F2AE
:104F4000000A00F2D780DFE800F01FC1D5B7DB0010
:104F5000C173EFE192E3D83F9A99999999990640E4
:104F600000000000000000000000000000002440DD
:104F700050455254FB21094000000000008066406B
:104F80000000000000908A40D678B6F15A0038BF81
:104F9000C6F15A0002F0FBF81FED130B53EC102B77
:104FA00002F05CF91FED140B044653EC102B0D4678
:104FB00001F064FF1FED160B5C2E53EC102B1FED60
:104FC000160B3CBF1D461446592E24BF29462046C9
:104FD00055EC104B22462B4602F040F941EC100BE9
:104FE00000F07EFF51EC100B22462B4601F046FFED
:104FF00041EC100B40F2301BC2F2000B8BED1A0B90
:105000001FED250B58EC109B4A46434602F026F94B
:105010001FED270B56EC107B3A46334601F02EFF6E
:1050200041EC100B00F0CCFF53EC102B1FED2C0BC0
:1050300054EC105B2846214601F020FF01F038FEB9
:10504000CAF84C0002F092FB9BED1A0B01908B46C4
:1050500051EC100B4A46434602F000F93A463346FB
:1050600001F00CFF41EC100B01F00EF853EC102B8B
:105070002846214640F20004C2F2000401F0FEFE80
:10508000024601980B46594602F082FA01F010FEE2
:1050900094F8038000EE100AB8F1580FCAF85000D7
:1050A00000F200819AED131A9FEDEF2A31EE400ACB
:1050B00030EE020A05E100BF0020CAE9100046F206
:1050C0006660CBF686709FEDF38A22E00020CAE985
:1050D00010004AF614604AF61461C4F20310CCF2D0
:1050E00003119FEDED9A9FEDED8ACAE91600CAF80B
:1050F000601014E09FEDEB8A0020CAE9100008E080
:105100000020CAE9100046F26660C3F686709FED83
:10511000E08ACAE91600B0EE489ACAF860009AED33
:10512000190A40F21424B4EE490A40F27C21F1EE4F
:1051300010FAC2F20004C2F2000155D0EC2025465C
:1051400045F8180F4FF0000B0420C5E903B040F2FA
:10515000A81940F23010C2F20009C2F2000009F1B1
:10516000180801F1380600F1540730462946424636
:105170003B4685F814B0C5E901BB89ED069AFBF7FB
:1051800065FD0120FCF708FCDAF81C002946013017
:10519000CAF81C00304642463B46FBF757FD01204B
:1051A000FCF7FAFBDAF81C0029460130CAF81C00AB
:1051B000304642463B46FBF749FD0120FCF7ECFB3D
:1051C000DAF81C00C9E906BB0130CAF81C0001204E
:1051D000FCF7E2FB40F27C21DAF85C009AED188AD9
:1051E000C2F20001CAF864009AED1A0AB4EE480A45
:1051F000F1EE10FA4FD04FF4867044F8180F4FF0CC
:1052000000080420C4E9038040F2A81940F23010DD
:10521000C2F20009C2F2000009F1180501F13807D5
:1052200000F15406384621462A46334684F8148055
:10523000C4E9018889ED068AFBF708FD0120FCF727
:10524000ABFBDAF81C0021460130CAF81C003846D6
:105250002A463346FBF7FAFC0120FCF79DFBDAF8FF
:105260001C0021460130CAF81C0038462A46334645
:10527000FBF7ECFC0120FCF78FFBDAF81C00C9E916
:1052800006880130CAF81C000120FCF785FBDAF81B
:105290006000CAF8680002B0BDEC108B01B0BDE838
:1052A000F08F00BF9AED131A9FED7D2A31EE400A70
:1052B00030EE021A9FED7B0AB8F15B0F88BFB0EEAB
:1052C000410A9FED79AA40F2301B80EE0ACAC2F271
:1052D000000B9BED1A0B9FED661B51EC100B53EC72
:1052E000112B8AED15CA01F0B9FF9FED630B53EC4A
:1052F000102B01F0C3FD01F0DBFC94ED04DAB3EEFA
:10530000080A8DEE000A09EE100AB1EE49BAB0EEB5
:105310004B1AB8F1590F38BFB0EE491AB1EE418AB5
:105320008AED161A8AED171A8AED188A10EE100AFD
:1053300002F01CFA41EC100B40F2A8190446C2F22C
:1053400000091CEE100A0D4689ED040B02F00EFA5E
:105350009FED4B0B06460F4653EC102B204629467B
:1053600001F07CFF02460B463046394601F086FDCF
:1053700041EC100B9FED4D1A8BED1C0B3CEE010A1E
:10538000044610EE100A0D4602F0F0F922462B46B4
:1053900001F074FD9FED3C0B56EC107B3A46334612
:1053A00001F05CFF01F084FC9FED41FA00EE100A71
:1053B00080EE0F0ADFED3F8ADFED3F9A20EE0A0A0A
:1053C00080EE280A20EE290A30EE4DEA1EEE100A81
:1053D00002F0CCF941EC100B9FED381A89ED000B6F
:1053E0003CEE010A10EE100A02F0C0F922462B46EC
:1053F00001F044FD3A46334601F030FF01F058FC1D
:1054000000EE100A80EE0F0A20EE0A0A80EE280A4B
:1054100020EE290A30EE4DAA1AEE100A02F0A6F983
:1054200041EC100BB8F1580F89ED020B08D8BDEE16
:10543000CE0ABDEECA1A8AED100A8AED111A6EE67E
:10544000B8F15C0F0AD3BDEECA0ABDEECE1A8AEDE2
:10545000100A8AED111AB0EE4B9A60E60020CAE9F4
:105460001000B0EE4B9A5AE6004098C400BF00BF4F
:105470000000000000005340000000000080764063
:10548000EE7C3F355EBAD13FCDCCCCCCCCCC0C4001
:105490006666863F666686BF14AE034114AE03C1DE
:1054A000004098440000000000007A44A01AAFBFFA
:1054B00014E7AA3F000061450000E442A01AAF3F94
:1054C0002DE9F0472DED028B9FED4E8A0120B0EEC5
:1054D000480AFFF7BDFC0220B0EE480AFFF7B8FC0F
:1054E0000320B0EE480AFFF7B3FC40F21425C2F2E5
:1054F0000005ED2045F8180F40F27C20C2F20000B4
:1055000040F2A81400F1380740F230104FF00008C4
:10551000C2F20004C2F2000044F8188F00F15406F1
:105520004FF0040A384629462246334685F814804F
:10553000C5E90188C5E9038AFBF788FB0120FCF770
:105540002BFA40F2B009C2F20009D9F81C00294632
:105550000130C9F81C00384622463346FBF776FB7B
:105560000120FCF719FAD9F81C0029460130C9F8C6
:105570001C00384622463346FBF768FB0120FCF747
:105580000BFAD9F81C0029460130C9F81C0040F27A
:105590000D10C5E90008384622463346C4E90088A4
:1055A00085F81480C5E90288C5F810A0FBF74EFB0A
:1055B0000120FCF7F1F9D9F81C0029460130C9F89F
:1055C0001C00384622463346FBF740FB0120FCF71F
:1055D000E3F9D9F81C0029460130C9F81C00384607
:1055E00022463346FBF732FB0120FCF7D5F9D9F808
:1055F0001C00C4E900880130C9F81C00BDEC028B16
:10560000BDE8F08700000000FDF732BB80B594B024
:10561000002043F64001CDE90B00CDE909000690DA
:10562000CDE90400CDE902000190C4F202010A684C
:1056300042F080520A60096801F08051019101999D
:10564000019047F20000C4F20000016841F44041BB
:10565000016000684FF4800100F44040019001981F
:10566000012007904FF480300E9104210890022011
:105670000F91B4210D90CDE91010CDE9120007A8CB
:10568000FDF716FDB0B9FDF7A9FB98B90F20029000
:1056900002200390002004904FF4A05005904FF496
:1056A0008050069002A80521FDF7D6FB002804BF14
:1056B00014B080BDFAF79CFF4EF68850CEF2000081
:1056C000016841F4700101607047000040F224500D
:1056D000C2F20000FDF7CCBF10B540F6FF3E0368F4
:1056E000C4F2000E40F2004C7045C4F2010C27DCFD
:1056F000B0F1804F31D040F20042C4F2000290423B
:105700002BD040F60002C4F20002904225D041F6B0
:10571000FF72C4F20002904229DC70453CDCB0F11B
:10572000804F5FD040F20042C4F20002904259D054
:1057300040F60002C4F20002904253D056E000BF8F
:1057400040F60042C4F20002904206D0604504D008
:105750000022C4F201029042D9D14A6823F07003BA
:10576000134341F6FF72C4F200029042D5DD43F6C6
:10577000FF72C4F20102904222DC42F20002C4F243
:10578000000290422ED00022C4F20102904229D0A1
:10579000604527D02AE000BF40F60042C4F2000274
:1057A00090421FD041F60002C4F20002904219D08C
:1057B00041F60042C4F20002904213D016E000BF4E
:1057C00044F20002C4F2010290420BD044F60002FF
:1057D000C4F20102904205D044F20042C4F2010238
:1057E000904203D1CA6823F44073134323F080022C
:1057F0004B69D1F800E08C681A430260C46240F43F
:105800008062C0F828E0624504BF09690163012194
:1058100041610169C90708BF10BD016921F001019B
:10582000016110BD10B540F20001C2F2000108781C
:1058300040F2B0040228C2F2000416D1E078627986
:10584000824212D030B1022808D001280CD191ED4B
:10585000030A07E09FED120A04E000BF91ED030A7E
:10586000B1EE400A84ED0A0A607194ED0A0A94EDE3
:105870000B1AB4EE401AF1EE10FA08BF10BD022068
:10588000FFF7E6FA0120FCF787F894ED0A0A0320F7
:10589000FFF7DEFA0120FCF77FF8A06AE06210BD96
:1058A0000000000040F20430C2F20000FDF78ABFA1
:1058B00040F26C50C2F20000FDF784BF806B002103
:1058C000C185C184FDF77CBF81B090F842102229C8
:1058D00020D18368B3F5805F08D10169002957D0D2
:1058E00000F128010A6803685B680AE0014651F884
:1058F000282F13B90369002BF5D003685B6803F008
:105900007F0313700A6801320A60C18D01390A04ED
:10591000C18501D001B070470168CA6822F0200239
:10592000CA60CA6822F48072CA604A6922F0010221
:105930004A61202280F8422000224263036B012B3F
:1059400030D1026351E8031F026821F0100142E8E0
:1059500003135BB3016851E8031F026821F01001D3
:1059600042E8031313B3016851E8031F026821F0F2
:10597000100142E80313CBB1016851E8031F02682C
:1059800021F0100142E8031383B10168DAE700BF98
:105990000168826A49686FF35F2122F8021B826204
:1059A000B3E700BF01B0FEF7D9BA00BF01680A68CB
:1059B000D20606D5002200920A680092496800913A
:1059C0000099818D01B0FDF7F9BE000010B50446C5
:1059D0000068D4E902C22369016921F440511143EE
:1059E0000161626943EA0C01E3691143C26819432A
:1059F00049F20C639A431143C1604169A26921F4E1
:105A0000407141F20043114340F48062C4F201034B
:105A10009A42416102D1FDF7E3FA01E0FDF7CCFAC9
:105A2000E16963681922B1F5004FA0FB02011FD1A3
:105A30005A00DB0FFAF736FC48F21F51C5F2EB11A2
:105A4000A0FB01235A096FF0630302FB030032231A
:105A500003EBC000A0FB01014FF4F87000EA111045
:105A600000EB0210C1F3421122680843906010BDA0
:105A70009A009B0FFAF716FC48F21F51C5F2EB1182
:105A8000A0FB01235A096FF0630302FB03003223DA
:105A900003EB0010A0FB0101F02000EA511000EB25
:105AA0000210C1F3431122680843906010BD00004A
:105AB000FEE700008CB040F60009C4F20209FDF7D1
:105AC000E5F8FFF7A3FD002543F6300406950195A0
:105AD000C4F2020420684FF4035140F00400206037
