:020000040800F2
:10000000580B0020650200083D3C00082935000817
:10001000393C00082D040008FD4F000800000000D6
:100020000000000000000000000000000142000885
:100030006D04000800000000FD410008ED490008C3
:100040007F0200087F0200087F0200087F0200088C
:100050007F0200087F0200087F0200087F0200087C
:100060007F0200087F0200087F0200087F0200086C
:100070007F0200087F0200087F0200087F0200085C
:100080007F0200087F0200087F0200087F0200084C
:10009000310400083D0400087F0200087F020008C8
:1000A0007F0200087F0200087F0200087F0200082C
:1000B0007F0200087F0200087F020008393500082F
:1000C0002D3500087F0200087F0200087F0200082B
:1000D0007F0200087F0200087F0200087F020008FC
:1000E0007F0200087F0200087F0200087F020008EC
:1000F0007F020008B14A00087F020008610400087E
:100100007F0200087F0200087F0200087F020008CB
:10011000F54D0008014E00087F0200087F0200082C
:100120007F0200087F0200087F0200087F020008AB
:100130007F02000800000000000000007F020008AD
:1001400049040008550400087F0200087F020008E7
:100150007F0200087F0200087F0200087F0200087B
:100160007F0200087F0200087F0200087F0200086B
:100170007F0200087F0200087F02000800000000E4
:10018000000000007F0200080000000000000000E6
:100190007F02000800000000000000007F0200084D
:1001A0000000000000000000000000007F020008C6
:1001B0007F0200087F0200087F0200087F0200081B
:1001C0007F02000800F002F800F03CF80AA090E876
:1001D000000C82448344AAF10107DA4501D100F002
:1001E00031F8AFF2090EBAE80F0013F0010F18BF93
:1001F000FB1A43F001031847386F0000586F0000E6
:10020000103A24BF78C878C1FAD8520724BF30C842
:1002100030C144BF04680C60704700000023002414
:1002200000250026103A28BF78C1FBD8520728BF06
:1002300030C148BF0B6070471FB506F090FE1FBD70
:1002400010B510BD00F0BCF81146FFF7F5FF04F043
:10025000D7FE00F0DAF803B4FFF7F2FF03BC00F0BA
:10026000DDF800000948804709480047FEE7FEE73F
:10027000FEE7FEE7FEE7FEE7FEE7FEE7FEE7FEE756
:1002800004480549054A064B704700009D4A00088E
:10029000C501000858050020580B00205807002011
:1002A0005807002053EA020C00F069802DE9F04B5A
:1002B0004FF00006002B1FBFB3FA83F503FA05F4D5
:1002C00024FA05F65E4012BF1643B2FA82F502FA2E
:1002D00005F4C5F120051EBF22FA05FC44EA0C0412
:1002E000203556EA044C4FEA144418BF641C4FF002
:1002F00000084FF00009904271EB030C39D300293C
:1003000019BFB1FA81F701FA07F6B0FA80F700FADF
:1003100007F6C7F120071EBF20FA07FC46EA0C06C5
:100320002037B6FBF4FCA7EB0507103F07F01F0BC7
:10033000CBF120062CFA06F60CFA0BFB44BFB346B1
:100340000026202FA4BF5E464FF0000B5BEA060C90
:1003500008BF4FF0010B19EB0B0948EB0608ABFB8C
:10036000027C06FB02CC0BFB03CCC01B71EB0C0127
:10037000C1E70B46024641464846BDE8F08B13B53F
:10038000084318BF4FF0FF300146AFF30080BDE8CF
:100390001C40704770477047704710B500F008F870
:1003A000006810BD10B5044600F002F8046010BDEE
:1003B000004870475000002000487047500000205F
:1003C0007546FFF7F9FFAE4605006946534620F033
:1003D0000700854618B020B5FFF752FFBDE8204062
:1003E0004FF000064FF000074FF000084FF0000BF1
:1003F000AC46ACE8C009ACE8C009ACE8C009ACE860
:10040000C00921F007018D46704710B50446AFF3CF
:1004100000802046BDE81040FFF71DBF01491820AD
:10042000ABBEFEE72600020070470000FEE70000BA
:1004300040F2A020C2F2000000F0ECBB40F2A0208D
:10044000C2F2000000F0E6BB40F25020C2F2000011
:1004500000F0E0BB40F25020C2F2000000F0DABB36
:1004600040F26C30C2F2000000F088BF704700001C
:1004700082B040F21C2440F23010C2F2000440F27C
:10048000A817C2F2000040F2B0094FF0000A04259C
:10049000C2F2000704F1340B00F15006C2F2000969
:1004A000002000BF4FF00048019047F8088F2E2031
:1004B000C4E9000A584621463A46334684F814A057
:1004C000C4E902AA256100F047FA012001F0E8F82A
:1004D000D9F81C0021460130C9F81C0058463A469C
:1004E000334600F039FA012001F0DAF8D9F81C009F
:1004F00021460130C9F81C0058463A46334600F000
:100500002BFA012001F0CCF8D9F81C00214601306B
:10051000C9F81C004E20C4E9000A58463A46334642
:1005200084F814A0C7E9008AC4E902AA256100F092
:1005300013FA012001F0B4F8D9F81C00214601306B
:10054000C9F81C0058463A46334600F005FA012027
:1005500001F0A6F8D9F81C0021460130C9F81C00AA
:1005600058463A46334600F0F7F9012001F098F872
:10057000D9F81C0021460130C9F81C006E20C4E9DE
:10058000000A58463A463346C7E900AA84F814A040
:10059000C4E902AA256100F0DFF9012001F080F82A
:1005A000D9F81C0021460130C9F81C0058463A46CB
:1005B000334600F0D1F9012001F072F8D9F81C009F
:1005C00021460130C9F81C0058463A46334600F02F
:1005D000C3F9012001F064F8D9F81C00214601306C
:1005E000C9F81C008E20C4E9000A58463A46334632
:1005F00084F814A0C7E9008AC4E902AA256100F0C2
:10060000ABF9012001F04CF8D9F81C00214601306B
:10061000C9F81C0058463A46334600F09DF90120BF
:1006200001F03EF8D9F81C0021460130C9F81C0041
:1006300058463A46334600F08FF9012001F030F871
:10064000D9F81C00AD25013040F2AD28C9F81C00D6
:10065000C7E900AA40F2A817C2F2000747F808AF9E
:1006600004202061584621463A46334684F814A0B7
:10067000C4E9005AC4E902AA00F06EF9012001F0B1
:100680000FF8D9F81C0021460130C9F81C00584663
:100690003A46334600F060F9012001F001F8D9F83C
:1006A0001C0021460130C9F81C0058463A46334622
:1006B00000F052F9012000F0F3FFD9F81C002035BA
:1006C00001304545C9F81C00C7F800A0C7F804A0D0
:1006D000C0D1019840F2A817042800F10100C2F22D
:1006E00000074FF00405FFF4DDAE72B6002500BF31
:1006F0004FF00040BA4647F8080F2E20C4E9000525
:100700004FF00408584621463A4633462575C4E959
:100710000255C4F8108000F01FF9012000F0C0FF5E
:10072000D9F81C0021460130C9F81C0058463A4649
:10073000334600F011F9012000F0B2FFD9F81C0097
:1007400021460130C9F81C0058463A46334600F0AD
:1007500003F9012000F0A4FFD9F81C002146013064
:10076000C9F81C004FF00040C7E900054E20C4E95D
:10077000000558463A4633462575C4E90255C4F883
:10078000108000F0E9F8012000F08AFFD9F81C0081
:1007900021460130C9F81C0058463A46334600F05D
:1007A000DBF8012000F07CFFD9F81C002146013065
:1007B000C9F81C0058463A46334600F0CDF80120EF
:1007C00000F06EFFD9F81C0021460130C9F81C006A
:1007D0006E20C4E9000558463A463346C7E900553D
:1007E0002575C4E90255C4F8108000F0B5F8012061
:1007F00000F056FFD9F81C0021460130C9F81C0052
:1008000058463A46334600F0A7F8012000F048FF6A
:10081000D9F81C0021460130C9F81C0058463A4658
:10082000334600F099F8012000F03AFFD9F81C0097
:1008300021460130C9F81C004FF00040C7E900050F
:100840008E20C4E9000558463A4633462575C4E96A
:100850000255C4F8108000F07FF8012000F020FF5E
:10086000D9F81C0021460130C9F81C0058463A4608
:10087000334600F071F8012000F012FFD9F81C0097
:1008800021460130C9F81C0058463A46334600F06C
:1008900063F8012000F004FFD9F81C004FF0AD0808
:1008A0000130C9F81C00C7E9005500BF574647F89A
:1008B000085F04202061584621463A463346257594
:1008C000C4E90085C4E9025500F046F8012000F0B3
:1008D000E7FED9F81C0021460130C9F81C00584633
:1008E0003A46334600F038F8012000F0D9FED9F836
:1008F0001C0021460130C9F81C0058463A463346D0
:1009000000F02AF8012000F0CBFED9F81C0008F115
:1009100020080130C9F81C0040F2AD203D60804540
:100920007D605746C2D1E3E690F82020013A012AC3
:1009300008D8006800F11402002013681943116000
:10094000704700BF00F1240201204FF4802113689A
:10095000194311607047000010B590F820E0D0F8FE
:1009600000C0AEF1010EBEF1010FDCF808E00FD8B7
:100970001EF0E05F16D0CEF3016E012000FA0EF0FB
:1009800018608B68C3B1486843EAC00316E000BF33
:1009900000F1240101204FF480220B681A430A6001
:1009A00010BD00BF00F1240101204FF400120B68BC
:1009B0001A430A6010BD00BF08684305D1E903046B
:1009C00003430CEB0E10C0F88031C0F88441097D60
:1009D000012905D100F5C2710B6843F480730B60E7
:1009E0005168C0F88C11126800F5C071C0F88821F8
:1009F000002001220B681A430A6010BDB0B590F8C0
:100A00002020013A012A2FD846F20060C4F20000EB
:100A1000026842F001020260026822F47C52026025
:100A2000D1F814E0CC694A6A0368012C43EA022237
:100A300002600EF01F024FF0010303FA02F2C369D5
:100A40006FEA020C23EA0203C36113D02CBBC36814
:100A500003EA0C03C360CB688C8844EA034300EBD1
:100A6000CE0423640B4611E0416A41F480214162C7
:100A70000120B0BDC3681343C3600B688C8844EA8F
:100A8000034300EBCE04236401F10C038C681B8844
:100A900043EA044300EBCE04636443688D6943EA90
:100AA0000204D1F810E0096A002D08BF03EA0C0423
:100AB00044604369BEF1000F43EA020408BF03EA41
:100AC0000C040129446102D1C1691143C16101686B
:100AD00021F0010101600020B0BD0000704700005E
:100AE00010B590F82040013C012C7BD8D0F800C014
:100AF000002900F08180DCF81040A40700F081801C
:100B00000CEB011CDCF8B0410CF5D87E14F00404A9
:100B10009460DCF8B04119BFE4085460640D1460BF
:100B2000DEF800400CF5DA7E04F00204D460DCF854
:100B3000B44124075ABFDEF8004004F00F04082433
:100B40001461DEF800400029C4F307249461DEF844
:100B500000404FEA14445461DCF8B8211A7002686E
:100B600002EB0112D2F8B8214FEA12225A70026841
:100B700002EB0112D2F8B8214FEA12429A700268D1
:100B800002EB0112D2F8B8214FEA1262DA70026861
:100B900002EB0112D2F8BC211A71026802EB0112B9
:100BA000D2F8BC214FEA12225A71026802EB0112FC
:100BB000D2F8BC214FEA12429A71026802EB01128C
:100BC000D2F8BC214FEA1262DA71006814BF00F15A
:100BD000100100F10C01002020220B681A430A606A
:100BE00010BD00BF00F1240101204FF480220B68EA
:100BF0001A430A6010BD00BFDCF80C40A4077FF464
:100C00007FAF00F1240101204FF400120B681A435A
:100C10000A6010BD2DE9F04F81B0044600684669B6
:100C2000D0F804908768D0F80CB0D0F810A0D0F8B5
:100C30001880F10704D1002530071DD424E000BF3F
:100C4000F90710D00121BA07816009D4780700F1B3
:100C5000AF80380700F1B680204600F021FB02E0AB
:100C6000204600F01FFB0025F80500F18780F803FF
:100C700000F1B180300707D51BF0100004D02068C8
:100C800045F400751021C160700708D51BF00800FD
:100C900005D020680821C160204600F0FFF9B007A8
:100CA00006D52068C068800702D0204600F0F8F919
:100CB000700607D51AF0100004D0206845F480654E
:100CC00010210161B00608D51AF0080005D020688F
:100CD00008210161204600F0E5F9F00606D52068FC
:100CE0000069800702D0204600F0DEF9B00308D585
:100CF00019F0100005D0206810214160204600F056
:100D00009FFAF00308D519F0080005D020680821E3
:100D10004160204600F0D0FA300440F19B805FEA49
:100D2000497040F1948006F4807008EA102028434E
:100D30005FEA8871014648BF41F00201B20558BF21
:100D400001465FEA48700D4648BF45F0040570054E
:100D500058BF0D46300540F17A8018F0700000F061
:100D600076801038000905286CD8DFE800F00359B8
:100D70005D61656945F0080564E000BF20684FF4D7
:100D80008071BA0581600BD4780515D438051DD45F
:100D9000204600F089FAF8037FF56CAF1BE000BF36
:100DA000204600F083FAF8037FF564AF13E000BF3C
:100DB0004FF4006558E700BF05F50055F8037FF5CF
:100DC00059AF08E04FF480554EE700BF05F5804568
:100DD000F8037FF54FAF20684FF48031BA0381608C
:100DE0000AD4780310D4380314D4204600F060FAF3
:100DF00030073FF541AF47E7204600F05BFA300788
:100E00003FF53AAF40E700BF05F5004530073FF535
:100E100033AF39E705F5803530073FF52DAF33E7C0
:100E200045F010050EE000BF45F020050AE000BFC8
:100E300045F0400506E000BF45F0800502E000BF38
:100E400045F480752068816921F070018161206816
:100E50000421416055B1606A40EA050120466162A3
:100E600001B0BDE8F04FFFF739BE00BF01B0BDE8EB
:100E7000F08F0000B0B5C8B1044690F8200010B95A
:100E8000204600F071F82068016841F0010101601E
:100E900000F0FEFC054600BF20684168C90707D185
:100EA00000F0F6FC401B0B28F6D312E00120B0BD89
:100EB000016821F00201016000F0EAFC054600BF74
:100EC0002068416889070DD500F0E2FC401B0B2823
:100ED000F6D3606A052140F400306062012084F896
:100EE0002010B0BD217E0268012922F0800208BFD7
:100EF00080320260617E0268012922F0400208BF50
:100F000040320260A17E0268012922F0200208BF5F
:100F100020320260E17E0268012922F0100218BF2F
:100F200010320260217F0268012922F0080208BF06
:100F300008320260617F0268012922F0040208BFC2
:100F400004320260D4E901C2D4E9033561691A436D
:100F50002A431143ACF101021143C1610020012178
:100F6000606284F82010B0BDB0B586B0006846F667
:100F70000002C4F2000200219042CDE90411CDE943
:100F80000211019134D046F20041C4F200018842BE
:100F900040F0828040F21831C2F200010A6843F644
:100FA0004000C4F20200531C0B6052B900210091B2
:100FB000016841F000710160016801F00071009169
:100FC00000990021009150F8101C152441F00101F6
:100FD00040F8101C50F8100C142500F0010000908F
:100FE00000984FF4C05001900020C4F2020038E095
:100FF00043F64000C4F202000091016841F08061B4
:101000000160016801F080610091009940F218319F
:10101000C2F200010A68531C0B6052B90021009112
:10102000016841F000710160016801F000710091F8
:1010300000990021009150F8101C412441F0020158
:1010400040F8101C50F8100C402500F002000090F1
:1010500000984FF4405001900020C4F2020000F5C7
:101060008060022102910021039103210491092152
:10107000059101A900F028FB28460021002201F07B
:101080004DF9284601F03AF920460021002201F0EE
:1010900045F9204601F032F906B0B0BD70470000B6
:1010A00070470000704700002DE9F04381B040F226
:1010B0001C2440F2A817C2F20004C2F2000704F197
:1010C000180207F110030121FFF70AFDA26940F29F
:1010D000B005C2F20005C2F34303500902F01F013C
:1010E000EB7202F00103023A032A6870A9702B73B5
:1010F0006ED8DFE802F003172D4100BF388A00BA2E
:10110000000C00EE100A688AB8EE400A01306882CE
:1011100097F82A0085ED0E0A013087F82A0001B001
:10112000BDE8F083D7E9040140F2000200BAC2F240
:101130000002106208BA298A1063481C97F8291027
:101140002882481C87F8290001B0BDE8F08300BF61
:10115000388A00BA000C00EE100AA88AB8EE400ADD
:101160000130A88297F82C0085ED0F0A013087F82E
:101170002C0001B0BDE8F083B7F91000B7F9128078
:1011800005F08DFB9FED2C0B54EC106B3246234683
:1011900005F0ECFB05F014F940F20009C2F2000979
:1011A000C9F81C00404605F07AFB3246234605F09C
:1011B000DDFB05F005F9E98AC9F82C00481C97F811
:1011C0002B10E882481C87F82B0001B0BDE8F083A3
:1011D00009290FD0012929D157FA80F090F85C1025
:1011E0003A7D013180F85C1080F8322001B0BDE812
:1011F000F08300BFD7E9041240F21C33C0B2C2F240
:101200000003BA6143F8202040F2C822C2F2000273
:1012100000EE101A42F82010BDEEC00A40F278220B
:1012200010EE101AC2F2000222F8101001B0BDE850
:10123000F08300BF00BF00BF000000000000B03F0F
:1012400070470000B0B5044690F8200001281DD179
:10125000022084F820002068016821F0010101606B
:1012600000F016FB054600BF20684068C00713D099
:1012700000F00EFB401B0B28F6D3606A40F40030F0
:101280006062052084F820000120B0BD606A40F44F
:10129000002060620120B0BD00206062B0BD00008F
:1012A0007047000070470000704700007047000062
:1012B00070470000704700007047000070B5866DF1
:1012C000044600F0E5FA94F8351002292ED10546BF
:1012D0002068216C026822F016020260426922F046
:1012E0008002426109B9A16C19B1016821F00801BD
:1012F0000160016821F0010101600068C00708D0A9
:1013000000F0C6FA401B052818D820680068C007FE
:10131000F6D1E06D3F2101FA00F0B060012084F8C1
:1013200035000020002184F8341070BD80206065F5
:101330000120002184F8341070BD00BF20206065BA
:10134000032084F83500002184F8341070BD0000BB
:1013500090F83510022909D1052180F83510006870
:10136000016821F001010160002070478021416582
:101370000120704790F8350070470000F0B581B04B
:1013800004460020009040F24800C2F200000268CB
:10139000D4E9166048F2B51337680821C1F64E3318
:1013A00081403942A2FB03250CD0226813685B07F9
:1013B00008D5136823F004031360B160616D41F038
:1013C0000101616501218140394208D022685269DA
:1013D000120604D5B160616D41F00201616504211E
:1013E0008140394208D022681268920704D5B16062
:1013F000616D41F00401616510218140394217D0CF
:1014000020680268120713D5B160026801685203B0
:1014100008D4C90508D4016821F008010160216CD5
:1014200021B905E008033FD4216C09B12046884763
:10143000E16D202000FA01F23A4241D020680368B1
:10144000DB063DD5B26094F835300268052B1BD120
:1014500022F016020260426922F080024261226C90
:101460000AB9A26C1AB1026822F0080202603F2099
:101470008840B060012084F83500216D00200029EB
:1014800084F8340052D157E00168520310D4C905E2
:1014900012D4016821F010010160012084F83500A8
:1014A000002084F8340007E0A16C0029BED1BFE71A
:1014B000080301D4616C00E0E16B09B12046884764
:1014C000606DC8B3606DC0072ED0052084F835006C
:1014D0002068A90A026822F001020260009A013223
:1014E0008A4200921AD80268D20717D0009A0132B5
:1014F0008A42009212D80268D2070FD0009A0132B5
:101500008A4200920AD80268D20707D0009A0132B4
:101510008A42009202D80268D207DFD1012084F803
:101520003500002084F83400E16C29B1204601B078
:10153000BDE8F040084700BF01B0F0BD2DE9F04123
:10154000044600F0A5F9002C4ED00546022084F890
:1015500035000020216884F83400086820F001007C
:1015600008600868C00708D000F092F9401B052801
:101570006CD821680868C007F6D1086848F23F02B5
:10158000CFF21002D4E90135024004F10C0E9EE8BE
:10159000C1511A432A4310433043384340EA0800FC
:1015A000626A40EA0C00042A40EA0E0320D1D4E922
:1015B0000A5E206B4EEA0302104308604869BEF1E0
:1015C000000F20F0030040EA050040F0040C15D0A5
:1015D000B8F5005F42D0B8F1000F51D1022D52D0C2
:1015E000012D47D055B94EE00120BDE8F08100BF84
:1015F0000B60486920F0070040EA020C6FF00F0012
:101600004AF6AB2250FA81F0CAF6AA22A0FB0223C6
:101610001A0947F22813C0F600039A5C40F2FF3320
:101620005F284FF03F00C1F814C021EA030100FA1F
:1016300002F088BF0431C4E9161288600023012239
:101640000020636584F83520BDE8F0810322202363
:101650000320636584F83520BDE8F081032DCDD8E3
:10166000012240230120DFE805F0030E030500BF3F
:10167000E7E700BFAEF1C070B0FA80F0400904E0C7
:10168000032D04D3BAD1CEF300600028B6D00122D6
:1016900040230120636584F83520BDE8F081000017
:1016A000B0B5044600F0F4F8054640F24000C2F23E
:1016B00000000078611C18BF044400BF00F0E8F887
:1016C000401BA042FAD3B0BD2DE9F04F82B000F12B
:1016D0003E4241F6000502F1FF77C4F202050722FF
:1016E0004FEAB726A84208BF0622062E38BF4FEAA7
:1016F000B7224FF0010A002400274FF000080092A3
:1017000008E000BF023708F10108202F04F10404AB
:1017100000F0B4800E680AFA08F916EA090FF1D051
:10172000D1F804A00AF0030BABF10106012E17D883
:101730000322866802FA07FECA6826EA0E06BA4045
:10174000324382604268CAF3001522EA090205FAB0
:1017500008F54FEA480C6FEA0E062A4342600BE098
:101760000322BA40D643BBF1030FBC4604D1BC46AA
:101770004FF0030B22E000BFC2688D68324005FACB
:101780000CF52A43BBF1020FC26017D16FF00302C0
:1017900002EA5802024404F01C030F25D2F820E0AC
:1017A00005FA03FA0D692EEA0A0E05FA03F343EA75
:1017B0000E031362D1F804A00AF0030B02680BFABF
:1017C0000CF332401A431AF4403F4FF0010A026012
:1017D00098D0002243F644030192C4F202031A682F
:1017E00043F6004E42F480421A601A68C4F2010EB9
:1017F00002F480420192019A28F003024FF6084C4D
:101800007244CFF6FF7C52F80C3004F00C060F2522
:10181000B540AB43009D05FA06F6334342F80C3061
:10182000DEF808204B6842EA090643F60C4CDD025C
:1018300058BF22EA0906CEF80860C4F2010CDCF8B1
:1018400000209D0242EA090658BF22EA0906CCF8A8
:101850000060DEF804209D0342EA090658BF22EA30
:101860000906CEF80460DEF80020DB0342EA090630
:1018700058BF22EA0906CEF8006043E702B0BDE88F
:10188000F08F0000002A08BF090481617047000042
:1018900040F25050C2F200000068704770470000EC
:1018A00070470000F0B581B0044600680025476924
:1018B000426894F83E1002F48076FA0505D5002EB1
:1018C0001EBF6FF4807242610125BA0505D5002E56
:1018D0001EBF02356FF4007242617A0516D5AEB1B3
:1018E000628D94F83D30D4F830C0202908BF002A1A
:1018F00024D06FF48062402905F10405426101D0D3
:10190000102903D1016841F400710160380507D541
:1019100036B1206808356FF40061416101E000BF15
:1019200055B1206C40EA05012046216401B0BDE8B4
:10193000F04001F099BE00BF01B0F0BD03F0F70127
:10194000212909D0282B08BFBCF1210F04D06FF446
:10195000806141610435D9E794F83D10E26AB2F143
:10196000080318BF0123203A18BF0122134208BF01
:10197000282921D0212939D10021CFF6FF71E16238
:1019800021212163202184F83D10002184F83E109C
:10199000426822F4E06242606FF480624261026851
:1019A00022F4806202604269120648BF016120464B
:1019B00000F038FCAAE700BF0021CFF6FF71E1621A
:1019C000416821F4E06141606FF480614161016828
:1019D00021F48061016000202021206384F83D1003
:1019E00084F83E00204600F0CBFB8FE76FF4806167
:1019F00041618BE7F0B581B0076804467868E26A18
:101A000094F83E3094F83DE0402B01D0102B27D1C4
:101A1000BE697D69E90751D1B2F12A4F00F0A28277
:101A2000B2F52A0F00F09E8200F400724FF0010C14
:101A300029078CEA522C45D5002A43D0606B616C93
:101A4000C9B2396118B1C06B002840F02281A06B87
:101A5000002800F08782C06B002840F01A8181E2E4
:101A6000216C00F4007300290CBFBE6900267D695B
:101A7000A90753D5002B51D0206C002818BFBE6990
:101A800094F83D0000F02800282840F09380786802
:101A9000002320F480607860012020EA960130065F
:101AA0004FF0180058BF0C20225A204684F83C30D2
:101AB00001B0BDE8F040FFF7F3BE00BF810557D489
:101AC0004FF0010CA90759D5BCF1000F56D194F87D
:101AD0003E30E06A226B94F83D10222940F0E0800D
:101AE000216D002908BF402B00F0DA80216D00290C
:101AF00040F034812169B1F5404F40F02F81002042
:101B0000009078690090B86900900098386840F4B7
:101B100080703860206D01306DE200BFE90655D558
:101B2000002B53D094F83D50786820F4E060786042
:101B30000020009078690090386840F0010038601B
:101B40000098386820F4806038607868000540F1BB
:101B5000428105F0F7002646222840F01B8156F806
:101B6000380F0168496826F80E1C36F80E1C19E17A
:101B7000E06AB0F52A0F5DD1012060E07968720754
:101B800001F4006100F19680002940F0EB816906C4
:101B900005F0040140F1AE8110F4806000F0AA81EC
:101BA000002940F0A781204601B0BDE8F04001F0D7
:101BB0009DBE00BF0020009079690091B969009135
:101BC000009984F83C0001B0F0BD00BF0EF0F701B1
:101BD000212940F08580290605F0040240F14C815E
:101BE00010F4806000F04881002A40F0458194F8AC
:101BF0003D00618D002900F0B581616A11F8012B6B
:101C00003A616162618D01396185618D002908BF8A
:101C1000292840F0A7817868282120F48060786026
:101C200021202063204684F83D1001B0BDE8F0403B
:101C300000F0F8BAE06AB0F12A4F01D10820E06262
:101C400094F83E0040280BD1206D616C002801F013
:101C5000FE0018BF40F00100386101B0F0BD00BFC8
:101C60002069B0F5804F69D194F83D00616C21285E
:101C700001F0FE0118BF01313961606B08B1C06B22
:101C800038B9A06B002800F06D81C06B002800F00F
:101C90006981786840F40060786001B0F0BD00BFF1
:101CA0000020009078690090B8690090009801B019
:101CB000F0BD00BF002940F05581290605F0040160
:101CC00040F1248110F4806000F02081002940F070
:101CD0001D81204601B0BDE8F04001F0F3BE00BF19
:101CE000690605F0040240F1D98010F4806000F02C
:101CF000D580002A40F0D28094F83D00618D002903
:101D000000F030813969626A1170616A0131616283
:101D1000618D01396185618D002908BF2A2840F055
:101D200021812068416821F48061416022202821BE
:101D30002063204684F83D10D7E000BF206D0028C6
:101D400000F0BE80206D012840F00C81606C0621FF
:101D500001EAD010F130386101B0F0BD618D61B1A0
:101D6000618D012940F0E280202818BF082840F04A
:101D7000FB80386820F4806038600020009078692B
:101D80000090B86900900098386840F4007038609E
:101D900030E100BF56F8340F0168496826F80A1C84
:101DA00036F80A1C19B1216C41F0040121647968EC
:101DB00021F400617960FFF7DDFA01280BD030686B
:101DC00043F24551C0F600010165FFF7C1FA10B1B9
:101DD0003068016D8847608D60B1206841694907AE
:101DE00030D4416949063AD4608D18B1206C40F076
:101DF00004002064206C28B1204601B0BDE8F0400A
:101E000001F032BC2A2D07D100202063282084F85D
:101E10003D00204600F004FA94F83D00282857D1F0
:101E20000020CFF6FF70E06200212020216384F8BB
:101E30003D00204684F83E1001B0BDE8F04000F0BF
:101E40009FB900BF0069616A0870616A206801314A
:101E50006162618D0139618541694906C4D50069B6
:101E6000616A0870606A01306062608D0138608567
:101E7000608D0028BAD1BDE7002A18BF002B71D0B1
:101E8000608D00286ED0606A10F8011B39616062B5
:101E9000608D0138608501B0F0BD00BF002A18BF19
:101EA000002B5FD0608D00285CD03869616A0870B3
:101EB000606A01306062608D0138608552E000BF69
:101EC000606C062101EAD010F030386101B0F0BD3D
:101ED000206B222818BF222D44D10021202021630D
:101EE00084F83D00204684F83E1001B0BDE8F04083
:101EF00000F096B9B1FA81F0400950EA0C0031D1F6
:101F0000204601B0BDE8F04001F074BCB1FA81F0A8
:101F1000400950EA0C0025D1BEF1210F1AD120460C
:101F200001B0BDE8F04001F08BBD00BF618D02291A
:101F30000CD110283CD8012114228140C0F20102AA
:101F4000114235D04FF4806238E000BF396841F467
:101F5000806135E0402B05D1204601B0BDE8F0405E
:101F600001F00ABE01B0F0BD10F5803F0CD1386819
:101F700020F480603860786800057FF5FEAE386830
:101F800020F4806038602EE0122A02D101287FF40C
:101F9000F0AE1028F3D8012101FA00F01421C0F2AC
:101FA00001010842EBD0386840F4806038601AE0E4
:101FB00039684FF4006221F4806139603968114357
:101FC0003960796809050ED5421E1F2A16D80121ED
:101FD000914048F28102C8F2000211420ED07868A6
:101FE00040F4805078600020009078690090B869D3
:101FF000009000980020206501B0F0BD10F5803FF2
:10200000EDD0F0E77047000070B5B8B3044690F823
:102010003D0028B9002084F83C00204600F0BAF8C2
:10202000242084F83D002068016821F0010101604E
:10203000016841F400410160016821F40041016040
:1020400000F096FA48F28041C0F21E0140F60013FB
:10205000D4F804E088424FF00001C0F23D0348F29A
:10206000A16C4FF0000238BF01219842C0F2010C70
:1020700038BF0122E64538BF0A460AB1012070BDCB
:102080004DF68361C4F21B31A0FB01122168950C4F
:102090004B684FF4967623F03F0343EA924375432F
:1020A00044F6D3564B60C1F262060B6AA5FB065696
:1020B000B50923F03F03E64538BF950C6A1C1A4367
:1020C0000A62CA6948F2A0664CF6FF73C0F20106C4
:1020D000B64522EA03020BD801384FEA4E03B0FBA3
:1020E000F3F001306FF31F30042898BF04201EE086
:1020F000A368013863B119230EFB03F3B0FBF3F0BF
:1021000001306FF31F3078B100F5804008E000BF68
:102110000EEB4E03B0FBF3F001306FF31F3028B12C
:1021200000F5004003E000BF012000E00120104363
:10213000C8610868D4E9072320F0C00010431843A1
:102140000860886848F2FF3204F10C0690434CCED8
:1021500018431043A5698860C86820F0FF00304329
:102160002843C860086840F0010008600020202172
:10217000206484F83D10206384F83E0070BD0000A8
:102180007047000070470000704700007047000073
:1021900070470000B0B586B0016845F20040C4F257
:1021A0000000814202D006B0B0BD00BF002443F65B
:1021B00030050194C4F20205296800F5D83041F0D9
:1021C00002012960296801F0020101910199C021F1
:1021D00001911221CDE902140321049104210591FA
:1021E00001A9FFF771FA00942869002140F400105A
:1021F00028612869002200F40010009000981F2038
:1022000000F08CF81F2000F079F820200021002237
:1022100000F084F8202000F071F806B0B0BD000096
:10222000704700007047000040F2400040F25051FB
:10223000C2F20000C2F2000100780A68104408608F
:102240007047000080B543F60040C4F20200016808
:1022500041F400710160016841F48061016001682E
:1022600041F480710160032000F084F80F2000F039
:1022700005F800F027F8002080BD000070B540F29E
:102280004006C2F2000640F248013278C2F2000174
:102290004FF47A730968B3FBF2F20446B1FBF2F132
:1022A000084600F047FC0F2C4FF0010508D838B95C
:1022B0004FF0FF3021460022002500F02FF8746017
:1022C000284670BD82B0002043F640010190C4F260
:1022D00002014A6842F480424A604A6802F480423D
:1022E0000192019A0090086840F0805008600868E8
:1022F00000F080500090009802B07047002848BF5E
:10230000704700F01F01012202FA01F14EF20012A3
:102310004009CEF2000242F82010704710B54EF688
:102320000C5CCEF2000CDCF80030C3F3022E8EF011
:102330000704042C28BF0424BEF103034FF0FF3E22
:102340000EFA04F438BF0023A14399400EFA03F3B8
:102350009A43114300F00F02043A624409010C321F
:1023600000F16043B0F1FF3FC8BF03F56442117054
:1023700010BD00004EF60C51CEF200010A684FF677
:10238000FF031A4060F30A2242F0806040F0FD70C3
:102390000860704770B582B00020019043F640009D
:1023A000C4F202000168402641F0805101600068DB
:1023B000C4F20E2600F080500190019847F2040507
:1023C0000120C4F200053060FFF762FA044600BF46
:1023D0002868C00306D4FFF75BFA001BB0F57A7FCC
:1023E000F6D90EE001207060FFF752FA044600BFF4
:1023F0002868800308D4FFF74BFA001BB0F57A7FFA
:10240000F6D9032002B070BD002002B070BD0000FC
:102410002DE9F041002800F08B8043F60808C4F253
:1024200002080446D8F8F8030D4600F00F00884271
:1024300007D288F8F853D8F8F80300F00F00A84244
:1024400076D12068810717D5410705D5D8F8001047
:1024500041F4E051C8F80010010705D5D8F8001084
:1024600041F46041C8F80010D8F80010A26821F0CB
:10247000F0011143C8F80010C0073FD1D8F8F803A5
:1024800000F00F00A84207D988F8F853D8F8F803ED
:1024900000F00F00A8424BD12068410707D5D8F8BB
:1024A0000010E26821F4E0511143C8F80010000761
:1024B00008D5D8F80000216920F4604040EAC10046
:1024C000C8F8000000F07CF8D8F8001047F21012AD
:1024D000C1F30311C0F60002515C40F2480220FA39
:1024E00001F140F24400C2F200000068C2F20002B2
:1024F0001160FFF7C3FE0020BDE8F0816068811E17
:10250000022907D258F8081C89015CBF0120BDE8E8
:10251000F08111E0012807D158F8081C89035CBF3D
:102520000120BDE8F08107E058F8081C890703D4B2
:102530000120BDE8F08100BFD8F8001021F00301B0
:102540000843C8F80000FFF7A3F9064641F28837B0
:10255000D8F80000616800F00C00B0EB810F8DD05E
:10256000FFF796F9801BB842F2D90320BDE8F0814D
:1025700040F2480043F60801C2F20000C4F2020132
:102580000068096847F22012C1F38221C0F60002F8
:10259000515CC8407047000040F2480043F6080113
:1025A000C2F20000C4F202010068096847F220127A
:1025B000C1F34231C0F60002515CC84070470000D0
:1025C00010B543F60404C4F202046068C0F381014C
:1025D00042F20040C0F2F400DFE801F044020818C3
:1025E00041F20020C0F27A0010BD00BF216801F066
:1025F0003F02216823684902C3F3881116D4A1FB66
:1026000000010023FDF74EFE17E000BF216801F036
:102610003F02216823684902C3F3881116D4A1FB45
:1026200000010023FDF73EFE17E000BF41F200204D
:10263000C0F27A004843B0FBF2F021680222C1F3F5
:10264000014102EB4101B0FBF1F010BD41F200206D
:10265000C0F27A004843B0FBF2F02168C1F3027186
:10266000B0FBF1F010BD00002DE9F04182B0002870
:1026700000F096800446007843F60006C007C4F2D6
:1026800002062BD0B06800F00C00042820D0B068FF
:1026900000F00C00082802D17068400218D4B0681D
:1026A00000F00C000C2802D17068400210D4606861
:1026B000B0F5803F07D0B0F5A02F40F03B813068E7
:1026C00040F480203060306840F4803030603BE17E
:1026D0003068800302D56068002861D020788007C8
:1026E00022D5B06810F00C0F11D0B06800F00C00CB
:1026F000082802D17068400209D5B06800F00C00CB
:102700000C2840F09F807068400200F19B80306888
:10271000800702D5E068012842D13068216920F0A5
:10272000F80040EAC1003060207800073CD42078EF
:10273000400751D4A5698DB3B06800F00C0008289B
:1027400040F0A880012D2BD07068E16900F4800270
:102750008A4225D1216A00F03F028A4220D147F601
:10276000C071626A0140B1EB821F19D1A26A0023D5
:10277000CFF6FF7303EBC23200F440316FF30F0268
:1027800091420DD1E16A00F07062B2EB016F07D1A6
:10279000216B00F0E040B0EB017F01D1002035E17A
:1027A000012002B0BDE8F0816069002840F200001D
:1027B000C4F247205ED00121C0F8801EFFF768F800
:1027C000054600BF706F8007B1D4FFF761F8401B6A
:1027D0000228F7D9C5E000BF306C10F080580AD14C
:1027E00000200190306C40F080503064306C00F07C
:1027F00080500190019847F20007C4F20007386842
:10280000C00511D4386840F480703860FFF740F894
:10281000054600BF3868C00506D4FFF739F8401BED
:102820000228F7D99DE000BFA068012805D005283F
:1028300052D1306F40F004003067306F40F001003B
:10284000306753E0E068002860D00020C4F24720E1
:1028500001210160FFF71CF8054600BF30688007C2
:102860003FF55BAFFFF714F8401B02284FF0030061
:10287000F4D9CBE00021C0F8801EFFF709F8054627
:10288000706F80077FF553AFFFF702F8401B0228F7
:10289000F6D966E00027C4F2472700203866FEF725
:1028A000F7FF022D05460BD1306880015ED5FEF79B
:1028B000EFFF401B02284FF00300F5D9A6E000BF50
:1028C000306880017FF56AAFFEF7E2FF401B022807
:1028D0004FF00300F4D999E0316F002821F0010195
:1028E0003167316F21F00401316765D0FEF7D0FF09
:1028F000054641F2883700BF306F80076ED4FEF77F
:10290000C7FF401BB842F7D92BE000BF0020C4F23C
:10291000472000210160FEF7BBFF054630688007B5
:102920007FF502AFFEF7B4FF401B02284FF0030013
:10293000F4D96BE03168002821F4803131603168CE
:1029400021F48021316053D0FEF7A2FF054600BF7D
:10295000306880033FF5C2AEFEF79AFF401B642843
:10296000F6D9032002B0BDE8F08100BF04F11C05D8
:102970002FCD246B08430021CFF6FF7140EA82106F
:1029800001EBC3316FF30F0140EA0560084340EAF1
:102990000470706001203866FEF77AFF044600BFBD
:1029A000306880013FF5FAAEFEF772FF001B022887
:1029B0004FF00300F4D929E0FEF76AFF054641F223
:1029C000883700BF306F800708D5FEF761FF401BD6
:1029D000B8424FF00300F5D918E000BFB8F1000F7E
:1029E0007FF4A8AE306C20F080503064A2E600BFC7
:1029F000FEF74EFF0546306880037FF56FAEFEF7A9
:102A000047FF401B64284FF00300F4D902B0BDE833
:102A1000F081000070B538B10446406A30B1002042
:102A2000206104F1140007E0012070BD6068B0F57A
:102A3000827F03D004F11C00002101600026A66201
:102A400094F8510020B9204684F8506000F03CF81A
:102A5000022084F8510094E80F0001F482710568A7
:102A600002F4044225F040050560114403F40062BD
:102A70002369114403F002026369114403F0010267
:102A8000A369E569114403F40072114405F03802AA
:102A9000256A114405F08002A56A114305F400522D
:102AA00011430160626A042101EA134102F010023D
:102AB00011444160C16921F40061C1610120666572
:102AC00084F85100304670BD80B586B0016843F28D
:102AD0000000C4F20100814202D006B080BD00BFF8
:102AE000002143F630020191C4F20202536900F55D
:102AF000504043F480535361536903F4805301936E
:102B0000019B0191136843F001031360126802F006
:102B100001020192019AE02201920222CDE90221F2
:102B2000032104910521059101A9FEF7CDFD06B011
:102B300080BD0000411E0020B0EB116F1CBF0120C2
:102B400070474EF21002CEF2000251604EF6235151
:102B5000CEF20001F0230B700721906011607047E6
:102B60007047000070470000002804BF0120704734
:102B700010B5044690F83D0028B9002084F83C00C8
:102B8000204600F01FF8022084F83D002068211D37
:102B900001F094FF012084F8460084F83E0084F898
:102BA0003F0084F8400084F8410084F8420084F833
:102BB000430084F8440084F8450084F83D00002078
:102BC00010BD000080B582B0006842F20001C4F27E
:102BD000000188421CBF02B080BD0020019043F676
:102BE0004000C4F202000168002241F480710160DB
:102BF0000068002100F48070019001982D20FFF7FB
:102C00008DFB2D2002B0BDE88040FFF777BB0000B0
:102C10007047000070B504460068C5680669B107D2
:102C200016D515F0020113D06FF0020101610121E8
:102C300021778069800703D02046FFF7E9FF05E090
:102C4000204600F08FF8204600F08EF80020207714
:102C5000700719D515F0040016D020686FF0040134
:102C6000016102212177806910F4407F04D0204661
:102C7000FFF7CEFF06E000BF204600F073F82046C5
:102C800000F072F800202077300717D515F0080003
:102C900014D020686FF00801016104212177C06918
:102CA000800703D02046FFF7B3FF05E0204600F081
:102CB00059F8204600F058F800202077F00619D582
:102CC00015F0100016D020686FF010010161082186
:102CD0002177C06910F4407F04D02046FFF798FFA9
:102CE00006E000BF204600F03DF8204600F03CF82A
:102CF00000202077F00718BF15F0010002D1300640
:102D000009D412E020686FF001010161204600F053
:102D10002DF8300609D515F0800006D020686FF038
:102D2000800101612046FFF71BFF700609D515F0F1
:102D3000400006D020686FF040010161204600F09D
:102D400017F8B00658BF70BD15F0200008D02168F4
:102D50006FF0200220460A61BDE87040FFF702BF15
:102D600070BD000070470000704700007047000011
:102D7000704700007047000070470000B0B582B097
:102D8000044600680168C368426901F02F05202DE0
:102D900003F0200506D12DB1204602B0BDE8B040B9
:102DA00002F03AB85FEA017C1EBF02F0010E03F4A4
:102DB000907212EB0E0255D1226B012A05D111F04F
:102DC000100218BF13F0100236D10A0622D513F0F4
:102DD00080021FD094F84110212941D1A168B1F59A
:102DE000805F03D12169002900F07282216A4A1CA8
:102DF000226209784160E18C01390A04E1842FD113
:102E0000C16821F08001C160C16841F04001C1602A
:102E100002B0B0BD490623D513F0400120D0C168EF
:102E200021F04001C1602021204684F8411002B009
:102E3000BDE8B04000F076BB00210191016801912E
:102E40004168019101994169490600F18F80A18D86
:102E5000E28DE38D002B1CBF891A5FEA01420CD181
:102E600002B0B0BDCA0718BF13F4807240F03881B9
:102E70004A0700F13B8140E1206850E8030F2268D7
:102E800020F4907042E80303DBB1206850E8030FA0
:102E9000226820F4907042E8030393B1206850E860
:102EA000030F226820F4907042E803034BB12068BE
:102EB00050E8030F226820F4907042E80303002BCF
:102EC000DAD1206850E8050F226820F0010042E8BE
:102ED0000503DBB1206850E8050F226820F00100EF
:102EE00042E8050393B1206850E8050F226820F0FE
:102EF000010042E805034BB1206850E8050F226845
:102F000020F0010042E80503002BDAD1202084F8EC
:102F1000420000202063206850E8030F226820F060
:102F2000100042E80303DBB1206850E8030F226879
:102F300020F0100042E8030393B1206850E8030F2B
:102F4000226820F0100042E803034BB1206850E8EB
:102F5000030F226820F0100042E80303002BDAD1AF
:102F6000022289B220466263B4E000BFE16B0A68C6
:102F7000526893B2002B3FF473AFA58DAB42BFF400
:102F80006FAFE285C969B1F5807F00F09C8050E8A1
:102F9000030F216820F4807041E80302E2B1206849
:102FA00050E8030F216820F4807041E803029AB1D1
:102FB000206850E8030F216820F4807041E8030284
:102FC00052B1206850E8030F216820F4807041E876
:102FD00003020AB12068DAE7206850E8050F21688B
:102FE00020F0010041E80502DAB1206850E8050F41
:102FF000216820F0010041E8050292B1206850E804
:10300000050F216820F0010041E805024AB120685F
:1030100050E8050F216820F0010041E80502002A70
:10302000DAD1206850E8050F216820F0400041E81F
:103030000502DAB1206850E8050F216820F0400051
:1030400041E8050292B1206850E8050F216820F0A0
:10305000400041E805024AB1206850E8050F2168A8
:1030600020F0400041E80502002ADAD1202084F84F
:10307000420000202063206850E8030F216820F000
:10308000100041E80302DAB1206850E8030F21681C
:1030900020F0100041E8030292B1206850E8030FCD
:1030A000216820F0100041E803024AB1206850E88E
:1030B000030F216820F0100041E80302002ADAD152
:1030C000E06BFEF7FBF802206063A08DE18D401AF3
:1030D00081B2204602B0BDE8B040FFF74BBE00BF52
:1030E000626C42F0010262644A0706D5BEF1000F2D
:1030F00003D0626C42F0020262648A0706D5BEF118
:10310000000F03D0626C42F004026264BCF1000F55
:1031100006D555EA0E0203D0626C42F008026264E2
:10312000626C002A3FF49CAE11F0200118BF002D04
:1031300003D0204601F070FE20684169626C01F006
:10314000400102F00802891800F0A28050E8030F45
:10315000216820F4907041E80302C2B3206850E86F
:10316000030F216820F4907041E803027AB32068CD
:1031700050E8030F216820F4907041E8030232B355
:10318000206850E8030F216820F4907041E80302A2
:10319000EAB12068DAE700BF206850E8050F21682F
:1031A00020F0010041E80502DAB1206850E8050F7F
:1031B000216820F0010041E8050292B1206850E842
:1031C000050F216820F0010041E805024AB120689E
:1031D00050E8050F216820F0010041E80502002AAF
:1031E000DAD1206B012824D1206850E8030F216830
:1031F00020F0100041E80302DAB1206850E8030F24
:10320000216820F0100041E8030292B1206850E8E4
:10321000030F216820F0100041E803024AB1206842
:1032200050E8030F216820F0100041E80302002A53
:10323000DAD1202084F84200002020632068416910
:1032400049063FD550E8050F216820F0400041E8CD
:1032500005022AB3206850E8050F216820F04000DD
:1032600041E80502E2B1206850E8050F216820F02E
:10327000400041E805029AB1206850E8050F216836
:1032800020F0400041E8050252B12068DAE700BFB3
:103290002046FFF771FD0020606402B0B0BD00BFA2
:1032A000E06B78B144F60D61C0F600010165FEF7F0
:1032B0004FF800283FF4D4ADE06B016D02B0BDE8DB
:1032C000B0400847204602B0BDE8B040FFF754BD0B
:1032D000216A31F8022B6FF35F22426021628AE596
:1032E000002804BF0120704710B5044690F8410043
:1032F00028B9002084F84000204600F021F824205E
:1033000084F841002068C16821F40051C160204662
:1033100001F002FE2068016921F4904101614169D8
:1033200021F02A014161C16841F40051C1600020CF
:103330002021606484F8411084F84210606310BD5D
:103340002DE9F04786B00446006845F20001C4F25A
:10335000000100268842CDE90466CDE902660196A7
:1033600030D044F60041C4F20001884240F096801B
:10337000002043F630010090C4F202010A6942F4D1
:1033800000220A610A6902F400220092009A009069
:103390000A6842F001020A600968022201F0010194
:1033A00000910099CDE9022008200321059000201A
:1033B00001910491C4F2020001A9FEF785F93424B9
:1033C00064E000BF43F630000096C4F202000169D9
:1033D000002741F4801101610169C4F2020701F480
:1033E0008011009100990096016801AD41F004013F
:1033F000016001684FF0020801F00401009100999A
:10340000009601684FF0030941F00801016000686F
:103410004FF0080A00F00800009000984FF4805028
:10342000019007F500602946CDE90286CDF810909D
:10343000CDF814A0FEF748F90420CDE9010803A84F
:1034400080E8400607F540602946FEF73DF940F266
:103450006C3546F2B800C2F20005C4F202004FF02B
:10346000006140224FF4806385E847002846C5E9A3
:103470000436C5E90666C5E90866FEF75FF8002868
:1034800018BFFCF7F5FFA563AC6335242046002187
:103490000022FEF743FF2046FEF730FF06B0BDE8EE
:1034A000F087000090F84230202B1CBF02207047AC
:1034B00000294FF0010318BF002A01D118467047B8
:1034C00000230363816222218285C285436480F8E0
:1034D00042100169006819B1C16841F48071C1608E
:1034E0004169002341F001014161C16841F02001BF
:1034F000C16018467047000080B540F2A810C2F2C3
:10350000000000F1200140F2C040C2F20000082299
:10351000FFF7C8FF40F2B000C2F20000C1890131DC
:10352000C18180BD70470000FEE7000040F2CC3052
:10353000C2F20000FEF7B6B940F2CC30C2F2000091
:10354000FEF758BA10B581B000210091806B40F2AF
:103550004801C2F2000190F83DC009684BF289525F
:10356000C908C1F2F842A1FB0212110A23225143F9
:103570000091009911B3009901390091016809681F
:1035800089051FD50099C9B10099013900910168D9
:103590000968890516D5009981B100990139009112
:1035A0000168096889050DD5009939B1009901397B
:1035B0000091016809688905DBD403E0016C41F0E2
:1035C00020010164446B4FF0000E002C1CBF002151
:1035D000E163816B00291CBF0022CA630268002CD2
:1035E000136823F480631360A0F82AE018BFC4F8BE
:1035F00050E000291CBF00230B65116821F0010178
:10360000116090F83D1060290CD1202180F83D1008
:10361000002180F83E10016401B0BDE81040FEF7C3
:103620003DB900BF0CF02801282911D1116841F0E3
:1036300001011160116841F4806111600021016392
:10364000282180F83D1001B0BDE81040FEF7DABC3B
:10365000202180F83D10002180F83E1001B0BDE827
:103660001040FEF7CFBC000010B5044690F83D10A6
:1036700090F83E00B0F1100218BF0122403818BF88
:103680000120024208BF222934D001F02800282856
:103690003AD100202063282084F83D00206841684A
:1036A000090542D5416821F400614160606B90F8E2
:1036B0003510012958D1A06B43F24551C0F60001E5
:1036C0000165FDF745FE002861D020684169490683
:1036D00006D50069616A0870616A2068013161621B
:1036E000016821F001010160202084F83D00A06BF9
:1036F0004BE000BF2068026822F40062026042686A
:10370000120505D50CE000BF20684268120507D4F9
:10371000602905D0202184F83D10002184F83E1056
:103720000021216341680905BCD494F83D1060294B
:1037300050D1202184F83D100021216441694906BF
:1037400006D50069616A0870616A206801316162AA
:10375000016821F0010101602046FEF79FF8206C0E
:10376000000717D11BE000BF43F24551C0F600012E
:103770000165FDF7EDFD50B12168606B0A6822F02C
:1037800001020A60202184F83D10016D8847206CF9
:10379000000704D02068416821F4E061416094F89A
:1037A0003D00216C490758BF10BD282810D10020CA
:1037B000CFF6FF70E06200212020216384F83D00F5
:1037C000204684F83E10BDE81040FEF7D9BC00BF8B
:1037D00010BD00BF4169490605D50069616A0870DE
:1037E000606A013060622046FEF70CFC206C000726
:1037F000D0D1D4E7C16A428D042A07D10168426A58
:103800004B6823F480634B60096911E0428D032A01
:1038100016D102680229536823F48063536005D0EF
:10382000042903D0116821F4806111601169426A92
:103830001170416A01314162418D01394185704702
:10384000428D022A12D14A1E0F2A19D8DFE802F04F
:103850000812181218181818181818181818180814
:103860000268136823F480630EE000BF0168426AB7
:10387000CAE700BF0268136843F4806304E000BF36
:103880000268136843F4007313601269436A1A7084
:10389000426AD0F800C0531C4362438D013B43850C
:1038A000DCF810305370426A036801324262428D84
:1038B000013A42855A6822F440725A60202280F808
:1038C0003D2090F83E300022402B80F83E2003D16E
:1038D0000263FEF75BBC00BFB1F1080218BF122201
:1038E000203918BF11460163FEF74CBC81B090F837
:1038F0003D10222979D1C16A428D042A14D301686E
:10390000426A09691170416A01314162418D013990
:103910004185418D032968D10068416821F48061A7
:10392000416001B0704700BFC36A022B58D0012A22
:1039300056D80022009240F24802C2F200021268F9
:103940004BF28953D208C1F2F843A2FB03231A0AAF
:1039500002EB82020092009A013A0092009A002A39
:1039600046D0026813689B051AD5009A013A009266
:10397000009AEAB3026813689B0511D5009A013AD0
:103980000092009AA2B3026813689B0508D5009ABA
:10399000013A0092009A5AB3026813689B05DAD480
:1039A000136823F480631360536823F4E063536067
:1039B0001269436A1A70426A01324262428D013AC8
:1039C0004285202280F83D2090F83E300022402B96
:1039D00080F83E2028D1026301B0FEF7D7BB00BFBC
:1039E0000068416821F48061416001B0704700BF08
:1039F000016C41F0200101640168426A4B6823F4C4
:103A0000E0634B6009691170416A01314162418D87
:103A100001394185202180F83D10002180F83E10B9
:103A200001B0FEF7EFBA00BFB1F1080218BF1222D1
:103A3000203918BF1146016301B0FEF7A3BB000097
:103A4000C16A90F83D20212A18BF7047428D4AB1C3
:103A5000416A026811F8013B13614162418D0139ED
:103A60004185704711F5803F18BF082918D10168BA
:103A70004A6822F4E0624A600A6842F400720A600E
:103A800000212022016380F83D2090F83E2080F83C
:103A90003E10402A08BFFEF77BBBFEF775BB00BF98
:103AA0002029E4D001684A6822F4E0624A601121CA
:103AB0000163002180F83E10202180F83D10FEF7C0
:103AC00063BB000090F83D1090F83EC0C26A038DC1
:103AD000002B08BF212919D0212905D0BCF1400FA6
:103AE00008BF222900D07047418D69B390F83E107D
:103AF000402908BF00F040B8416A026811F8013B54
:103B000013614162418D01394185704712F5803F53
:103B100018BF082A1ED101684A6822F4E0624A6090
:103B20000A6842F400720A6000212022016380F8D2
:103B30003D2090F83E2080F83E10402A08BFFEF756
:103B400027BBFEF721BB00BF0068416821F48061FC
:103B500041607047202ADED001684A6822F4E062A2
:103B60004A6011210163002180F83E10202180F875
:103B70003D10FEF709BB000090F83D10026D5AB1F0
:103B8000026D012A14D10168826CD2B20A61016D02
:103B900001310165704700BFC26C816C012A15D1EB
:103BA0000268C9B21161016D02310165704700BF41
:103BB000026D022A12D1222918D101680A6842F442
:103BC00080720A60016D0131016570470268C1F3BE
:103BD00007211161016D013101657047006841697C
:103BE000090644BF00210161704700BF428D5AB1F0
:103BF000212909D1416A026811F8013B1361416230
:103C0000418D013941857047428D002A08BF212925
:103C1000EAD101684A6822F4E0624A600A6842F424
:103C200000720A6000212022016380F83D2080F8A4
:103C30003E10FEF7ADBA0000FEE70000FEE7000010
:103C40002DE9F04F81B040F20008C2F2000898F868
:103C50000100A8B398F8041091B398F80010012956
:103C60002ED000EB400098F8021080009FED942ABF
:103C700000EE100AB2EE081AB8EEC00A012908BF19
:103C8000B0EE401AB4EE421AF1EE10FAC8BFB0EE30
:103C9000421A88ED041A00F0B7FF98F8020040F2CB
:103CA000B0090128C2F2000940F0D88099ED100A4D
:103CB00099ED112AB8EEC01AB8EEC20AD7E000BFDB
:103CC00040F21C25C2F200054FF000082E2040F201
:103CD000A814C5E9000840F23010C2F200044FF009
:103CE000004BC2F2000044F808BF05F1340700F1B0
:103CF00050064FF0040A384629462246334685F8D6
:103D00001480C5E90288C5F810A0FCF725FE012043
:103D1000FDF7C6FC40F2B009C2F20009D9F81C0058
:103D200029460130C9F81C00384622463346FCF7C4
:103D300013FE0120FDF7B4FCD9F81C002946013020
:103D4000C9F81C00384622463346FCF705FE012020
:103D5000FDF7A6FCD9F81C00C4E900880130C9F8B9
:103D60001C000120FDF79CFC4E20C5E900083846E8
:103D700029462246334685F81480C4F800B0C5E9C8
:103D80000288C5F810A0FCF7E7FD0120FDF788FCCC
:103D9000D9F81C0029460130C9F81C0038462246D3
:103DA0003346FCF7D9FD0120FDF77AFCD9F81C0059
:103DB00029460130C9F81C00384622463346FCF734
:103DC000CBFD0120FDF76CFCD9F81C00C4E900888C
:103DD0000130C9F81C000120FDF762FC6E20C5E926
:103DE0000008384629462246334685F81480C4F830
:103DF0000080C5E90288C5F810A0FCF7ADFD0120E0
:103E0000FDF74EFCD9F81C0029460130C9F81C000A
:103E1000384622463346FCF79FFD0120FDF740FC63
:103E2000D9F81C0029460130C9F81C003846224642
:103E30003346FCF791FD0120FDF732FCD9F81C0058
:103E4000C4F800800130C9F81C000120C4F80480C7
:103E500001B0BDE8F04FFDF723BC00BF9FEDE60ABF
:103E60000020B0EE401AC9F84000C9F8440098EDAF
:103E7000042A98F8070032EE000A32EE011ABDEE6D
:103E8000C00ABDEEC11A10EE102A11EE101A88F801
:103E9000062040F21C2440F2A81540F230124FF0E8
:103EA000000B8842C2F20004C2F20005C2F2000216
:103EB000C9F848B088F8051004D2012109E000BF14
:103EC00000001042884254D940F23012FF21C2F261
:103ED00000020844C1B289F8090044F28C2000EEC7
:103EE000101AE881AA46083508202F2104F134076A
:103EF00002F15006B8EE400AC4E9001B20613846C2
:103F000021462A46334684F814B08AED020AC4E9F1
:103F100002BBFCF721FD0120FDF7C2FBD9F81C0014
:103F200021460130C9F81C0038462A463346FCF7C2
:103F300013FD0120FDF7B4FBD9F81C002146013028
:103F4000C9F81C0038462A4633465546FCF704FD9E
:103F50000120FDF7A5FBD9F81C00CAE902BB01301E
:103F6000C9F81C000120FDF79BFB99F8090088F8AF
:103F7000070098F8061098F80800814240F29C80EB
:103F80000130C1B289F80A0044F28C204FF0000BD6
:103F9000E8814F20C4E9000B40F23010C2F200006B
:103FA00000EE101AAA460835082104F1340700F182
:103FB0005006B8EE400A2161384621462A4633466B
:103FC00084F814B08AED020AC4E902BBFCF7C4FC11
:103FD0000120FDF765FBD9F81C0021460130C9F826
:103FE0001C0038462A463346FCF7B6FC0120FDF794
:103FF00057FBD9F81C0021460130C9F81C0038468F
:104000002A463346FCF7A8FC0120FDF749FBD9F806
:104010001C00CAE902BB0130C9F81C000120FDF7F1
:104020003FFB99F80A00214600EE100A44F28C206A
:10403000AAF80E006F20C4E9000B0820B8EE400A71
:10404000206138462A46334684F814B08AED020AC5
:10405000C4E902BBFCF780FC0120FDF721FBD9F885
:104060001C0021460130C9F81C0038462A46334658
:10407000FCF772FC0120FDF713FBD9F81C00214668
:104080000130C9F81C0038462A463346FCF764FC68
:104090000120FDF705FBD9F81C00CAE902BB01307D
:1040A000C9F81C000120FDF7FBFA99F80A0088F80E
:1040B000080001B0BDE8F08F40F2301AC2F2000AE9
:1040C00080F097800138C1B289F80A00002020757D
:1040D00044F28C20E8814F2000EE101AAB460835E0
:1040E00008212060002004F134070AF15006B8EEE0
:1040F000400AC4E90100C4E90301384621462A46C2
:1041000033468BED020AFCF727FC0120FDF7C8FAC5
:10411000D9F81C0021460130C9F81C0038462A464F
:104120003346FCF719FC0120FDF7BAFAD9F81C0058
:1041300021460130C9F81C0038462A463346FCF7B0
:104140000BFC0120FDF7ACFAD9F81C000130C9F8CE
:104150001C000020CBE902000120FDF7A1FA99F82C
:104160000A00002100EE100A44F28C20ABF80E0089
:104170006F20C4E900010820B8EE400A2175C4E9A7
:1041800002112061384621462A4633468BED020A49
:104190004FF0000AFCF7E0FB0120FDF781FAD9F8A7
:1041A0001C0021460130C9F81C0038462A46334617
:1041B000FCF7D2FB0120FDF773FAD9F81C00214669
:1041C0000130C9F81C0038462A463346FCF7C4FBC8
:1041D0000120FDF765FAD9F81C00CBE902AA0130ED
:1041E000C9F81C000120FDF75BFA99F80A0088F86D
:1041F000080001B0BDE8F08F00000000704700002B
:1042000070470000000000002DE9F04F81B02DED57
:10421000108B82B040F20002C2F20002907840F2AD
:10422000B00A01380428C2F2000A00F2BB80DFE8BD
:1042300000F003A5B99BBF00D678B6F15A0038BF8D
:10424000C6F15A0002F02BFB9FEDBD0B53EC102B77
:1042500002F08CFB9FEDBC0B044653EC102B0D467B
:1042600002F094F99FEDBA0B5C2E52EC103B9FEDDF
:10427000BA0B24BF2A46234655EC104B592E24BFB7
:104280001146184622462B4602F070FB41EC100BFB
:1042900001F0AEF951EC100B22462B4602F076F9F4
:1042A00041EC100B40F2301BC2F2000B8BED160BF1
:1042B0009FEDAB0B58EC109B4A46434602F056FB71
:1042C0009FEDA90B56EC107B3A46334602F05EF99F
:1042D00041EC100B01F0FCF953EC102B9FEDA40BFB
:1042E00054EC105B2846214602F050F902F068F8C1
:1042F000CAF84C0002F0C2FD9BED160B01908B46F4
:1043000051EC100B4A46434602F030FB3A46334626
:1043100002F03CF941EC100B01F03EFA53EC102B8B
:104320002846214640F20004C2F2000402F02EF9B1
:10433000024601980B46594602F0B2FC02F040F8E2
:1043400094F8038000EE100AB8F1580FCAF8500034
:1043500000F212819AED131A9FEDF52A31EE400A10
:1043600030EE020A17E100BF0020CAE9100046F251
:104370006660CBF686709FEDF28A22E00020CAE9E3
:1043800010004AF614604AF61461C4F20310CCF22D
:1043900003119FEDF69A9FEDF68ACAE91600CAF856
:1043A000601014E09FEDF48A0020CAE9100008E0D4
:1043B0000020CAE9100046F26660C3F686709FEDE1
:1043C000EA8ACAE91600B0EE489ACAF860009AED87
:1043D000190A40F21C24B4EE490AF1EE10FAC2F2B6
:1043E00000044FD0042040F2A819206140F23010A0
:1043F000C2F20009C2F200004FF0000809F10805FE
:10440000EC2104F1340700F15006C4E900183846E5
:1044100021462A46334684F8148089ED029AC4E97D
:104420000288FCF799FA0120FDF73AF9DAF81C0046
:1044300021460130CAF81C0038462A463346FCF7AC
:104440008BFA0120FDF72CF9DAF81C002146013027
:10445000CAF81C0038462A463346FCF77DFA01208C
:10446000FDF71EF9DAF81C00C9E902880130CAF824
:104470001C000120FDF714F9DAF85C009AED188AA7
:10448000CAF864009AED1A0AB4EE480AF1EE10FA7E
:104490004ED0042040F2A819206140F23010C2F240
:1044A0000009C2F200004FF0000809F108054FF4BE
:1044B000867104F1340700F15006C4E9001838464B
:1044C00021462A46334684F8148089ED028AC4E9DD
:1044D0000288FCF741FA0120FDF7E2F8DAF81C0047
:1044E00021460130CAF81C0038462A463346FCF7FC
:1044F00033FA0120FDF7D4F8DAF81C002146013028
:10450000CAF81C0038462A463346FCF725FA012033
:10451000FDF7C6F8DAF81C00C9E902880130CAF8CC
:104520001C000120FDF7BCF8DAF86000CAF868004A
:1045300002B0BDEC108B01B0BDE8F08F00BF00BF32
:10454000C173EFE192E3D83F9A99999999990640FE
:1045500000000000000000000000000000002440F7
:1045600050455254FB210940000000000080664085
:104570000000000000908A409AED131A9FED7D2AFA
:1045800031EE400A30EE021A9FED7B0AB8F15B0F64
:1045900088BFB0EE410A9FED79AA40F2301980EE53
:1045A0000ACAC2F2000999ED160B9FED671B51EC88
:1045B000100B53EC112B8AED15CA02F0D7F99FEDC1
:1045C000640B53EC102B01F0E1FF01F0F9FE94EDC8
:1045D00004DAB3EE080A8DEE000A09EE100AB1EE15
:1045E00049BAB0EE4B1AB8F1590F38BFB0EE491ABC
:1045F000B1EE418A8AED161A8AED171A8AED188AE9
:1046000010EE100A02F03AFC044641EC100B40F2A6
:10461000A810C2F2000080ED000B1CEE100A0D463F
:1046200002F02CFC9FED4C0B06460F4653EC102B72
:104630002046294602F09AF902460B463046394692
:1046400001F0A4FF41EC100B9FED4D1A89ED180B02
:104650003CEE010A044610EE100A0D4602F00EFC74
:1046600022462B4601F092FF9FED3D0B56EC107B4E
:104670003A46334602F07AF901F0A2FE9FED41FA84
:1046800000EE100A80EE0F0ADFED3F8ADFED3F9A61
:1046900020EE0A0A80EE280A20EE290A30EE4DEAC2
:1046A0001EEE100A02F0EAFB41EC100B9FED381AE7
:1046B00089ED1A0B3CEE010A10EE100A02F0DEFB47
:1046C00022462B4601F062FF3A46334602F04EF98D
:1046D00001F076FE00EE100A80EE0F0A20EE0A0AC4
:1046E00080EE280A20EE290A30EE4DAA1AEE100AB2
:1046F00002F0C4FB41EC100BB8F1580F89ED1C0B14
:1047000008D8BDEECE0ABDEECA1A8AED100A8AEDAF
:10471000111A5CE6B8F15C0F0CD3BDEECA0ABDEE0F
:10472000CE1A8AED100A8AED111AB0EE4B9A4EE6B7
:10473000004098C40020CAE91000B0EE4B9A46E64B
:10474000666686BF00BF00BF000000000000534047
:104750000000000000807640EE7C3F355EBAD13F1D
:10476000CDCCCCCCCCCC0C406666863F14AE03419D
:1047700014AE03C1004098440000000000007A44D9
:10478000A01AAFBF14E7AA3F000061450000E44251
:10479000A01AAF3F2DE9F04F81B040F21C25C2F2C4
:1047A00000054FF000082E2040F2A814C5E90008CB
:1047B00040F23010C2F200044FF0004BC2F2000091
:1047C00044F808BF05F1340700F150064FF0040A21
:1047D000384629462246334685F81480C5E90288C2
:1047E000C5F810A0FCF7B8F80120FCF759FF40F21B
:1047F000B009C2F20009D9F81C0029460130C9F8F5
:104800001C00384622463346FCF7A6F80120FCF788
:1048100047FFD9F81C0029460130C9F81C0038466A
:1048200022463346FCF798F80120FCF739FFD9F807
:104830001C0029460130C9F81C004E20C5E90008BB
:1048400038462246334685F81480C4E900B8C5E9E5
:104850000288C5F810A0FCF77FF80120FCF720FFC4
:10486000D9F81C0029460130C9F81C0038462246F8
:104870003346FCF771F80120FCF712FFD9F81C0051
:1048800029460130C9F81C00384622463346FCF759
:1048900063F80120FCF704FFD9F81C002946013019
:1048A000C9F81C006E20C5E9000838462246334688
:1048B000C4E9008885F81480C5E90288C5F810A00D
:1048C000FCF74AF80120FCF7EBFED9F81C0029465A
:1048D0000130C9F81C00384622463346FCF73CF844
:1048E0000120FCF7DDFED9F81C0029460130C9F88B
:1048F0001C00384622463346FCF72EF80120FCF710
:10490000CFFED9F81C0029460130C9F81C00ED2063
:10491000C5E90008384622463346C4E9008885F8D0
:104920001480C5E90288C5F810A0FCF715F801202D
:10493000FCF7B6FED9F81C0029460130C9F81C0066
:10494000384622463346FCF707F80120FCF7A8FE5C
:10495000D9F81C0029460130C9F81C003846224607
:104960003346FBF7F9FF0120FCF79AFED9F81C004B
:1049700029460130C9F81C0040F20D10C5E90008B5
:10498000384622463346C4E9008885F81480C5E9D4
:104990000288C5F810A0FBF7DFFF0120FCF780FEBE
:1049A000D9F81C0029460130C9F81C0038462246B7
:1049B0003346FBF7D1FF0120FCF772FED9F81C004B
:1049C00029460130C9F81C00384622463346FBF719
:1049D000C3FF0120FCF764FED9F81C00C4E900887D
:1049E0000130C9F81C0001B0BDE8F08FFDF71CBC18
:1049F00080B594B0002043F64001CDE90B00CDE92D
:104A000009000690CDE90400CDE902000190C4F24E
:104A100002010A6842F080520A60096801F0805180
:104A200001910199019047F20000C4F20000016871
:104A300041F44041016000684FF4800100F44040BF
:104A400001900198012007904FF480300E910421CD
:104A5000089002200F91B4210D90CDE91010CDE9FE
:104A6000120007A8FDF700FEB0B9FDF793FC98B956
:104A70000F20029002200390002004904FF4A050D9
:104A800005904FF48050069002A80521FDF7C0FC68
:104A9000002804BF14B080BDFBF7EAFC4EF6885036
:104AA000CEF20000016841F470010160704700001F
:104AB00040F27840C2F20000FEF7ACB810B540F604
:104AC000FF3E0368C4F2000E40F2004C7045C4F291
:104AD000010C27DCB0F1804F31D040F20042C4F22B
:104AE000000290422BD040F60002C4F20002904235
:104AF00025D041F6FF72C4F20002904229DC7045D5
:104B00003CDCB0F1804F5FD040F20042C4F20002C2
:104B1000904259D040F60002C4F20002904253D0B5
:104B200056E000BF40F60042C4F20002904206D0B8
:104B3000604504D00022C4F201029042D9D14A68F3
:104B400023F07003134341F6FF72C4F20002904257
:104B5000D5DD43F6FF72C4F20102904222DC42F23C
:104B60000002C4F2000290422ED00022C4F20102E0
:104B7000904229D0604527D02AE000BF40F600428D
:104B8000C4F2000290421FD041F60002C4F20002BB
:104B9000904219D041F60042C4F20002904213D074
:104BA00016E000BF44F20002C4F2010290420BD0B2
:104BB00044F60002C4F20102904205D044F20042E1
:104BC000C4F20102904203D1CA6823F44073134334
:104BD00023F080024B69D1F800E08C681A43026030
:104BE000C46240F48062C0F828E0624504BF0969ED
:104BF0000163012141610169C90708BF10BD016955
:104C000021F00101016110BD2DE9F04F81B040F2AA
:104C10000000C2F20000017840F2B0050229C2F2A1
:104C2000000516D1E978AA798A4212D031B1022959
:104C300008D001290CD190ED030A07E09FED6C0A22
:104C400004E000BF90ED030AB1EE400A85ED0A0AC8
:104C5000A97195ED0A0A95ED0B1AB4EE401AF1EE22
:104C600010FA00F0C180807840F21C24B1EE401AA6
:104C70000228C2F200044FF000094FF02E0008BFD6
:104C8000B0EE401A40F2A81AC4E9000940F2301010
:104C9000C2F2000AC2F200000AF1080804F1340767
:104CA00000F150064FF0040B384621464246334689
:104CB00084F814908AED021AC4E90299C4F810B07D
:104CC000FBF74AFE0120FCF7EBFCE86921460130C6
:104CD000E861384642463346FBF73EFE0120FCF7CA
:104CE000DFFCE86921460130E86138464246334638
:104CF000FBF732FE0120FCF7D3FCE869CAE9029910
:104D00000130E8610120FCF7CBFC95ED0A0A4E204A
:104D1000B1EE400AC4E9000938462146424633460E
:104D200084F814908AED020AC4E90299C4F810B01C
:104D3000FBF712FE0120FCF7B3FCE86921460130C5
:104D4000E861384642463346FBF706FE0120FCF791
:104D5000A7FCE86921460130E861384642463346FF
:104D6000FBF7FAFD0120FCF79BFCE869CAE9029910
:104D70000130E8610120FCF793FCA86A2146CAF8DB
:104D800008006E20C4E9000938464246334684F8DC
:104D90001490C4E90299C4F810B0FBF7DDFD0120BE
:104DA000FCF77EFCE86921460130E861384642465E
:104DB0003346FBF7D1FD0120FCF772FCE869214680
:104DC0000130E861384642463346FBF7C5FD012015
:104DD000FCF766FCE869CAE902990130E861012044
:104DE000FCF75EFCA86AE86201B0BDE8F08F00BF86
:104DF0000000000040F2C040C2F20000FDF7BEBF5C
:104E000040F20850C2F20000FDF7B8BF806B0021ED
:104E1000C185C184FDF7B0BF81B090F8421022294E
:104E200020D18368B3F5805F08D10169002965D07E
:104E300000F128010A6803685B680AE0014651F83E
:104E4000282F13B90369002BF5D003685B6803F0C2
:104E50007F0313700A6801320A60C18D01390A04A8
:104E6000C18501D001B070470168CA6822F02002F4
:104E7000CA60CA6822F48072CA604A6922F00102DC
:104E80004A61202280F8422000224263036B012BFA
:104E90003ED1026351E8031F026821F0100142E88D
:104EA00003130168DBB151E8031F026821F0100110
:104EB00042E80313016893B151E8031F026821F02F
:104EC000100142E8031301684BB151E8031F026867
:104ED00021F0100142E803130168002BDAD10A68BF
:104EE000D20606D5002200920A6800924968009115
:104EF0000099818D01B0FDF73DBF00BF0168826A56
:104F000049686FF35F2122F8021B8262A5E700BFA8
:104F100001B0FEF7F1BA000010B504460068D4E90C
:104F200002C22369016921F44051114301616269A0
:104F300043EA0C01E3691143C268194349F20C6367
:104F40009A431143C1604169A26921F4407141F261
:104F50000043114340F48062C4F201039A4241616C
:104F600002D1FDF719FB01E0FDF702FBE16963687F
:104F70001922B1F5004FA0FB02011FD15A00DB0F2F
:104F8000FBF790F948F21F51C5F2EB11A0FB01238A
:104F90005A096FF0630302FB0300322303EBC000E6
:104FA000A0FB01014FF4F87000EA111000EB0210B1
:104FB000C1F3421108442168886010BD9A009B0F1C
:104FC000FBF770F948F21F51C5F2EB11A0FB01236A
:104FD0005A096FF0630302FB0300322303EB001056
:104FE000A0FB0101F02000EA511000EB0210C1F318
:104FF000431108442168886010BD0000FEE70000EE
:105000008CB040F6000AC4F2020AFDF71BF9FFF764
:10501000EFFC002443F6300506940194C4F2020527
:1050200028684FF4035140F00400286028680022EB
:1050300000F0040001900198019428684FF4035790
:1050400040F080002860286800F0800001900198FE
:105050000194286840F001002860286800F00100F1
:10506000019001980194286840F0020028602868A7
:1050700000F00200019001980194286840F00800B7
:105080002860286800F00800019001985046FCF75D
:10509000F9FBAAF500663046102100224FF0100BF4
:1050A000FCF7F0FBAAF58068404640F2063100228A
:1050B000FCF7E8FB029702AF4FF001095046394672
:1050C000CDE903940594FCF7FFFA0420CDE902042E
:1050D000304639460494FCF7F7FA30463946CDE9B4
:1050E00002B9CDE90444FCF7EFFA40F20630CDE90D
:1050F000020940463946CDE90444FCF7E5FA4FF48D
:105100000060CDE90204504639460494FCF7DCFA0D
:1051100002942868002140F40010286028680022CA
:1051200000F40010029002982F20FDF7F7F82F20CE
:10513000FDF7E4F840F27825C2F200055746AAF5DB
:10514000D231284640F2010A40F8281F4FF00C08DF
:105150004FF4202B4FF40011C0F2001AC0E9018473
:10516000C0E9034BC0E9051A8483FBF783FE0028DE
:1051700040F02282CDF82890CDE9084905F12809B0
:105180000E2602A94846CDE90244CDE90444CDE902
:1051900006440B96FBF732FC40F21C25C2F20005D8
:1051A000A7F5D031284640F8341F4FF40011C0E96C
:1051B0000184C0E9034BC0E9051A8483FBF75AFE5A
:1051C000002840F0F981012000240A90CDE906066C
:1051D000CDE9084005F1340002A9BB46CDE90244FF
:1051E000CDE904440B960090FBF708FC40F2204008
:1051F000A7F55841C2F200004FF482724FF40073D9
:1052000080E816000A21C0E90344C0E90543C461EF
:10521000C0E90844C0E90A41FDF7FCFB002840F062
:10522000CB8140F27840ABF5F431C2F2000040F29D
:10523000E73342F2273280E81600C0E90334846184
:10524000FDF792FC002840F0B78140F2CC30ABF57E
:10525000DA31C2F2000048F2A06200244FF4804329
:10526000C0F2010280E81600C0E90343C0E905442A
:10527000C0E90744FCF7C8FE002840F09D814FF4C8
:105280001670FCF70DFA4846FBF7DCFF6420FCF7CC
:1052900007FA48460221FBF747FB009E3046FBF722
:1052A000D1FF6420FCF7FCF930461021FBF73CFBF2
:1052B00040F2C040ABF5DE31C2F200004FF4E137FE
:1052C0004FF00C08C0E90017C0E90244C0E90448E7
:1052D000C0E90644FEF704F8002840F06D8140F272
:1052E0000850ABF5DC31C2F200000026C0E900171F
:1052F000C0E90266C0E90468C0E90666FDF7F0FF90
:10530000002840F0598140F2A817C2F2000740F28D
:10531000C04007F12001C2F200000822FEF7C2F8E7
:105320004FF4FA60FCF7BCF95846402101220124F1
:10533000FCF7A8FA584680210122FCF7A3FA40F2B4
:105340000000C2F20000047140F23014DDF800B039
:105350004FF47A79C2F200044FF0040807F1080A0A
:105360001FE000BF40F2B00040F60009C2F20000AA
:10537000C4F20209C671484640210122FCF782FAB4
:10538000484680210122FCF77DFA01204FF00109F7
:10539000FCF786F9FEF738FFFEF752FC606C01302F
:1053A00060644846FCF77CF9206C97F820100130C7
:1053B000AA29206428D197F82700FF2824D197F83C
:1053C000211040F2000397F82220C2F2000397F860
:1053D000230097F824C019705978002A18BF114685
:1053E0005970987083F803C097F8251097F8262015
:1053F00040F2B003C2F20003D9705A7140F60009BE
:10540000C4F2020980B909E040F20000C2F20000D3
:10541000807840F60009C4F2020928B940F2000180
:105420000120C2F20001887097F8330008283FD0AD
:1054300040F2B0010120C2F20001C871484640218B
:105440000022FCF71FFA484680210022FCF71AFAD6
:10545000FFF7A0F997F833004FF03609082814D069
:1054600004F15003584629465246C5E90266C5F87C
:105470001080C5F80090FBF76FFA40F6B830FCF7E3
:105480000FF997F833000828EAD140F2B00040F64F
:105490000009C2F20000C4F20209C6714846402168
:1054A0000122FCF7EFF9484680210122FCF7EAF9D6
:1054B0000120FCF7F5F897F83400082845D040F2B1
:1054C000B0010120C2F20001C8714846402100220B
:1054D000FCF7D8F9484680210022FCF7D3F9FFF702
:1054E00059F997F83400042608284FF000094FF0C6
:1054F000560813D004F15003584629465246C5E9D0
:1055000002992E61C5F80080FBF726FA40F6B83004
:10551000FCF7C6F897F834000828EBD140F2B00049
:10552000C2F2000080F8079040F60009C4F20209B8
:10553000484640210122FCF7A5F948468021012276
:10554000FCF7A0F94FF0040800260120FCF7A8F8AA
:1055500097F8350008283FF418AF40F2B001012059
:10556000C2F20001C871484640210022FCF78AF9C6
:10557000484680210022FCF785F9FFF70BF997F8E0
:1055800035004FF0760908283FF4ECAE04F15003E3
:10559000584629465246C5E90266C5F81080C5F846
:1055A0000090FBF7D9F940F6B830FCF779F897F896
:1055B00035000828EAD1D5E6FAF75AFF03B4019876
:1055C0004100009850EAC12018BF04204A0D18BFBE
:1055D00040F0010040F2FF72B2EB515F08BF40F0B3
:1055E0000200012808BF052002B07047000000003B
:1055F00010B52DED020B2DED088B84B09DED0C0B3D
:1056000051EC100B01F0E6FA41EC180B9DED0C0B80
:1056100053EC182B51EC100B01F042FB41EC190B31
:105620000D989FED290B10F0004F53EC102B51EC0F
:10563000190B9FED21AB9FED22BB0ED001F05AF963
:105640000ED953EC1B2B51EC190B01F08DFA1CD227
:1056500014E000BF41EC180B17E001F04BF906D243
:1056600053EC1A2B51EC180B01F01AFBF2E753EC38
:105670001B2B51EC190B01F077FA06D853EC1A2BBF
:1056800051EC180B00F0CEFEE4E78DED028B9DEDA2
:105690000C0B18EE901A10EE900A8DED000B61F3D2
:1056A0001E0003909DED020B04B0BDEC088B02B010
:1056B00010BD000000000000000000000000F03FEE
:1056C000000000000000E03F000000000000E0BF1C
:1056D00010B52F499FED2C1B2DED020B84B00598C2
:1056E00020F000408842DCBF00209DED040B32DD3D
:1056F0002849884209D1049840B94FF00100FAF7CF
:1057000051FE00F025FE06B010BD05DB9DED040B3B
:1057100000F012FE06B010BD68469DED040B00F0CF
:105720007BF810F0030011D0012818D09DED021B6A
:105730009DED000B02281AD000F08AFA51EC100BF4
:1057400000F032FE06B041EC100B10BD9DED021BC7
:105750009DED000B012000F0AFFB06B010BD9DEDEC
:10576000021B9DED000B00F073FA06B010BD012086
:1057700000F0A2FB51EC100B00F016FE06B041EC5D
:10578000100B10BD00000000000000000000000031
:10579000FB21E93F0000F07F10B51D499FED1A1B6A
:1057A0002DED020B84B0059820F000408842DCBF4C
:1057B00001209DED040B21DD1649884209D1049892
:1057C00040B94FF00100FAF7EDFD00F0C1FD06B061
:1057D00010BD05DB9DED040B00F0AEFD06B010BD65
:1057E00068469DED040B00F017F800F00100012160
:1057F000A1EB40009DED021B9DED000B00F0F4FBC2
:1058000006B010BD00000000000000000000000015
:10581000FB21E93F0000F07F2DE9F14F04462DED1B
:10582000020B2DED088B8AB09FEDE70B80ED020B8C
:10583000139EE74826F0004585420ADC9DED120BD9
:10584000002084ED000B0AB0BDEC088B03B0BDE86E
:10585000F08FE0489FEDE0AB9FEDE1BBA84247DD54
:10586000E14F9FEDE39B9FEDE48B9DED120B53EC1D
:105870001A2B51EC100B002E1CDD01F011FA41EC3B
:10588000100BBD4208D053EC1B2B51EC100B01F058
:1058900007FAC4E900010BE053EC192B51EC100B93
:1058A00001F0FEF953EC182B01F0FAF9C4E90001FC
:1058B0000120C8E700F0B6FD41EC100BBD4208D056
:1058C00053EC1B2B51EC100B00F0ACFDC4E90001B4
:1058D0000BE053EC192B51EC100B00F0A3FD53EC33
:1058E000182B00F09FFDC4E900014FF0FF30AAE73C
:1058F000C348A84279DB9DED120B51EC100B00F070
:1059000047FD41EC180B9FEDC00B53EC102B01F041
:105910002DF89FEDBF1B53EC112B00F083FD00F021
:105920008FFF074600F0BBFF41EC190B53EC1A2B1D
:1059300001F01CF853EC182B01F0A6F941EC180B00
:1059400053EC1B2B51EC190B01F010F8DFF8C8A237
:1059500041EC100B4FEA15580125FA4453EC102B7B
:1059600051EC180B01F09CF9032DC4E900013DD066
:10597000C1F30A5005EB4511A8EB00001139814233
:1059800034DA0AEB051BB0EE48AA9BED000BF0EEF3
:1059900068AA53EC102B51EC190B00F0E7FF41EC17
:1059A0001B0B51EC1A0B53EC1B2B01F079F941EC5A
:1059B000180B51EC1A0B53EC182B01F071F953EC46
:1059C0001B2B01F06DF99BED020B41EC1A0B53EC14
:1059D000102B51EC190B00F0C9FF53EC1A2B01F0FE
:1059E0005FF941EC100B6D1CB8E70EE0002EA8BF6C
:1059F0003846BFF628AF94ED000B51EC100B00F0C9
:105A0000D3FCC4E9000178421DE7C6F3130040F45B
:105A1000801EC6F30A50A0F2F530471100F01F05B2
:105A2000C5F12000DDF848B00890002006900790EE
:105A30000520EC467949002D07EB0002794408BFA8
:105A400051F8221009D051F8223001EB8201AB400D
:105A50004A68089922FA01F11943A1FB0E26A1FB1D
:105A60000B131A449A4234BF0123002303EB0608A8
:105A70000CEB8003D3E901A60E448E4234BF012112
:105A8000002192448A4411B1924502D903E0924523
:105A900001D2012100E00021C3E901A641444CF8F4
:105AA0002010011EA0F10100C4DC029800F100509A
:105AB000850F0298DDE903678000DDF8148000F0AF
:105AC000EEFE41EC1A0B304600F000FF9FED541B38
:105AD00053EC112B00F04AFF41EC1B0B384600F051
