:020000040800F2
:10000000F00A002065020008933C00080F2D00084C
:10001000913C000879050008FF400008000000003E
:10002000000000000000000000000000973C0008F5
:100030006D07000800000000953C0008F93C00082E
:100040007F0200087F0200087F0200087F0200088C
:100050007F0200087F0200087F0200087F0200087C
:100060007F0200087F0200087F0200087F0200086C
:100070007F0200087F0200087F0200087F0200085C
:100080007F0200087F0200087F0200087F0200084C
:100090007D050008890500087F0200087F0200082E
:1000A0007F0200087F0200087F0200087F0200082C
:1000B0007F0200087F0200087F0200081D2D000853
:1000C000112D00087F0200087F0200087F0200084F
:1000D0007F0200087F0200087F0200087F020008FC
:1000E0007F0200087F0200087F0200087F020008EC
:1000F0007F020008A13D00087F020008E506000815
:100100007F0200087F0200087F0200087F020008CB
:10011000853E0008913E00087F0200087F0200082B
:100120007F0200087F0200087F0200087F020008AB
:100130007F02000800000000000000007F020008AD
:1001400095050008A10500087F0200087F0200084D
:100150007F0200087F0200087F0200087F0200087B
:100160007F0200087F0200087F0200087F0200086B
:100170007F0200087F0200087F02000800000000E4
:10018000000000007F0200080000000000000000E6
:100190007F02000800000000000000007F0200084D
:1001A0000000000000000000000000007F020008C6
:1001B0007F0200087F0200087F0200087F0200081B
:1001C0007F02000800F002F800F03CF80AA090E876
:1001D000000C82448344AAF10107DA4501D100F002
:1001E00031F8AFF2090EBAE80F0013F0010F18BF93
:1001F000FB1A43F001031847784F0000984F0000A6
:10020000103A24BF78C878C1FAD8520724BF30C842
:1002100030C144BF04680C60704700000023002414
:1002200000250026103A28BF78C1FBD8520728BF06
:1002300030C148BF0B6070471FB504F05DFF1FBDA4
:1002400010B510BD00F03EF91146FFF7F5FF04F0C0
:1002500007FA00F05CF903B4FFF7F2FF03BC00F00B
:100260005FF900000948804709480047FEE7FEE7BC
:10027000FEE7FEE7FEE7FEE7FEE7FEE7FEE7FEE756
:1002800004480549054A064B70470000913D0008A7
:10029000C5010008F0040020F00A0020F00600204C
:1002A000F006002053EA020C00F069802DE9F04BC3
:1002B0004FF00006002B1FBFB3FA83F503FA05F4D5
:1002C00024FA05F65E4012BF1643B2FA82F502FA2E
:1002D00005F4C5F120051EBF22FA05FC44EA0C0412
:1002E000203556EA044C4FEA144418BF641C4FF002
:1002F00000084FF00009904271EB030C39D300293C
:1003000019BFB1FA81F701FA07F6B0FA80F700FADF
:1003100007F6C7F120071EBF20FA07FC46EA0C06C5
:100320002037B6FBF4FCA7EB0507103F07F01F0BC7
:10033000CBF120060CFA0BFB2CFA06F644BFB346B1
:100340000026202FA4BF5E464FF0000B5BEA060C90
:1003500008BF4FF0010B19EB0B09ABFB027C48EB1C
:100360000608C01B06FB02CC0BFB03CC71EB0C0197
:10037000C1E70B46024641464846BDE8F08B13B53F
:100380004FF000004FF00001AFF30080BDE81C40CB
:10039000704710B5203AC0F00B80B1E81850203AF1
:1003A000A0E81850B1E81850A0E81850BFF4F5AF15
:1003B0005FEA027C24BFB1E81850A0E8185044BF9F
:1003C00018C918C0BDE810405FEA827C24BF51F80C
:1003D000043B40F8043B08BF7047D20728BF31F800
:1003E000023B48BF11F8012B28BF20F8023B48BF51
:1003F00000F8012B704702F0FF0343EA032242EAB0
:10040000024200F037B84FF0000200B513469446A0
:100410009646203922BFA0E80C50A0E80C50B1F15C
:100420002001BFF4F7AF090728BFA0E80C5048BF70
:100430000CC05DF804EB890028BF40F8042B08BF0E
:10044000704748BF20F8022B11F0804F18BF00F80A
:10045000012B704770477047704710B500F02AF8BD
:10046000006810BD10B5044600F024F8046010BD0B
:100470004FF000020429C0F0128010F0030C3FF48A
:10048000C4AFCCF1040CBCF1020F18BF00F8012B73
:10049000A8BF20F8022BA1EB0C01FFF7B6BF5FEA63
:1004A000C17C24BF00F8012B00F8012B48BF00F8E5
:1004B000012B7047004870478C04002000487047AB
:1004C0008C0400207546FFF7F9FFAE46050069462B
:1004D000534620F00700854618B020B5FFF7D0FE40
:1004E000BDE820404FF000064FF000074FF0000835
:1004F0004FF0000B21F00701AC46ACE8C009ACE8B6
:10050000C009ACE8C009ACE8C0098D46704710B519
:100510000446AFF300802046BDE81040FFF79BBEC5
:1005200001491820ABBEFEE726000200704700001C
:10053000084A0749126841F8202000EE102A044AB0
:10054000BDEEC00A503210EE101A22F8101070479B
:10055000B4030020000100200548417C0548012922
:1005600003D00022022101F04DB90122FAE7000078
:100570000000002000040240FEE70000014800F0F7
:10058000B4BB000024010020014800F0AEBB000015
:1005900024010020014800F0A8BB00004C0100200D
:1005A000014800F0A2BB00004C0100200B4B10B52D
:1005B0001A4602F1080148B101280ED10020141892
:1005C00024790C54401C0328F9DD04E0145C0C541D
:1005D000401C0328FADD93ED020A10BD0001002043
:1005E0002DE9FF413D4C00262DED020B05466660CE
:1005F0002675A6602261012B01D0022B12D00220A9
:10060000374FE06018291CD2DFE801F00E393F4B6C
:100610004D5355571B4F5D141B1B1B1B1B1B1B1BDB
:100620001B1B1B630020EBE769462D48FFF7B1FE5B
:100630000D204FE069462A48FFF7ABFE0C2049E049
:100640002060274D0024F83D254B24493C3B244A9B
:10065000A1F5D67000F0E0F9012000F0D3FF286A80
:10066000641C401CE4B22862032CEDD300203E54ED
:10067000401CC0B20828FAD306B0BDE8F081694634
:100680001748FFF786FE0E2024E08C20B871422028
:10069000F8711348009978388167082020610F208D
:1006A00018E0032002E0042000E0052000EB4510E4
:1006B000C6E714200EE009200CE069460848FFF761
:1006C00068FE1C2006E069460548FFF762FE15201B
:1006D00000E0172040EA4510B2E70000F8020020D1
:1006E000F8000020014800F053BE00002C04002058
:1006F00001681823CAB2103AB2FBF3F2054B6FF34C
:100700000901032A9B5CC36500D9091D8165084660
:10071000704700000C51000810B5014600208B699D
:100720008A6A4FF0C07453B1B3F5005F15D072B14F
:10073000012A0CD0022A0AD0032A09D104E01AB1F6
:10074000012A06D0022A03D1C96AC90100D50120B5
:1007500010BDC96AA142FAD010BD002AF7D0012A03
:10076000F2D0022AF3D0032AF3D010BD7047000064
:1007700010B504462DED028B8CB09FED190B03F0E4
:10078000CFFCB0EE401AF0EE601AB0EE418AF0EE07
:10079000618A9FED150B03F0C3FC53EC182B51EC51
:1007A000100B04F0DBF804F06DFA8440A4B2FF22D1
:1007B000202103A8FFF71FFE4FF47A72202103A81F
:1007C0008DE8070002232246AE21094801F068FAAD
:1007D000052000F017FF0CB0BDEC028B10BD00002F
:1007E0000000000000000040000000000000404049
:1007F000740100202DED028B00259FED188A012445
:100800002046B0EE480A03F047FA641CE4B2042C18
:10081000F6D90524B0EE480A204603F049FA641CD4
:10082000E4B2142CF6D96D1CEDB2052DE7D372B6E7
:100830005FF00104B0EE480A204603F02DFA641C74
:10084000E4B2042CF6D90524B0EE480A204603F0A1
:100850002FFA641CE4B2142CF6D9E9E7000000007A
:10086000604810B5817C00F18004D9B390ED1D0A79
:10087000D0ED1E0A30EE600A80ED1C0AD4ED050AA8
:10088000F1EE601A9FED581AB4EEE10AF1EE10FA9B
:1008900004D3B4EEE00AF1EE10FA04DDD4ED0E0A52
:1008A00020EE200A01E0B0EE410A84ED070A94ED43
:1008B000010AD4ED030A30EE600A80ED1F0AD4ED80
:1008C000060AF1EE601AB4EEE10AF1EE10FA04D372
:1008D000B4EEE00AF1EE10FA05DD94ED0E2A20EEFA
:1008E000420A02E01BE0B0EE410A84ED080A94EDF2
:1008F000020A94ED042A30EE420A84ED000AB4EEB6
:10090000E10AF1EE10FA04D3B4EEE00AF1EE10FAC7
:1009100003DDD4ED0E0A20EE601A84ED091AD4ED41
:10092000070A324810EE901A314A814202DDF0EE99
:10093000080A05E010EE901A914201D9F8EE080A73
:10094000C4ED070A94ED080A10EE101A814202DD88
:10095000B0EE080A05E010EE101A914201D9B8EE87
:10096000080A84ED080A94ED091A11EE101A814262
:1009700002DDB0EE081A05E011EE100A904201D92E
:10098000B8EE081A84ED091A94ED0A1AB4EE601A4A
:10099000F1EE10FA01D0C4ED0A0AD4ED0C0AF4EE1F
:1009A000400AF1EE10FA09D0052003F081F9012088
:1009B00000F028FE94ED080A84ED0C0AD4ED0B0A31
:1009C00094ED090AF4EE400AF1EE10FA09D006207F
:1009D00003F06EF9012000F015FE94ED090A84ED94
:1009E0000B0A10BD00000020000000000000404085
:1009F000000040C090F82020012A07D0022A05D02C
:100A0000416A41F4802141620120704700684269D7
:100A10000A43426100207047F0B590F82050046806
:100A2000A468012D05D0022D03D0416A41F4802134
:100A300057E014F0406F01D1E5004FD5C4F30164D5
:100A40000125A5401D608D684FF4C0739DB1CE682F
:100A500035434E6845EAC605066803EB0417F551B1
:100A60004FF4C275076805EB04150E697E51097DC8
:100A7000012905D009E00E88CD6845EA4655EBE727
:100A800001684E5946F480764E511179D5795679E0
:100A900041EA056195792D0445EA062529434FF47D
:100AA000C676056806EB0416A9511178D57841EA97
:100AB0000561957852782D0445EA022211434FF4DE
:100AC000C475026805EB04155151006803EB04116D
:100AD000425842F0010242500020F0BD416A41F408
:100AE000001141620120F0BD10B590F82020012ACC
:100AF00007D0022A05D0416A41F4802141620120D9
:100B000010BD3B48D0F8002242F00102C0F800229C
:100B1000D0F8002222F47C52C0F80022D0F8002243
:100B20004B6A42EA0322C0F800220A7D02F01F034A
:100B300001229A40D0F81C329343C0F81C32CB6992
:100B4000B3B9D0F80C329343C0F80C328C894B689F
:100B500064F31F434C6900EBC404C4F840320C89B1
:100B60000B6864F31F434C6900EBC404C4F84432BF
:100B7000CB69012B16D1D0F80C321343C0F80C32DC
:100B80000C884B6864F31F434C6900EBC404C4F841
:100B900040320C89CB6864F31F434C6900EBC404FA
:100BA000C4F844328B69002BD0F804320ED01343C2
:100BB000C0F804320B69002BD0F8143208D013436C
:100BC000C0F81432096A012904D008E09343EFE722
:100BD0009343F5E7D0F81C121143C0F81C12D0F86B
:100BE000001221F00101C0F80012002010BD000029
:100BF00000640040704770B590F82040012C05D08B
:100C0000022C03D0416A41F4802128E0046809B332
:100C10002469A40720D04FF4D874056804EB0114AC
:100C20002D5915F00405956005682D591AD0ED0869
:100C3000556005682C5904F00204D4604FF4DA744E
:100C4000056804EB01142E5906F00F06082E0CD38C
:100C500008250DE0E468DCE7416A41F400114162D7
:100C6000012070BD6D0D1560E3E72D5905F00F05EE
:100C7000156105682D59C5F30725956105682C593F
:100C8000240C54614FF4DC72046802EB0112A45886
:100C90001C700468A458240A5C700468A458240CCE
:100CA0009C700468A258120EDA704FF4DE72046869
:100CB00002EB0112A4581C710468A458240A5C7148
:100CC0000468A458240C9C710468A258120EDA71AE
:100CD000006829B1016941F020010161002070BD67
:100CE000C16841F02001C160F8E72DE9F05F0546D9
:100CF000006800244669D0F804908768D0F80CB0EA
:100D0000D0F810A0D0F81880F10748D0F90714D017
:100D100001218160B80703D5284600F0D4FA0CE021
:100D2000780702D54FF4006407E0380702D54FF486
:100D3000805402E0284600F0C5FAF80516D5296867
:100D40004FF480708860B80503D5284600F0BDFADE
:100D50000CE0780502D544F4005407E0380502D5CC
:100D600044F4804402E0284600F0AEFAF80316D5B9
:100D700029684FF480308860B80303D5284600F016
:100D8000A6FA0CE0780302D544F4004407E03803E7
:100D900002D544F4803402E0284600F097FA300788
:100DA00007D55FEACB6004D52968102044F40074AD
:100DB000C86070074FF0080707D55FEA0B7004D5CD
:100DC0002868C760284600F0ABF9B00706D5286848
:100DD000C068800702D0284600F0A3F9700607D546
:100DE0005FEACA6004D52968102044F48064086171
:100DF000B00607D55FEA0A7004D52868076128465F
:100E000000F090F9F00606D528680069800702D046
:100E1000284600F089F9B00308D55FEAC96005D516
:100E2000296810204860284600F01EFAF00307D514
:100E30005FEA097004D528684760284600F048FA40
:100E4000300446D55FEA497040D5F00504D55FEA25
:100E5000C87001D044F00104B00504D55FEA887081
:100E600001D544F00204700504D55FEA487001D54D
:100E700044F00404300529D518F0700F26D008F08E
:100E80007000402815D006DC102809D020280AD090
:100E9000302816D10AE050280ED0602811D10EE07B
:100EA00044F008040DE044F010040AE044F020048B
:100EB00007E044F0400404E044F0800401E044F41E
:100EC00080742868816921F070018161296804209B
:100ED0004860002C05D0686A204368622846FFF706
:100EE00089FEBDE8F09F70B5040003D094F820009F
:100EF00010B104E0012070BD204600F081F82068A8
:100F0000016841F00101016000F082FC0546052600
:100F100004E000F07DFC401B0A2811D820684068DE
:100F2000C007F6D02068016821F00201016000F0DE
:100F30006FFC05460BE000F06BFC401B0A2806D94D
:100F4000606A40F40030606284F82060D2E7206874
:100F500040688007EFD4207E0128206801683DD0DA
:100F600021F080010160607E01282068016838D08E
:100F700021F040010160A07E01282068016833D083
:100F800021F020010160E07E0128206801682ED058
:100F900041F010010160207F01282068016829D0FC
:100FA00021F008010160607F01282068016824D0D9
:100FB00021F004010160D4E902010843D4E90412DC
:100FC000114308436168491E08432168C861002035
:100FD0006062012084F82000002070BD41F0800193
:100FE000C0E741F04001C5E741F02001CAE721F028
:100FF0001001CFE741F00801D4E741F00401D9E73F
:10100000F0B587B0044614216846FFF7FCF93F4B62
:101010003F48DFF8F4E01968D4F800C03C4A0225E4
:101020000326092710300024491CF4452CD11960EF
:10103000012907D1016841F000710160006800F0EA
:1010400000700590106840F001001060106802AB5D
:1010500000F0010005904FF4C050CDE9000583E891
:10106000D00069462B4800F0DFFA00221146142018
:1010700000F05CFF142000F04BFF00221146152009
:1010800000F054FF15203BE0DFF88CE0F44539D147
:10109000D0F800C04CF0806CC0F800C0D0F800C0A0
:1010A00001290CF0806CCDF814C0196007D10168DB
:1010B00041F000710160006800F000700590106858
:1010C00040F002001060106802AB00F002000590D2
:1010D0004FF44050CDE9000583E8D00069460F4841
:1010E00000F0A2FA00221146402000F01FFF40202D
:1010F00000F00EFF00221146412000F017FF4120B2
:1011000000F006FF07B0F0BD0064004010010020B1
:1011100030380240000002400068004000040240F5
:1011200070477047704700002DE9F041494B4A4A2B
:1011300001212DED028BFFF75EFD4748474C464DE0
:10114000006833354109217000F01F016170C0F360
:101150004301E17400F001013E4E2175022838D0B0
:1011600004F18007032804D0042841D005284DD17C
:1011700010E0384803F068FA87ED100A301D03F0DC
:1011800063FA87ED040A208B401C20836878401C9A
:1011900068703BE0B6F9000003F0A3FD9FED308BD3
:1011A00053EC182B03F0B4FD03F0F2FAA067B6F984
:1011B000020003F096FD53EC182B03F0A9FD03F099
:1011C000E7FAF860E08B401CE083E878401CE870A8
:1011D0001CE0308840BA00EE100AB8EE400A84EDF8
:1011E0000F0A608B401C6083A878401CA8700DE03B
:1011F000308840BA00EE100AB8EE400A84ED100ABA
:10120000A08B401CA0832879401C2871607801289D
:1012100011D0092819D10120FFF7C8F90E4920780B
:10122000543101EB800181ED000ABDEC028BBDE879
:10123000F041FFF77DB9084920781C310A5C521C47
:101240000A54054A31793D321154BDEC028BBDE898
:10125000F0810000000100201003002000000020A9
:10126000000000000000B03F7047000070B5044669
:1012700090F82000012804D0606A40F400206062E9
:1012800018E0022084F820002068016821F00101A4
:10129000016000F0BDFA05460EE000BF00F0B8FAAC
:1012A000401B0A2808D9606A40F4003060620520BB
:1012B00084F82000012070BD20684068C007EDD18F
:1012C000606270BD704770477047704770477047E5
:1012D00070472DE9F0410446876D00F099FA064603
:1012E00094F835000025022806D08020606584F837
:1012F00034500120BDE8F0812068016821F016011A
:1013000001602068416921F080014161206C08B9C9
:10131000A06C20B12068016821F0080101602068FC
:10132000016821F0010101600CE000F071FA801BFE
:10133000052807D920206065032084F8350084F84B
:101340003450D7E720680068C007EED194F85C10ED
:101350003F208840B860012084F8350084F834507C
:101360000020C7E790F83510022903D0802141659D
:1013700001207047052180F835100068016821F0D0
:10138000010101600020704790F8350070470000AF
:101390002DE9F84304464FF00009CDF8009063486A
:1013A0004FF41651A56D0068B0FBF1F72E6894F864
:1013B0005C10082000FA01F131420FD021680A6860
:1013C00052070BD50A6822F004020A6094F85C10F8
:1013D0008840A860606D40F00100606594F85C1082
:1013E0004FF0010808FA01F0304208D0216849693D
:1013F000090604D5A860606D40F00200606594F8AD
:101400005C1004208840304208D0216809688907B0
:1014100004D5A860606D40F00400606594F85C102D
:1014200010208840304218D021680968090714D577
:10143000A86020680168490304D50068000308D546
:10144000A16C07E00168C90503D4016821F0080117
:101450000160216C09B12046884794F85C10202077
:101460008840304231D021680968C9062DD5A8606E
:1014700094F8350005282068016806D0490347D54F
:10148000006800031DD4616C1CE021F016010160AE
:101490002068416921F080014161206C08B9A06C8D
:1014A00020B12068016821F00801016094F85C1007
:1014B0003F208840A86084F8358084F83490216DFE
:1014C0001FE0E16B09B120468847606D00282BD0F2
:1014D000606DC00714D0052084F8350020680168CD
:1014E00021F0010101600098401C0090B84203D82F
:1014F00020680068C007F6D184F8358084F83490FD
:10150000E16C002910D001B02046BDE8F043084747
:101510000168C905D5D4016821F01001016084F883
:10152000358084F83490CCE7BDE8F88320010020B2
:101530002DE9F041044600F06BF906465CB102204B
:1015400084F83500002584F834502068016821F0C3
:10155000010101600DE00120BDE8F08100F058F9C3
:10156000801B052805D920206065032084F83500FC
:10157000F2E720680068C007F0D1226811682048AF
:101580000140D4E901031843D4E903363343184337
:1015900063691843A3691843E3691843236A18432E
:1015A0000843616A042903D1D4E90B1319430843A2
:1015B000106020684069666A20F0070130460E43DB
:1015C000012704280CD1A06A0643E06A40B12046F6
:1015D000FFF7A2F820B14020606584F83570BAE7C3
:1015E000206846612046FFF783F894F85C203F218D
:1015F00091408160656584F835700020ACE700009B
:101600003F8010F070B5044600F002F90546601CFA
:1016100002D004480078044400F0FAF8401BA042CD
:10162000FAD370BD140100202DE9F84FDFF8ACA10A
:101630000022012403254FF00F090AF1040BAAF13F
:10164000040E00BF0B6804FA02F63340B3426ED1B9
:101650000F7907F00307012F01D0022F16D18768F9
:101660004FEA420805FA08FC27EA0C07D1F80CC03B
:101670000CFA08FC4CEA070CC0F808C04768B743EE
:101680000E79C6F3001696403E4346600E79F64347
:10169000B6070AD0C6684FEA420C05FA0CF7BE43FB
:1016A0008F6807FA0CF73743C7600E7906F0030618
:1016B000022E10D1D60800EB8608D8F82060570714
:1016C0004FEAD76C09FA0CF7BE430F6907FA0CF71B
:1016D0003743C8F8207006684FEA420C05FA0CF749
:1016E000BE430F7907F0030707FA0CF7374307608B
:1016F0004E6816F4403F6BD0394E376847F4804748
:101700003760366822F0030706F480460096354EAF
:1017100007EB060CDCF8086897074FEA177809FA18
:1017200008F7BE43304FB84202D100271FE04FE018
:101730002E4FB84201D1012719E02D4FB84201D1F7
:10174000022714E02B4FB84201D103270FE02A4FA4
:10175000B84201D104270AE0284FB84201D1052739
:1017600005E0274FB84201D1062700E0072707FA16
:1017700008F73743CCF80878DAF800605746D1F814
:1017800004C09E435FEACC2C00D51E433E60DBF8CC
:1017900000605F46D1F804C09E435FEA8C2C00D500
:1017A0001E433E60DEF800607746D1F804C09E43D9
:1017B0005FEA8C3C00D51E433E60084F083F3E6800
:1017C000D1F804C09E435FEACC3C00D51E433E6086
:1017D000521C102AFFF436AFBDE8F88F083C0140D8
:1017E0004438024000300140000002400004024042
:1017F00000080240000C02400010024000140240A9
:10180000001802400AB1816170470904FBE700003B
:10181000014880687047000014010020704770473D
:101820002DE9F041016804464A694E6890F83E008F
:101830000025D743FA0506D4F243D20503D46FF44A
:10184000807201254A61B90508D4F143C90505D460
:1018500022686FF4007145F002055161790525D4C5
:10186000F143C90522D4638D94F83D10226B2028E2
:1018700008D13BB9212910D029290ED0282901D11E
:10188000212A0AD022686FF48061516145F0040575
:10189000102806D0402804D008E0204601F090FE31
:1018A00004E02068016841F400710160380508D443
:1018B000F043C00505D421686FF4006045F00805C9
:1018C0004861002D07D0206C284320642046BDE8E5
:1018D000F04101F08FBABDE8F0812DE9F0470268D0
:1018E00000215368C66A90F83E4090F83D50102C95
:1018F00012D0402C10D0046C002C7DD05469E443ED
:10190000A6077AD4DE43B60577D4036C03B1916998
:10191000BDE8F04701F030BE976951694FF42A0CD9
:10192000C9435FEAC1784FF02A4904D066452AD0FE
:101930004E4528D010E0DE43B6050DD4C16A61459E
:1019400001D1012103E0C16A494501D10821C162E9
:10195000BDE8F04701F022BD0E0716D4DE43B60500
:1019600013D4416CC9B21161416B09B1C96B29B97A
:10197000816B002907D0C96B002904D00068416839
:1019800041F400614160BDE8F0878E0706D4DE4374
:10199000B60503D4BDE8F04701F074BCFE435268BD
:1019A00076074FEA02521DD4002AECDB0A0608D45F
:1019B000DA43520505D4490705D5BDE8F04701F0E3
:1019C00005BC4907DFD4D9438905DCD4212D05D0D6
:1019D000402CD8D1BDE8F04701F026BDBDE8F04766
:1019E00001F0B2BB002ACEDB4A060BD4DA43520523
:1019F00008D4490708D501E00DE00EE0BDE8F04746
:101A000001F028BB4907BED4D9438905BBD4BDE842
:101A1000F04701F0B2BA916970E7E10606D4D94304
:101A2000890503D4BDE8F04701F012BE2821212D1D
:101A300027D0292D25D0650655D4DD436D0552D418
:101A4000640752D590F83D30448D002C9BD012692C
:101A5000446A2270426A521C4262428D521E428582
:101A6000428D002A8FD12A2B8DD10268536823F42E
:101A7000806353602222026380F83D1000F0ECF98D
:101A800081E7250623D4DD436D0520D4640720D5E6
:101A900090F83D30448D002CF2D0446A24781461D3
:101AA000426A521C4262428D521E4285428D002A79
:101AB000E6D1292BE4D10268536823F48063536094
:101AC0002122026380F83D1000F0C7F95BE761074F
:101AD000D6D4D9438905D3D4418D0029D0D0416AC9
:101AE000097811610AE06107CAD4D9438905C7D4CE
:101AF000418D0029C4D01169426A1170416A491CA4
:101B00004162418D491E41853DE7704770B5040033
:101B100025D094F83D00002520B984F83C5020469B
:101B200000F056F9242084F83D002068016821F077
:101B3000010101602068016841F4004101602068F2
:101B4000016821F40041016000F0F4FA4D4A616837
:101B5000914201D84C4900E04C49884201D2012011
:101B600070BD4B492368B0FBF1F15E6826F03F067B
:101B70000E435E606368934206D94FF496735943EF
:101B80004FF47A73B1FBF3F12368491C1E6A26F007
:101B90003F06314319626168914210D84900401EE6
:101BA000B0FBF1F2521CC2F30B02042A01D2042052
:101BB00022E0B0FBF1F0401CC0F30B001CE0A26877
:101BC000F2B301EBC10303EB0116431EB3FBF6F3C3
:101BD0005B1C43F480431B0549D092B301EBC10267
:101BE00002EB0111401EB0FBF1F0401CC0F30B00F2
:101BF00040F4804040F400402168CA694CF6FF730D
:101C00009A431043C861D4E9071001432068026871
:101C100022F0C00211430160D4E9030101432068AE
:101C2000826848F2FF339A4311438160D4E9050189
:101C300008432168CA6822F0FF021043C86001E02F
:101C40000EE016E02068016841F0010101602564A2
:101C5000202084F83D00256384F83E50002070BDAC
:101C600001EB4106431EB3FBF6F35B1CB3E7012017
:101C7000C2E701EB4101401EB0FBF1F0401CC0F394
:101C80000B00B7E7A086010080841E0000093D001C
:101C900040420F0070477047704770477047000020
:101CA0002DE9FF4F83B09A46DDE91197934604462C
:101CB000DDF84080FFF7ACFD054694F83D00202894
:101CC0007FD11923012240492046009501F09AFD59
:101CD000002876D194F83C00012872D0012084F8C5
:101CE0003C0020680168C90703D1016841F0010187
:101CF00001602068016821F400610160212084F8FE
:101D00003D00402084F83E0000262664C4F824806C
:101D1000A4F82A90608D20852C48E062CDE90075FA
:101D200053465A462046049901F0D2FB70B930E080
:101D30002A463946204601F00BFE58B1206C042893
:101D400004D12068016841F400710160012007B0EE
:101D5000BDE8F08F606A216800780861606A401C05
:101D60006062218D491E89B22185628D521E628575
:101D700022685369DB435B070BD469B100781061BB
:101D8000606A401C6062208D401E2085608D401E70
:101D90006085208D0028CBD12A463946204601F0A7
:101DA00005FD0028CAD154F83D0B016841F40071CB
:101DB0000160202004F81E09E67766770020C6E758
:101DC000FFE70220C3E70000020010000000FFFF51
:101DD00010B586B0044614216846FEF714FB1B4973
:101DE0002068884230D11A480021026842F002027D
:101DF0000260006800F002000590C02000901220F0
:101E0000CDE90101032003900420049069461148A4
:101E1000FFF70AFC0E481030016841F40011016020
:101E20000068002200F40010059011461F2000F009
:101E30007DF81F2000F06CF800221146202000F0F1
:101E400075F8202000F064F806B010BD0054004082
:101E500030380240000402407047704702488168F1
:101E60000278114481607047140100200B4810B5BE
:101E7000016841F400710160016841F48061016012
:101E8000016841F480710160032000F06FF80F20B9
:101E900000F006F800F024F8002010BD003C0240DD
:101EA00070B50D4D04464FF47A712878B1FBF0F00F
:101EB0000A490968B1FBF0F000F004FC48B9102CA5
:101EC00007D200222146501E00F030F800206C603E
:101ED00070BD012070BD0000140100202001002011
:101EE0000A4808B5016841F480410160006800F4C7
:101EF000804000900548001F016841F0805101605A
:101F0000006800F08050009008BD00004438024096
:101F1000002809DB00F01F020121914040098000E8
:101F200000F1E020C0F8001170470000F0B40E4B43
:101F30001B680C46C3F30223C3F10705042D00D927
:101F40000425191D072901D2002300E0DB1E01260C
:101F500006FA05F1491E214099409E40761E164022
:101F60003143F0BC02F0CCB80CED00E0064900F0C3
:101F7000070208684FF6FF03184040EA0220034AB0
:101F800010430860704700000CED00E00000FA0507
:101F90002DE9F8431748016841F08051016000685D
:101FA000154F00F08050012600903E64FFF730FC92
:101FB00005464FF47A78114C05E000BFFFF728FC86
:101FC000401B40450DD86068C003F7D57E64FFF71D
:101FD0001FFC0546464607E0FFF71AFC401BB042CF
:101FE00002D90320BDE8F88360688003F4D500209F
:101FF000F8E700004038024000000E420070004048
:102000002DE9F0470E46050065D0DFF81481D8F8B9
:102010000000F7B200F00F00B04207D288F800705D
:10202000D8F8000000F00F00B04254D128683D4CB1
:10203000810712D5400703D5206840F4E0502060A6
:102040002878000703D5206840F4604020602068AD
:10205000A96820F0F000084320602878C0072DD040
:10206000304968680839012812D0022813D00328A3
:1020700011D00968890700292DDA216821F00301B0
:1020800001432160FFF7C4FB814641F2883A0EE02C
:1020900009688903EFE709688901ECE7FFF7B8FBF6
:1020A000A0EB0901514502D90320BDE8F087206863
:1020B000696800F00C00B0EB810FEFD1D8F8001088
:1020C000404601F00F01B14207D90770006800F0E7
:1020D0000F00B04201D00120E7E72878400705D57E
:1020E0002068E96820F4E050084320602878000761
:1020F00006D52068296920F4604040EAC1002060CC
:1021000000F038F82168084AC1F30311515CC84057
:102110000649086006480068FFF7C2FE0020C4E7D1
:10212000003C024008380240145100082001002001
:10213000180100200448054900680968044AC1F3F1
:102140008221515CC84070472001002008380240BD
:10215000245100080448054900680968044AC1F38D
:102160004231515CC84070472001002008380240CD
:1021700024510008224810B5006810F00C022148D4
:1021800015D04110042A11D01D4C241F082A0FD04D
:102190000C2A0CD12268236802F03F025B0221D591
:1021A0002068C0F38810A0FB010120E0084610BDA4
:1021B0002268236802F03F025B0205D52068C0F365
:1021C0008810A0FB010104E02168C1F38811A1FB84
:1021D00000010023FEF766F82168C1F30141491CA4
:1021E00049000AE02168C1F38811A1FB0001002326
:1021F000FEF758F82168C1F30271B0FBF1F010BD91
:10220000083802400024F4002DE9F84F04007DD086
:10221000DFF878B32078ABF10407C007A7F1040515
:1022200050D0DBF800105846C1F3810101290FD0CE
:102230000168C1F38101022902D13968490207D43A
:102240000068C0F38100032809D13868400206D530
:102250002868800336D560680028D8D032E06068EE
:10226000B0F5803F10D0B0F5A02F286810D020F432
:1022700080302860286820F4802028606068A0B141
:10228000FFF7C6FA06460CE0286840F48030F4E711
:1022900040F480202860F7E7FFF7BAFA801B642833
:1022A00076D828688003F7D50CE0FFF7B1FA064628
:1022B00005E000BFFFF7ACFA801B6428F0D828685F
:1022C0008003F7D42078DFF8C89280074FF0000A27
:1022D00044D5DBF80010584611F00C0F0FD0016800
:1022E000C1F38101022902D13968490207D500688A
:1022F000C0F3810003280AD13868400207D4286857
:10230000800715D5E068012800D111E03AE1E068C6
:10231000B0B10120C9F80000FFF77AFA064604E0E0
:10232000FFF776FA801B0228BAD828688007F7D50D
:102330002868216920F0F80040EAC10028600DE01B
:10234000C9F800A0FFF764FA064604E0FFF760FA58
:10235000801B02281CD828688007F7D42078000743
:1023600027D5DFF828828B48616908F16C0881B1B4
:1023700001210160FFF74CFA064604E0FFF748FA36
:10238000801B022804D8D8F800008007F6D510E09A
:1023900089E0C0F800A0FFF73BFA064605E000BF61
:1023A000FFF736FA801B02287DD8D8F80000800796
:1023B000F6D42078400769D574484FF000083830CB
:1023C0000068C0000BD471483830016841F080517A
:1023D000016000684FF0010800F0805000906E4EE0
:1023E0003068C00511D4306840F480703060FFF769
:1023F0000FFA009006E000BFFFF70AFA0099401AB2
:10240000022850D83068C005F6D5604EA0686836FE
:1024100001280FD00528306810D020F0010030606E
:10242000306820F004003060A068B8B1FFF7F0F920
:1024300000900FE0306840F00100F4E740F0040045
:102440003060F7E7FFF7E4F90099411A41F288306C
:10245000814264D830688007F4D50EE0FFF7D8F9E0
:10246000009007E0FFF7D4F90099411A41F2883053
:10247000814254D830688007F4D4B8F1000F05D0F9
:1024800042483830016821F080510160A069A8B34A
:10249000DBF80010C1F38101022947D00228C9F8F6
:1024A00060A005D000E03AE0FFF7B2F9044639E059
:1024B000FFF7AEF9064604E0FFF7AAF9801B0228F1
:1024C0002DD828688001F7D4F4E907010843E168B2
:1024D000324A490802EB0141A26841EA82110843ED
:1024E000217C40EA0160217D40EA017038600120D2
:1024F000C9F86000FFF78CF9044606E044E000BF2D
:10250000FFF786F9001B022809D828688001F7D553
:102510003AE000BFFFF77CF9001B022802D9032034
:10252000BDE8F88F28688001F4D42DE00128F7D0A9
:102530003868E26900F48001914223D1226A00F0F8
:102540003F0191421ED147F6C071626A0140B1EB72
:10255000821F17D1A26A4FF0FF3300F4403103EB22
:102560005202B1EB024F0DD194F82C2000F07061B3
:10257000B1EB026F06D194F8301000F0E040B0EB00
:10258000017F01D00120CBE70020C9E708380240D5
:1025900000004742800E4742007000400000FFFFED
:1025A00070B5040009D0606A002540B125616561FD
:1025B000A56294F8510040B10CE0012070BD606844
:1025C000B0F5827FF4D0E561F2E784F85050204600
:1025D00000F044F8022084F851002068016821F0DE
:1025E00040010160A088218900F4827001F4044157
:1025F0000843A18901F400610843217C01F0020134
:102600000843217D01F001010843218B01F4007191
:102610000843217F01F03801084394F8201001F0AD
:1026200080010843218D01F40051084321680860AE
:10263000A069042101EA104094F8241001F010016F
:102640000843216848602068C16921F40061C161C4
:102650006565012084F85100002070BD10B586B07A
:10266000044614216846FDF7CEFE134920688842CF
:1026700020D112480021026842F4805202600068B2
:1026800000F4805005900D481438026842F00102B1
:102690000260006800F001000590E0200090022038
:1026A000CDE9010103200390052004906946044808
:1026B000FEF7BAFF06B010BD0030014044380240BA
:1026C0000000024010B5401EB0F1807F01D3012010
:1026D00010BD4FF0E02460610F21601701F010FD84
:1026E0000020A06107202061002010BD70477047C6
:1026F00010B5040003D094F83D0010B107E00120AC
:1027000010BD002084F83C00204600F01FF8022095
:1027100084F83D00211D206801F048FB012084F869
:10272000460084F83E0084F83F0084F8400084F8B6
:10273000410084F8420084F8430084F8440084F89F
:10274000450084F83D00002010BD000008B5006879
:102750000B49884212D10B48016841F48071016035
:102760000068002200F48070009011462D20FFF7D1
:10277000DDFBBDE808402D20FFF7CABB08BD000007
:10278000002000404038024070472DE9F0410446E7
:102790000068C66805694FF00007A90713D5B1079F
:1027A00011D5F91E0161012020772068806980071A
:1027B000204602D0FFF7E8FF04E000F07EF8204654
:1027C00000F07CF82777680716D5700714D52168C4
:1027D0006FF004000861022020772068806910F4FF
:1027E000407F204602D0FFF7CFFF04E000F065F8FD
:1027F000204600F063F82777280715D5300713D552
:1028000021686FF008000861042020772068C06903
:102810008007204602D0FFF7B7FF04E000F04DF834
:10282000204600F04BF82777E80616D5F00614D5B9
:1028300021686FF010000861082020772068C069C7
:1028400010F4407F204602D0FFF79EFF04E000F026
:1028500034F8204600F032F82777E80708D0F00770
:1028600006D021686FF001000861204600F027F8CB
:10287000280608D5300606D521686FF0800008616B
:102880002046FFF733FF680608D5700606D5216895
:102890006FF040000861204600F012F8A8060AD543
:1028A000B00608D521686FF0200008612046BDE819
:1028B000F041FFF71CBFBDE8F081704770477047DB
:1028C0007047704770470000F8B501680446086813
:1028D000CA684B6910F00F0F4FF0000559D003F094
:1028E000010602F49077374365D0C10705D0D105C2
:1028F00003D5616C41F001016164410705D5D90739
:1029000003D0616C41F002016164810705D5D907EC
:1029100003D0616C41F004016164010707D502F046
:102920002001314303D0616C41F008016164616CA6
:1029300000293AD0800604D5900602D5204601F041
:10294000DCFA20684069616CC0F38010090700D48C
:1029500060B3204601F0AAFA20684069400621D5FC
:102960002068143050E8001F21F0400140E80012B8
:10297000002AF5D1E06BA8B16E490165E06BFEF766
:10298000F1FC002811D0E06B016D01B0BDE8F04012
:10299000084783060FD593060DD52046BDE8F840BD
:1029A00001F0ABBA2046FFF78DFFF8BD2046FFF7D8
:1029B00089FF6564F8BD266B2023012E7DD1C606F4
:1029C0007BD5D60679D508684868009048694FF0ED
:1029D0000206400641D5E16B086840680004000C1F
:1029E000E8D0A28D8242E5D9E085C869B0F5807F44
:1029F0002DD020680C3050E8001F21F4807140E891
:102A00000012002AF5D12068143050E8001F21F090
:102A1000010140E80012002AF5D12068143050E886
:102A2000001F21F0400140E80012002AF5D184F88F
:102A30004230256320680C3050E8001F21F010015F
:102A400040E80012002AF5D1E06BFEF742FC666315
:102A5000A08DE18D401A81B22AE0A08DE18D401A4F
:102A600081B2E08D0028A5D00029A3D022680C32C5
:102A700052E8000F20F4907042E80007002FF5D1D3
:102A80002068143050E8002F22F0010240E80027AF
:102A9000002FF5D184F84230256320680C3050E8CF
:102AA000002F22F0100240E80023002BF5D16663CE
:102AB0002046FFF706FFF8BDFFE705062BD51506F4
:102AC00029D594F841002128F5D1A068B0F5805FA0
:102AD00001D12069B0B1206A411C216221680078CF
:102AE0004860E08C401E0004000CE084E3D12068C4
:102AF000C16821F08001C1602068C16841F04001D7
:102B0000C160D8E7206A0088C0F308004860206AE6
:102B1000801C2062E5E74006CDD55006CBD5CA68BB
:102B2000204622F04002CA6084F8413000F0EEF8FE
:102B3000C1E700009D3E000870B5040004D094F881
:102B40004100002510B106E0012070BD84F840501E
:102B5000204600F023F8242084F841002068C16852
:102B600021F40051C160204601F028FA2068016973
:102B700021F4904101612068416921F02A014161FD
:102B80002068C16841F40051C1606564202084F868
:102B9000410084F842006563002070BD2DE9F041DA
:102BA00086B0064614216846FDF72DFC4148DFF843
:102BB00000C1336800253F4910380324022708224A
:102BC00063451FD10B6843F400230B60096801F4CF
:102BD00000210591016841F0010101600068CDE923
:102BE000004700F00100CDE90420CDE90254694618
:102BF0003148FEF719FD002211463420FFF796F9FF
:102C0000342050E0DFF8B4C063454ED10B6843F484
:102C100080130B60096801F480110591016841F08F
:102C200004010160016801F004010591016841F0AF
:102C3000080101600068CDE9025400F00800059029
:102C40004FF48050CDE900079046694604921C4835
:102C5000FEF7EAFC0420CDE90007CDE902546946FD
:102C6000CDF810801748FEF7DFFC184C164820609E
:102C70004FF0006060604020C4E902050001C4E933
:102C80000405A561E561256220466562FEF750FCFA
:102C900008B1FDF7AFFDB463002211463520A663ED
:102CA000FFF744F93520FFF733F906B0BDE8F081AE
:102CB000004C0040403802400000024000500040FC
:102CC00000080240000C0240B86002402C040020C2
:102CD00090F84230202B01D00220704721B11AB168
:102CE0000023036301F0F0B90120704710B50822FA
:102CF00004490548FFF7ECFF0248F038C18A491C37
:102D0000C18210BDF0000020680200207047FEE77D
:102D10000148FEF785BD0000740100200148FEF760
:102D2000DCBD00007401002038B5806B002190F8F4
:102D30003D202B4B46F2A8141B68B3FBF4F3C3EB06
:102D4000C30303EB830300933BB15B1E0093036853
:102D50001B689B0505D5009BF6E7036C43F0200339
:102D60000364436B03B1D963836B03B1D963036815
:102D70001C6824F480641C604185436B03B11965B1
:102D8000836B03B1196503681C6824F001041C609F
:102D900090F83D402023602C0BD0282434EA020216
:102DA0000FD080F83D3080F83E1000BFFEF7ADFE3A
:102DB00038BD80F83D3080F83E100164FEF72EFDEE
:102DC00038BD0268136843F001031360026813689A
:102DD00043F480631360016380F83D40E6E7000040
:102DE0002001002000684169C943090601D400217F
:102DF0000161704770B5044690F83D0094F83E10AC
:102E0000102901D0402906D1222804D121680A685E
:102E100022F400620A60282131EA00024FF0000526
:102E20004FF0200626D021684968090505D460289E
:102E300003D084F83D6084F83E50256320684168E3
:102E4000090537D5416821F400614160606B90F855
:102E500035203C49012A11D00165606BFEF782FAEA
:102E600038B32068016821F00101016084F83D60F9
:102E7000606B1CE0256384F83D10DFE7A06B016503
:102E8000A06BFEF76FFAA0B120684169C9434906FB
:102E900005D40069616A0870606A401C606220683D
:102EA000016821F00101016084F83D60A06B016DB3
:102EB000884710E094F83D10602910D04169C9435B
:102EC000490605D40069616A0870606A401C606246
:102ED0002046FEF71AFE206CC1071CD115E084F8CD
:102EE0003D6025644169C943490605D40069616AAA
:102EF0000870606A401C60622068016821F001016E
:102F000001602046FEF78AFCE5E7810703D441070C
:102F100001D4000704D52068416821F4E0614160D4
:102F200094F83D00216C49070BD5282809D10648A3
:102F3000E062256384F83D6084F83E502046FEF749
:102F4000A9FE70BD292D00080000FFFF01684A6935
:102F5000D24352050FD46FF480624A61002140F8D9
:102F6000301F202242738173026942F00402026121
:102F70000173012070470020704710B5C26A438D6D
:102F80000168042B06D0438D032B08D0438D022B00
:102F90001DD012E04A6822F480624A600CE04B685F
:102FA00023F480634B60042A06D0022A04D001680F
:102FB0000A6822F480620A6001680969426A117035
:102FC000416A491C4162418D491E418510BD012A5B
:102FD00034D0102A32D0042A34D0022A32D00B68DE
:102FE00043F400730B6001680969436A1970416A10
:102FF000491C4162438D5B1E438503681B690B704E
:10300000416A491C4162418D491E418501684B68F6
:1030100023F440734B60202180F83D1090F83E303F
:103020000021402B80F83E1010D0082A02D0202A20
:1030300000D012210163FEF72EFE10BD0B6823F4B1
:103040008063CFE70B6843F48063CBE70163FEF74F
:1030500024FE10BD38B590F83D10222910D1C36A66
:10306000418D03290DD901680969426A1170416ACD
:10307000491C4162418D491E4185418D032906D07D
:1030800038BDC26A022A02D0012906D029B10068DF
:10309000416821F48061416038BD2A4A46F2A81493
:1030A00000211268B2FBF4F202EB82020092026885
:1030B0002024009D6D1E009526D01568AD05F8D41E
:1030C000156825F4806515600268556825F4E0658B
:1030D000556002681269456A2A70426A521C42624F
:1030E000428D521E428580F83D4090F83E2080F887
:1030F0003E10402A21D0082B02D0202B00D01221D4
:103100000163FEF7C8FD38BD036C43F02003036480
:10311000536823F4E063536002681269436A1A70CB
:10312000426A521C4262428D521E428580F83D40E6
:1031300080F83E10FEF7E9FC38BD0163FEF7ADFDF7
:1031400038BD00002001002010B5C26A90F83D1083
:1031500021290BD1418D51B1416A02680978116171
:10316000416A491C4162418D491E418510BD2023A1
:103170000021082A13D0202A11D012F5803F0ED04A
:103180000268546824F4E06454601122026380F8F9
:103190003E1080F83D3000BFFEF77EFD10BD026896
:1031A000546824F4E06454600268146844F40074C1
:1031B0001460016380F83D3090F83E2080F83E10A6
:1031C000402AE9D1FEF76AFD10BD000010B590F865
:1031D0003D1090F83E30C26A048DB4B1212903D06D
:1031E000402B11D122290FD1418DE1B390F83E102F
:1031F000402942D0416A026809781161416A491C3C
:103200004162418D491E418510BD2129E8D120230D
:103210000021082A13D0202A11D012F5803F0ED0A9
:103220000268546824F4E06454601122026380F858
:103230003E1080F83D3000BFFEF72EFD10BD026845
:10324000546824F4E06454600268146844F4007420
:103250001460016380F83D3090F83E2080F83E1005
:10326000402AE9D100E002E0FEF718FD10BD006839
:10327000416821F48061416010BDBDE8104000F05C
:10328000D3B8000078B590F83E50C26A036B90F84E
:103290003D6000240168222E7AD1066D0EB9402DC2
:1032A00076D0056D1DB90569B5F5404F09D0458D3E
:1032B00005B3468D384D012E0ED0438D022B3AD0EA
:1032C0005DE04A698A6900920A6842F480720A6085
:1032D000016D491C016578BDAA4213D10A6822F428
:1032E00080620A6001684A68120503D50A6822F400
:1032F000806216E04A698A6900920A6842F40072A4
:103300000A6039E0082A10D0202A0ED0122B0AD0E9
:10331000042A03D0022A01D0102AE7D10A6842F415
:1033200080620A6024E0012AE0D00A6822F4806208
:103330000A600168DEE7042A21D0022A1FD0102A81
:103340001DD00B6823F480630B6001680B6843F4A5
:1033500000630B6001684B681B0509D5AA4212D0B7
:10336000012A10D0082A0ED0102A0CD0202A0AD008
:1033700001684A6989690091046578BD08E00B68B5
:1033800043F48063E5E74A6842F480524A60EFE71D
:10339000486988690090F0E70000FFFF90F83E1050
:1033A000402910D00169B1F5804F19D0016DA9B342
:1033B000016D012910D1416C5FF0F10201F44071FF
:1033C00042EAD11106E0016D0029416C05D0C9B275
:1033D00041F0010100680161704701F0FE01F9E769
:1033E00090F83D102129416C09D0C9B241F001018A
:1033F00002681161416B29B1C96B49B902E001F062
:10340000FE01F5E7816B0029E6D0C96B0029E3D006
:103410000068416841F4006141607047FFE7416C1A
:10342000F02201F44071CBE710B590F83D10026D29
:103430004AB1026D012A14D0026D022A16D0BDE8ED
:103440001040FFF7CFBCC16C0129816C02D0C1F3E1
:10345000072108E00268C9B21161016D891C01658C
:1034600010BD816CC9B20268116123E022291CD011
:10347000428D0AB1212920D0428D002AF0D1212984
:10348000EED101684A6822F4E0624A6001680A6885
:1034900042F400720A6000210163202280F83D207E
:1034A00080F83E10FEF7FAFB10BD01680A6842F48E
:1034B00080720A60016D491CD1E7416A026809788F
:1034C0001161416A491C4162418D491E418510BD0F
:1034D0002DE9F843044600680D46DDE908970168C8
:1034E0009846164641F4807101604B4600224FF029
:1034F00001112046009700F085F948B12068006866
:10350000C00502D54FF4007020640320BDE8F883A5
:10351000216805F0FE0008613B464A4615492046F1
:1035200000F0B8F988B920684169806900903A468E
:103530004946204600F00CFA48B1206C042804D11A
:103540002068016841F4007101600120DEE7F5B2F6
:10355000B8F1010F09D02168300A08613A4649469E
:10356000204600F0F5F90028E7D120680561002029
:10357000CCE700000200010038B50C4690F83D2071
:1035800000212825954302680B4605D051699169B1
:10359000009180F83C3038BD556825F48065556051
:1035A000E243540700D50121120601D5828900E0CB
:1035B000028B80F83C3092B2FEF731F938BD000042
:1035C0002DE9F04190F83D300446C26A00212026E2
:1035D0001E4F00686FF48065082A01D0202A01D1AF
:1035E000282B04D0212B17D04561BDE8F081E7627C
:1035F000426822F4E0624260206845612068026807
:1036000022F480620260216384F83D6084F83E10F9
:103610002046FEF73FFBE8E7E7622122226384F8B9
:103620003D6084F83E10416821F4E061416020680B
:1036300045612068016821F4806101602046FFF740
:10364000D1FB2046FEF709FCCFE700000000FFFF9A
:10365000F8B590F83D6004460068416821F4E061E7
:1036600041602068002541690091016841F0010135
:1036700001602068016821F4806101602068416870
:10368000090520D5474F222E48D02A2E46D0616BFF
:10369000096849686185618D19B1216C41F00401A7
:1036A0002164416821F400614160606BFDF76CFEAC
:1036B000012808D0606B0765606BFDF753FE10B101
:1036C000606B016D8847608D08B320684169C9430C
:1036D000490708D40069616A0870606A401C60622A
:1036E000608D401E608520684169C943490608D441
:1036F0000069616A0870606A401C6062608D401EEB
:103700006085608D18B1206C40F004002064206C4E
:1037100000B32046BDE8F840FFF76CBBA16B096819
:1037200049686185618D19B1216C41F00401216402
:10373000416821F400614160A06BFDF725FE01287E
:10374000C1D0A06B0765A06BFDF70CFE0028BAD0B6
:10375000A06BB6E72A2E06D12563282084F83D0009
:103760002046FEF779FB94F83D10202028290DD043
:10377000216B222901D0222E07D1256384F83D0038
:1037800084F83E502046FEF767FBF8BD0649E1622B
:10379000256384F83D0084F83E502046FEF77AFA0F
:1037A000F8BD0000292D00080000FFFF70B5164687
:1037B0000D4604461EE02046FFF7C8FB08B1012075
:1037C00070BD681C16D0FEF723F8801BA84200D8F5
:1037D00085B920684069C04340070BD5002044F8F4
:1037E000300F20216173A073216941F02001216114
:1037F0002073E4E720684069C0434007DBD4002021
:1038000070BD00002DE9F047984617460D46044666
:10381000C1F30746DDF820902AE000BFB8F1FF3F72
:1038200026D0FDF7F5FFA0EB0901414502D8B8F11C
:10383000000F1DD12068012E16D0806925EA0000F6
:103840000004000C12D00020B84211D1002044F82E
:10385000300F20216173A073216941F020012161A3
:1038600020730120BDE8F0874069E7E70120EBE71E
:103870002068012E0AD0806925EA00000004000CAF
:1038800006D00020B842C9D00020EBE74069F3E73A
:103890000120F7E72DE9F047984616460D46044605
:1038A0004FF000094FF0200AC1F3074723E02068DA
:1038B0004069C043400515D42068016841F4007197
:1038C000016021686FF480604861C4F8309084F82A
:1038D0003DA084F83E90216C41F00401216484F8FD
:1038E0003C9021E0701C06D0FDF792FFA0EB080091
:1038F000B04203D816B1012F1FD021E02068012F5C
:1039000015D0806925EA00000004000C18D000BF23
:1039100044F8309F84F80DA084F80E90216941F09E
:103920002001216184F80C900120BDE8F0874069F6
:1039300025EA00000004000CEAD12068406901E09B
:103940002068806925EA00000004000CAFD1ECE794
:1039500070B516460D4604461EE02046FFF7F6FAFF
:1039600008B1012070BD681C16D0FDF751FF801B07
:10397000A84200D885B920684069C04300060BD52D
:10398000002044F8300F20216173A073216941F0B9
:10399000200121612073E4E720684069C0430006EC
:1039A000DBD4002070BD00000E49A1F1F0000A78C0
:1039B000AA2A10D1CA79FF2A0DD14A7882708A7852
:1039C00002B9C278C270CA7842710A79C2714A7962
:1039D0000271897981714179002901D101214171F7
:1039E00070470000F000002030B517488BB0154933
:1039F00001600C210024C0E901144FF42021C0E92A
:103A000003414FF400110125416105764476847627
:103A1000C57604774477FDF766FA08B1FCF7EAFE4D
:103A200004940E20CDE9085005940194029400946A
:103A3000694603940448CDE90645FDF755F80BB0F7
:103A400030BD0000006400402401002030B517485C
:103A50008BB0154901600C210024C0E901144FF41A
:103A60002021C0E903414FF4001101254161057691
:103A700044768476C57604774477FDF734FA08B146
:103A8000FCF7B8FE009401940895029405A90E2055
:103A9000CDE9034581E83100099069460348FDF707
:103AA00023F80BB030BD0000006800404C0100203E
:103AB0002DE9F04387B014216846FCF7A4FC374891
:103AC0000024016841F004010160016801F0040173
:103AD0000591016841F080010160016801F08001F9
:103AE0000591016841F001010160016801F00101E7
:103AF0000591016841F002010160016801F00201D5
:103B00000591016841F0080101600068DFF89090BC
:103B100000F008004FF4035505900022294648465E
:103B2000FDF770FE1F4F002210213846FDF76AFE98
:103B3000DFF8748040F20636002231464046FDF739
:103B400061FE00950125CDE901546946484603947C
:103B5000FDF76AFD0420CDE9000469463846029469
:103B6000FDF762FD10200090CDE90154694638460A
:103B70000394FDF759FD0096CDE90154694640468E
:103B80000394FDF751FDE802CDE90004694648467B
:103B90000294FDF749FD07B0BDE8F08330380240DC
:103BA0000008024000000240000402400C4810B52A
:103BB0000A4901600B49416000214FF48042816055
:103BC000C0E9031241618161C1610162FDF79EFF9D
:103BD000002801D0FCF70EFE10BD0000005400408C
:103BE00074010020A08601000E4810B50C49016048
:103BF0004FF48271416000218160C1604FF4007216
:103C00000161C0E90512C1610162416281620A215C
:103C1000C162FEF7C5FC002801D0FCF7EBFD10BD2A
:103C200000300140C80100200B4810B5094901606F
:103C30004FF4E1314160002181600C22C160C0E994
:103C400004128161C161FEF777FF002801D0FCF703
:103C5000D1FD10BD004C0040680200200B4810B59B
:103C6000094901604FF4E1314160002181600C227B
:103C7000C160C0E904128161C161FEF75DFF0028E7
:103C800001D0FCF7B7FD10BD00500040B00200208D
:103C9000FEE7FEE77047704708B1032801D1B1EE97
:103CA000400A02230422B1EE400A0121FCF798BC2D
:103CB000022304220021FCF793BC00000C4A10B53B
:103CC00091670C4904220A4B0A6100228A60CA608B
:103CD000072202EB40103C33086003F13C02A1F5DF
:103CE000D670FCF799FEBDE810401420FDF78ABCA1
:103CF00080000020F8020020FEF7B0B830B593B085
:103D000034216846FCF77FFB14210DA8FCF77BFBF0
:103D10001D480025016841F080510160006800F0F5
:103D2000805012901948016841F4404101600068D8
:103D3000022400F440401290012000900004019001
:103D40008001CDE9064004200890B420CDE90904A3
:103D50000B9468460C94FEF757FA88B9FEF718F9E9
:103D600070B90DA90F2081E831004FF4A0501090D8
:103D7000E002119005210DA8FEF742F9002801D0BC
:103D8000FCF738FD13B030BD4038024000700040F1
:103D90000248016841F470010160704788ED00E05D
:103DA0000148FEF7F2BC000020020020F0B50268D6
:103DB000294C2A4D2A4E2B4F2B4B4FF0804CA042C2
:103DC00009D0604507D0A84205D0B04203D0B84220
:103DD00001D0984204D122F0700E4A6842EA0E02E5
:103DE000A0421BD0604519D0A84217D0B04215D0D0
:103DF000B84213D0984211D01C4DA8420ED01C4D91
:103E0000A8420BD01B4DA84208D01B4DA84205D09C
:103E10001A4DA84202D01A4DA84203D122F440758F
:103E2000CA682A434D6922F080022A4302608A68E8
:103E3000C2620A688262A04201D0984201D1096937
:103E40000163012141610169C90703D0016921F0C2
:103E500001010161F0BD00000000014000040040CC
:103E600000080040000C00400004014000400140F8
:103E7000004401400048014000180040001C004080
:103E8000002000400148FEF71FBD0000680200202E
:103E90000148FEF719BD0000B002002010B5806B8C
:103EA0000021C185C184FEF70DFD10BD01680C31F4
:103EB00051E8002F22F4907241E80023002BF5D145
:103EC0000168143151E8002F22F0010241E800237B
:103ED000002BF5D1016B012909D101680C3151E8A2
:103EE000002F22F0100241E80023002BF5D1202101
:103EF00080F8421000210163704708B590F8421025
:103F0000222901D0022008BD82684FF480539A42D2
:103F100001D1016921B1816A9A421BD04AB10AE0FC
:103F20000268816A5268C2F308020A80816A891CA9
:103F300008E0026972B10268526802F07F020A70FA
:103F4000816A491C8162C18D491E0904090CC18521
:103F500003D01BE002685268F1E70168CA6822F0EA
:103F60002002CA600168CA6822F48072CA600168CF
:103F70004A6922F001024A61202180F842100021A2
:103F80004163026B012A03D0FEF7B0FE002008BD9A
:103F9000016301680C3151E8002F22F0100241E862
:103FA0000023002BF5D101680A68D20602D50A6801
:103FB00049680091818DFEF784FCE7E770B50446FF
:103FC00000680169E26821F44051114301612169EF
:103FD000A068E26908436169114308432168CA681F
:103FE00049F20C639A430243CA6020684169A2699E
:103FF00021F440711143416131492068884202D067
:104000003049884202D1FEF7A5F801E0FEF792F8A8
:10401000E2690023192164253226B2F5004F626857
:1040200028D0A0FB0101930F9200FCF73BF9014659
:10403000B0FBF5F06FF01802504301EB800006EB87
:104040000010B0FBF5F000F0F002B1FBF5F002EB70
:104050000012B1FBF5F06FF01803584301EB80003C
:1040600006EB0010B0FBF5F000F00F0021681044E3
:10407000886070BDA0FB010192185B41FCF712F94A
:104080000146B0FBF5F00201B1FBF5F06FF018034B
:10409000584301EB800006EBC000B0FBF5F000F0E8
:1040A000F80002EB4002B1FBF5F0584301EB800051
:1040B00006EBC000B0FBF5F000F00700D6E700000B
:1040C000001001400014014081628285C2850021F8
:1040D0004164222180F84210016921B10168CA6857
:1040E00042F48072CA6001684A6942F001024A6182
:1040F0000068C16841F02001C16000207047FEE700
:104100000907090E002804DB00F1E02080F8001404
:10411000704700F00F0000F1E02080F8141D704798
:1041200070B5D94B00242DED020B2DED108BDDE980
:104130001010984205DA20F000429A4201D809D1C5
:1041400041B19DED100BBDEC108B02B0BDE870408D
:1041500000F05EBAB0F5801F26DA11430BD00028BC
:1041600013DA0120FCF77EF9BDEC108B02B0BDE83C
:10417000704000F059BA0220FCF774F900F030FAF0
:1041800051EC100B00F0F8FA9EE06FF035049FED53
:10419000C00B53EC102B9DED100B51EC100B00F0ED
:1041A000B7FDCDE91001084604EB2051C0F313041C
:1041B000B948A1F2FF31204400F4801080F07F6202
:1041C00082F04052224301EB20559FEDB50B119236
:1041D00053EC102B9DED100B51EC100B00F0A2FED8
:1041E00041EC180BA01CC0F313009FEDAFDB9FED5B
:1041F000B0EBB14E7E4403286CD296ED000B51EC2F
:10420000180B53EC102B00F001FD1DD1002D01BF48
:1042100096ED000BBDEC108B02B070BD284600F08F
:1042200060FD41EC180B53EC1D2B00F071FD41ECCF
:10423000190B53EC1E2B51EC180B00F069FD53ECDD
:10424000192B00F0D7FA3FE09FED9D0B51EC180BB6
:1042500053EC102B00F05CFD9FED9B1B53EC112BDE
:1042600000F054FE41EC190B53EC182B51EC180BD9
:1042700000F04EFD53EC192B00F04AFD41EC190BF8
:10428000002D04BF53EC192B51EC180B1AD0284603
:1042900000F027FD41EC1A0B53EC1D2B00F038FD0C
:1042A00053EC192B00F032FE53EC182B00F03AFEC1
:1042B00041EC180B53EC1E2B51EC1A0B00F028FDAF
:1042C00053EC182B00F02EFEBDEC108B02B041EC2D
:1042D000100B70BD9FED7E0B51EC180B53EC102BA7
:1042E00000F088FA41EC100B51EC180B53EC102B3A
:1042F00000F034FB41EC190B284600F0F2FC41ECD5
:104300001B0B53EC192B51EC190B00F001FD41EC88
:104310001A0B714853EC1A2B261851EC1A0B00F0AB
:10432000F7FC41EC1F0B6D48C4F1510404F5D72490
:10433000B0EE4F0AF0EE6F0A0321784400F0D2F895
:1043400053EC1F2B51EC100B00F0E2FC41EC1C0B6A
:104350006348B0EE4F0AF0EE6F0A0421784400F093
:10436000C1F853EC1A2B51EC100B00F0D1FC344384
:1043700053EC1C2B00F03EFA41EC1C0B002C4CDDE6
:104380009FED510B51EC180B53EC102B00F0C0FCBF
:1043900053EC182B00F0BCFC41EC1A0B55B353EC5A
:1043A0001D2B51EC1B0B00F0B3FC41EC1D0B53EC2F
:1043B0001C2B51EC1A0B00F01DFA53EC192B00F0DA
:1043C000A7FC53EC1D2B00F015FA53EC1A2B00F050
:1043D0009DFD53EC182B00F0A5FD41EC180B53ECA0
:1043E0001E2B51EC1B0B00F093FC53EC182B00F030
:1043F00099FD69E753EC1C2B51EC1A0B00F0FAF90C
:1044000053EC192B00F084FC53EC1A2B00F07EFDCA
:1044100053EC182B00F07AFD56E735B353EC1D2B07
:1044200051EC1B0B00F074FC41EC1A0B53EC1C2BF1
:1044300051EC180B00F076FD53EC192B00F068FCE2
:1044400053EC1A2B00F06EFD53EC182B00F06AFDB4
:1044500041EC180B53EC1E2B51EC1B0B00F058FCDD
:1044600053EC182B00F05EFD2EE753EC1C2B51ECA7
:10447000180B00F057FD53EC192B00F049FC53ECDE
:10448000182B00F043FD1FE70000F07F0000000044
:104490000000000000005043645F090000000000BD
:1044A000000000000000F03F763C7935EF39EA3D2E
:1044B0000000E0FE422EE63F700F0000000000000A
:1044C000555555555555D53F000000000000E03FBB
:1044D000000000000000004086EBF9FFF20D000034
:1044E000E80D000070B504462DED028B4D1E00EB6B
:1044F000C500B0EE408AF0EE608A90ED000B35F01A
:10450000060017D053EC182B51EC100B00F000FCF8
:1045100041EC100B6D1E04EBC50090ED001B51EC3F
:10452000100B53EC112B00F065F941EC100B35F03A
:104530000600E7D1022D36D0042D1CD0062D1CBF5D
:10454000BDEC028B70BD53EC182B51EC100B00F03E
:10455000DFFB94ED0A1B53EC112B00F04BF953ECED
:10456000182B00F0D5FB94ED081B53EC112B00F039
:1045700041F941EC100B53EC182B51EC100B00F0EF
:10458000C7FB94ED061B53EC112B00F033F953ECF1
:10459000182B00F0BDFB94ED040B53EC102B00F036
:1045A00029F941EC100B53EC182B51EC100B00F0D7
:1045B000AFFB94ED021B53EC112B00F01BF953ECF5
:1045C000182B00F0A5FB94ED001B53EC112B00F011
:1045D00011F9BDEC028B41EC100B70BD0000000026
:1045E0009FED070B10B553EC102B9FED070B51EC13
:1045F000100B00F0B3F941EC100B10BD00000000EF
:104600000000000000000000000000000000F03F7B
:1046100010B553EC102B51EC100B00F0EBF841EC03
:10462000100B10BD000000009FED050B10B553EC02
:10463000102B51EC100B00F091F941EC100B10BD58
:1046400000000000000000000188827849BA0904D7
:10465000C07841EA0221014300EE101A70470000C1
:1046600008B5FDF703FCFFF749FBFFF721FA3D48CA
:104670000024016841F4001101600068224600F442
:104680000010009021462F20FDF750FC2F20FDF751
:104690003FFCFFF7A9F9FFF7D9F9FFF7A5FAFFF7F4
:1046A000C3FAFFF7DBFA31482F49016042F22731A4
:1046B000C0E9011440F2E731C0E903148461FEF758
:1046C00017F808B1FCF796F8FFF770FA4FF4167078
:1046D000FCF798FF2548D438FCF7C8FD6420FCF7A8
:1046E00091FF22481021D438FCF784F90C240522CC
:1046F00008212046FFF7E2FA641CE4B20E2CF6D340
:104700004FF47A752846FCF77DFFFFF78DFAFFF727
:10471000A5FA1648082216494830FEF7D9FA154C72
:10472000012240212046FDF76DF80122802120461C
:10473000FDF768F80E490120F03900248872204600
:10474000FCF716F8641CE4B2FF2CF8D32846FCF7FB
:1047500059FF00BFFFF728F9FBF7FEFEFCF780F8D2
:10476000F8E700003038024000200040200200201E
:10477000F00000200008024081F00041704780F006
:104780000040704721F00041704720F00040704722
:1047900021F00042A2F16052B2F5801F01F0004307
:1047A00028BFD2F17F6C0BD95FEA001C43EAC2023A
:1047B00042EB507018BF704728BF20F001007047CF
:1047C000B2F5801FBCBF184670474FEA410C1CF57C
:1047D000001F02D2084600F094BC70B500F042FB06
:1047E00000000089FFF7F6BF4FF00040A0F5800001
:1047F0007047000010B591EA030F48BF83F00043F3
:1048000000F19883841A71EB030C05D2121943EB63
:104810000C03001B61EB0C01DFF824E14FEA11549B
:10482000A4EB135C1EEA430F18BF9EEA445F73D0EB
:1048300023EA0E03DCF1200E21EA045143F4801335
:1048400032D322FA0CFE10EB0E0023FA0CFE41EBE1
:104850000E01CCF1200E03FA0EFE10EB0E0051F10A
:104860000001B1F5801FCCF1200E32D201EB0451D2
:1048700012FA0EF2BDE8104058BF7047401C38BF16
:104880005FEA420218BF7047002814BF20F0010001
:1048900041F100014FEA410313F5001F38BF704793
:1048A000A1F1C04100F02CBB012A43EB0302ACF1A3
:1048B000200CDCF11F0E32BF4FF0000E23FA0CF378
:1048C00010EB030041EB0451B4EB115FD0D0A1EB2E
:1048D000045101F5801149085FEA300001EB0451F1
:1048E0000ED350F1000038BF12FA0EFE08D1BDE819
:1048F0001040C9E7401C38BF5FEA4202CAD1C3E793
:10490000BDE810404FEA410313F5001F38BF704760
:10491000A1F1C04100F0F4BA9EEA445F08D011EA68
:104920005E0FBDE8104004BF01F000410020704759
:10493000BDE8104070B500F095FA00BF64FBBE3EC4
:104940000000E0FF491058BFC1F140415B1058BF63
:10495000C3F140438B42EFF3008070472DE9C04123
:1049600030B4DFF8A0C23CEA111418BF3CEA1314BB
:1049700000F0EC8081EA03051CEA111444EAD574C6
:1049800018BF1CEA131500F0C780A4EB05044FF014
:10499000004545EAC12145EAC32341EA505143EAB3
:1049A000525304F17F74994204F500344FEAC02059
:1049B0004FEAC22208BF904200F09C804FEA136584
:1049C0000FF24016765D4FEA134506FB05F7C7F177
:1049D000807706FB07F74FEAD737A7FB03687642D5
:1049E000C8F58038A7FB06CE38BFA8F1010807FB41
:1049F00008E64FF0000EA6FB028CE6FB03CEDCF1CE
:104A0000000CCEF1004E38BFAEF1010EA6FB0C58E3
:104A10004FF000074FF00005E6FB0E87A1FB08C62C
:104A2000A0FB07CE16EB0E0645F10005E1FB07657E
:104A300015F1E04E7EBFA4F580345FEA46066D4175
:104A400016F1800745F100054FEA17274FEA066681
:104A500047EA0567A6F1DE46B6F1805F4FEA152505
:104A60001FD9384624F0010C05EBC471BCF1FE6F70
:104A700001EB0C1102D8F0BCBDE8008124425CBF00
:104A800001F5801E9EEAC47F02D4F0BCBDE800811F
:104A9000244238D4F0BCA1F1C041BDE8004100F08F
:104AA0002FBA4FEAD22242EA43524FEAD323A7FB5E
:104AB00002864FEAD02040EA415007FB03661EEA17
:104AC0000E0F4FEAD12105FB026658BFA6EB005638
:104AD000B6EB00564FEA520E4EEAC37E18EB0E0EAE
:104AE00056EB530EBDD518EB02085E417F1C55F105
:104AF0000005B6E74FF480154FF000074FF00006B1
:104B00004FF00008ADE7F0BC4FF0000001F1C041EC
:104B100001F00041BDE8008111EA0C1F0CEA1315F9
:104B200000D00CE013EA0C1F00F025804FF00000CD
:104B3000F0BC81EA030101F00041BDE80081F0BC56
:104B4000BDE8004181EA030100F0DAB9F0BCBDE83C
:104B5000004170B500F086F9097EFC3E00F007B810
:104B600081EA03014FF0000001F00041704781EA43
:104B7000030100F0C5B9F0BCBDE800414FF00000F2
:104B800021497047FFFDFBF9F7F5F4F2F0EEEDEB8C
:104B9000E9E8E6E4E3E1E0DEDDDBDAD8D7D5D4D33B
:104BA000D1D0CFCDCCCBCAC8C7C6C5C4C2C1C0BF87
:104BB000BEBDBCBBBAB9B8B7B6B5B4B3B2B1B0AF8D
:104BC000AEADACABAAA9A8A8A7A6A5A4A3A3A2A171
:104BD000A09F9F9E9D9C9C9B9A999998979796952C
:104BE00095949393929191908F8F8E8E8D8C8C8BC8
:104BF0008B8A898988888787868585848483838250
:104C0000828181800000FF070000F87F51EA030CD9
:104C100017D41CF5801F58BFBCF5801F00F106801B
:104C2000994218BF704708BF9042704707D711F5E7
:104C3000801F58BF13F5801F19D4994270478942CD
:104C400070471CF5801F08D5BCF5801FF7D58B4237
:104C500018BF704708BF824270474FF4001C1CEB1E
:104C6000410F38BF1CEB430F01D28B42704770B528
:104C700000F0F8F8922449004FF000514FF08053B3
:104C8000FFF760BE4FEA41034FEA5353A3F5806339
:104C9000D3F11E03C8BFD3F1210C0CDD4FF000424D
:104CA00042EAC12242EA505232FA03FC8CEAE17C29
:104CB000ACEBE1707047102BC4BF0020704703F5C8
:104CC000787CBCF1FF3F04D06FF0004282EA210003
:104CD000704770B500F0C6F84992248000207047F4
:104CE000F2E710F0004248BF4042B0FA80F310FAF9
:104CF00003F10AD0C3F11D0303F580634FEA41506D
:104D000002EB035202EBD12170474FF000007047D5
:104D1000DFF848C170B51CEA111E1EBF1CEA13154E
:104D20009EEA0C0F95EA0C0F00F06F8081EA0304F5
:104D300023EA4C134EEAD47E21EA4C1141F480114F
:104D400043F48013AE44A1FB024CA0FB0365AEF11B
:104D50007F7E361955EB0C05A1FB034C4CF100038B
:104D6000A0FB021C16EB0C06654153F1000309423F
:104D700018BF46F0010613F4007F0BD14FEA033150
:104D80004FEA0530340341EA155140EA16506FF0FE
:104D900003020AE04FEAC3214FEAC520F40241EAC8
:104DA000555140EA56506FF0020202EB2E4201EBE1
:104DB000025585EACE710AD05FEA440C18BF24F090
:104DC000004450F1000041F1000120EAD47040F2AB
:104DD000FE7C624500D270BDA84214BF4FF08044F3
:104DE0004FF04044002E08BF0024BEF1806FA8BFE2
:104DF000A1F1C041BDE8704080F282804FF0000018
:104E000001F1C04101F0004170479EEA0C0F0CEA2D
:104E1000131518BF95EA0C0F06D04FF0000081EA79
:104E2000030E0EF0004170BD00F01CF88900013E39
:104E300000F007B800F009B84FEA430C5FEA5C5C89
:104E400008D081EA030100F05BB84FEA410C5FEA49
:104E50005C5CF6D14FF00000014970470000FF078D
:104E60000000F87F0EF1020E2EF0030E5EF8046BC8
:104E7000364205D4012A43EB030515F5001F12D86D
:104E8000012841EB010C1CF5001F0CD80ED14FEA94
:104E9000D17C15F5001F0CEB4C0C0CF1020C08BF7B
:104EA0004CEBD37C04E04FF0080C01E04FEAD37CDC
:104EB0000CEB4C0526FA05F606F00706B6F1040CD5
:104EC00006D20EEB860CBDE870404CF0010C60473A
:104ED000DFE80CF0090B02024FF000414FF0000038
:104EE000A1F5002170BD19461046012851EB0104BF
:104EF00018BFD4F5001484BF002001F0004170BD3C
:104F00000808A0F500114FEA3101704791EA030F3C
:104F100010B581F000413FF575AC83F0004300F01F
:104F200009B8000010B591EA030F48BF83F00043B1
:104F30003FF568AC841A71EB030C07D212198CF0A0
:104F4000004C43EB0C03001B61EB0C01DFF8A4E108
:104F50004FEA1154A4EB135C1EEA430F18BF9EEAFC
:104F6000445F00F0B08023EA6E03524221EA04510C
:104F7000C3EB6E0338BF5B1EDCF1200E25D322FA93
:104F80000CFE10EB0E0043FA0CFE41EB0E01CCF1CF
:104F9000200E03FA0EFE10EB0E0051F10001CCF1D1
:104FA000200E29D412FA0EF201EB0451BDE8104094
:104FB00058BF7047401C1CBFB2F1004F704700281B
:104FC0000CBF491C20F00100704712EB020E43EBAE
:104FD000030218BF4FF0010E4EEA4202ACF1200C62
:104FE000DCF11E0E54D943FA0CFE10EB0E0051F109
:104FF000FF31CCF11E0ED5D50EF1010E12FA0EFEC8
:10500000404141EB010101EB445C5FEA5C5C10D97B
:1050100010EBDE7001EB045138BFBEF1004FBDE86C
:10502000104018BF704700280CBF491C20F0010039
:10503000704730D24FEAD42C11F5001124F40064EB
:105040001BD0B1FA81F20B3AA41AA41ED2F12003AC
:10505000914030FA03F31943904001EBCC71002CDE
:1050600001EB0451BDE81040A8BF704701F1C041F9
:105070004FF0000001F000417047B0FA80F310FAE1
:1050800003F100D110BDE41A173C4805C90AE4E752
:1050900001EB045110BD491001EB0451BDE8104073
:1050A0004FEA300002E04FF0000170474A0008BFAD
:1050B0000042F8D0B2F5001F28BF704701F0004150
:1050C0004FF0000070479EEA445F07D011EA5E0F80
:1050D000BDE8104004BF002100207047BDE810402B
:1050E00070B5FFF7BFFE00BF40DFF63E83F0004122
:1050F000104670470000E0FF4FF04070E1EE100AEC
:105100007047FF2141EAD050C005704700061016D5
:105110000006101600000000000000000102030459
:105120000607080900000000010203040000000057
:1051300004FA97999999D93FAF788E1DC571CC3FE4
:105140009FC678D0099AC33F935555555555E53FAD
:10515000599322942449D23FDE03CB966446C73F3D
:1051600044523EDF12F1C23F000000000000000088
:1051700090510008000000202401000000020008F7
:10518000B452000824010020CC0900001C020008D1
:10519000000001010001005A0000010A0A1E1E0061
:1051A00000000100000000000000000000000000FE
:1051B000000000000000000000000000000040406F
:1051C000000020410000000000000000000000007E
:1051D00000000000000000000000000000000000CF
:1051E00000000000000000000000000000000000BF
:1051F00000000000000000000000000000000000AF
:1052000000000000CDCC8CBF000080BF000000007B
:105210000000000014AEC73F000040C0000080BF87
:10522000000080BF0000803F0000803F00000000C1
:10523000000000000000000000000000000000006E
:1052400000000000000000000000803F000000009F
:10525000000000000000000000000000000000004E
:10526000000000000000000000000000000000003E
:10527000000000000000000000000000000000002E
:10528000000000000000000000000000000000001E
:10529000000000000000000000000000000000000E
:1052A00000000000010000001000000000000000ED
:0452B0000024F400E2
:04000005080001C529
:00000001FF
