:020000040800F2
:10000000680C002065020008E14700085140000824
:10001000DD470008FD040008154C00080000000042
:10002000000000000000000000000000E947000898
:100030003D05000800000000E5470008ED47000806
:100040007F0200087F0200087F0200087F0200088C
:100050007F0200087F0200087F0200087F0200087C
:100060007F0200087F0200087F0200087F0200086C
:100070007F0200087F0200087F0200087F0200085C
:100080007F0200087F0200087F0200087F0200084C
:10009000010500080D0500087F0200087F02000826
:1000A0007F0200087F0200087F0200087F0200082C
:1000B0007F0200087F0200087F02000861400008FC
:1000C000554000087F0200087F0200087F020008F8
:1000D0007F0200087F0200087F0200087F020008FC
:1000E0007F0200087F0200087F0200087F020008EC
:1000F0007F020008B14800087F02000831050008AF
:100100007F0200087F0200087F0200087F020008CB
:10011000094A0008154A00087F0200087F0200080B
:100120007F0200087F0200087F0200087F020008AB
:100130007F02000800000000000000007F020008AD
:1001400019050008250500087F0200087F02000845
:100150007F0200087F0200087F0200087F0200087B
:100160007F0200087F0200087F0200087F0200086B
:100170007F0200087F0200087F02000800000000E4
:10018000000000007F0200080000000000000000E6
:100190007F02000800000000000000007F0200084D
:1001A0000000000000000000000000007F020008C6
:1001B0007F0200087F0200087F0200087F0200081B
:1001C0007F02000800F002F800F03CF80AA090E876
:1001D000000C82448344AAF10107DA4501D100F002
:1001E00031F8AFF2090EBAE80F0013F0010F18BF93
:1001F000FB1A43F0010318476056000080560000C8
:10020000103A24BF78C878C1FAD8520724BF30C842
:1002100030C144BF04680C60704700000023002414
:1002200000250026103A28BF78C1FBD8520728BF06
:1002300030C148BF0B6070471FB505F0EAFA1FBD1B
:1002400010B510BD00F024F91146FFF7F5FF04F0DA
:10025000E3FC00F042F903B4FFF7F2FF03BC00F047
:1002600045F900000948804709480047FEE7FEE7D6
:10027000FEE7FEE7FEE7FEE7FEE7FEE7FEE7FEE756
:1002800004480549054A064B704700009D48000890
:10029000C501000868060020680C002068080020DE
:1002A0006808002053EA020C00F069802DE9F04B49
:1002B0004FF00006002B1FBFB3FA83F503FA05F4D5
:1002C00024FA05F65E4012BF1643B2FA82F502FA2E
:1002D00005F4C5F120051EBF22FA05FC44EA0C0412
:1002E000203556EA044C4FEA144418BF641C4FF002
:1002F00000084FF00009904271EB030C39D300293C
:1003000019BFB1FA81F701FA07F6B0FA80F700FADF
:1003100007F6C7F120071EBF20FA07FC46EA0C06C5
:100320002037B6FBF4FCA7EB0507103F07F01F0BC7
:10033000CBF120062CFA06F60CFA0BFB44BFB346B1
:100340000026202FA4BF5E464FF0000B5BEA060C90
:1003500008BF4FF0010B19EB0B0948EB0608ABFB8C
:10036000027C06FB02CC0BFB03CCC01B71EB0C0127
:10037000C1E70B46024641464846BDE8F08B13B53F
:10038000084318BF4FF0FF300146AFF30080BDE8CF
:100390001C407047032A40F2308010F0030C00F03C
:1003A000158011F8013BBCF1020F624498BF11F8AF
:1003B00001CB00F8013B38BF11F8013BA2F1040268
:1003C00098BF00F801CB38BF00F8013B11F00303E0
:1003D00000F02580083AC0F0088051F8043B083A44
:1003E00051F804CBA0E80810F5E7121D5CBF51F8E6
:1003F000043B40F8043BAFF30080D20724BF11F860
:10040000013B11F801CB48BF11F8012B24BF00F8C4
:10041000013B00F801CB48BF00F8012B704710B535
:10042000203AC0F00B80B1E81850A0E81850B1E8AD
:100430001850A0E81850203ABFF4F5AF5FEA027CEC
:1004400024BFB1E81850A0E8185044BF18C918C01C
:10045000BDE810405FEA827C24BF51F8043B40F8BD
:10046000043B08BF7047D20728BF31F8023B48BFA2
:1004700011F8012B28BF20F8023B48BF00F8012BE0
:1004800070477047704770470048704778000020F9
:100490007546FFF7F9FFAE4605006946534620F062
:1004A0000700854618B020B5FFF7EAFEBDE82040FA
:1004B0004FF000064FF000074FF000084FF0000B20
:1004C000AC46ACE8C009ACE8C009ACE8C009ACE88F
:1004D000C00921F007018D46704710B50446AFF3FF
:1004E00000802046BDE81040FFF7B5BE0149182046
:1004F000ABBEFEE72600020070470000FEE70000EA
:1005000040F29C40C2F2000000F05CBC40F29C4013
:10051000C2F2000000F056BC40F26030C2F20000AF
:1005200000F050BC40F26030C2F2000000F04ABC63
:1005300040F2C440C2F2000001F004B9704700006C
:100540002DE9F04F83B05E181C46814641EA401009
:10055000202E28BFC1F120041FFA84FB9246CDE96A
:10056000002B82B240F224501D464FF47A77C2F23B
:100570000000AE210223029702F0DEF90020B0EB6A
:10058000561F22D076092F1B4FF47A7509F1010905
:10059000B9B23C464FEA4910202928BF20241AFA54
:1005A0008BF1A2B2CDE9001282B240F22450C2F225
:1005B0000000AE2102231FFA8BF8029502F0BCF96D
:1005C0003F1B013E18FA84FBE0D103B0BDE8F08F79
:1005D00082B040F21C3040F2482940F2D018C2F2FA
:1005E000000040F2D80A4FF0000BC2F200090421CB
:1005F000C2F2000800F14404C2F2000A002000BF69
:1006000001904E462E2046F84C0F45464FF00040D4
:1006100045F8700FA5F15007C6E903B120463146F1
:100620002A463B4686F814B0C6E901BB00F06CFAD6
:10063000012001F019FADAF8240031460130CAF835
:10064000240020462A463B4600F05EFA012001F0D5
:100650000BFADAF8240031460130CAF824002046AB
:100660002A463B4600F050FA012001F0FDF9DAF885
:10067000240031460130CAF824004FF00040C5E99B
:10068000000B4E20C6E9000B0420306120462A46AC
:100690003B4686F814B0C6E902BB00F035FA0120EB
:1006A00001F0E2F9DAF8240031460130CAF82400FA
:1006B00020462A463B4600F027FA012001F0D4F9F3
:1006C000DAF8240031460130CAF8240020462A46D0
:1006D0003B4600F019FA012001F0C6F9DAF82400CF
:1006E00031460130CAF824004FF00040C5E9000B44
:1006F0006E20C6E9000B0420306120462A463B46A6
:1007000086F814B0C6E902BB00F0FEF9012001F042
:10071000ABF9DAF8240031460130CAF8240020464B
:100720002A463B4600F0F0F9012001F09DF9DAF885
:10073000240031460130CAF8240020462A463B46B0
:1007400000F0E2F9012001F08FF9DAF824003146D7
:100750000130CAF824004FF00040C5E9000B8E209C
:10076000C6E9000B0420306120462A463B4686F845
:1007700014B0C6E902BB00F0C7F9012001F074F91A
:10078000DAF8240031460130CAF8240020462A460F
:100790003B4600F0B9F9012001F066F9DAF82400CF
:1007A00031460130CAF8240020462A463B4600F074
:1007B000ABF9012001F058F9DAF82400AD27013037
:1007C000CAF82400C5E900BB4E46454646F84C7FB2
:1007D00045F870BF86F814B0C6E901BBC6F80CB086
:1007E0000420CB46C146A5F1500830612046314671
:1007F0002A46434600F088F9012001F035F9DAF87D
:10080000240031460130CAF8240020462A464346D7
:1008100000F07AF9012001F027F9DAF824003146D6
:100820000130CAF8240020462A464346C846D94625
:100830004FF0000B00F068F9012001F015F9DAF82B
:10084000240020370130CAF8240040F2AD2087424E
:10085000C5F800B0C5F804B0B6D101980421042849
:1008600000F10100FFF4CCAE72B64FF0000B00BFF8
:1008700040F2D01540F24826C2F200054FF0004881
:10088000C2F200062E2045F8708F46F84C0FA5F1F5
:1008900050074FF00409204631462A463B4686F869
:1008A00014B0C6E901BBC6F80CB0C6F8109000F051
:1008B0002BF9012001F0D8F8DAF824003146013094
:1008C000CAF8240020462A463B4600F01DF90120C4
:1008D00001F0CAF8DAF8240031460130CAF82400E1
:1008E00020462A463B4600F00FF9012001F0BCF8F3
:1008F000DAF8240031460130CAF824004E20C6E957
:10090000000B20462A463B4686F814B0C5E9008B0A
:10091000C6E902BBC6F8109000F0F6F8012001F01D
:10092000A3F8DAF8240031460130CAF82400204642
:100930002A463B4600F0E8F8012001F095F8DAF885
:10094000240031460130CAF8240020462A463B469E
:1009500000F0DAF8012001F087F8DAF824003146D7
:100960000130CAF824006E20C6E9000B20462A4652
:100970003B4686F814B0C5E9008BC6E902BBC6F851
:10098000109000F0C1F8012001F06EF8DAF82400B0
:1009900031460130CAF8240020462A463B4600F082
:1009A000B3F8012001F060F8DAF824003146013094
:1009B000CAF8240020462A463B4600F0A5F801204C
:1009C00001F052F8DAF8240031460130CAF8240068
:1009D0008E20C6E9000B20462A463B4686F814B016
:1009E000C5E9008BC6E902BB4FF00408C6F81090B9
:1009F00000F08AF8012001F037F8DAF824003146D7
:100A00000130CAF8240020462A463B4600F07CF814
:100A1000012001F029F8DAF8240031460130CAF843
:100A2000240020462A463B4600F06EF8012001F0E3
:100A30001BF8DAF824004FF0AD090130CAF82400A1
:100A4000C5E900BB40F2D01540F24826C2F20005CD
:100A5000C2F2000645F870BF46F84C9FA5F150075A
:100A6000204631462A463B4686F814B0C6E901BB0B
:100A7000C6E903B800F048F8012000F0F5FFDAF805
:100A8000240031460130CAF8240020462A463B465D
:100A900000F03AF8012000F0E7FFDAF824003146D0
:100AA0000130CAF8240020462A463B4600F02CF8C4
:100AB000012000F0D9FFDAF8240009F12009013003
:100AC000CAF8240040F2AD208145C5F800B0C5F851
:100AD00004B0B7D1CCE6000090F82020013A012AFA
:100AE00008D8006800F1140200201368194311604F
:100AF000704700BF00F1240201204FF480211368E9
:100B0000194311607047000010B590F820E0D0F84C
:100B100000C0AEF1010EBEF1010FDCF808E00FD805
:100B20001EF0E05F16D0CEF3016E012000FA0EF049
:100B300018608B68C3B1486843EAC00316E000BF81
:100B400000F1240101204FF480220B681A430A604F
:100B500010BD00BF00F1240101204FF400120B680A
:100B60001A430A6010BD00BF08684305D1E90304B9
:100B700003430CEB0E10C0F88031C0F88441097DAE
:100B8000012905D100F5C2710B6843F480730B6035
:100B90005168C0F88C11126800F5C071C0F8882146
:100BA000002001220B681A430A6010BDB0B590F80E
:100BB0002020013A012A2FD846F20060C4F200003A
:100BC000026842F001020260026822F47C52026074
:100BD000D1F814E0CC694A6A0368012C43EA022286
:100BE00002600EF01F024FF0010303FA02F2C36924
:100BF0006FEA020C23EA0203C36113D02CBBC36863
:100C000003EA0C03C360CB688C8844EA034300EB1F
:100C1000CE0423640B4611E0416A41F48021416215
:100C20000120B0BDC3681343C3600B688C8844EADD
:100C3000034300EBCE04236401F10C038C681B8892
:100C400043EA044300EBCE04636443688D6943EADE
:100C50000204D1F810E0096A002D08BF03EA0C0471
:100C600044604369BEF1000F43EA020408BF03EA8F
:100C70000C040129446102D1C1691143C1610168B9
:100C800021F0010101600020B0BD000070470000AC
:100C900010B590F82040013C012C7BD8D0F800C062
:100CA000002900F08180DCF81040A40700F081806A
:100CB0000CEB011CDCF8B0410CF5D87E14F00404F8
:100CC0009460DCF8B04119BFE4085460640D14600E
:100CD000DEF800400CF5DA7E04F00204D460DCF8A3
:100CE000B44124075ABFDEF8004004F00F04082482
:100CF0001461DEF800400029C4F307249461DEF893
:100D000000404FEA14445461DCF8B8211A700268BC
:100D100002EB0112D2F8B8214FEA12225A7002688F
:100D200002EB0112D2F8B8214FEA12429A7002681F
:100D300002EB0112D2F8B8214FEA1262DA700268AF
:100D400002EB0112D2F8BC211A71026802EB011207
:100D5000D2F8BC214FEA12225A71026802EB01124A
:100D6000D2F8BC214FEA12429A71026802EB0112DA
:100D7000D2F8BC214FEA1262DA71006814BF00F1A8
:100D8000100100F10C01002020220B681A430A60B8
:100D900010BD00BF00F1240101204FF480220B6838
:100DA0001A430A6010BD00BFDCF80C40A4077FF4B2
:100DB0007FAF00F1240101204FF400120B681A43A9
:100DC0000A6010BD2DE9F04F81B004460068466905
:100DD000D0F804908768D0F80CB0D0F810A0D0F804
:100DE0001880F10704D1002530071DD424E000BF8E
:100DF000F90710D00121BA07816009D4780700F102
:100E0000AF80380700F1B680204600F02DFC02E0EC
:100E1000204600F02BFC0025F80500F18780F80340
:100E200000F1B180300707D51BF0100004D0206816
:100E300045F400751021C160700708D51BF008004B
:100E400005D020680821C160204600F0FFF9B007F6
:100E500006D52068C068800702D0204600F0F8F967
:100E6000700607D51AF0100004D0206845F480659C
:100E700010210161B00608D51AF0080005D02068DD
:100E800008210161204600F0E5F9F00606D520684A
:100E90000069800702D0204600F0DEF9B00308D5D3
:100EA00019F0100005D0206810214160204600F0A4
:100EB000ABFBF00308D519F0080005D02068082125
:100EC0004160204600F0DCFB300440F19B805FEA8B
:100ED000497040F1948006F4807008EA102028439D
:100EE0005FEA8871014648BF41F00201B20558BF70
:100EF00001465FEA48700D4648BF45F0040570059D
:100F000058BF0D46300540F17A8018F0700000F0AF
:100F100076801038000905286CD8DFE800F0035906
:100F20005D61656945F0080564E000BF20684FF425
:100F30008071BA0581600BD4780515D438051DD4AD
:100F4000204600F095FBF8037FF56CAF1BE000BF77
:100F5000204600F08FFBF8037FF564AF13E000BF7D
:100F60004FF4006558E700BF05F50055F8037FF51D
:100F700059AF08E04FF480554EE700BF05F58045B6
:100F8000F8037FF54FAF20684FF48031BA038160DA
:100F90000AD4780310D4380314D4204600F06CFB34
:100FA00030073FF541AF47E7204600F067FB3007C9
:100FB0003FF53AAF40E700BF05F5004530073FF584
:100FC00033AF39E705F5803530073FF52DAF33E70F
:100FD00045F010050EE000BF45F020050AE000BF17
:100FE00045F0400506E000BF45F0800502E000BF87
:100FF00045F480752068816921F070018161206865
:101000000421416055B1606A40EA050120466162F1
:1010100001B0BDE8F04FFFF739BE00BF01B0BDE839
:10102000F08F0000B0B5C8B1044690F8200010B9A8
:10103000204600F071F82068016841F0010101606C
:1010400000F00AFE054600BF20684168C90707D1C5
:1010500000F002FE401B0B28F6D312E00120B0BDC9
:10106000016821F00201016000F0F6FD054600BFB5
:101070002068416889070DD500F0EEFD401B0B2864
:10108000F6D3606A052140F400306062012084F8E4
:101090002010B0BD217E0268012922F0800208BF25
:1010A00080320260617E0268012922F0400208BF9E
:1010B00040320260A17E0268012922F0200208BFAE
:1010C00020320260E17E0268012922F0100218BF7E
:1010D00010320260217F0268012922F0080208BF55
:1010E00008320260617F0268012922F0040208BF11
:1010F00004320260D4E901C2D4E9033561691A43BC
:101100002A431143ACF101021143C16100200121C6
:10111000606284F82010B0BDB0B586B0006846F6B5
:101120000002C4F2000200219042CDE90411CDE991
:101130000211019134D046F20041C4F2000188420C
:1011400040F0828040F24841C2F200010A6843F652
:101150004000C4F20200531C0B6052B90021009100
:10116000016841F000710160016801F000710091B7
:1011700000990021009150F8101C152441F0010144
:1011800040F8101C50F8100C142500F001000090DD
:1011900000984FF4C05001900020C4F2020038E0E3
:1011A00043F64000C4F202000091016841F0806102
:1011B0000160016801F080610091009940F24841AE
:1011C000C2F200010A68531C0B6052B90021009161
:1011D000016841F000710160016801F00071009147
:1011E00000990021009150F8101C412441F00201A7
:1011F00040F8101C50F8100C402500F00200009040
:1012000000984FF4405001900020C4F2020000F515
:1012100080600221029100210391032104910921A0
:10122000059101A900F034FC28460021002201F0BC
:10123000FBFD284601F0E8FD20460021002201F0D8
:10124000F3FD204601F0E0FD06B0B0BD70470000A0
:1012500070470000704700002DE9F04740F2AC25D0
:1012600040F24829C2F20005C2F2000901212A46D3
:101270004B46FFF70DFD296840F2D804C2F2000486
:10128000C1F343024D0901F01F00E27301F00102B6
:10129000023907296570A070227465D8DFE811F063
:1012A00008001C005000F400640064002C017A0067
:1012B000B9F8000000BA000C00EE100A208BB8EE5E
:1012C000400A0130208399F81A0084ED100A013099
:1012D00089F81A00BDE8F087D9E900019FEDC61A28
:1012E00000BA00EE100A30EE010A9FEDC42A9FED0D
:1012F000C43AB4EE410A9FEDC31AA06440F2000064
:1013000030EE022A30EE033AF1EE10FAB4EE410A62
:10131000B8BFB0EE430AC2F2000009BAF1EE10FA0B
:10132000C8BFB0EE420A4164E18A80ED0C0A481C55
:1013300099F81910E082481C89F81900BDE8F08777
:10134000B9F8000000BA000C00EE100A608BB8EE8D
:10135000400A0130608399F81C0084ED110A0130C5
:1013600089F81C00BDE8F08709286DD0012818BF56
:10137000BDE8F08740F21C31E8B2C2F200010A5C1D
:1013800001320A5499F8040059FA85F181F82200D3
:10139000BDE8F087B9F80000E18B00BA000C01311C
:1013A00000EE100AE18340F2000199F82120B8EE26
:1013B000400AC2F2000181ED060A511C89F8211091
:1013C00003F015FF40F2D01AC2F2000A0446DAF820
:1013D00018000E4604F082F902460B4620463146BC
:1013E00004F08EF89FED780B074653EC102B0C465B
:1013F00003F0F6FD9FED760B80460E4653EC102B66
:101400003846214604F0A3F99FED730B002804BF72
:101410002646B84653EC102B4046314603F0E0FD1B
:101420009FED6F0B04460F4653EC102B40463146A0
:1014300004F0A2F9002804BF374644462046394646
:1014400003F09CFDCAF80800D9E9001040F24C43B3
:10145000EAB2C2F20003C9F8080043F8220040F2E1
:10146000F830C2F2000000EE101A40F82210BDEE73
:10147000C00A40F2883110EE100AC2F2000121F8D1
:101480001200BDE8F08700BFB9F90000B9F90260A9
:10149000B9F9048003F094FE9FED530B55EC107BDB
:1014A0003A462B4603F02EFF03F068FD40F2000A97
:1014B000C2F2000ACAF82800304603F081FE3A461C
:1014C0002B4603F01FFF03F059FDCAF840004046C9
:1014D00003F076FE3A462B4603F014FF03F04EFD70
:1014E000A18BCAF82C00481C99F81B10A083481C3B
:1014F00089F81B00BDE8F087B9F800009FED3C1AA1
:1015000000BA000C00EE100A208CB8EE400A013040
:10151000208499F8200020EE010A01309FED351A51
:1015200089F8200040F2000020EE010AC2F200001B
:1015300080ED070A10EE100A04F0D0F840F2D0183F
:10154000C2F200080446D8F81C000D4604F0C6F8A4
:1015500002460B462046294603F0D2FF9FED1A0BA8
:10156000064653EC102B0F4603F03AFD9FED180B87
:1015700004460D4653EC102B3046394604F0E7F88C
:101580009FED150B002804BF3D46344653EC102B4D
:101590002046294603F024FD9FED110B06460F4619
:1015A00053EC102B2046294604F0E6F8002804BF2F
:1015B0002F4626463046394603F0E0FCC8F80C00BA
:1015C000BDE8F08700BF00BF00000000008086C0BB
:1015D000000000000080764000000000008086408F
:1015E00000000000007076C0000000000000B03F66
:1015F0000000803900003444000034C30000B4C34C
:101600000000B4430000344370470000B0B5044606
:1016100090F8200001281DD1022084F820002068C5
:10162000016821F00101016000F016FB054600BFD2
:1016300020684068C00713D000F00EFB401B0B2849
:10164000F6D3606A40F400306062052084F8200020
:101650000120B0BD606A40F4002060620120B0BD8E
:1016600000206062B0BD00007047000070470000BD
:10167000704700007047000070470000704700008E
:101680007047000070B5866D044600F0E5FA94F8E6
:10169000351002292ED105462068216C026822F0FF
:1016A00016020260426922F08002426109B9A16C0F
:1016B00019B1016821F008010160016821F0010100
:1016C00001600068C00708D000F0C6FA401B05287A
:1016D00018D820680068C007F6D1E06D3F2101FAF4
:1016E00000F0B060012084F835000020002184F86B
:1016F000341070BD802060650120002184F8341012
:1017000070BD00BF20206065032084F835000021F3
:1017100084F8341070BD000090F83510022909D10A
:10172000052180F835100068016821F00101016091
:1017300000207047802141650120704790F83500F6
:1017400070470000F0B581B004460020009040F2E0
:101750007000C2F200000268D4E9166048F2B513C6
:1017600037680821C1F64E3381403942A2FB032578
:101770000CD0226813685B0708D5136823F00403B4
:101780001360B160616D41F001016165012181402B
:10179000394208D022685269120604D5B160616DE1
:1017A00041F00201616504218140394208D022687C
:1017B0001268920704D5B160616D41F00401616562
:1017C00010218140394217D020680268120713D5D2
:1017D000B16002680168520308D4C90508D40168E1
:1017E00021F008010160216C21B905E0080343D410
:1017F000216C09B120468847E16D202000FA01F2F2
:101800003A4245D020680368DB0641D5B26094F8BF
:1018100035300268052B1FD122F0160202604269A2
:1018200022F080024261226C0AB9A26C1AB10268ED
:1018300022F0080202603F208840B060012084F856
:101840003500216D0020002984F8340058D020464E
:10185000884701B0F0BD00BF0168520310D4C9052C
:1018600012D4016821F010010160012084F83500D4
:10187000002084F8340007E0A16C0029BAD1BBE74E
:10188000080301D4616C00E0E16B09B12046884790
:10189000606DA8B3606DC0072ED0052084F83500B8
:1018A0002068A90A026822F001020260009A01324F
:1018B0008A4200921AD80268D20717D0009A0132E1
:1018C0008A42009212D80268D2070FD0009A0132E1
:1018D0008A4200920AD80268D20707D0009A0132E1
:1018E0008A42009202D80268D207DFD1012084F830
:1018F0003500002084F83400E16C09B120468847A7
:1019000001B0F0BD2DE9F041044600F0A5F9002C2E
:101910004ED00546022084F835000020216884F866
:101920003400086820F0010008600868C00708D08B
:1019300000F092F9401B05286CD821680868C007A0
:10194000F6D1086848F23F02CFF21002D4E901351F
:10195000024004F10C0E9EE8C1511A432A43104381
:101960003043384340EA0800626A40EA0C00042A27
:1019700040EA0E0320D1D4E90A5E206B4EEA03024E
:10198000104308604869BEF1000F20F0030040EAF0
:10199000050040F0040C15D0B8F5005F42D0B8F156
:1019A000000F51D1022D52D0012D47D055B94EE034
:1019B0000120BDE8F08100BF0B60486920F00700FE
:1019C00040EA020C6FF00F004AF6AB2250FA81F0A9
:1019D000CAF6AA22A0FB02231A0945F64E03C0F656
:1019E00000039A5C40F2FF335F284FF03F00C1F8DC
:1019F00014C021EA030100FA02F088BF0431C4E9EF
:101A000016128860002301220020636584F83520C7
:101A1000BDE8F081032220230320636584F835208C
:101A2000BDE8F081032DCDD8012240230120DFE85D
:101A300005F0030E030500BFE7E700BFAEF1C0707D
:101A4000B0FA80F0400904E0032D04D3BAD1CEF3FC
:101A500000600028B6D0012240230120636584F88D
:101A60003520BDE8F0810000B0B5044600F0F4F880
:101A7000054640F26800C2F200000078611C18BF01
:101A8000044400BF00F0E8F8401BA042FAD3B0BD08
:101A90002DE9F04F82B000F13E4241F6000502F11F
:101AA000FF77C4F2020507224FEAB726A84208BF13
:101AB0000622062E38BF4FEAB7224FF0010A002453
:101AC00000274FF00008009208E000BF023708F13D
:101AD0000108202F04F1040400F0B4800E680AFA13
:101AE00008F916EA090FF1D0D1F804A00AF0030BA7
:101AF000ABF10106012E17D80322866802FA07FE11
:101B0000CA6826EA0E06BA40324382604268CAF3C7
:101B1000001522EA090205FA08F54FEA480C6FEAB7
:101B20000E062A4342600BE00322BA40D643BBF1C3
:101B3000030FBC4604D1BC464FF0030B22E000BFAC
:101B4000C2688D68324005FA0CF52A43BBF1020FDA
:101B5000C26017D16FF0030202EA5802024404F097
:101B60001C030F25D2F820E005FA03FA0D692EEACE
:101B70000A0E05FA03F343EA0E031362D1F804A038
:101B80000AF0030B02680BFA0CF332401A431AF402
:101B9000403F4FF0010A026098D0002243F6440310
:101BA0000192C4F202031A6843F6004E42F48042E6
:101BB0001A601A68C4F2010E02F480420192019A7E
:101BC00028F003024FF6084C7244CFF6FF7C52F81F
:101BD0000C3004F00C060F25B540AB43009D05FA10
:101BE00006F6334342F80C30DEF808204B6842EA30
:101BF000090643F60C4CDD0258BF22EA0906CEF86E
:101C00000860C4F2010CDCF800209D0242EA0906DB
:101C100058BF22EA0906CCF80060DEF804209D03D4
:101C200042EA090658BF22EA0906CEF80460DEF847
:101C30000020DB0342EA090658BF22EA0906CEF873
:101C4000006043E702B0BDE8F08F0000002A08BF43
:101C5000090481617047000040F26060C2F2000038
:101C6000006870477047000070470000F0B581B011
:101C7000044600684769426894F83E1002F4807692
:101C80003E420FBF00256FF4807242610125BA0504
:101C900005D5002E1EBF02356FF4007242617A0531
:101CA00016D5AEB1628D94F83D30D4F830C02029FD
:101CB00008BF002A24D06FF48062402905F1040592
:101CC000426101D0102903D1016841F40071016023
:101CD000380507D536B1206808356FF400614161D9
:101CE00001E000BF55B1206C40EA050120462164A7
:101CF00001B0BDE8F04002F047BA00BF01B0F0BD4E
:101D000043F00801292909D0282B08BFBCF1210F75
:101D100004D06FF4806141610435D9E794F83D1037
:101D2000E26A202A01D0082A1ED121291ED02829A2
:101D30003CD10021CFF6FF71E162416821F4E061FE
:101D400041606FF480614161016821F4806101604C
:101D500000202021206384F83D1084F83E002046B6
:101D600000F0E0FDB4E700BF21291FD10021CFF62C
:101D7000FF71E16221212163202184F83D100021BF
:101D800084F83E10426822F4E06242606FF48062A0
:101D90004261026822F4806202604269120648BF12
:101DA0000161204600F0C4FF92E700BF6FF480613C
:101DB00041618DE72DE9F04182B0D0F80080044602
:101DC000C4465CF8043FC06A94F83E5094F83D2045
:101DD000402D01D0102D21D1D8F81860D8F814105A
:101DE000CF0765D1B0F12A4F00F0DA83B0F52A0FA2
:101DF00000F0D68313F400704FF0010787EA502EED
:101E000018BF11F0080057D0606B616C0028C9B290
:101E1000C8F8101040F0078107E100BF206C0028CF
:101E20000CBFD8F818500025D8F8141013F4007619
:101E300018BF11F0020040F0A980002E18BF11F069
:101E4000100040F00F8142F00800292840F09A81EC
:101E5000580540F1C18101F08400802840F0BC8128
:101E600094F83D00618D002900F09A83616A292869
:101E700011F8012BC8F810206162618DA1F10101F8
:101E80006185618D08BF002940F08A83DCF800007D
:101E9000282120F48060CCF8000021202063204617
:101EA00084F83D1002B0BDE8F04100F041BF00BF32
:101EB000980533D44FF0010EBEF1000F34D111F06C
:101EC000020031D094F83E00E26A216B94F83D3074
:101ED000222B40F0BB804028236D08BF002B00F070
:101EE000B580206D002840F099812069B0F5404F01
:101EF00040F0948100200190D8F814000190D8F8A7
:101F0000180001900198D8F8000040F48070C8F8DB
:101F10000000206D013000F0DABB00BFE06AB0F5D0
:101F20002A0F57D101205AE0DCF80000760700F4B0
:101F3000006000F1DD80002840F03283580540F158
:101F4000AB8101F04400402840F0A68194F83D00A8
:101F5000222840F02583E26A608D0428C0F0928236
:101F6000D8F81000616A0870606A01306062608DA4
:101F700001386085608D032840F012832068416835
:101F800021F48061416002B0BDE8F081206C00283E
:101F900018BFD8F8185094F83D0000F02800282801
:101FA00040F0E280DCF80000002320F48060CCF8F0
:101FB0000000012020EA950128064FF0180058BFC4
:101FC0000C20225A204684F83C3002B0BDE8F04193
:101FD000FFF74ABEE06AB0F12A4F01D10820E06263
:101FE00094F83E0040280DD1206D616C002801F06E
:101FF000FE0018BF40F00100C8F8100002B0BDE8B4
:10200000F08100BF2069B0F5804F40F0F58094F872
:102010003D00616C212801F0FE0118BF0131C8F8B4
:102020001010606B08B1C06B38B9A06B002800F0CD
:10203000B782C06B002800F0B382DCF8000040F4E7
:102040000060CCF8000002B0BDE8F08100200190F3
:10205000D8F814000190D8F818000190019802B047
:10206000BDE8F08194F83D50D8F8040020F4E06019
:10207000C8F8040000200190D8F814000190D8F8A6
:10208000000040F00100C8F800000198D8F80000F6
:1020900020F48060C8F80000D8F80400000540F182
:1020A0005D8145F008002A2840F03881A06B016866
:1020B00049686185618D19B1216C41F00401216489
:1020C000DCF8001021F40061CCF80010FFF736FBBB
:1020D000012800F04381A06B44F26D01C0F60001BD
:1020E0000165FFF719FB002800F03881A06B33E190
:1020F000002840F05582580540F1F08001F084003E
:10210000802840F0EB8094F83D2094F83E00E16A8E
:10211000212A40F09B81238D002B40F0978111F5FF
:10212000803F18BF082940F05F82D8F804002021C2
:1021300020F4E060C8F80400D8F8000040F4007013
:10214000C8F800000020206384F83D1094F83E1089
:1021500084F83E004029204640F0588202B0BDE895
:10216000F04100F0E7BB00BF00200190D8F8141048
:102170000191D8F818100191019984F83C0002B03F
:10218000BDE8F08158056BD501F04400402867D1C7
:1021900094F83D00618D002900F00282D8F81010FB
:1021A000626A2A281170616A01F101016162618D20
:1021B000A1F101016185618D08BF002940F0F08126
:1021C0002068416821F48061416022202821206339
:1021D000204684F83D1021E1002E18BF11F00400C4
:1021E00000F0DE81608D002800F0DA81606A10F86E
:1021F000011BC8F8101069E0206D002842D0206D46
:10220000012840F0CD81606C062101EAD010F13048
:10221000C8F8100002B0BDE8F08100BF608D70B159
:10222000608D012840F00081202A18BF082A40F064
:10223000C581D8F8000020F48060C8F800000020B4
:102240000190D8F814000190D8F818000190019876
:10225000D8F8000040F40070C8F8000036E200BF73
:10226000002E18BF11F0040000F09A81608D002844
:1022700000F09681D8F81000616A0870606A013039
:1022800024E000BF606C062101EAD010F030C8F8ED
:10229000100002B0BDE8F08101F00400012181EAE4
:1022A000900050EA0E0040F07B81E26A608D0428C5
:1022B00040F05881D8F8040020F48060C8F8040089
:1022C000D8F81000616A0870606A01306062608D41
:1022D0000138608502B0BDE8F08100BF01F0040064
:1022E000012181EA900050EA0E0040F05981212A34
:1022F00040F04E81E06A94F83D10212940F0508171
:10230000618D00297FF472AF10F5803F18BF082857
:102310003FF40BAF20283FF408AF68E1606B016821
:1023200049686185618D19B1216C41F00401216416
:10233000DCF8001021F40061CCF80010FFF7FEF982
:1023400001280BD0606B44F26D01C0F600010165FD
:10235000FFF7E2F910B1606B016D8847608D60B1E5
:1023600020684169490731D4416949063BD4608DF1
:1023700018B1206C40F004002064206C30B120467D
:1023800002B0BDE8F04101F0FFBE00BF2A2D07D129
:1023900000202063282084F83D00204600F0C6FC81
:1023A00094F83D0028282BD10020CFF6FF70E06282
:1023B00000212020216384F83D00204684F83E104F
:1023C00002B0BDE8F04100F0ADBA00BF0069616A3B
:1023D0000870616A206801316162618D013961852F
:1023E00041694906C3D50069616A0870606A0130B5
:1023F0006062608D01386085608D0028B9D1BCE7CE
:10240000222D206B18BF222840F0CA8000212020F6
:10241000216384F83D00204684F83E1002B0BDE8F8
:10242000F04100F083BC00BF608D022820D1102A4B
:1024300000F22081012014219040C0F201010842E5
:1024400000F018814FF480601CE100BF212A04D005
:10245000222A08BF402840F0A380608D002800F0A9
:10246000A38094F83E00402800F09480BEE600BFB0
:10247000D8F8000040F48060C8F80000D8F80400E4
:1024800007E100BFE16A012800F28E80022900F016
:102490008B800020019040F27000C2F200000068C2
:1024A0004BF28951C008C1F2F841A0FB0101080AB2
:1024B00000EB8000019001980138019001980028FC
:1024C00000F00E81D8F80000800520D50198013871
:1024D00001900198002800F00381D8F800008005E1
:1024E00015D50198013801900198002800F0F88076
:1024F000D8F8000080050AD50198013801900198AC
:10250000002800F0ED80D8F800008005D3D4D8F87A
:10251000000020F48060C8F80000D8F8040020F41F
:10252000E060C8F80400D8F81000616A0870606ABA
:10253000002101306062608D01386085202084F8C0
:102540003D0094F83E0084F83E10402800F01681CB
:10255000082A4FF0000100F02081202A18BF122124
:102560001BE100BF608D032856D1DCF80000022A71
:1025700020F48060CCF800003FF4A2AE042A3FF4BF
:102580009FAED8F8000020F48060C8F8000097E6FD
:10259000402D05D1204602B0BDE8F04101F0B4BEA7
:1025A00002B0BDE8F08100BFDCF8000020F48060DC
:1025B000CCF8000002B0BDE8F08100BF12F5803F0A
:1025C00042D1D8F8000020F48060C8F80000D8F8A4
:1025D000040000057FF533AED8F8000020F48060D9
:1025E000C8F8000069E000BF20293FF49EADDCF888
:1025F0000000202120F4E060CCF8000011202063CE
:10260000002084F83E00204684F83D1002B0BDE86A
:10261000F04100F08BB900BF608D02287FF450AE0E
:10262000501E0F2800F28280DFE800F0087A807ADE
:10263000808080808080808080808008D8F8000042
:1026400020F4806076E000BF012A02D012293FF416
:10265000F0AD102AC0D8012014219040C0F2010131
:102660000842B9D0D8F8000040F48060C8F80000F3
:1026700023E000BFD8F8000020F48060C8F8000014
:102680004FF40060D8F800100843C8F80000DCF8E8
:102690000000000511D5501E1F281DD8012101FA88
:1026A00000F048F28101C8F20001084214D0DCF8C1
:1026B000000040F48050CCF8000000200190D8F8D1
:1026C00014000190D8F818000190019800202065AE
:1026D00002B0BDE8F08100BF12F5803FE7D0ECE723
:1026E000206C40F020002064D8F8040020F4E06062
:1026F000C8F80400D8F81000616A0870606A002108
:1027000001306062608D01386085202084F83D00D2
:10271000204684F83E1002B0BDE8F04100F044B815
:10272000D8F8000040F4806004E000BFD8F8000052
:1027300040F40070C8F80000D8F81000616A087012
:10274000606A2168431C6362638D013B638509698C
:102750004170606A216801306062608D0138608577
:10276000486820F440704860202084F83D0094F8C8
:102770003E000021402884F83E1007D12046216306
:1027800002B0BDE8F04100F0D3B800BF082A4FF016
:10279000000102D0202A18BF12212046216302B076
:1027A000BDE8F04100F0C0B87047000070B5B8B3A4
:1027B000044690F83D0028B9002084F83C002046EB
:1027C00000F06EFA242084F83D002068016821F0B2
:1027D00001010160016841F400410160016821F4D8
:1027E0000041016000F04AFC48F28041C0F21E0145
:1027F00040F60013D4F804E088424FF00001C0F224
:102800003D0348F2A16C4FF0000238BF012198420D
:10281000C0F2010C38BF0122E64538BF0A460AB1B2
:10282000012070BD4DF68361C4F21B31A0FB011283
:102830002168950C4B684FF4967623F03F0343EAEA
:102840009243754344F6D3564B60C1F262060B6A5D
:10285000A5FB0656B50923F03F03E64538BF950CA6
:102860006A1C1A430A62CA6948F2A0664CF6FF73F2
:10287000C0F20106B64522EA03020BD801384FEA3E
:102880004E03B0FBF3F001306FF31F30042898BF04
:1028900004201EE0A368013863B119230EFB03F383
:1028A000B0FBF3F001306FF31F3078B100F58040DA
:1028B00008E000BF0EEB4E03B0FBF3F001306FF306
:1028C0001F3028B100F5004003E000BF012000E008
:1028D00001201043C8610868D4E9072320F0C00034
:1028E000104318430860886848F2FF3204F10C0670
:1028F00090434CCE18431043A5698860C86820F007
:10290000FF0030432843C860086840F001000860B9
:1029100000202021206484F83D10206384F83E00CC
:1029200070BD000070470000704700007047000055
:1029300070470000704700002DE9F04383B09946CE
:1029400016460F460446FFF787F994F83D102029F4
:1029500020D10546206800BF8169890716D5FFF799
:102960007BF9411B20681A29F6D381698907F3D5C1
:1029700000202021206384F83D1084F83E00216C63
:1029800041F02001216484F83C0003E094F83C10FD
:10299000012903D1022003B0BDE8F083012284F8AD
:1029A0003C200368DDE90B180A9ADB0703D10368B2
:1029B00043F001030360036823F4006303602220F3
:1029C00084F83D00402084F83E00002020646262CC
:1029D0006185608D394620850020CFF6FF70E0626A
:1029E000204632464B46CDF80080019501F0ECFCC4
:1029F00020B1012003B0BDE8F08300BF208DA8B155
:102A000002282BD0012835D121680A6822F480627F
:102A10000A60002202924A6902928A690292029A2C
:102A20000A6842F400720A602CE000BF00200290A5
:102A3000206841690291816902910299016841F41B
:102A400000710160202084F83D00002084F83E00E1
:102A500084F83C0003B0BDE8F08300BF21680A6839
:102A600022F480620A600A6842F400620A6000226E
:102A7000029202E00021029121684A69029289696A
:102A80000291029908F101061EE000BF016841F4BD
:102A9000007101600069616A0870606A2268411C07
:102AA0006162218D01392185618D0139618511694D
:102AB0004170606A218D01306062481E2085618D01
:102AC000013961850104BDD080B2032810D80228E5
:102AD00032D0012854D1204641462A4601F0C6FD95
:102AE00000287FF486AF2068616A006921E000BF9A
:102AF000204641462A4601F0B9FD00287FF479AF0F
:102B00002068616A00690870606A2268411C208D33
:102B1000616201382085638D013B638553695B07E2
:102B2000D0D580B2032803D1106820F480601060F3
:102B300010690870BDE700BF206841694907A5D446
:102B4000002E7BD0B8F1000F0FD100BFFFF784F843
:102B500020684169490740F1918041694907F5D5ED
:102B600094E700BF4169490790D4FFF775F8411B0E
:102B700020684145F6D941694907F3D47EE000BF9A
:102B800020684169490728D4D6B1B8F1000F0CD1AB
:102B9000FFF762F82068416949076FD54169490725
:102BA000F6D51AE04169490717D4FFF755F8411BDC
:102BB00020684145F6D941694907F3D45EE000BF7A
:102BC0004169490709D4416949075CBF41695FEA26
:102BD000417102D441694907F2D5016821F480614D
:102BE00001600069616A0870606A218D01300139F5
:102BF000606221852068618D0139618541694907DD
:102C00003FF544AF56B3B8F1000F0DD1FFF724F8EC
:102C100020684169490731D541694907F6D535E74B
:102C2000416949073FF532AFFFF716F8411B2068AD
:102C30004145F5D941694907F2D41FE04169490787
:102C40003FF524AF416949075CBF41695FEA4171C3
:102C50003FF51CAF41694907F0D517E741694907BE
:102C60003FF514AF416949075CBF41695FEA4171B3
:102C70003FF50CAF41694907F0D507E70020202157
:102C8000206384F83D1084F83E00216C41F020015F
:102C9000216484F83C00012003B0BDE8F08300000B
:102CA000B0B586B0016845F20040C4F20000814230
:102CB00002D006B0B0BD00BF002443F63005019439
:102CC000C4F20205296800F5D83041F002012960FC
:102CD000296801F0020101910199C021019112219D
:102CE000CDE90214032104910421059101A9FEF705
:102CF000CFFE00942869002140F400102861286963
:102D0000002200F40010009000981F2000F08CF8C2
:102D10001F2000F079F820200021002200F084F824
:102D2000202000F071F806B0B0BD00007047000030
:102D30007047000040F2680040F26061C2F200009B
:102D4000C2F2000100780A68104408607047000071
:102D500080B543F60040C4F20200016841F40071FE
:102D60000160016841F480610160016841F4807193
:102D70000160032000F084F80F2000F005F800F057
:102D800027F8002080BD000070B540F26806C2F24E
:102D9000000640F270013278C2F200014FF47A73FB
:102DA0000968B3FBF2F20446B1FBF2F1084600F009
:102DB00051FC0F2C4FF0010508D838B94FF0FF3007
:102DC00021460022002500F02FF87460284670BDCF
:102DD00082B0002043F640010190C4F202014A682B
:102DE00042F480424A604A6802F480420192019AA9
:102DF0000090086840F080500860086800F080503B
:102E00000090009802B07047002848BF704700F05B
:102E10001F01012202FA01F14EF200124009CEF226
:102E2000000242F82010704710B54EF60C5CCEF24E
:102E3000000CDCF80030C3F3022E8EF00704042CE3
:102E400028BF0424BEF103034FF0FF3E0EFA04F442
:102E500038BF0023A14399400EFA03F39A4300F0D0
:102E60000F03043B1143634409010C3300F160423A
:102E7000B0F1FF3FC8BF02F56443197010BD0000F8
:102E80004EF60C51CEF200010A684FF6FF031A40CD
:102E900060F30A2242F0806040F0FD7008607047E5
:102EA00070B582B00020019043F64000C4F20200E9
:102EB0000168402641F0805101600068C4F20E268E
:102EC00000F080500190019847F204050120C4F2FF
:102ED00000053060FEF7C0FE044600BF2868C0034E
:102EE00006D4FEF7B9FE001BB0F57A7FF6D90EE0E6
:102EF00001207060FEF7B0FE044600BF2868800322
:102F000008D4FEF7A9FE001BB0F57A7FF6D903209E
:102F100002B070BD002002B070BD00002DE9F0418C
:102F2000002800F08B8043F60808C4F2020804462B
:102F3000D8F8F8030D4600F00F00884207D288F851
:102F4000F853D8F8F80300F00F00A84276D12068B3
:102F5000810717D5410705D5D8F8001041F4E05195
:102F6000C8F80010010705D5D8F8001041F46041F9
:102F7000C8F80010D8F80010A26821F0F001114341
:102F8000C8F80010C0073FD1D8F8F80300F00F00D0
:102F9000A84207D988F8F853D8F8F80300F00F00D2
:102FA000A8424BD12068410707D5D8F80010E26845
:102FB00021F4E0511143C8F80010000708D5D8F8F3
:102FC0000000216920F4604040EAC100C8F8000018
:102FD00000F07CF8D8F8001045F63602C1F3031172
:102FE000C0F60002515C40F2700220FA01F140F29A
:102FF0006C00C2F200000068C2F200021160FFF72C
:10300000C3FE0020BDE8F0816068811E022907D25E
:1030100058F8081C89015CBF0120BDE8F08111E06F
:10302000012807D158F8081C89035CBF0120BDE8BE
:10303000F08107E058F8081C890703D40120BDE897
:10304000F08100BFD8F8001021F003010843C8F850
:103050000000FEF701FE064641F28837D8F800006E
:10306000616800F00C00B0EB810F8DD0FEF7F4FD2D
:10307000801BB842F2D90320BDE8F08140F2700015
:1030800043F60801C2F20000C4F2020100680968B8
:1030900045F64602C1F38221C0F60002515CC840E9
:1030A0007047000040F2700043F60801C2F20000D1
:1030B000C4F202010068096845F64602C1F34231D4
:1030C000C0F60002515CC8407047000010B543F6DE
:1030D0000404C4F202046068C0F3810142F20040BB
:1030E000C0F2F400DFE801F04402081841F20020C9
:1030F000C0F27A0010BD00BF216801F03F022168D4
:1031000023684902C3F3881116D4A1FB00010023F0
:10311000FDF7C8F817E000BF216801F03F02216801
:1031200023684902C3F3881116D4A1FB00010023D0
:10313000FDF7B8F817E000BF41F20020C0F27A00B6
:103140004843B0FBF2F021680222C1F3014102EBD7
:103150004101B0FBF1F010BD41F20020C0F27A0055
:103160004843B0FBF2F02168C1F30271B0FBF1F00B
:1031700010BD00002DE9F04182B0002800F09680DB
:103180000446007843F60006C007C4F202062BD0BE
:10319000B06800F00C00042820D0B06800F00C00EB
:1031A000082802D17068400218D4B06800F00C0002
:1031B0000C2802D17068400210D46068B0F5803FDE
:1031C00007D0B0F5A02F40F03B81306840F480205C
:1031D0003060306840F4803030603BE1306880031C
:1031E00002D56068002861D02078800722D5B068B9
:1031F00010F00C0F11D0B06800F00C00082802D1BC
:103200007068400209D5B06800F00C000C2840F04E
:103210009F807068400200F19B803068800702D573
:10322000E068012842D13068216920F0F80040EAC6
:10323000C1003060207800073CD42078400751D48A
:10324000A5698DB3B06800F00C00082840F0A88094
:10325000012D2BD07068E16900F480028A4225D1EB
:10326000216A00F03F028A4220D147F6C071626AAB
:103270000140B1EB821F19D1A26A0023CFF6FF7380
:1032800003EBC23200F440316FF30F0291420DD1D3
:10329000E16A00F07062B2EB016F07D1216B00F0C0
:1032A000E040B0EB017F01D1002035E1012002B008
:1032B000BDE8F0816069002840F20000C4F24720B8
:1032C0005ED00121C0F8801EFEF7C6FC054600BF97
:1032D000706F8007B1D4FEF7BFFC401B0228F7D9FE
:1032E000C5E000BF306C10F080580AD1002001907A
:1032F000306C40F080503064306C00F080500190B1
:10330000019847F20007C4F200073868C00511D4DD
:10331000386840F480703860FEF79EFC054600BFB8
:103320003868C00506D4FEF797FC401B0228F7D981
:103330009DE000BFA068012805D0052852D1306F5C
:1033400040F004003067306F40F00100306753E018
:10335000E068002860D00020C4F24720012101600D
:10336000FEF77AFC054600BF306880073FF55BAF8B
:10337000FEF772FC401B02284FF00300F4D9CBE0AB
:103380000021C0F8801EFEF767FC0546706F8007BD
:103390007FF553AFFEF760FC401B0228F6D966E0CC
:1033A0000027C4F2472700203866FEF755FC022D9F
:1033B00005460BD1306880015ED5FEF74DFC401B01
:1033C00002284FF00300F5D9A6E000BF3068800165
:1033D0007FF56AAFFEF740FC401B02284FF0030068
:1033E000F4D999E0316F002821F001013167316F84
:1033F00021F00401316765D0FEF72EFC054641F24D
:10340000883700BF306F80076ED4FEF725FC401B65
:10341000B842F7D92BE000BF0020C4F247200021BA
:103420000160FEF719FC0546306880077FF502AFA2
:10343000FEF712FC401B02284FF00300F4D96BE0AA
:103440003168002821F480313160316821F4802115
:10345000316053D0FEF700FC054600BF30688003A2
:103460003FF5C2AEFEF7F8FB401B6428F6D90320F7
:1034700002B0BDE8F08100BF04F11C052FCD246B24
:1034800008430021CFF6FF7140EA821001EBC331FF
:103490006FF30F0140EA0560084340EA0470706072
:1034A00001203866FEF7D8FB044600BF3068800173
:1034B0003FF5FAAEFEF7D0FB001B02284FF00300E9
:1034C000F4D929E0FEF7C8FB054641F2883700BF72
:1034D000306F800708D5FEF7BFFB401BB8424FF0A6
:1034E0000300F5D918E000BFB8F1000F7FF4A8AED3
:1034F000306C20F080503064A2E600BFFEF7ACFBD9
:103500000546306880037FF56FAEFEF7A5FB401BD4
:1035100064284FF00300F4D902B0BDE8F081000048
:1035200070B558B1D0F824C00446BCF1000F07D0E4
:103530000021216104F1140108E000BF012070BDE9
:103540006168B1F5827F03D004F11C0100220A609A
:103550000025A56294F851104FF0000E41B92046A5
:1035600084F8505000F040F8D4E909C101F4005E3D
:10357000022284F85120D4E90023D4E9020116681C
:1035800003F4827326F04006166000F404401844E9
:10359000236901F40061084403F0020163690844EF
:1035A00003F00101A369E669084403F400710844CB
:1035B00006F03801266A084406F08001084340EA14
:1035C0000E001060042000EA13400CF010010844C3
:1035D0005060D06920F40060D0610120656584F8F6
:1035E0005100284670BD000080B586B0016843F2E6
:1035F0000000C4F20100814202D006B080BD00BFCD
:10360000002143F630020191C4F20202536900F531
:10361000504043F480535361536903F48053019342
:10362000019B0191136843F001031360126802F0DB
:1036300001020192019AE02201920222CDE90221C7
:10364000032104910521059101A9FEF721FA06B095
:1036500080BD0000411E0020B0EB116F1CBF012097
:1036600070474EF21002CEF2000251604EF6235126
:10367000CEF20001F0230B700721906011607047BB
:103680007047000070470000002804BF0120704709
:1036900010B5044690F83D0028B9002084F83C009D
:1036A000204600F01FF8022084F83D002068211D0C
:1036B00001F004F9012084F8460084F83E0084F803
:1036C0003F0084F8400084F8410084F8420084F808
:1036D000430084F8440084F8450084F83D0000204D
:1036E00010BD000080B582B0006842F20001C4F253
:1036F000000188421CBF02B080BD0020019043F64B
:103700004000C4F202000168002241F480710160AF
:103710000068002100F48070019001982D20FFF7CF
:1037200083FB2D2002B0BDE88040FFF76DBB000099
:1037300070470000B0B504460068C168026902EA3B
:103740000105A90720D4680734D428074AD4E8061D
:1037500060D4E80777D1280600F17F80680606D597
:1037600020686FF040010161204600F087F8A8064C
:1037700058BFB0BD21686FF0200220460A61BDE845
:10378000B040FFF77FBF00BF6FF002010161012170
:1037900021778069800703D02046FFF7C9FF05E045
:1037A000204600F065F8204600F064F800202077FD
:1037B0006807CAD520686FF00401016102212177F2
:1037C000806910F4407F03D02046FFF7B1FF05E089
:1037D000204600F04DF8204600F04CF800202077FD
:1037E0002807B4D520686FF0080101610421217712
:1037F000C069800704D02046FFF79AFF06E000BFAB
:10380000204600F035F8204600F034F800202077FC
:10381000E8069ED520686FF010010161082121772C
:10382000C06910F4407F03D02046FFF781FF05E018
:10383000204600F01DF8204600F01CF800202077FC
:10384000E8073FF488AF20686FF00101016120466E
:1038500000F012F828067FF581AF20686FF0800134
:1038600001612046FFF70CFF68067FF580AF77E720
:10387000704700007047000070470000704700006C
:103880007047000070470000B0B582B0056804467C
:103890002968EA68686901F02F03202B02F02003F1
:1038A00006D12BB1204602B0BDE8B04001F0BEB851
:1038B0005FEA017C1EBF00F0010E02F4907010EB75
:1038C0000E002FD1236B02EA0100C10618D5012B8F
:1038D00016D1002001902868019068680190019835
:1038E0006869400628D4A08DE18DE28D002A1CBFB6
:1038F000411A5FEA014040F0D78102B0B0BD00BF7D
:10390000010600F1D3804006F7D5E868202120F0B9
:103910004000E860204684F8411002B0BDE8B040A5
:1039200000F094BBC80718BF12F4807040F0D2803A
:10393000480700F1D580DAE0E06B01684A6893B28D
:10394000002BDAD0A18D8B42D7D2E285C069B0F5C9
:10395000807F00F0A08055E8030F216820F480707C
:1039600041E80302F2B1206850E8030F216820F417
:10397000807041E80302AAB1206850E8030F216873
:1039800020F4807041E8030262B1206850E8030F20
:10399000216820F4807041E803021AB1206850E8E1
:1039A000030FDAE7206850E8050F216820F00100D6
:1039B00041E80502BAB3206850E8050F216820F0FD
:1039C000010041E8050272B3206850E8050F216844
:1039D00020F0010041E805022AB3206850E8050FF5
:1039E000216820F0010041E80502002ADAD11AE03E
:1039F000206850E8050F216820F0400041E80502EA
:103A0000DAB1206850E8050F216820F0400041E855
:103A1000050292B1206850E8050F216820F04000AF
:103A200041E805024AB1206850E8050F216820F0FE
:103A3000400041E80502002ADAD1202084F8420043
:103A400000202063206850E8030F216820F0100058
:103A500041E80302DAB1206850E8030F216820F042
:103A6000100041E8030292B1206850E8030F21687A
:103A700020F0100041E803024AB1206850E8030F2B
:103A8000216820F0100041E80302002ADAD1E06B3F
:103A9000FDF7F8FDA18D02206063E08D081A81B268
:103AA000204602B0BDE8B040FFF7EABE94F84100FE
:103AB00021287FF422AFA068B0F5805F03D1206990
:103AC000002800F08981206A411C2162007868602A
:103AD00089E100BF606C40F001006064480706D5D2
:103AE000BEF1000F03D0606C40F0020060648807F4
:103AF00006D5BEF1000F03D0606C40F00400606496
:103B0000BCF1000F06D55EEA030003D0606C40F004
:103B100008006064606C00283FF4EFAE02EA010028
:103B2000800603D5204600F081FF25686869616C36
:103B300000F0400001F00801401800F0AD8055E8A9
:103B4000030F00BF216820F4907041E80302D2B354
:103B5000206850E8030F216820F4907041E80302C8
:103B60008AB3206850E8030F216820F4907041E880
:103B7000030242B3206850E8030F216820F49070DC
:103B800041E80302FAB1206850E8030FDAE700BF0A
:103B9000206850E8050F216820F0010041E8050287
:103BA000DAB1206850E8050F216820F0010041E8F3
:103BB000050292B1206850E8050F216820F001004D
:103BC00041E805024AB1206850E8050F216820F05D
:103BD000010041E80502002ADAD1206B012824D136
:103BE000206850E8030F216820F0100041E803022C
:103BF000DAB1206850E8030F216820F0100041E896
:103C0000030292B1206850E8030F216820F01000F1
:103C100041E803024AB1206850E8030F216820F010
:103C2000100041E80302002ADAD1202084F8420083
:103C30000020206320684169490640F1C78050E8B0
:103C4000050F216820F0400041E80502002A00F03D
:103C5000AB80206850E8050F216820F0400041E863
:103C60000502002A00F0A080206850E8050F2168B6
:103C700020F0400041E80502002A00F0958020680D
:103C800050E8050F216820F0400041E80502002AB5
:103C900000F08A802068D2E72046FFF7F3FD00207D
:103CA000606402B0B0BD00BF55E8030F226820F485
:103CB000907042E80303D3B3206850E8030F2268F2
:103CC00020F4907042E803038BB3206850E8030FA0
:103CD000226820F4907042E8030343B3206850E860
:103CE000030F226820F4907042E80303FBB12068C0
:103CF00050E8030FDAE700BF206850E8050F22689C
:103D000020F0010042E80503DBB1206850E8050F10
:103D1000226820F0010042E8050393B1206850E8D2
:103D2000050F226820F0010042E805034BB120682E
:103D300050E8050F226820F0010042E80503002B3F
:103D4000DAD1202084F8420000202063206850E867
:103D5000030F226820F0100042E80303DBB1206863
:103D600050E8030F226820F0100042E8030393B1EB
:103D7000206850E8030F226820F0100042E8030397
:103D80004BB1206850E8030F226820F0100042E891
:103D90000303002BDAD1022289B22046626302B00B
:103DA000BDE8B040FFF76CBDE06B78B144F621216F
:103DB000C0F600010165FDF7AFFC00283FF49DADA2
:103DC000E06B016D02B0BDE8B0400847204602B08C
:103DD000BDE8B040FFF756BD206A30F8021B6FF314
:103DE0005F2169602062E08C01380104E0847FF487
:103DF00084ADE86820F08000E860E86840F04000AA
:103E0000E86002B0B0BD0000002804BF0120704788
:103E100010B5044690F8410028B9002084F840000D
:103E2000204600F021F8242084F841002068C16871
:103E300021F40051C160204600F07AFE206801693B
:103E400021F490410161416921F02A014161C16879
:103E500041F40051C16000202021606484F84110C9
:103E600084F84210606310BD2DE9F04786B0044627
:103E7000006845F20001C4F2000100268842CDE945
:103E80000466CDE90266019630D044F60041C4F2E2
:103E90000001884240F09680002043F630010090F7
:103EA000C4F202010A6942F400220A610A6902F4BA
:103EB00000220092009A00900A6842F001020A6013
:103EC0000968022201F0010100910099CDE9022068
:103ED000082003210590002001910491C4F2020002
:103EE00001A9FDF7D5FD342464E000BF43F630009E
:103EF0000096C4F202000169002741F480110161BB
:103F00000169C4F2020701F4801100910099009642
:103F1000016801AD41F00401016001684FF0020841
:103F200001F0040100910099009601684FF0030927
:103F300041F00801016000684FF0080A00F0080035
:103F4000009000984FF48050019007F500602946DA
:103F5000CDE90286CDF81090CDF814A0FDF798FDBC
:103F60000420CDE9010803A880E8400607F5406079
:103F70002946FDF78DFD40F2C44546F2B800C2F275
:103F80000005C4F202004FF0006140224FF480634C
:103F900085E847002846C5E90436C5E90666C5E94F
:103FA0000866FDF7AFFC002818BFFCF711FBA563FE
:103FB000AC633524204600210022FEF735FF204661
:103FC000FEF722FF06B0BDE8F087000090F842300F
:103FD000202B1CBF0220704700294FF0010318BF9F
:103FE000002A01D118467047002303638162222111
:103FF0008285C285436480F842100169006819B166
:10400000C16841F48071C1604169002341F0010140
:104010004161C16841F02001C1601846704700004D
:1040200080B540F2883040F24821C2F20000C2F26E
:104030000001283010310822FFF7C8FF40F2D800F5
:10404000C2F20000818A0131818280BD7047000088
:10405000FEE7000040F22450C2F20000FDF706BE69
:1040600040F22450C2F20000FDF7A4BE10B582B0A9
:1040700000210191806B40F27001C2F2000190F8C2
:104080003DC009684BF28952C908C1F2F842A1FB50
:104090000212110A232251430191019911B301998E
:1040A000013901910168096889051FD50199C9B1D4
:1040B00001990139019101680968890516D50199AD
:1040C00081B10199013901910168096889050DD50E
:1040D000019939B10199013901910168096889058E
:1040E000DBD403E0016C41F020010164446B4FF02C
:1040F000000E002C1CBF0021E163816B00291CBF56
:104100000022CA630268002C136823F480631360E2
:10411000A0F82AE018BFC4F850E000291CBF002313
:104120000B65116821F00101116090F83D106029C4
:104130000AD1202180F83D10002180F83E10016452
:10414000FDF790FD02B010BD0CF02801282911D117
:10415000116841F001011160116841F48061116042
:1041600000210163282180F83D10FEF71DFB02B0FD
:1041700010BD00BF202180F83D10002180F83E10C6
:10418000FEF712FB02B010BD10B5044690F83D10CA
:1041900090F83E00402801D010280BD1222909D1E7
:1041A0002068026822F4006202604268602939D106
:1041B00041E000BF01F0280028282FD10020206313
:1041C000282084F83D0020684168090538D54168F9
:1041D00021F400614160606B90F8351001294DD1E8
:1041E000A06B44F26D01C0F600010165FDF794FA81
:1041F000002856D020684169490606D50069616AE1
:104200000870616A206801316162016821F0010172
:104210000160202084F83D00A06B40E020684268E7
:10422000602908D012F4006105D1202184F83D10E6
:10423000002184F83E100021216341680905C6D49D
:1042400094F83D1060294FD1202184F83D100021C1
:1042500021644169490606D50069616A0870616A8E
:10426000206801316162016821F00101016020468E
:10427000FDF7F8FC206C000716D11AE044F26D013E
:10428000C0F600010165FDF747FA50B12168606B87
:104290000A6822F001020A60202184F83D10016DB5
:1042A0008847206C000704D02068416821F4E06151
:1042B000416094F83D10206C282918BF10BD10F003
:1042C00004000FD00020CFF6FF70E0620021202014
:1042D000216384F83D00204684F83E10BDE810407C
:1042E000FEF720BB10BD00BF4169490605D5006936
:1042F000616A0870606A013060622046FEF754FA15
:10430000206C0007D0D1D4E790F83D10026D5AB16F
:10431000026D012A14D10168826CD2B20A61016D6A
:1043200001310165704700BFC26C816C012A15D153
:104330000268C9B21161016D02310165704700BFA9
:10434000026D022A12D1222918D101680A6842F4AA
:1043500080720A60016D0131016570470268C1F326
:1043600007211161016D01310165704700684169E4
:10437000090644BF00210161704700BF428D212919
:104380000AD14AB1416A026811F8013B13614162E6
:10439000418D0139418570472129428D08BF002A8E
:1043A000EAD101684A6822F4E0624A600A6842F48D
:1043B00000720A6000212022016380F83D2080F80D
:1043C0003E10FEF7B7BA00002DE9F04782B0044670
:1043D00000689A460368914643F48062026002686E
:1043E0000B9D42F48072026042690A9ED2070F461A
:1043F0003FD1711C33D026B911E000BF4169C90714
:1044000037D1FDF729FC411B2068B142F6D941693B
:10441000C907F3D109E000BF4169C90729D1FDF7F8
:104420001BFC20684169C907F6D1002120222163C5
:1044300084F83D2084F83E10226C42F02002226471
:1044400084F83C100068C00544BF4FF4007020643D
:10445000032002B0BDE8F0874169C90709D141696D
:10446000C90706D14169C90704BF41695FEAC17143
:10447000F2D040F20208C0F2010807F0FE0707611F
:104480002046414632462B4600F078F820B1012004
:1044900002B0BDE8F08700BF0020019020682A46E6
:1044A000416901918069314601900198204600F0F0
:1044B00029F9B0B9BAF1010F09D020684FEA1921E2
:1044C0000161204631462A4600F01CF948B92068AF
:1044D0005FFA89F10161204631462A4600F012F95F
:1044E00060B1206C0428D2D12068016841F40071C9
:1044F0000160012002B0BDE8F08700BF20680168BC
:1045000041F4807101604169C90728D1711C1CD038
:104510001EB910E04169C90721D1FDF79DFB411B80
:104520002068B142F6D94169C907F3D17DE700BFE0
:104530004169C90713D1FDF78FFB20684169C9079D
:10454000F6D172E74169C90709D14169C90706D1A6
:104550004169C90704BF41695FEAC171F2D047F000
:10456000010101612046414632462B4600F006F823
:10457000002818BF012002B0BDE8F087F0B581B077
:104580001D460368044658698FB23840B84203D1CB
:10459000002001B0F0BD00BF1646002A47D0701CB5
:1045A00022D15869400545D458693840B842EFD007
:1045B000586940053ED458693840B842E8D0586937
:1045C000400537D458693840B842E1D058694005B1
:1045D00030D458693840B8424FF00000E1D142E091
:1045E00058693840B8423DD05869400522D4FDF79B
:1045F00033FB401B2368B042F2D958693840B842B7
:10460000EED000202021206384F83D1084F83E0085
:10461000216C41F020011EE0FDF71EFB2368586964
:104620003840B842EDD158693840B842B0D05869E6
:104630004005F1D51868202140F4007018606FF42F
:10464000806058610020206384F83D1084F83E00AB
:10465000216C41F00401216484F83C00012001B088
:10466000F0BD00BF002001B0F0BD000070B50446F1
:104670000068154650F8143F5A0641D40E4629B931
:104680002AE000BF50F8141F490639D40168C90652
:1046900025D4FDF7E1FA411B2068B142F2D9416906
:1046A0004906EFD400202021206384F83D1084F8CF
:1046B0003E00216C41F02001216484F83C0001207F
:1046C00070BD00BFFDF7C8FA206850F8141F4906F6
:1046D000E8D50168490613D40168C906F2D56FF020
:1046E0001001016000202021206384F83D1084F82F
:1046F0003E00216C216484F83C00012070BD00BFA5
:10470000002070BD70B50368044653F8140F00060E
:104710002DD40E46481C24D066BB00BF1868400547
:104720004AD4FDF799FA236853F8140F000633D5DD
:1047300018680006F2D51AE0186840053CD41868DD
:10474000000614D41868400536D4186800060ED444
:104750001868400530D4186800064FF0000048BFC4
:1047600070BD1868400527D418680006E4D50020FD
:1047700070BD00BF154603E053F8140F0006F6D4D1
:104780001868400518D4FDF767FA401B2368B0424B
:10479000F2D958690006EFD400202021206384F864
:1047A0003D1084F83E00216C41F02001216484F822
:1047B0003C00012070BD00BF6FF4806018600020D5
:1047C0002021206384F83D1084F83E00216C41F0E4
:1047D0000401216484F83C00012070BDFEE7000064
:1047E000FEE700007047000070470000FEF7A2BA25
:1047F00080B594B0002043F64001CDE90B00CDE92F
:1048000009000690CDE90400CDE902000190C4F250
:1048100002010A6842F080520A60096801F0805182
:1048200001910199019047F20000C4F20000016873
:1048300041F44041016000684FF4800100F44040C1
:1048400001900198012007904FF480300E910421CF
:10485000089002200F91B4210D90CDE91010CDE900
:10486000120007A8FEF786FCB0B9FEF719FB98B94D
:104870000F20029002200390002004904FF4A050DB
:1048800005904FF48050069002A80521FEF746FBE4
:10489000002804BF14B080BDFBF79AFE4EF6885086
:1048A000CEF20000016841F4700101607047000021
:1048B00040F2D050C2F20000FEF73CBF10B540F607
:1048C000FF3E0368C4F2000E40F2004C7045C4F293
:1048D000010C27DCB0F1804F31D040F20042C4F22D
:1048E000000290422BD040F60002C4F20002904237
:1048F00025D041F6FF72C4F20002904229DC7045D7
:104900003CDCB0F1804F5FD040F20042C4F20002C4
:10491000904259D040F60002C4F20002904253D0B7
:1049200056E000BF40F60042C4F20002904206D0BA
:10493000604504D00022C4F201029042D9D14A68F5
:1049400023F07003134341F6FF72C4F20002904259
:10495000D5DD43F6FF72C4F20102904222DC42F23E
:104960000002C4F2000290422ED00022C4F20102E2
:10497000904229D0604527D02AE000BF40F600428F
:10498000C4F2000290421FD041F60002C4F20002BD
:10499000904219D041F60042C4F20002904213D076
:1049A00016E000BF44F20002C4F2010290420BD0B4
:1049B00044F60002C4F20102904205D044F20042E3
:1049C000C4F20102904203D1CA6823F44073134336
:1049D00023F080024B69D1F800E08C681A43026032
:1049E000C46240F48062C0F828E0624504BF0969EF
:1049F0000163012141610169C90708BF10BD016957
:104A000021F00101016110BD40F2B030C2F200009E
:104A1000FEF73ABF40F21860C2F20000FEF734BF62
:104A2000806B0021C185C184FEF72CBF81B090F856
:104A30004210222920D18368B3F5805F08D1016933
:104A4000002957D000F128010A6803685B680AE072
:104A5000014651F8282F13B90369002BF5D00368DC
:104A60005B6803F07F0313700A6801320A60C18D2E
:104A700001390A04C18501D001B070470168CA68D4
:104A800022F02002CA60CA6822F48072CA604A69B1
:104A900022F001024A61202280F842200022426373
:104AA000036B012B30D1026351E8031F026821F030
:104AB000100142E803135BB3016851E8031F026869
:104AC00021F0100142E8031313B3016851E8031FFA
:104AD000026821F0100142E80313CBB1016851E8EC
:104AE000031F026821F0100142E8031383B101683B
:104AF000DAE700BF0168826A49686FF35F2122F834
:104B0000021B8262B3E700BF01B0FFF789BA00BFA2
:104B100001680A68D20606D5002200920A6800924F
:104B2000496800910099818D01B0FEF7A9BE00008F
:104B300010B504460068D4E902C22369016921F472
:104B4000405111430161626943EA0C01E369114379
:104B5000C268194349F20C639A431143C160416929
:104B6000A26921F4407141F20043114340F4806294
:104B7000C4F201039A42416102D1FEF793FA01E0C7
:104B8000FEF77CFAE16963681922B1F5004FA0FBDA
:104B900002011FD15A00DB0FFBF784FB48F21F51C3
:104BA000C5F2EB11A0FB01235A096FF0630302FB6E
:104BB0000300322303EBC000A0FB01014FF4F870A7
:104BC00000EA111000EB0210C1F342112268084301
:104BD000906010BD9A009B0FFBF764FB48F21F51D9
:104BE000C5F2EB11A0FB01235A096FF0630302FB2E
:104BF0000300322303EB0010A0FB0101F02000EAC8
:104C0000511000EB0210C1F3431122680843906079
:104C100010BD0000FEE700008CB040F60008C4F2B2
:104C20000208FEF795F8FFF7E3FD002443F6300590
:104C300006940194C4F2020528684FF4035140F031
:104C4000040028602868002200F004000190019808
:104C5000019428684FF4035740F0800028602868CA
:104C600000F08000019001980194286840F0010054
:104C70002860286800F001000190019801942868DC
:104C800040F002002860286800F0020001900198BE
:104C90000194286840F008002860286800F00800A7
:104CA000019001984046FCF7D1FFA8F50066304618
:104CB000102100224FF0100BFCF7C8FFA8F5806907
:104CC000484640F206310022FCF7C0FF029702AFCF
:104CD0004FF0010A40463946CDE903A40594FCF79C
:104CE000D7FE0420CDE90204304639460494FCF78F
:104CF000CFFE30463946CDE902BACDE90444FCF78F
:104D0000C7FE40F20630CDE9020A48463946CDE9F1
:104D10000444FCF7BDFE4FF40060CDE902044046B8
:104D200039460494FCF7B4FE02942868002140F44C
:104D3000001028602868002200F4001002900298F9
:104D40002F20FEF771F82F20FEF75EF840F21C3599
:104D5000C2F20005A8F5D0312846012740F8441FCB
:104D60000C214FF420224FF40013C0F20017C0E9C9
:104D70000114C0E90342C0E905378483FCF752F906
:104D8000002840F0F9800E2005F14406CDE906A088
:104D90000B9002A93046CDF828A0CDE90244CDE918
:104DA0000444CDE9084AFBF701FF40F27850A8F52A
:104DB0005841C2F200004FF482724FF4007380E851
:104DC00016000A21C0E90344C0E90543C461C0E9F3
:104DD0000844C0E90A41FEF7A3FB002840F0CC805C
:104DE00040F2D050A8F5F431C2F20000002440F2A5
:104DF000E73342F2273280E81600C0E903348461C9
:104E0000FEF742FC002840F0B78040F22450A8F59D
:104E1000DA31C2F2000048F2A0624FF48043C0F2DF
:104E2000010280E81600C0E90343C0E90544C0E977
:104E30000744FDF7BBFC002840F09E804FF416703D
:104E4000FCF712FE3046FCF7E1FB6420FCF70CFE99
:104E500030461021FBF740FEFCF7FEFE40F25414F2
:104E6000C2F20004A063FCF7F7FEE063FCF7F4FE77
:104E70002064FCF7F1FE40F24829C2F200096064A8
:104E800009F1360029461722FBF784FA40F28835EB
:104E9000C2F20005A8F5DE31284640F8281F4FF47D
:104EA000E13400260C27C0E90146C0E90366C0E9E9
:104EB0000576C661FEF7A8FF00285DD140F21860B4
:104EC000A8F5DC31C2F2000080E85200C0E90366B8
:104ED000C0E90576C661FEF797FF00284CD105F1C1
:104EE000280009F110010822FFF770F84FF4FA606A
:104EF000FCF7BAFD4046402101220124FCF7A6FE42
:104F0000404680210122FCF7A1FE40F20000C2F2DF
:104F1000000090ED0C1ABFEE000AB4EE401AF1EE5C
:104F200010FA4FF00001C4710FD090ED0A1AB4EEE0
:104F3000401AF1EE10FA08D090ED101A0021B4EEEC
:104F4000401AF1EE10FA18BF0121C1734FF47A70C4
:104F5000FCF78AFD4FF47A70FCF786FD40F2AC2036
:104F6000C2F2000000F154020F2000211C23FBF7C5
:104F7000E7FA00BFFEE700BFFBF72AFB21F0004283
:104F800001F00043A2F16052B2F5801F28BFD2F1B8
:104F90007F6C0BD95FEA001C43EAC20242EB5070FF
:104FA00018BF704728BF20F001007047B2F5801F7E
:104FB000BCBF184670474FEA410C1CF5001F02D2D7
:104FC000084600F033BC70B500F046FA00000089D6
:104FD000FFF7F6BF4FF00040A0F5800070470000DB
:104FE00010B591EA030F48BF83F0004300F19082AF
:104FF000841A71EB030C05D2121943EB0C03001B4E
:1050000061EB0C014FEA1154A4EB135CDFF81CE1D7
:105010001EEA430F18BF9EEA445F00F0748021EA45
:10502000045123EA0E0343F48013DCF1200E32D343
:1050300022FA0CFE10EB0E0023FA0CFE41EB0E01DF
:10504000CCF1200E03FA0EFE10EB0E00CCF1200E78
:1050500051F10001B1F5801F32D201EB045112FA77
:105060000EF2BDE8104058BF7047401C38BF5FEAE1
:10507000420218BF7047002814BF20F0010041F120
:1050800000014FEA410313F5001F38BF7047A1F13B
:10509000C04100F02FBA012A43EB0302ACF1200C0F
:1050A000DCF11F0E32BF4FF0000E23FA0CF310EBB1
:1050B000030041EB0451B4EB115FD0D0A1EB0451DC
:1050C00001F58011490801EB04515FEA30000ED36D
:1050D00050F1000038BF12FA0EFE08D1BDE81040B2
:1050E000C9E7401C38BF5FEA4202CAD1C3E7BDE846
:1050F00010404FEA410313F5001F38BF7047A1F17C
:10510000C04100F0F7B99EEA445F08D011EA5E0F93
:10511000BDE8104004BF01F0004100207047BDE829
:10512000104070B500F098F964FBBE3E0000E0FF4F
:10513000491058BFC1F140415B1058BFC3F1404313
:105140008B42EFF30080704751EA030C17D41CF533
:10515000801F58BFBCF5801F00F10680994218BF20
:10516000704708BF9042704707D711F5801F58BF9E
:1051700013F5801F19D499427047894270471CF576
:10518000801F08D5BCF5801FF7D58B4218BF70472C
:1051900008BF824270474FF4001C1CEB410F38BF20
:1051A0001CEB430F01D28B42704770B500F054F9ED
:1051B000922449004FF000514FF08053FFF7B8BFE1
:1051C00010F0004248BF4042B0FA80F310FA03F1F9
:1051D0000AD0C3F11D0303F5806302EB03524FEACB
:1051E000415002EBD12170474FF000007047B0FAF8
:1051F00080F310FA03F10AD0C3F11D0303F58063B5
:105200004FEA03524FEA415002EBD12170474FF071
:105210000000704751EA030C17D41CF5801F58BFDB
:10522000BCF5801F00F10680994218BF704708BF87
:105230009042704707D711F5801F58BF13F5801FA4
:1052400019D499427047894270471CF5801F08D5D0
:10525000BCF5801FF7D58B4218BF704708BF82424C
:1052600070474FF4001C1CEB410F38BF1CEB430F81
:1052700001D28B42704770B500F0EEF892244900DD
:105280004FF080514FF00053FFF752BF51EA030C2B
:1052900017D41CF5801F58BFBCF5801F00F1068095
:1052A000994218BF704708BF9042704707D711F561
:1052B000801F58BF13F5801F19D499427047894247
:1052C00070471CF5801F08D5BCF5801FF7D58B42B1
:1052D00018BF704708BF824270474FF4001C1CEB98
:1052E000410F38BF1CEB430F01D28B42704770B5A2
:1052F00000F0B2F8922449004FF000514FF0805373
:10530000FFF716BF70B5DFF848C11CEA111E1EBFBB
:105310001CEA13159EEA0C0F95EA0C0F00F06F8043
:1053200081EA03044EEAD47EAE4421EA4C1123EA1A
:105330004C1341F4801143F48013AEF17F7EA1FB46
:10534000024CA0FB0365361955EB0C05A1FB034C81
:105350004CF10003A0FB021C16EB0C06654153F157
:105360000003094218BF46F0010613F4007F0BD179
:105370004FEA03314FEA053041EA155140EA165031
:1053800034036FF003020AE04FEAC3214FEAC5205D
:1053900041EA555140EA5650F4026FF0020202EB26
:1053A0002E4201EB025585EACE710AD05FEA440C29
:1053B00018BF24F0004450F1000041F1000120EA40
:1053C000D47040F2FE7C624500D270BDA84214BF8A
:1053D0004FF080444FF04044002E08BF0024BEF13F
:1053E000806FA8BFA1F1C041BDE8704080F282800B
:1053F00001F1C04101F000414FF0000070470CEA9C
:1054000013159EEA0C0F18BF95EA0C0F06D081EA1F
:10541000030E4FF000000EF0004170BD00F01CF8CC
:105420008900013E00F007B800F009B84FEA430CCC
:105430005FEA5C5C08D081EA030100F05BB84FEAE8
:10544000410C5FEA5C5CF6D102494FF00000704706
:105450000000FF070000F87F0EF1020E2EF0030E91
:105460005EF8046B364205D4012A43EB030515F5BB
:10547000001F12D8012841EB010C1CF5001F0CD8AD
:105480000ED14FEAD17C0CEB4C0C0CF1020C15F553
:10549000001F08BF4CEBD37C04E04FF0080C01E088
:1054A0004FEAD37C0CEB4C0526FA05F606F007060E
:1054B000B6F1040C06D20EEB860CBDE870404CF041
:1054C000010C6047DFE80CF0090B02024FF00041CD
:1054D000A1F500214FF0000070BD194610460128CB
:1054E00051EB010418BFD4F5001484BF002001F073
:1054F000004170BD0808A0F500114FEA3101704766
:1055000010B591EA030F48BF83F000433FF570AD3B
:10551000841A71EB030C07D28CF0004C121943EB88
:105520000C03001B61EB0C014FEA1154A4EB135C5C
:10553000DFF8A4E11EEA430F18BF9EEA445F00F0C3
:10554000B48021EA045123EA6E035242C3EB6E0396
:1055500038BF5B1EDCF1200E25D322FA0CFE10EBC7
:105560000E0043FA0CFE41EB0E01CCF1200E03FAC3
:105570000EFE10EB0E00CCF1200E51F1000129D4EB
:1055800001EB045112FA0EF2BDE8104058BF70470B
:10559000401C1CBFB2F1004F704700280CBF491CD3
:1055A00020F00100704712EB020E43EB030218BF1C
:1055B0004FF0010E4EEA4202ACF1200CDCF11E0E5F
:1055C00056D943FA0CFE10EB0E00CCF11E0E51F131
:1055D000FF31D5D50EF1010E12FA0EFE404141EB1E
:1055E000010101EB445C5FEA5C5C10D901EB045102
:1055F00010EBDE7038BFBEF1004FBDE8104018BFA1
:10560000704700280CBF491C20F00100704734D2BD
:105610004FEAD42C24F4006411F500111BD0B1FA28
:1056200081F20B3AA41AA41ED2F12003914030FA61
:1056300003F31943904001EBCC7101EB0451002CB2
:10564000BDE81040A8BF704701F1C04101F0004122
:105650004FF000007047B0FA80F310FA03F102D166
:10566000BDE810407047E41A173C4805C90AE2E754
:1056700001EB0451BDE81040704749104FEA30007B
:1056800001EB0451BDE8104002E04FF0000170470B
:105690004A0008BF0042F8D0B2F5001F28BF70478B
:1056A00001F000414FF0000070479EEA445F07D0D0
:1056B00011EA5E0FBDE8104004BF002100207047D2
:1056C000BDE8104070B5FFF7C7FE00BF40DFF63EF3
:1056D000104683F0004170470000E0FF43004FEAAE
:1056E000D30C4FEA3C0C43401FBF40070CF1605104
:1056F00013F0FE4F70471CF0006F03D10CF0004117
:10570000002070470CF0004343EA507040EACC00A0
:1057100010B500F038F800BF000000924FEA000119
:10572000FFF7E8BE4FF00041A1F500214FF0000067
:10573000704710B5FFF708FD0CBF0120002010BD19
:1057400010B5FFF701FD14BF0120002010BD10B5FA
:10575000FFF760FD8CBF0120002010BD10B5FFF7E2
:1057600059FD2CBF0120002010BD10B5FFF78EFDA4
:1057700094BF0120002010BD10B5FFF787FD34BF96
:105780000120002010BD0EF1020E2EF0030E5EF877
:10579000044B244204D44FEA4102B2F17F4F11D8A6
:1057A0004FEA4003B3F17F4F0CD80ED14FEAD07CC3
:1057B0000CEB4C0C0CF1020CB2F17F4F08BF4CEB20
:1057C000D17C04E04FF0080C01E04FEAD17C0CEBF7
:1057D0004C0324FA03F404F00704B4F1040C06D2D9
:1057E0000EEB840CBDE810404CF0010C6047DFE884
:1057F0000CF0070802024FF00040A0F5800010BD39
:105800000846420018BFD2F1807288BF00F0004005
:1058100010BDF1EE100A4FF6FF71C0F2C03120EA60
:10582000010040F04070E1EE100A7047FF2141EAAC
:10583000D050C005704700000000000000000102C9
:105840000304060708090000000001020304000623
:1058500010160006101600007858000800000020FE
:105860007800000000020008F058000878000020CE
:10587000F00B00001C0200080101015A01FFFF01AA
:105880000A0A0101010101010000A04000002041BD
:10589000000080BF000080BF33331340B81E453F77
:1058A000000080BF000080BF000080BF000080BFFC
:1058B000CDCC9C40AE4781C0000080BF000080BFBF
:1058C0000000803F00000040000000400000004059
:1058D00000000040000000007B14AE47E17A843FE6
:1058E00001000000100000000024F400000000008F
:04000005080001C529
:00000001FF
