:020000040800F2
:10000000300B002065020008653E0008293A000810
:10001000613E00081D050008214F00080000000097
:10002000000000000000000000000000C9420008BD
:100030005D05000800000000C5420008594A00089C
:100040007F0200087F0200087F0200087F0200088C
:100050007F0200087F0200087F0200087F0200087C
:100060007F0200087F0200087F0200087F0200086C
:100070007F0200087F0200087F0200087F0200085C
:100080007F0200087F0200087F0200087F0200084C
:10009000210500082D0500087F0200087F020008E6
:1000A0007F0200087F0200087F0200087F0200082C
:1000B0007F0200087F0200087F020008F93A00086A
:1000C000ED3A00087F0200087F0200087F02000866
:1000D0007F0200087F0200087F0200087F020008FC
:1000E0007F0200087F0200087F0200087F020008EC
:1000F0007F0200081D4B00087F0200085105000820
:100100007F0200087F0200087F0200087F020008CB
:10011000154D0008214D00087F0200087F020008ED
:100120007F0200087F0200087F0200087F020008AB
:100130007F02000800000000000000007F020008AD
:1001400039050008450500087F0200087F02000805
:100150007F0200087F0200087F0200087F0200087B
:100160007F0200087F0200087F0200087F0200086B
:100170007F0200087F0200087F02000800000000E4
:10018000000000007F0200080000000000000000E6
:100190007F02000800000000000000007F0200084D
:1001A0000000000000000000000000007F020008C6
:1001B0007F0200087F0200087F0200087F0200081B
:1001C0007F02000800F002F800F03CF80AA090E876
:1001D000000C82448344AAF10107DA4501D100F002
:1001E00031F8AFF2090EBAE80F0013F0010F18BF93
:1001F000FB1A43F001031847806D0000A06D00005A
:10020000103A24BF78C878C1FAD8520724BF30C842
:1002100030C144BF04680C60704700000023002414
:1002200000250026103A28BF78C1FBD8520728BF06
:1002300030C148BF0B6070471FB506F0B4FD1FBD4D
:1002400010B510BD00F034F91146FFF7F5FF04F0CA
:1002500069FE00F052F903B4FFF7F2FF03BC00F0AF
:1002600055F900000948804709480047FEE7FEE7C6
:10027000FEE7FEE7FEE7FEE7FEE7FEE7FEE7FEE756
:1002800004480549054A064B70470000094B000821
:10029000C501000830050020300B00203007002089
:1002A0003007002053EA020C00F069802DE9F04B82
:1002B0004FF00006002B1FBFB3FA83F503FA05F4D5
:1002C00024FA05F65E4012BF1643B2FA82F502FA2E
:1002D00005F4C5F120051EBF22FA05FC44EA0C0412
:1002E000203556EA044C4FEA144418BF641C4FF002
:1002F00000084FF00009904271EB030C39D300293C
:1003000019BFB1FA81F701FA07F6B0FA80F700FADF
:1003100007F6C7F120071EBF20FA07FC46EA0C06C5
:100320002037B6FBF4FCA7EB0507103F07F01F0BC7
:10033000CBF120062CFA06F60CFA0BFB44BFB346B1
:100340000026202FA4BF5E464FF0000B5BEA060C90
:1003500008BF4FF0010B19EB0B0948EB0608ABFB8C
:10036000027C06FB02CC0BFB03CCC01B71EB0C0127
:10037000C1E70B46024641464846BDE8F08B13B53F
:10038000084318BF4FF0FF300146AFF30080BDE8CF
:100390001C407047032A40F2308010F0030C00F03C
:1003A000158011F8013BBCF1020F624498BF11F8AF
:1003B00001CB00F8013B38BF11F8013BA2F1040268
:1003C00098BF00F801CB38BF00F8013B11F00303E0
:1003D00000F02580083AC0F0088051F8043B083A44
:1003E00051F804CBA0E80810F5E7121D5CBF51F8E6
:1003F000043B40F8043BAFF30080D20724BF11F860
:10040000013B11F801CB48BF11F8012B24BF00F8C4
:10041000013B00F801CB48BF00F8012B704710B535
:10042000203AC0F00B80B1E81850A0E81850B1E8AD
:100430001850A0E81850203ABFF4F5AF5FEA027CEC
:1004400024BFB1E81850A0E8185044BF18C918C01C
:10045000BDE810405FEA827C24BF51F8043B40F8BD
:10046000043B08BF7047D20728BF31F8023B48BFA2
:1004700011F8012B28BF20F8023B48BF00F8012BE0
:10048000704770477047704710B500F009F8006872
:1004900010BD10B5044600F003F8046010BD000064
:1004A000004870475000002000487047500000206E
:1004B0007546FFF7F9FFAE4605006946534620F042
:1004C0000700854618B020B5FFF7DAFEBDE82040EA
:1004D0004FF000064FF000074FF000084FF0000B00
:1004E000AC46ACE8C009ACE8C009ACE8C009ACE86F
:1004F000C00921F007018D46704710B50446AFF3DF
:1005000000802046BDE81040FFF7A5BE0149182035
:10051000ABBEFEE72600020070470000FEE70000C9
:1005200040F27820C2F2000000F0F2BB40F27820E6
:10053000C2F2000000F0ECBB40F22820C2F2000042
:1005400000F0E6BB40F22820C2F2000000F0E0BB61
:1005500040F28C30C2F2000000F094BF70470000FF
:100560009FED128A0120B0EE480A03F0AFFE022090
:10057000B0EE480A03F0AAFE0320B0EE480A03F0EA
:10058000A5FE0420B0EE480A03F0A0FE40F20C20C5
:10059000C2F2000040F2B00AAD274FF0000B00F1AC
:1005A0001C04C2F2000A40F2AD2801E00000000085
:1005B00040F2301540F2A816C2F20005C2F2000661
:1005C00045F858BF46F84C7F0420A5F13409306146
:1005D000204631462A464B4686F814B0C6E901BB90
:1005E000C6F80CB000F036FA012001F0DDF8DAF8B8
:1005F000180031460130CAF8180020462A464B46FA
:1006000000F028FA012001F0CFF8DAF8180031469E
:100610000130CAF8180020462A464B4600F01AFA64
:10062000012001F0C1F8DAF8180020370130474501
:10063000CAF81800C5F800B0C5F804B0B8D19FEDED
:10064000F88A0120B0EE480A03F040FE0220B0EE26
:10065000480A03F03BFE0320B0EE480A03F036FEE2
:100660000420B0EE480A03F031FEAD274FF0000B36
:1006700040F2AD2840F2301540F2A816C2F2000553
:10068000C2F2000645F858BF46F84C7F0420A5F199
:1006900034093061204631462A464B4686F814B06C
:1006A000C6E901BBC6F80CB000F0D4F9012001F096
:1006B0007BF8DAF8180031460130CAF818002046F5
:1006C0002A464B4600F0C6F9012001F06DF8DAF831
:1006D000180031460130CAF8180020462A464B4619
:1006E00000F0B8F9012001F05FF8DAF818002037BF
:1006F00001304745CAF81800C5F800B0C5F804B085
:10070000B8D19FEDC78A0120B0EE480A03F0DEFDA4
:100710000220B0EE480A03F0D9FD0320B0EE480AEB
:1007200003F0D4FD0420B0EE480A03F0CFFDAD275E
:100730004FF0000B40F2AD2840F2301540F2A81601
:10074000C2F20005C2F2000645F858BF46F84C7FD9
:100750000420A5F134093061204631462A464B4633
:1007600086F814B0C6E901BBC6F80CB000F072F907
:10077000012001F019F8DAF8180031460130CAF802
:10078000180020462A464B4600F064F9012001F08B
:100790000BF8DAF8180031460130CAF81800204684
:1007A0002A464B4600F056F9012000F0FDFFDAF82A
:1007B0001800203701304745CAF81800C5F800B0C6
:1007C000C5F804B0B8D19FED968A0120B0EE480A72
:1007D00003F07CFD0220B0EE480A03F077FD032011
:1007E000B0EE480A03F072FD0420B0EE480A03F0B0
:1007F0006DFDAD274FF0000B40F2AD2840F23015F3
:1008000040F2A816C2F20005C2F2000645F858BF31
:1008100046F84C7F0420A5F134093061204631466A
:100820002A464B4686F814B0C6E901BBC6F80CB0A0
:1008300000F010F9012000F0B7FFDAF81800314697
:100840000130CAF8180020462A464B4600F002F94B
:10085000012000F0A9FFDAF8180031460130CAF88B
:10086000180020462A464B4600F0F4F8012000F01C
:100870009BFFDAF81800203701304745CAF8180006
:10088000C5F800B0C5F804B0B8D19FED658A012065
:10089000B0EE480A03F01AFD0220B0EE480A03F059
:1008A00015FD0320B0EE480A03F010FD0420B0EE61
:1008B000480A03F00BFDAD274FF0000B40F2AD28C6
:1008C00040F2301540F2A816C2F20005C2F200064E
:1008D00045F858BF46F84C7F0420A5F13409306133
:1008E000204631462A464B4686F814B0C6E901BB7D
:1008F000C6F80CB000F0AEF8012000F055FFDAF8B1
:10090000180031460130CAF8180020462A464B46E6
:1009100000F0A0F8012000F047FFDAF81800314697
:100920000130CAF8180020462A464B4600F092F8DB
:10093000012000F039FFDAF8180020370130474570
:10094000CAF81800C5F800B0C5F804B0B8D19FEDDA
:10095000348A72B604254FF0000840F2AD2900BF7A
:100960000120B0EE480A03F0B1FC0220B0EE480AC4
:1009700003F0ACFC0320B0EE480A03F0A7FC04200F
:10098000B0EE480A03F0A2FC4FF0AD0B40F2A816FF
:10099000C2F2000646F84CBFC6E9038540F23015A6
:1009A000C2F2000545F8588FA5F1340720463146BC
:1009B0002A463B4686F81480C6E9018800F04AF8CA
:1009C000012000F0F1FEDAF8180031460130CAF8D3
:1009D000180020462A463B4600F03CF8012000F073
:1009E000E3FEDAF8180031460130CAF81800204654
:1009F0002A463B4600F02EF8012000F0D5FEDAF83A
:100A000018000BF1200B0130C5F80080CB45C5F86C
:100A100004804FF00405CAF81800B7D1A0E700BF62
:100A20000000000090F82020013A012A08D8006850
:100A300000F114020020136819431160704700BFD1
:100A400000F1240201204FF4802113681943116042
:100A50007047000010B590F820E0D0F800C0AEF16B
:100A6000010EBEF1010FDCF808E00FD81EF0E05FC8
:100A700016D0CEF3016E012000FA0EF018608B68DC
:100A8000C3B1486843EAC00316E000BF00F1240187
:100A900001204FF480220B681A430A6010BD00BF8A
:100AA00000F1240101204FF400120B681A430A6080
:100AB00010BD00BF08684305D1E9030403430CEBF4
:100AC0000E10C0F88031C0F88441097D012905D19C
:100AD00000F5C2710B6843F480730B605168C0F875
:100AE0008C11126800F5C071C0F888210020012225
:100AF0000B681A430A6010BDB0B590F82020013A87
:100B0000012A2FD846F20060C4F20000026842F0C9
:100B100001020260026822F47C520260D1F814E003
:100B2000CC694A6A0368012C43EA022202600EF093
:100B30001F024FF0010303FA02F2C3696FEA020CCD
:100B400023EA0203C36113D02CBBC36803EA0C037E
:100B5000C360CB688C8844EA034300EBCE04236473
:100B60000B4611E0416A41F4802141620120B0BD91
:100B7000C3681343C3600B688C8844EA034300EBEB
:100B8000CE04236401F10C038C681B8843EA044300
:100B900000EBCE04636443688D6943EA0204D1F834
:100BA00010E0096A002D08BF03EA0C0444604369A1
:100BB000BEF1000F43EA020408BF03EA0C04012956
:100BC000446102D1C1691143C161016821F0010191
:100BD00001600020B0BD00007047000010B590F823
:100BE0002040013C012C7BD8D0F800C0002900F047
:100BF0008180DCF81040A40700F081800CEB011C20
:100C0000DCF8B0410CF5D87E14F004049460DCF8F4
:100C1000B04119BFE4085460640D1460DEF8004070
:100C20000CF5DA7E04F00204D460DCF8B441240749
:100C30005ABFDEF8004004F00F0408241461DEF807
:100C400000400029C4F307249461DEF800404FEA15
:100C500014445461DCF8B8211A70026802EB0112E6
:100C6000D2F8B8214FEA12225A70026802EB011240
:100C7000D2F8B8214FEA12429A70026802EB0112D0
:100C8000D2F8B8214FEA1262DA70026802EB011260
:100C9000D2F8BC211A71026802EB0112D2F8BC2111
:100CA0004FEA12225A71026802EB0112D2F8BC21FB
:100CB0004FEA12429A71026802EB0112D2F8BC218B
:100CC0004FEA1262DA71006814BF00F1100100F1FE
:100CD0000C01002020220B681A430A6010BD00BFDF
:100CE00000F1240101204FF480220B681A430A60AE
:100CF00010BD00BFDCF80C40A4077FF47FAF00F10B
:100D0000240101204FF400120B681A430A6010BD41
:100D10002DE9F04F81B0044600684669D0F8049090
:100D20008768D0F80CB0D0F810A0D0F81880F10780
:100D300004D1002530071DD424E000BFF90710D0EE
:100D40000121BA07816009D4780700F1AF80380724
:100D500000F1B680204600F027FB02E0204600F0BC
:100D600025FB0025F80500F18780F80300F1B1802C
:100D7000300707D51BF0100004D0206845F400753B
:100D80001021C160700708D51BF0080005D020684D
:100D90000821C160204600F0FFF9B00706D52068A1
:100DA000C068800702D0204600F0F8F9700607D529
:100DB0001AF0100004D0206845F48065102101610C
:100DC000B00608D51AF0080005D020680821016196
:100DD000204600F0E5F9F00606D520680069800796
:100DE00002D0204600F0E0F9B00308D519F0100059
:100DF00005D0206810214160204600F0A5FAF003DC
:100E000008D519F0080005D0206808214160204667
:100E100000F0D6FA300440F19B805FEA497040F15F
:100E2000948006F4807008EA102028435FEA8871F5
:100E3000014648BF41F00201B20558BF01465FEAD2
:100E400048700D4648BF45F00405700558BF0D4673
:100E5000300540F17A8018F0700000F0768010388C
:100E6000000905286CD8DFE800F003595D61656969
:100E700045F0080564E000BF20684FF48071BA05B2
:100E800081600BD4780515D438051DD4204600F0B8
:100E90008FFAF8037FF56CAF1BE000BF204600F02F
:100EA00089FAF8037FF564AF13E000BF4FF40065E3
:100EB00058E700BF05F50055F8037FF559AF08E086
:100EC0004FF480554EE700BF05F58045F8037FF5E8
:100ED0004FAF20684FF48031BA0381600AD47803A1
:100EE00010D4380314D4204600F066FA30073FF5DA
:100EF00041AF47E7204600F061FA30073FF53AAFCF
:100F000040E700BF05F5004530073FF533AF39E74F
:100F100005F5803530073FF52DAF33E745F0100577
:100F20000EE000BF45F020050AE000BF45F0400597
:100F300006E000BF45F0800502E000BF45F4807583
:100F40002068816921F0700181612068042141607D
:100F500055B1606A40EA05012046616201B0BDE812
:100F6000F04FFFF739BE00BF01B0BDE8F08F0000C1
:100F7000B0B5C8B1044690F8200010B9204600F082
:100F800071F82068016841F00101016000F004FD82
:100F9000054600BF20684168C90707D100F0FCFC86
:100FA000401B0B28F6D312E00120B0BD016821F0F0
:100FB0000201016000F0F0FC054600BF20684168B6
:100FC00089070DD500F0E8FC401B0B28F6D3606ABA
:100FD000052140F400306062012084F82010B0BD8B
:100FE000217E0268012922F0800208BF803202605F
:100FF000617E0268012922F0400208BF403202608F
:10100000A17E0268012922F0200208BF203202607E
:10101000E17E0268012922F0100218BF103202603E
:10102000217F0268012922F0080208BF083202600D
:10103000617F0268012922F0040208BF04320260C5
:10104000D4E901C2D4E9033561691A432A43114343
:10105000ACF101021143C16100200121606284F8FA
:101060002010B0BDB0B586B0006846F60002C4F2EC
:10107000000200219042CDE90411CDE90211019155
:1010800034D046F20041C4F20001884240F0828030
:1010900040F23831C2F200010A6843F64000C4F25F
:1010A0000200531C0B6052B900210091016841F00D
:1010B00000710160016801F0007100910099002148
:1010C000009150F8101C152441F0010140F8101C4B
:1010D00050F8100C142500F00100009000984FF417
:1010E000C05001900020C4F2020038E043F64000F6
:1010F000C4F202000091016841F080610160016862
:1011000001F080610091009940F23831C2F2000193
:101110000A68531C0B6052B900210091016841F02C
:1011200000710160016801F00071009100990021D7
:10113000009150F8101C412441F0020140F8101CAD
:1011400050F8100C402500F00200009000984FF479
:10115000405001900020C4F2020000F5806002219E
:10116000029100210391032104910921059101A914
:1011700000F02EFB28460021002201F041FB28460A
:1011800001F02EFB20460021002201F039FB204611
:1011900001F026FB06B0B0BD7047000070470000AC
:1011A00070470000000000002DE9F04140F23015CA
:1011B00040F20C24C2F20005C2F2000405F1600303
:1011C00001212246FFF70AFD226840F2B007C2F271
:1011D0000007C2F34303500902F01F01BB7202F083
:1011E0000103023A032A38707970FB7274D8DFE881
:1011F00002F003192F4500BFB5F8600000BA000CDB
:1012000000EE100A388AB8EE400A0130388240F207
:10121000A810C2F20000817887ED0B0A01318170BD
:10122000BDE8F081D5E9180140F2000200BAC2F22F
:101230000002106208BAF9891063481C40F2A81134
:10124000C2F200014A78F881501C4870BDE8F08174
:10125000B5F8600000BA000C00EE100A788AB8EE0B
:10126000400A0130788240F2A810C2F200000179F1
:1012700087ED0C0A01310171BDE8F081B5F960001C
:10128000B5F9624005F02FFA9FED2D0B56EC105B7F
:101290002A46334605F08EFA04F0B6FF40F2000805
:1012A000C2F20008C8F81C00204605F01CFA2A46C5
:1012B000334605F07FFA04F0A7FFB98AC8F82C007E
:1012C000481C40F2A811C2F20001CA78B882501C32
:1012D000C870BDE8F08100BF092913D0012918BFEB
:1012E000BDE8F08140F2A811C2F2000151FA80F08D
:1012F00090F8341095F86420013180F8341082722F
:10130000BDE8F081D5E9181240F23C33C0B2C2F218
:101310000003AA6643F8202040F2E82200EE101AEB
:10132000C2F20002BDEEC00A42F8201010EE101A00
:1013300004EB4000A0F84410BDE8F08100BF00BFFE
:10134000000000000000B03F70470000B0B5044648
:1013500090F8200001281DD1022084F82000206888
:10136000016821F00101016000F016FB054600BF95
:1013700020684068C00713D000F00EFB401B0B280C
:10138000F6D3606A40F400306062052084F82000E3
:101390000120B0BD606A40F4002060620120B0BD51
:1013A00000206062B0BD0000704700007047000080
:1013B0007047000070470000704700007047000051
:1013C0007047000070B5866D044600F0E5FA94F8A9
:1013D000351002292ED105462068216C026822F0C2
:1013E00016020260426922F08002426109B9A16CD2
:1013F00019B1016821F008010160016821F00101C3
:1014000001600068C00708D000F0C6FA401B05283C
:1014100018D820680068C007F6D1E06D3F2101FAB6
:1014200000F0B060012084F835000020002184F82D
:10143000341070BD802060650120002184F83410D4
:1014400070BD00BF20206065032084F835000021B6
:1014500084F8341070BD000090F83510022909D1CD
:10146000052180F835100068016821F00101016054
:1014700000207047802141650120704790F83500B9
:1014800070470000F0B581B004460020009040F2A3
:101490004800C2F200000268D4E9166048F2B513B1
:1014A00037680821C1F64E3381403942A2FB03253B
:1014B0000CD0226813685B0708D5136823F0040377
:1014C0001360B160616D41F00101616501218140EE
:1014D000394208D022685269120604D5B160616DA4
:1014E00041F00201616504218140394208D022683F
:1014F0001268920704D5B160616D41F00401616525
:1015000010218140394217D020680268120713D594
:10151000B16002680168520308D4C90508D40168A3
:1015200021F008010160216C21B905E0080343D4D2
:10153000216C09B120468847E16D202000FA01F2B4
:101540003A4245D020680368DB0641D5B26094F882
:1015500035300268052B1FD122F016020260426965
:1015600022F080024261226C0AB9A26C1AB10268B0
:1015700022F0080202603F208840B060012084F819
:101580003500216D0020002984F8340058D0204611
:10159000884701B0F0BD00BF0168520310D4C905EF
:1015A00012D4016821F010010160012084F8350097
:1015B000002084F8340007E0A16C0029BAD1BBE711
:1015C000080301D4616C00E0E16B09B12046884753
:1015D000606DA8B3606DC0072ED0052084F835007B
:1015E0002068A90A026822F001020260009A013212
:1015F0008A4200921AD80268D20717D0009A0132A4
:101600008A42009212D80268D2070FD0009A0132A3
:101610008A4200920AD80268D20707D0009A0132A3
:101620008A42009202D80268D207DFD1012084F8F2
:101630003500002084F83400E16C09B12046884769
:1016400001B0F0BD2DE9F041044600F0A5F9002CF1
:101650004ED00546022084F835000020216884F829
:101660003400086820F0010008600868C00708D04E
:1016700000F092F9401B05286CD821680868C00763
:10168000F6D1086848F23F02CFF21002D4E90135E2
:10169000024004F10C0E9EE8C1511A432A43104344
:1016A0003043384340EA0800626A40EA0C00042AEA
:1016B00040EA0E0320D1D4E90A5E206B4EEA030211
:1016C000104308604869BEF1000F20F0030040EAB3
:1016D000050040F0040C15D0B8F5005F42D0B8F119
:1016E000000F51D1022D52D0012D47D055B94EE0F7
:1016F0000120BDE8F08100BF0B60486920F00700C1
:1017000040EA020C6FF00F004AF6AB2250FA81F06B
:10171000CAF6AA22A0FB02231A0946F67073C0F685
:1017200000039A5C40F2FF335F284FF03F00C1F89E
:1017300014C021EA030100FA02F088BF0431C4E9B1
:1017400016128860002301220020636584F835208A
:10175000BDE8F081032220230320636584F835204F
:10176000BDE8F081032DCDD8012240230120DFE820
:1017700005F0030E030500BFE7E700BFAEF1C07040
:10178000B0FA80F0400904E0032D04D3BAD1CEF3BF
:1017900000600028B6D0012240230120636584F850
:1017A0003520BDE8F0810000B0B5044600F0F4F843
:1017B000054640F24000C2F200000078611C18BFEC
:1017C000044400BF00F0E8F8401BA042FAD3B0BDCB
:1017D0002DE9F04F82B000F13E4241F6000502F1E2
:1017E000FF77C4F2020507224FEAB726A84208BFD6
:1017F0000622062E38BF4FEAB7224FF0010A002416
:1018000000274FF00008009208E000BF023708F1FF
:101810000108202F04F1040400F0B4800E680AFAD5
:1018200008F916EA090FF1D0D1F804A00AF0030B69
:10183000ABF10106012E17D80322866802FA07FED3
:10184000CA6826EA0E06BA40324382604268CAF38A
:10185000001522EA090205FA08F54FEA480C6FEA7A
:101860000E062A4342600BE00322BA40D643BBF186
:10187000030FBC4604D1BC464FF0030B22E000BF6F
:10188000C2688D68324005FA0CF52A43BBF1020F9D
:10189000C26017D16FF0030202EA5802024404F05A
:1018A0001C030F25D2F820E005FA03FA0D692EEA91
:1018B0000A0E05FA03F343EA0E031362D1F804A0FB
:1018C0000AF0030B02680BFA0CF332401A431AF4C5
:1018D000403F4FF0010A026098D0002243F64403D3
:1018E0000192C4F202031A6843F6004E42F48042A9
:1018F0001A601A68C4F2010E02F480420192019A41
:1019000028F003024FF6084C7244CFF6FF7C52F8E1
:101910000C3004F00C060F25B540AB43009D05FAD2
:1019200006F6334342F80C30DEF808204B6842EAF2
:10193000090643F60C4CDD0258BF22EA0906CEF830
:101940000860C4F2010CDCF800209D0242EA09069E
:1019500058BF22EA0906CCF80060DEF804209D0397
:1019600042EA090658BF22EA0906CEF80460DEF80A
:101970000020DB0342EA090658BF22EA0906CEF836
:10198000006043E702B0BDE8F08F0000002A08BF06
:10199000090481617047000040F22850C2F2000043
:1019A000006870477047000070470000F0B581B0D4
:1019B000044600684769426894F83E1002F4807655
:1019C0003E420FBF00256FF4807242610125BA05C7
:1019D00005D5002E1EBF02356FF4007242617A05F4
:1019E00016D5AEB1628D94F83D30D4F830C02029C0
:1019F00008BF002A24D06FF48062402905F1040555
:101A0000426101D0102903D1016841F400710160E5
:101A1000380507D536B1206808356FF4006141619B
:101A200001E000BF55B1206C40EA05012046216469
:101A300001B0BDE8F04002F0F3B800BF01B0F0BD66
:101A400043F00801292909D0282B08BFBCF1210F38
:101A500004D06FF4806141610435D9E794F83D10FA
:101A6000E26A202A01D0082A1ED121291ED0282965
:101A70003CD10021CFF6FF71E162416821F4E061C1
:101A800041606FF480614161016821F4806101600F
:101A900000202021206384F83D1084F83E00204679
:101AA00000F0E0FDB4E700BF21291FD10021CFF6EF
:101AB000FF71E16221212163202184F83D10002182
:101AC00084F83E10426822F4E06242606FF4806263
:101AD0004261026822F4806202604269120648BFD5
:101AE0000161204600F010FE92E700BF6FF48061B4
:101AF00041618DE72DE9F04182B0D0F800800446C5
:101B0000C4465CF8043FC06A94F83E5094F83D2007
:101B1000402D01D0102D21D1D8F81860D8F814101C
:101B2000CF0765D1B0F12A4F00F0DA83B0F52A0F64
:101B300000F0D68313F400704FF0010787EA502EAF
:101B400018BF11F0080057D0606B616C0028C9B253
:101B5000C8F8101040F0078107E100BF206C002892
:101B60000CBFD8F818500025D8F8141013F40076DC
:101B700018BF11F0020040F0A980002E18BF11F02C
:101B8000100040F00F8142F00800292840F09A81AF
:101B9000580540F1C18101F08400802840F0BC81EB
:101BA00094F83D00618D002900F09A83616A29282C
:101BB00011F8012BC8F810206162618DA1F10101BB
:101BC0006185618D08BF002940F08A83DCF8000040
:101BD000282120F48060CCF80000212020632046DA
:101BE00084F83D1002B0BDE8F04100F08DBD00BFAB
:101BF000980533D44FF0010EBEF1000F34D111F02F
:101C0000020031D094F83E00E26A216B94F83D3036
:101C1000222B40F0BB804028236D08BF002B00F032
:101C2000B580206D002840F099812069B0F5404FC3
:101C300040F0948100200190D8F814000190D8F869
:101C4000180001900198D8F8000040F48070C8F89E
:101C50000000206D013000F0DABB00BFE06AB0F593
:101C60002A0F57D101205AE0DCF80000760700F473
:101C7000006000F1DD80002840F03283580540F11B
:101C8000AB8101F04400402840F0A68194F83D006B
:101C9000222840F02583E26A608D0428C0F09282F9
:101CA000D8F81000616A0870606A01306062608D67
:101CB00001386085608D032840F0128320684168F8
:101CC00021F48061416002B0BDE8F081206C002801
:101CD00018BFD8F8185094F83D0000F028002828C4
:101CE00040F0E280DCF80000002320F48060CCF8B3
:101CF0000000012020EA950128064FF0180058BF87
:101D00000C20225A204684F83C3002B0BDE8F04155
:101D1000FFF74ABEE06AB0F12A4F01D10820E06225
:101D200094F83E0040280DD1206D616C002801F030
:101D3000FE0018BF40F00100C8F8100002B0BDE876
:101D4000F08100BF2069B0F5804F40F0F58094F835
:101D50003D00616C212801F0FE0118BF0131C8F877
:101D60001010606B08B1C06B38B9A06B002800F090
:101D7000B782C06B002800F0B382DCF8000040F4AA
:101D80000060CCF8000002B0BDE8F08100200190B6
:101D9000D8F814000190D8F818000190019802B00A
:101DA000BDE8F08194F83D50D8F8040020F4E060DC
:101DB000C8F8040000200190D8F814000190D8F869
:101DC000000040F00100C8F800000198D8F80000B9
:101DD00020F48060C8F80000D8F80400000540F145
:101DE0005D8145F008002A2840F03881A06B016829
:101DF00049686185618D19B1216C41F0040121644C
:101E0000DCF8001021F40061CCF80010FFF736FB7D
:101E1000012800F04381A06B43F60531C0F60001B4
:101E20000165FFF719FB002800F03881A06B33E152
:101E3000002840F05582580540F1F08001F0840000
:101E4000802840F0EB8094F83D2094F83E00E16A51
:101E5000212A40F09B81238D002B40F0978111F5C2
:101E6000803F18BF082940F05F82D8F80400202185
:101E700020F4E060C8F80400D8F8000040F40070D6
:101E8000C8F800000020206384F83D1094F83E104C
:101E900084F83E004029204640F0588202B0BDE858
:101EA000F04100F0E7BB00BF00200190D8F814100B
:101EB0000191D8F818100191019984F83C0002B002
:101EC000BDE8F08158056BD501F04400402867D18A
:101ED00094F83D00618D002900F00282D8F81010BE
:101EE000626A2A281170616A01F101016162618DE3
:101EF000A1F101016185618D08BF002940F0F081E9
:101F00002068416821F480614160222028212063FB
:101F1000204684F83D1021E1002E18BF11F0040086
:101F200000F0DE81608D002800F0DA81606A10F830
:101F3000011BC8F8101069E0206D002842D0206D08
:101F4000012840F0CD81606C062101EAD010F1300B
:101F5000C8F8100002B0BDE8F08100BF608D70B11C
:101F6000608D012840F00081202A18BF082A40F027
:101F7000C581D8F8000020F48060C8F80000002077
:101F80000190D8F814000190D8F818000190019839
:101F9000D8F8000040F40070C8F8000036E200BF36
:101FA000002E18BF11F0040000F09A81608D002807
:101FB00000F09681D8F81000616A0870606A0130FC
:101FC00024E000BF606C062101EAD010F030C8F8B0
:101FD000100002B0BDE8F08101F00400012181EAA7
:101FE000900050EA0E0040F07B81E26A608D042888
:101FF00040F05881D8F8040020F48060C8F804004C
:10200000D8F81000616A0870606A01306062608D03
:102010000138608502B0BDE8F08100BF01F0040026
:10202000012181EA900050EA0E0040F05981212AF6
:1020300040F04E81E06A94F83D10212940F0508133
:10204000618D00297FF472AF10F5803F18BF08281A
:102050003FF40BAF20283FF408AF68E1606B0168E4
:1020600049686185618D19B1216C41F004012164D9
:10207000DCF8001021F40061CCF80010FFF7FEF945
:1020800001280BD0606B43F60531C0F600010165F5
:10209000FFF7E2F910B1606B016D8847608D60B1A8
:1020A00020684169490731D4416949063BD4608DB4
:1020B00018B1206C40F004002064206C30B1204640
:1020C00002B0BDE8F04101F0ABBD00BF2A2D07D141
:1020D00000202063282084F83D00204600F012FBF9
:1020E00094F83D0028282BD10020CFF6FF70E06245
:1020F00000212020216384F83D00204684F83E1012
:1021000002B0BDE8F04100F0ADBA00BF0069616AFD
:102110000870616A206801316162618D01396185F1
:1021200041694906C3D50069616A0870606A013077
:102130006062608D01386085608D0028B9D1BCE790
:10214000222D206B18BF222840F0CA8000212020B9
:10215000216384F83D00204684F83E1002B0BDE8BB
:10216000F04100F0CFBA00BF608D022820D1102AC4
:1021700000F22081012014219040C0F201010842A8
:1021800000F018814FF480601CE100BF212A04D0C8
:10219000222A08BF402840F0A380608D002800F06C
:1021A000A38094F83E00402800F09480BEE600BF73
:1021B000D8F8000040F48060C8F80000D8F80400A7
:1021C00007E100BFE16A012800F28E80022900F0D9
:1021D0008B800020019040F24800C2F200000068AD
:1021E0004BF28951C008C1F2F841A0FB0101080A75
:1021F00000EB8000019001980138019001980028BF
:1022000000F00E81D8F80000800520D50198013833
:1022100001900198002800F00381D8F800008005A3
:1022200015D50198013801900198002800F0F88038
:10223000D8F8000080050AD501980138019001986E
:10224000002800F0ED80D8F800008005D3D4D8F83D
:10225000000020F48060C8F80000D8F8040020F4E2
:10226000E060C8F80400D8F81000616A0870606A7D
:10227000002101306062608D01386085202084F883
:102280003D0094F83E0084F83E10402800F016818E
:10229000082A4FF0000100F02081202A18BF1221E7
:1022A0001BE100BF608D032856D1DCF80000022A34
:1022B00020F48060CCF800003FF4A2AE042A3FF482
:1022C0009FAED8F8000020F48060C8F8000097E6C0
:1022D000402D05D1204602B0BDE8F04101F060BDBF
:1022E00002B0BDE8F08100BFDCF8000020F480609F
:1022F000CCF8000002B0BDE8F08100BF12F5803FCD
:1023000042D1D8F8000020F48060C8F80000D8F866
:10231000040000057FF533AED8F8000020F480609B
:10232000C8F8000069E000BF20293FF49EADDCF84A
:102330000000202120F4E060CCF800001120206390
:10234000002084F83E00204684F83D1002B0BDE82D
:10235000F04100F08BB900BF608D02287FF450AED1
:10236000501E0F2800F28280DFE800F0087A807AA1
:10237000808080808080808080808008D8F8000005
:1023800020F4806076E000BF012A02D012293FF4D9
:10239000F0AD102AC0D8012014219040C0F20101F4
:1023A0000842B9D0D8F8000040F48060C8F80000B6
:1023B00023E000BFD8F8000020F48060C8F80000D7
:1023C0004FF40060D8F800100843C8F80000DCF8AB
:1023D0000000000511D5501E1F281DD8012101FA4B
:1023E00000F048F28101C8F20001084214D0DCF884
:1023F000000040F48050CCF8000000200190D8F894
:1024000014000190D8F81800019001980020206570
:1024100002B0BDE8F08100BF12F5803FE7D0ECE7E5
:10242000206C40F020002064D8F8040020F4E06024
:10243000C8F80400D8F81000616A0870606A0021CA
:1024400001306062608D01386085202084F83D0095
:10245000204684F83E1002B0BDE8F04100F044B8D8
:10246000D8F8000040F4806004E000BFD8F8000015
:1024700040F40070C8F80000D8F81000616A0870D5
:10248000606A2168431C6362638D013B638509694F
:102490004170606A216801306062608D013860853A
:1024A000486820F440704860202084F83D0094F88B
:1024B0003E000021402884F83E1007D120462163C9
:1024C00002B0BDE8F04100F0D3B800BF082A4FF0D9
:1024D000000102D0202A18BF12212046216302B039
:1024E000BDE8F04100F0C0B87047000070B5B8B367
:1024F000044690F83D0028B9002084F83C002046AE
:1025000000F0BAF8242084F83D002068016821F02A
:1025100001010160016841F400410160016821F49A
:102520000041016000F096FA48F28041C0F21E01BD
:1025300040F60013D4F804E088424FF00001C0F2E6
:102540003D0348F2A16C4FF0000238BF01219842D0
:10255000C0F2010C38BF0122E64538BF0A460AB175
:10256000012070BD4DF68361C4F21B31A0FB011246
:102570002168950C4B684FF4967623F03F0343EAAD
:102580009243754344F6D3564B60C1F262060B6A20
:10259000A5FB0656B50923F03F03E64538BF950C69
:1025A0006A1C1A430A62CA6948F2A0664CF6FF73B5
:1025B000C0F20106B64522EA03020BD801384FEA01
:1025C0004E03B0FBF3F001306FF31F30042898BFC7
:1025D00004201EE0A368013863B119230EFB03F346
:1025E000B0FBF3F001306FF31F3078B100F580409D
:1025F00008E000BF0EEB4E03B0FBF3F001306FF3C9
:102600001F3028B100F5004003E000BF012000E0CA
:1026100001201043C8610868D4E9072320F0C000F6
:10262000104318430860886848F2FF3204F10C0632
:1026300090434CCE18431043A5698860C86820F0C9
:10264000FF0030432843C860086840F0010008607C
:1026500000202021206484F83D10206384F83E008F
:1026600070BD000070470000704700007047000018
:102670007047000070470000B0B586B0016845F2B1
:102680000040C4F20000814202D006B0B0BD00BFDD
:10269000002443F630050194C4F20205296800F5D0
:1026A000D83041F002012960296801F0020101914E
:1026B0000199C02101911221CDE902140321049155
:1026C0000421059101A9FFF783F8009428690021EE
:1026D00040F4001028612869002200F400100090E6
:1026E00000981F2000F08CF81F2000F079F82020BF
:1026F0000021002200F084F8202000F071F806B0DC
:10270000B0BD0000704700007047000040F240007C
:1027100040F22851C2F20000C2F2000100780A68BB
:10272000104408607047000080B543F60040C4F2D2
:102730000200016841F400710160016841F48061A8
:102740000160016841F480710160032000F084F8A9
:102750000F2000F005F800F027F8002080BD0000F1
:1027600070B540F24006C2F2000640F248013278ED
:10277000C2F200014FF47A730968B3FBF2F2044627
:10278000B1FBF2F1084600F051FC0F2C4FF00105AF
:1027900008D838B94FF0FF3021460022002500F05C
:1027A0002FF87460284670BD82B0002043F64001C7
:1027B0000190C4F202014A6842F480424A604A68C9
:1027C00002F480420192019A0090086840F0805023
:1027D0000860086800F080500090009802B07047D0
:1027E000002848BF704700F01F01012202FA01F1E2
:1027F0004EF200124009CEF2000242F8201070475B
:1028000010B54EF60C5CCEF2000CDCF80030C3F3D1
:10281000022E8EF00704042C28BF0424BEF103030B
:102820004FF0FF3E0EFA04F438BF0023A143994055
:102830000EFA03F39A4300F00F03043B1143634481
:1028400009010C3300F16042B0F1FF3FC8BF02F54F
:102850006443197010BD00004EF60C51CEF2000119
:102860000A684FF6FF031A4060F30A2242F08060C4
:1028700040F0FD700860704770B582B00020019094
:1028800043F64000C4F202000168402641F0805146
:1028900001600068C4F20E2600F08050019001989B
:1028A00047F204050120C4F200053060FFF774F818
:1028B000044600BF2868C00306D4FFF76DF8001B6C
:1028C000B0F57A7FF6D90EE001207060FFF764F86A
:1028D000044600BF2868800308D4FFF75DF8001B9A
:1028E000B0F57A7FF6D9032002B070BD002002B0A7
:1028F00070BD00002DE9F041002800F08B8043F608
:102900000808C4F202080446D8F8F8030D4600F09F
:102910000F00884207D288F8F853D8F8F80300F07F
:102920000F00A84276D12068810717D5410705D549
:10293000D8F8001041F4E051C8F80010010705D59F
:10294000D8F8001041F46041C8F80010D8F8001021
:10295000A26821F0F0011143C8F80010C0073FD170
:10296000D8F8F80300F00F00A84207D988F8F85308
:10297000D8F8F80300F00F00A8424BD120684107B7
:1029800007D5D8F80010E26821F4E0511143C8F8E7
:102990000010000708D5D8F80000216920F4604035
:1029A00040EAC100C8F8000000F07CF8D8F8001038
:1029B00046F65872C1F30311C0F60002515C40F2B2
:1029C000480220FA01F140F24400C2F2000000681F
:1029D000C2F200021160FFF7C3FE0020BDE8F081E3
:1029E0006068811E022907D258F8081C89015CBF63
:1029F0000120BDE8F08111E0012807D158F8081C3A
:102A000089035CBF0120BDE8F08107E058F8081C8D
:102A1000890703D40120BDE8F08100BFD8F8001079
:102A200021F003010843C8F80000FEF7B5FF064691
:102A300041F28837D8F80000616800F00C00B0EB74
:102A4000810F8DD0FEF7A8FF801BB842F2D903207A
:102A5000BDE8F08140F2480043F60801C2F20000F0
:102A6000C4F202010068096846F66872C1F3822167
:102A7000C0F60002515CC8407047000040F24800B8
:102A800043F60801C2F20000C4F2020100680968BE
:102A900046F66872C1F34231C0F60002515CC8408C
:102AA0007047000010B543F60404C4F202046068E5
:102AB000C0F3810142F20040C0F2F400DFE801F00F
:102AC0004402081841F20020C0F27A0010BD00BF95
:102AD000216801F03F02216823684902C3F388118D
:102AE00016D4A1FB00010023FDF7DCFB17E000BFBB
:102AF000216801F03F02216823684902C3F388116D
:102B000016D4A1FB00010023FDF7CCFB17E000BFAA
:102B100041F20020C0F27A004843B0FBF2F0216895
:102B20000222C1F3014102EB4101B0FBF1F010BD03
:102B300041F20020C0F27A004843B0FBF2F0216875
:102B4000C1F30271B0FBF1F010BD00002DE9F041BE
:102B500082B0002800F096800446007843F6000614
:102B6000C007C4F202062BD0B06800F00C000428A5
:102B700020D0B06800F00C00082802D17068400234
:102B800018D4B06800F00C000C2802D17068400224
:102B900010D46068B0F5803F07D0B0F5A02F40F0AA
:102BA0003B81306840F480203060306840F48030F1
:102BB00030603BE13068800302D56068002861D056
:102BC0002078800722D5B06810F00C0F11D0B068C3
:102BD00000F00C00082802D17068400209D5B068E6
:102BE00000F00C000C2840F09F807068400200F15B
:102BF0009B803068800702D5E068012842D13068A8
:102C0000216920F0F80040EAC10030602078000718
:102C10003CD42078400751D4A5698DB3B06800F04A
:102C20000C00082840F0A880012D2BD07068E169C5
:102C300000F480028A4225D1216A00F03F028A42D4
:102C400020D147F6C071626A0140B1EB821F19D1F1
:102C5000A26A0023CFF6FF7303EBC23200F44031C7
:102C60006FF30F0291420DD1E16A00F07062B2EB96
:102C7000016F07D1216B00F0E040B0EB017F01D183
:102C8000002035E1012002B0BDE8F0816069002834
:102C900040F20000C4F247205ED00121C0F8801E3F
:102CA000FEF77AFE054600BF706F8007B1D4FEF7CD
:102CB00073FE401B0228F7D9C5E000BF306C10F04E
:102CC00080580AD100200190306C40F08050306470
:102CD000306C00F080500190019847F20007C4F278
:102CE00000073868C00511D4386840F48070386037
:102CF000FEF752FE054600BF3868C00506D4FEF751
:102D00004BFE401B0228F7D99DE000BFA0680128B8
:102D100005D0052852D1306F40F004003067306F85
:102D200040F00100306753E0E068002860D00020E8
:102D3000C4F2472001210160FEF72EFE054600BFC8
:102D4000306880073FF55BAFFEF726FE401B022888
:102D50004FF00300F4D9CBE00021C0F8801EFEF74D
:102D60001BFE0546706F80077FF553AFFEF714FE1C
:102D7000401B0228F6D966E00027C4F2472700204E
:102D80003866FEF709FE022D05460BD1306880013A
:102D90005ED5FEF701FE401B02284FF00300F5D977
:102DA000A6E000BF306880017FF56AAFFEF7F4FD52
:102DB000401B02284FF00300F4D999E0316F00283E
:102DC00021F001013167316F21F00401316765D0D5
:102DD000FEF7E2FD054641F2883700BF306F8007FD
:102DE0006ED4FEF7D9FD401BB842F7D92BE000BFE7
:102DF0000020C4F2472000210160FEF7CDFD05460A
:102E0000306880077FF502AFFEF7C6FD401B022841
:102E10004FF00300F4D96BE03168002821F48031D1
:102E20003160316821F48021316053D0FEF7B4FD68
:102E3000054600BF306880033FF5C2AEFEF7ACFD2B
:102E4000401B6428F6D9032002B0BDE8F08100BF22
:102E500004F11C052FCD246B08430021CFF6FF7130
:102E600040EA821001EBC3316FF30F0140EA0560C5
:102E7000084340EA0470706001203866FEF78CFD5C
:102E8000044600BF306880013FF5FAAEFEF784FDCE
:102E9000001B02284FF00300F4D929E0FEF77CFD67
:102EA000054641F2883700BF306F800708D5FEF72E
:102EB00073FD401BB8424FF00300F5D918E000BF86
:102EC000B8F1000F7FF4A8AE306C20F08050306471
:102ED000A2E600BFFEF760FD0546306880037FF57F
:102EE0006FAEFEF759FD401B64284FF00300F4D984
:102EF00002B0BDE8F081000070B558B1D0F824C030
:102F00000446BCF1000F07D00021216104F1140137
:102F100008E000BF012070BD6168B1F5827F03D079
:102F200004F11C0100220A600025A56294F85110EA
:102F30004FF0000E41B9204684F8505000F040F8A0
:102F4000D4E909C101F4005E022284F85120D4E9D9
:102F50000023D4E90201166803F4827326F04006C8
:102F6000166000F404401844236901F40061084429
:102F700003F002016369084403F00101A369E669F3
:102F8000084403F40071084406F03801266A084436
:102F900006F08001084340EA0E001060042000EAB9
:102FA00013400CF0100108445060D06920F4006018
:102FB000D0610120656584F85100284670BD00008D
:102FC00080B586B0016843F20000C4F2010081427E
:102FD00002D006B080BD00BF002143F6300201914F
:102FE000C4F20202536900F5504043F48053536128
:102FF000536903F480530193019B0191136843F0DB
:1030000001031360126802F001020192019AE022AA
:1030100001920222CDE902210321049105210591AB
:1030200001A9FEF7D5FB06B080BD0000411E0020BF
:10303000B0EB116F1CBF012070474EF21002CEF2B0
:10304000000251604EF62351CEF20001F0230B70C6
:1030500007219060116070477047000070470000C2
:10306000002804BF0120704710B5044690F83D00C9
:1030700028B9002084F83C00204600F01FF8022008
:1030800084F83D002068211D01F04EFD012084F8E8
:10309000460084F83E0084F83F0084F8400084F83D
:1030A000410084F8420084F8430084F8440084F826
:1030B000450084F83D00002010BD000080B582B0BE
:1030C000006842F20001C4F2000188421CBF02B055
:1030D00080BD0020019043F64000C4F20200016868
:1030E000002241F4807101600068002100F48070CA
:1030F000019001982D20FFF783FB2D2002B0BDE841
:103100008040FFF76DBB000070470000B0B504467B
:103110000068C168026902EA0105A90720D46807AE
:1031200034D428074AD4E80660D4E80777D12806C3
:1031300000F17F80680606D520686FF040010161CC
:10314000204600F087F8A80658BFB0BD21686FF090
:10315000200220460A61BDE8B040FFF77FBF00BFF4
:103160006FF002010161012121778069800703D09E
:103170002046FFF7C9FF05E0204600F065F820462D
:1031800000F064F8002020776807CAD520686FF047
:103190000401016102212177806910F4407F03D08E
:1031A0002046FFF7B1FF05E0204600F04DF820462D
:1031B00000F04CF8002020772807B4D520686FF085
:1031C0000801016104212177C069800704D02046ED
:1031D000FFF79AFF06E000BF204600F035F82046D2
:1031E00000F034F800202077E8069ED520686FF0C4
:1031F0001001016108212177C06910F4407F03D0DC
:103200002046FFF781FF05E0204600F01DF820462C
:1032100000F01CF800202077E8073FF488AF206812
:103220006FF001010161204600F012F828067FF5D9
:1032300081AF20686FF0800101612046FFF70CFF2D
:1032400068067FF580AF77E77047000070470000A1
:103250007047000070470000704700007047000092
:10326000B0B582B0056804462968EA68686901F06B
:103270002F03202B02F0200306D12BB1204602B0F1
:10328000BDE8B04001F058BD5FEA017C1EBF00F010
:10329000010E02F4907010EB0E002FD1236B02EAA6
:1032A0000100C10618D5012B16D100200190286815
:1032B00001906868019001986869400628D4A08D43
:1032C000E18DE28D002A1CBF411A5FEA014040F007
:1032D000D78102B0B0BD00BF010600F1D380400627
:1032E000F7D5E868202120F04000E860204684F807
:1032F000411002B0BDE8B04000F094BBC80718BF51
:1033000012F4807040F0D280480700F1D580DAE0F6
:10331000E06B01684A6893B2002BDAD0A18D8B4232
:10332000D7D2E285C069B0F5807F00F0A08055E873
:10333000030F216820F4807041E80302F2B1206895
:1033400050E8030F216820F4807041E80302AAB11D
:10335000206850E8030F216820F4807041E80302E0
:1033600062B1206850E8030F216820F4807041E8C2
:1033700003021AB1206850E8030FDAE7206850E82A
:10338000050F216820F0010041E80502BAB320686A
:1033900050E8050F216820F0010041E8050272B3F2
:1033A000206850E8050F216820F0010041E805027F
:1033B0002AB3206850E8050F216820F0010041E899
:1033C0000502002ADAD11AE0206850E8050F2168CA
:1033D00020F0400041E80502DAB1206850E8050F0E
:1033E000216820F0400041E8050292B1206850E8D1
:1033F000050F216820F0400041E805024AB120682D
:1034000050E8050F216820F0400041E80502002A3D
:10341000DAD1202084F8420000202063206850E8A0
:10342000030F216820F0100041E80302DAB12068A0
:1034300050E8030F216820F0100041E8030292B128
:10344000206850E8030F216820F0100041E80302D3
:103450004AB1206850E8030F216820F0100041E8CD
:103460000302002ADAD1E06BFDF7ACFFA18D022048
:103470006063E08D081A81B2204602B0BDE8B0401A
:10348000FFF7EABE94F8410021287FF422AFA0683C
:10349000B0F5805F03D12069002800F08981206A9F
:1034A000411C21620078686089E100BF606C40F0D7
:1034B00001006064480706D5BEF1000F03D0606CC0
:1034C00040F002006064880706D5BEF1000F03D00B
:1034D000606C40F004006064BCF1000F06D55EEA49
:1034E000030003D0606C40F008006064606C00284A
:1034F0003FF4EFAE02EA0100800603D5204601F05A
:103500001BFC25686869616C00F0400001F008014F
:10351000401800F0AD8055E8030F00BF216820F48B
:10352000907041E80302D2B3206850E8030F21688D
:1035300020F4907041E803028AB3206850E8030F3A
:10354000216820F4907041E8030242B3206850E8FB
:10355000030F216820F4907041E80302FAB120685B
:1035600050E8030FDAE700BF206850E8050F216834
:1035700020F0010041E80502DAB1206850E8050FAB
:10358000216820F0010041E8050292B1206850E86E
:10359000050F216820F0010041E805024AB12068CA
:1035A00050E8050F216820F0010041E80502002ADB
:1035B000DAD1206B012824D1206850E8030F21685C
:1035C00020F0100041E80302DAB1206850E8030F50
:1035D000216820F0100041E8030292B1206850E811
:1035E000030F216820F0100041E803024AB120686F
:1035F00050E8030F216820F0100041E80302002A80
:10360000DAD1202084F8420000202063206841693C
:10361000490640F1C78050E8050F216820F04000BE
:1036200041E80502002A00F0AB80206850E8050F51
:10363000216820F0400041E80502002A00F0A08047
:10364000206850E8050F216820F0400041E805029D
:10365000002A00F09580206850E8050F216820F0CE
:10366000400041E80502002A00F08A802068D2E785
:103670002046FFF7F3FD0020606402B0B0BD00BF3C
:1036800055E8030F226820F4907042E80303D3B397
:10369000206850E8030F226820F4907042E803038A
:1036A0008BB3206850E8030F226820F4907042E842
:1036B000030343B3206850E8030F226820F490709E
:1036C00042E80303FBB1206850E8030FDAE700BFCC
:1036D000206850E8050F226820F0010042E8050349
:1036E000DBB1206850E8050F226820F0010042E8B5
:1036F000050393B1206850E8050F226820F001000F
:1037000042E805034BB1206850E8050F226820F01D
:10371000010042E80503002BDAD1202084F84200A2
:1037200000202063206850E8030F226820F010007A
:1037300042E80303DBB1206850E8030F226820F061
:10374000100042E8030393B1206850E8030F226899
:1037500020F0100042E803034BB1206850E8030F4B
:10376000226820F0100042E80303002BDAD1022285
:1037700089B22046626302B0BDE8B040FFF76CBD7D
:10378000E06B78B144F62D51C0F600010165FDF7FC
:1037900063FE00283FF49DADE06B016D02B0BDE813
:1037A000B0400847204602B0BDE8B040FFF756BD24
:1037B000206A30F8021B6FF35F2169602062E08CA1
:1037C00001380104E0847FF484ADE86820F08000D3
:1037D000E860E86840F04000E86002B0B0BD00007A
:1037E000002804BF0120704710B5044690F841003E
:1037F00028B9002084F84000204600F021F8242059
:1038000084F841002068C16821F40051C16020465D
:1038100001F014FB2068016921F4904101614169C4
:1038200021F02A014161C16841F40051C1600020CA
:103830002021606484F8411084F84210606310BD58
:103840002DE9F04786B00446006845F20001C4F255
:10385000000100268842CDE90466CDE902660196A2
:1038600030D044F60041C4F20001884240F0968016
:10387000002043F630010090C4F202010A6942F4CC
:1038800000220A610A6902F400220092009A009064
:103890000A6842F001020A600968022201F001018F
:1038A00000910099CDE90220082003210590002015
:1038B00001910491C4F2020001A9FDF789FF3424AB
:1038C00064E000BF43F630000096C4F202000169D4
:1038D000002741F4801101610169C4F2020701F47B
:1038E0008011009100990096016801AD41F004013A
:1038F000016001684FF0020801F004010091009995
:10390000009601684FF0030941F00801016000686A
:103910004FF0080A00F00800009000984FF4805023
:10392000019007F500602946CDE90286CDF8109098
:10393000CDF814A0FDF74CFF0420CDE9010803A841
:1039400080E8400607F540602946FDF741FF40F258
:103950008C3546F2B800C2F20005C4F202004FF006
:10396000006140224FF4806385E847002846C5E99E
:103970000436C5E90666C5E90866FDF763FE00285A
:1039800018BFFCF7EDFDA563AC633524204600218C
:103990000022FEF735FF2046FEF722FF06B0BDE805
:1039A000F087000090F84230202B1CBF02207047A7
:1039B00000294FF0010318BF002A01D118467047B3
:1039C00000230363816222218285C285436480F8DB
:1039D00042100169006819B1C16841F48071C16089
:1039E0004169002341F001014161C16841F02001BA
:1039F000C16018467047000080B540F2782040F260
:103A00003011C2F20000C2F20001283070310822E9
:103A1000FFF7C8FF40F2B000C2F200008189013117
:103A2000818180BD70470000FEE700002DE9F04F66
:103A300081B040F60004C4F202040546204640214D
:103A400000224FF00009FDF7A1FF2046802100224F
:103A5000FDF79CFF00F060FF40F2A814C2F20004E2
:103A600004EB050A9AF80A00082827D0680100F13B
:103A7000160B40F20C20C2F2000000F11C0540F2CF
:103A80003010C2F200004FF0040800F1580600F1B7
:103A9000240700BF214641F84CBF284632463B462A
:103AA000C4E91599C4F85C80FCF7D4FF40F6B8303F
:103AB000FDF77AFE9AF80A000828EBD140F2B00030
:103AC00040F60004C2F20000C4F2020480F805903F
:103AD000204640210122FDF759FF20468021012286
:103AE00001B0BDE8F04FFDF751BF000040F2EC30EF
:103AF000C2F20000FDF75ABF40F2EC30C2F2000003
:103B0000FDF7F8BF10B582B000210191806B40F243
:103B10004801C2F2000190F83DC009684BF2895299
:103B2000C908C1F2F842A1FB0212110A2322514333
:103B30000191019911B30199013901910168096855
:103B400089051FD50199C9B1019901390191016810
:103B50000968890516D5019981B101990139019149
:103B60000168096889050DD5019939B101990139B3
:103B70000191016809688905DBD403E0016C41F01B
:103B800020010164446B4FF0000E002C1CBF00218B
:103B9000E163816B00291CBF0022CA630268002C0C
:103BA000136823F480631360A0F82AE018BFC4F8F8
:103BB00050E000291CBF00230B65116821F00101B2
:103BC000116090F83D1060290AD1202180F83D1045
:103BD000002180F83E100164FDF7E4FE02B010BD44
:103BE0000CF02801282911D1116841F00101116060
:103BF000116841F48061116000210163282180F87F
:103C00003D10FEF771FC02B010BD00BF202180F80E
:103C10003D10002180F83E10FEF766FC02B010BD9A
:103C200010B5044690F83D1090F83E00402801D0B1
:103C300010280BD1222909D12068026822F40062E1
:103C400002604268602939D141E000BF01F02800DC
:103C500028282FD100202063282084F83D002068E8
:103C60004168090538D5416821F400614160606B05
:103C700090F8351001294DD1A06B43F60531C0F6FF
:103C800000010165FDF7E8FB002856D02068416976
:103C9000490606D50069616A0870616A20680131C9
:103CA0006162016821F001010160202084F83D007B
:103CB000A06B40E020684268602908D012F40061DF
:103CC00005D1202184F83D10002184F83E10002108
:103CD000216341680905C6D494F83D1060294FD18D
:103CE000202184F83D10002121644169490606D550
:103CF0000069616A0870616A206801316162016867
:103D000021F0010101602046FDF74CFE206C000708
:103D100016D11AE043F60531C0F600010165FDF742
:103D20009BFB50B12168606B0A6822F001020A60B7
:103D3000202184F83D10016D8847206C000704D0D5
:103D40002068416821F4E061416094F83D10206CE6
:103D5000282918BF10BD10F004000FD00020CFF6A6
:103D6000FF70E06200212020216384F83D0020469E
:103D700084F83E10BDE81040FEF774BC10BD00BFD3
:103D80004169490605D50069616A0870606A0130B9
:103D900060622046FEF7A8FB206C0007D0D1D4E774
:103DA00090F83D10026D5AB1026D012A14D10168DC
:103DB000826CD2B20A61016D01310165704700BFAA
:103DC000C26C816C012A15D10268C9B21161016D02
:103DD00002310165704700BF026D022A12D122290B
:103DE00018D101680A6842F480720A60016D0131DD
:103DF000016570470268C1F307211161016D01314E
:103E00000165704700684169090644BF00210161EE
:103E1000704700BF428D21290AD14AB1416A026828
:103E200011F8013B13614162418D013941857047B1
:103E30002129428D08BF002AEAD101684A6822F48C
:103E4000E0624A600A6842F400720A60002120229F
:103E5000016380F83D2080F83E10FEF70BBC0000A7
:103E6000FEE70000FEE700002DE9F04F81B02DEDE8
:103E7000028B40F20005C2F20005687870B3297920
:103E800061B32978012929D0A978C0009FEDBB2A08
:103E900000EE100AB2EE001AB8EEC00A012908BFFF
:103EA000B0EE401AB4EE421AF1EE10FAC8BFB0EE0E
:103EB000421A85ED041A00F0DDFEA87840F2B00A3F
:103EC0000128C2F2000A29D19AED0D0A9AED0E2AB4
:103ED000B8EEC01AB8EEC20A29E000BF9FEDF88A1A
:103EE0000120B0EE480A00F0F1F90120FDF75CFC7A
:103EF0000220B0EE480A00F0E9F90120FDF754FC79
:103F00000320B0EE480A00F0E1F90120BDEC028B7D
:103F100001B0BDE8F04FFDF747BC00BF9FEDE80AD8
:103F20000020B0EE401ACAF83400CAF8380095ED07
:103F3000042AE87932EE000A32EE011ABDEEC00A18
:103F4000BDEEC11A10EE102A11EE101AAA7140F23D
:103F5000A81440F2301640F20C224FF0000B8842B9
:103F6000C2F20004C2F20006C2F20002CAF83CB07B
:103F7000697101D2012106E088425BD940F20C222E
:103F8000FF21C2F200020844C1B28AF8070000EE25
:103F9000101A2F202546B8EE400A45F84C0F44F27F
:103FA0008C20B146A6F85E0006F1580886ED160A88
:103FB000082002F11C0609F12407C5E903B03046C8
:103FC000294642463B4685F814B0C5E901BBFCF7DB
:103FD00041FD0120FDF7E8FBDAF818002946013021
:103FE000CAF81800304642463B46FCF733FD012034
:103FF000FDF7DAFBDAF8180029460130CAF8180094
:10400000304642463B464E46FCF724FD0120FDF774
:10401000CBFBDAF81800C9E916BB0130CAF8180062
:104020000120FDF7C1FB9AF8070040F20005C2F23B
:104030000005E871A979287A814240F2A180013017
:10404000C1B28AF808004F2044F84C0F44F28C208B
:104050004FF00008A6F85E000820C4E9038040F293
:104060000C20C2F2000000EE101A06F1580900F10F
:104070001C0706F1240BB8EE400A384621464A4692
:104080005B4684F8148086ED160AC4E90188FCF7C3
:10409000E1FC0120FDF788FBDAF818002146013029
:1040A000CAF8180038464A465B46FCF7D3FC0120A4
:1040B000FDF77AFBDAF8180021460130CAF818003B
:1040C00038464A465B46FCF7C5FC0120FDF76CFB11
:1040D000DAF81800C6E916880130CAF8180001207D
:1040E000FDF762FB9AF80800214600EE100A44F240
:1040F0008C20A6F85E006F20C4E900080820B8EE06
:10410000400A206138464A465B4684F8148086EDB2
:10411000160AC4E90288FCF79DFC0120FDF744FB68
:10412000DAF8180021460130CAF8180038464A4625
:104130005B46FCF78FFC0120FDF736FBDAF8180030
:1041400021460130CAF8180038464A465B46FCF75B
:1041500081FC0120FDF728FBDAF81800C6E9168873
:104160000130CAF818000120FDF71EFB9AF808007C
:104170002872BDEC028B01B0BDE8F08F0000104248
:10418000F7D20138C1B28AF808004F2044F84C0F2A
:1041900044F28C204FF00008A6F85E000820C4E925
:1041A000038040F20C20C2F2000000EE101A06F16B
:1041B000580900F11C0706F1240BB8EE400A3846F6
:1041C00021464A465B4684F8148086ED160AC4E907
:1041D0000188FCF73FFC0120FDF7E6FADAF8180049
:1041E00021460130CAF8180038464A465B46FCF7BB
:1041F00031FC0120FDF7D8FADAF818002146013029
:10420000CAF8180038464A465B46FCF723FC0120F2
:10421000FDF7CAFADAF81800C6E916880130CAF8BC
:1042200018000120FDF7C0FA9AF80800214600EEB8
:10423000100A44F28C20A6F85E006F20C4E9000842
:104240000820B8EE400A206138464A465B4684F8AA
:10425000148086ED160AC4E90288FCF7FBFB0120F6
:10426000FDF7A2FADAF8180021460130CAF8180062
:1042700038464A465B46FCF7EDFB0120FDF794FA11
:10428000DAF8180021460130CAF8180038464A46C4
:104290005B46FCF7DFFB0120FDF786FADAF8180031
:1042A000C6E916880130CAF818000120FDF77CFA2B
:1042B0009AF808002872BDEC028B01B0BDE8F08FBF
:1042C000000000007047000070470000032805D080
:1042D000002808BFB1EE400A02E000BFB1EE400A7C
:1042E0002DE9F04740F2A8144001C2F200040E305C
:1042F00044F84C0F4FF000080420C4E9038040F25A
:10430000301940F20C20C2F20009C2F2000009F19B
:10431000580500F11C0709F12406B1EE400A3846A1
:1043200021462A46334684F81480C4E9018889ED81
:10433000160AFCF78FFB0120FDF736FA40F2B00AAF
:10434000C2F2000ADAF8180021460130CAF8180053
:1043500038462A463346FCF77DFB0120FDF724FA58
:10436000DAF8180021460130CAF8180038462A4603
:104370003346FCF76FFB0120FDF716FADAF8180058
:10438000C9E916880130CAF81800BDE8F0870000B6
:104390002DE9F04F81B02DED108B82B040F200027C
:1043A000C2F20002907840F2B00A01380428C2F24A
:1043B000000A00F2D780DFE800F01FC1D5B7DB00AC
:1043C000C173EFE192E3D83F9A9999999999064080
:1043D0000000000000000000000000000000244079
:1043E00050455254FB210940000000000080664007
:1043F0000000000000908A40D678B6F15A0038BF1D
:10440000C6F15A0002F06FF91FED130B53EC102B9D
:1044100002F0D0F91FED140B044653EC102B0D469F
:1044200001F0D8FF1FED160B5C2E53EC102B1FED87
:10443000160B3CBF1D461446592E24BF2946204664
:1044400055EC104B22462B4602F0B4F941EC100B10
:1044500000F0F2FF51EC100B22462B4601F0BAFFA0
:1044600041EC100B40F2301BC2F2000B8BED0C0B39
:104470001FED250B58EC109B4A46434602F09AF973
:104480001FED270B56EC107B3A46334601F0A2FF96
:1044900041EC100B01F040F853EC102B1FED2C0BEE
:1044A00054EC105B2846214601F094FF01F0ACFE6D
:1044B000CAF8400002F006FC9BED0C0B01908B4605
:1044C00051EC100B4A46434602F074F93A46334623
:1044D00001F080FF41EC100B01F082F853EC102B3F
:1044E0002846214640F20004C2F2000401F072FFA7
:1044F000024601980B46594602F0F6FA01F084FE96
:1045000094F8038000EE100AB8F1580FCAF844007E
:1045100000F2F8809AED101A9FEDE92A31EE400A78
:1045200030EE020AFDE000BF0020CAE90D0046F2AD
:104530006660CBF686709FEDED8A22E00020CAE926
:104540000D004AF614604AF61461C4F20310CCF26E
:1045500003119FEDE79A9FEDE78ACAE91300CAF8B5
:10456000541014E09FEDE58A0020CAE90D0008E030
:104570000020CAE90D0046F26660C3F686709FED22
:10458000DA8ACAE91300B0EE489ACAF854009AEDE4
:10459000160A40F2A814B4EE490A40F20C21F1EEDA
:1045A00010FAC2F20004C2F2000151D040F23019F8
:1045B000EC202546C2F2000945F84C0F4FF0000BE5
:1045C000042009F1580801F11C0609F12407C5E986
:1045D00003B03046294642463B4685F814B0C5E94B
:1045E00001BB89ED169AFCF735FA0120FDF7DCF8DE
:1045F000DAF8180029460130CAF818003046424659
:104600003B46FCF727FA0120FDF7CEF8DAF8180050
:1046100029460130CAF81800304642463B46FCF7AE
:1046200019FA0120FDF7C0F8DAF81800C9E916BB3D
:104630000130CAF818000120FDF7B6F840F20C214D
:10464000DAF850009AED158AC2F20001CAF8580053
:104650009AED170AB4EE480AF1EE10FA4BD040F288
:1046600030194FF48670C2F2000944F84C0F4FF035
:104670000008042009F1580501F11C0709F124067E
:10468000C4E90380384621462A46334684F814801C
:10469000C4E9018889ED168AFCF7DCF90120FDF7F1
:1046A00083F8DAF8180021460130CAF818003846B5
:1046B0002A463346FCF7CEF90120FDF775F8DAF803
:1046C000180021460130CAF8180038462A463346F9
:1046D000FCF7C0F90120FDF767F8DAF81800C9E91E
:1046E00016880130CAF818000120FDF75DF8DAF8E5
:1046F0005400CAF85C0002B0BDEC108B01B0BDE8FC
:10470000F08F00BF9AED101A9FED7B2A31EE400A20
:1047100030EE021A9FED790AB8F15B0F88BFB0EE58
:10472000410A9FED77AA40F2301980EE0ACAC2F220
:10473000000999ED0C0B9FED641B51EC100B53EC31
:10474000112B8AED12CA02F035F89FED610B53EC84
:10475000102B01F03FFE01F057FD94ED04DAB3EEAB
:10476000080A8DEE000A09EE100AB1EE49BAB0EE61
:104770004B1AB8F1590F38BFB0EE491AB1EE418A61
:104780008AED131A8AED141A8AED158A10EE100AB2
:1047900002F098FA41EC100B04461CEE100A0D468C
:1047A00089ED140B02F08EFA9FED4B0B06460F4677
:1047B00053EC102B2046294601F0FCFF02460B4625
:1047C0003046394601F006FE41EC100B9FED4D1AC4
:1047D00089ED0E0B3CEE010A044610EE100A0D4660
:1047E00002F070FA22462B4601F0F4FD9FED3C0BDF
:1047F00056EC107B3A46334601F0DCFF01F004FD35
:104800009FED41FA00EE100A80EE0F0ADFED3F8ABD
:10481000DFED3F9A20EE0A0A80EE280A20EE290AF0
:1048200030EE4DEA1EEE100A02F04CFA41EC100B8D
:104830009FED381A89ED100B3CEE010A10EE100ABC
:1048400002F040FA22462B4601F0C4FD3A463346B8
:1048500001F0B0FF01F0D8FC00EE100A80EE0F0A64
:1048600020EE0A0A80EE280A20EE290A30EE4DAA30
:104870001AEE100A02F026FA41EC100BB8F1580FAC
:1048800089ED120B08D8BDEECE0ABDEECA1A8AED2C
:104890000D0A8AED0E1A7AE6B8F15C0F0AD3BDEE66
:1048A000CA0ABDEECE1A8AED0D0A8AED0E1AB0EED6
:1048B0004B9A6CE60020CAE90D00B0EE4B9A66E612
:1048C000004098C400BF00BF00000000000053403B
:1048D0000000000000807640EE7C3F355EBAD13F9C
:1048E000CDCCCCCCCCCC0C406666863F666686BF11
:1048F00014AE034114AE03C1004098440000000010
:1049000000007A44A01AAFBF14E7AA3F0000614537
:104910000000E442A01AAF3F2DE9F0472DED028BD5
:104920009FED4C8A0120B0EE480AFFF7CFFC022031
:10493000B0EE480AFFF7CAFC0320B0EE480AFFF7C2
:10494000C5FC40F2A815C2F20005ED2040F230147B
:1049500045F84C0F4FF00008C2F2000440F20C2062
:1049600044F8588FC2F20000A4F1340600F11C078D
:104970004FF0040A384629462246334685F814800B
:10498000C5E90188C5E9038AFCF764F80120FCF752
:104990000BFF40F2B009C2F20009D9F8180029460D
:1049A0000130C9F81800384622463346FCF752F861
:1049B0000120FCF7F9FED9F8180029460130C9F8A2
:1049C0001800384622463346FCF744F80120FCF72D
:1049D000EBFED9F8180029460130C9F8180040F25A
:1049E0000D10C5E90008384622463346C4E9008860
:1049F00085F81480C5E90288C5F810A0FCF72AF8EC
:104A00000120FCF7D1FED9F8180029460130C9F879
:104A10001800384622463346FCF71CF80120FCF704
:104A2000C3FED9F8180029460130C9F818003846E5
:104A300022463346FCF70EF80120FCF7B5FED9F804
:104A40001800C4E900880130C9F81800BDEC028BD9
:104A5000BDE8F08700000000FDF758BE80B594B0B7
:104A6000002043F64001CDE90B00CDE90900069096
:104A7000CDE90400CDE902000190C4F202010A6808
:104A800042F080520A60096801F080510191019959
:104A9000019047F20000C4F20000016841F4404177
:104AA000016000684FF4800100F4404001900198DB
:104AB000012007904FF480300E91042108900220CD
:104AC0000F91B4210D90CDE91010CDE9120007A887
:104AD000FEF73CF8B0B9FDF7CFFE98B90F20029071
:104AE00002200390002004904FF4A05005904FF452
:104AF0008050069002A80521FDF7FCFE002804BFA7
:104B000014B080BDFBF72CFD4EF68850CEF20000AD
:104B1000016841F4700101607047000040F2984064
:104B2000C2F20000FEF7F2BA10B540F6FF3E03688D
:104B3000C4F2000E40F2004C7045C4F2010C27DCB8
:104B4000B0F1804F31D040F20042C4F200029042F6
:104B50002BD040F60002C4F20002904225D041F66C
:104B6000FF72C4F20002904229DC70453CDCB0F1D7
:104B7000804F5FD040F20042C4F20002904259D010
:104B800040F60002C4F20002904253D056E000BF4B
:104B900040F60042C4F20002904206D0604504D0C4
:104BA0000022C4F201029042D9D14A6823F0700376
:104BB000134341F6FF72C4F200029042D5DD43F682
:104BC000FF72C4F20102904222DC42F20002C4F2FF
:104BD000000290422ED00022C4F20102904229D05D
:104BE000604527D02AE000BF40F60042C4F2000230
:104BF00090421FD041F60002C4F20002904219D048
:104C000041F60042C4F20002904213D016E000BF09
:104C100044F20002C4F2010290420BD044F60002BA
:104C2000C4F20102904205D044F20042C4F20102F3
:104C3000904203D1CA6823F44073134323F08002E7
:104C40004B69D1F800E08C681A430260C46240F4FA
:104C50008062C0F828E0624504BF09690163012150
:104C600041610169C90708BF10BD016921F0010157
:104C7000016110BD10B540F20000C2F200000178E1
:104C800040F2B0040229C2F2000416D1A1782279C0
:104C90008A4212D031B1022908D001290CD190EDFD
:104CA000030A07E09FED1A0A04E000BF90ED030A33
:104CB000B1EE400A84ED090A217194ED090A94EDE0
:104CC0000A1AB4EE401AF1EE10FA08BF10BD80784F
:104CD00002284FF0010004BFB1EE400A84ED090A3A
:104CE000FFF7F4FA0120FCF75FFD94ED090A0220BA
:104CF000FFF7ECFA0120FCF757FD94ED090A0320B9
:104D0000FFF7E4FA0120FCF74FFD606AA06210BDD6
:104D10000000000040F2A020C2F20000FEF7A0BA9E
:104D200040F2E040C2F20000FEF79ABA806B002128
:104D3000C185C184FEF792BA81B090F84210222951
:104D400020D18368B3F5805F08D10169002957D06D
:104D500000F128010A6803685B680AE0014651F81F
:104D6000282F13B90369002BF5D003685B6803F0A3
:104D70007F0313700A6801320A60C18D01390A0489
:104D8000C18501D001B070470168CA6822F02002D5
:104D9000CA60CA6822F48072CA604A6922F00102BD
:104DA0004A61202280F8422000224263036B012BDB
:104DB00030D1026351E8031F026821F0100142E87C
:104DC00003135BB3016851E8031F026821F010016F
:104DD00042E8031313B3016851E8031F026821F08E
:104DE000100142E80313CBB1016851E8031F0268C8
:104DF00021F0100142E8031383B10168DAE700BF34
:104E00000168826A49686FF35F2122F8021B82629F
:104E1000B3E700BF01B0FEF7EFBD00BF01680A684D
:104E2000D20606D5002200920A68009249680091D5
:104E30000099818D01B0FEF70FBA000010B504464D
:104E40000068D4E902C22369016921F44051114389
:104E50000161626943EA0C01E3691143C2681943C5
:104E600049F20C639A431143C1604169A26921F47C
:104E7000407141F20043114340F48062C4F20103E7
:104E80009A42416102D1FDF7F9FD01E0FDF7E2FD33
:104E9000E16963681922B1F5004FA0FB02011FD13F
:104EA0005A00DB0FFBF7FEF948F21F51C5F2EB1178
:104EB000A0FB01235A096FF0630302FB03003223B6
:104EC00003EBC000A0FB01014FF4F87000EA1110E1
:104ED00000EB0210C1F3421122680843906010BD3C
:104EE0009A009B0FFBF7DEF948F21F51C5F2EB1158
:104EF000A0FB01235A096FF0630302FB0300322376
:104F000003EB0010A0FB0101F02000EA511000EBC0
:104F10000210C1F3431122680843906010BD0000E5
:104F2000FEE700008EB040F60009C4F20209FDF76A
:104F3000FBFBFFF793FD002743F630040897039728
:104F4000C4F2020420684FF4035140F004002060D2
:104F50002068002200F00400039003980397206863
:104F60004FF4035640F080002060206800F080007D
:104F7000039003980397206840F0010020602068A8
:104F800000F00100039003980397206840F00200AE
:104F90002060206800F002000390039803972068C7
:104FA00040F008002060206800F00800039003989B
:104FB0004846FCF7EBFCA9F50065284610210022C5
:104FC0004FF0100BFCF7E2FCA9F5806A504640F266
:104FD00006310022FCF7DAFC049604AE4FF001081B
:104FE00048463146CDE905870797FCF7F1FB0420D9
:104FF000CDE90407284631460697FCF7E9FB284629
:105000003146CDE904B8CDE90677FCF7E1FB40F283
:105010000630CDE9040850463146CDE90677FCF765
:10502000D7FB4FF40060CDE90407484631460697A8
:10503000FCF7CEFB04972068002140F400102060AC
:105040002068002200F40010049004982F20FDF73F
:10505000D7FB2F20FDF7C4FB40F27820A9F5D23111
:10506000C2F2000001220C24C0F2001280E892007B
:1050700000F10C014E464FF420294FF4001B81E84B
:10508000800A82618783FBF773FF002840F0B881B4
:1050900040F278200E25C2F2000004A9CDF830803D
:1050A000CDE90477CDE90677CDE90877CDE90A782F
:1050B0000D95FBF721FDB046A6F5D03140F20C2648
:1050C000C2F20006304640F81C1F00F10C0181E8D6
:1050D000800A0121C0F20011C0E901478161878384
:1050E000FBF746FF002840F08B810120002406F1E9
:1050F0001C0B0C90CDE90805CDE90A4004A95846DF
:10510000CDE90444CDE906440D95FBF7F5FC40F2EA
:105110004040A8F55841C2F200004FF482724FF4AB
:10512000007380E816000A21C0E90344C0E9054382
:10513000C461C0E90844C0E90A41FDF7DDFE00286A
:1051400040F05E8140F27820A8F5DE37C2F2000020
:1051500040F8287F4FF4E1364FF00C09C0E90164B4
:10516000C0E90344C0E90594C461FEF739FB002897
:1051700040F0468140F2E040A8F5DC35C2F2000084
:105180000024C0E90056C0E90244C0E90449C0E96E
:105190000644FEF725FB002840F0328140F298409B
:1051A000A8F5F431C2F2000040F2E73342F22732B0
:1051B00080E81600C0E903348461FDF751FF002840
:1051C00040F01E8140F2EC30A8F5DA31C2F2000066
:1051D00048F2A06200244FF48043CDE90157C0F2A9
:1051E000010280E81600C0E90343C0E90544C0E9B4
:1051F0000744FDF77BF9002840F002814FF4167058
:10520000FCF7D2FA5846FCF7A1F86420FCF7CCFA78
:1052100058461021FBF706FC40F23018C2F2000895
:1052200040F2A81608204546C2F2000645F8580F7D
:1052300040F28710B14649F84C0F0420A5F134071D
:10524000C9F81000584649462A463B46C9E9024477
:10525000FBF700FC1420FCF7A7FA082028600420C4
:10526000C9F8100040F2A710C9F800005846494696
:105270002A463B46C9E90244FBF7ECFB1420FCF745
:1052800093FA4FF47A70FCF78FFAFCF785FB45F838
:10529000440CFCF781FB45F8400CA9F12E00A9F164
:1052A00018011722FBF776F840F278200299C2F233
:1052B000000040F8281F4FF4E1370C25C0E90174C5
:1052C000C0E90344C0E90554C461FEF789FA002827
:1052D00040F09680019940F2E0400022C2F20000C6
:1052E000C0E90017C0E90222C0E90425C0E906228E
:1052F000FEF776FA002840F0838040F27820C2F270
:105300000000283008F170010822FEF74BFB4FF433
:10531000FA60FCF749FA40F60004C4F202042046A1
:10532000402101224FF00109FCF730FB204680218B
:105330000122FCF72BFB40F2000440F2B007C2F25E
:1053400000044FF47A75C2F2000784F8049000BF9D
:105350002846FCF729FA98F87000AA2818D198F87E
:105360007700FF2814D198F8711098F872202170F6
:10537000617898F8730098F87430002A18BF1146C5
:105380006170B8F87510A070E370798001E000BF1B
:10539000A078002808BF84F80290FEF7F9FFFEF716
:1053A00063FD787A02210138B0FA80F04509504651
:1053B0002A46FCF7EBFA504604212A46FCF7E6FAA7
:1053C000F07A082804D0012087F80590FEF72EFB1C
:1053D0000120FCF7E9F9307B082804D0022087F887
:1053E0000590FEF723FB01200125FCF7DDF9707B1A
:1053F0000828ADD003207D71FEF718FBA8E700BF99
:10540000FBF7AEF803B401984100009850EAC120C0
:1054100018BF04204A0D18BF40F0010040F2FF728F
:10542000B2EB515F08BF40F00200012808BF052021
:1054300002B070470000000010B52DED020B2DEDFD
:10544000088B84B09DED0C0B51EC100B01F0E6FACB
:1054500041EC180B9DED0C0B53EC182B51EC100B81
:1054600001F042FB41EC190B0D989FED290B10F058
:10547000004F53EC102B51EC190B9FED21AB9FED1E
:1054800022BB0ED001F05AF90ED953EC1B2B51EC74
:10549000190B01F08DFA1CD214E000BF41EC180B7F
:1054A00017E001F04BF906D253EC1A2B51EC180B14
:1054B00001F01AFBF2E753EC1B2B51EC190B01F036
:1054C00077FA06D853EC1A2B51EC180B00F0CEFEED
:1054D000E4E78DED028B9DED0C0B18EE901A10EEAB
:1054E000900A8DED000B61F31E0003909DED020B01
:1054F00004B0BDEC088B02B010BD0000000000003D
:10550000000000000000F03F000000000000E03F4D
:10551000000000000000E0BF10B52F499FED2C1BDC
:105520002DED020B84B0059820F000408842DCBFCE
:1055300000209DED040B32DD2849884209D10498F2
:1055400040B94FF00100FAF7A4FF00F025FE06B0C5
:1055500010BD05DB9DED040B00F012FE06B010BD82
:1055600068469DED040B00F07BF810F0030011D0AD
:10557000012818D09DED021B9DED000B02281AD0CA
:1055800000F08AFA51EC100B00F032FE06B041EC4C
:10559000100B10BD9DED021B9DED000B012000F0D6
:1055A000AFFB06B010BD9DED021B9DED000B00F0A2
:1055B00073FA06B010BD012000F0A2FB51EC100BF5
:1055C00000F016FE06B041EC100B10BD000000000C
:1055D0000000000000000000FB21E93F0000F07F18
:1055E00010B51D499FED1A1B2DED020B84B00598D7
:1055F00020F000408842DCBF01209DED040B21DD3E
:105600001649884209D1049840B94FF00100FAF7D1
:1056100040FF00F0C1FD06B010BD05DB9DED040BA1
:1056200000F0AEFD06B010BD68469DED040B00F025
:1056300017F800F001000121A1EB40009DED021BD5
:105640009DED000B00F0F4FB06B010BD0000000063
:105650000000000000000000FB21E93F0000F07F97
:105660002DE9F14F04462DED020B2DED088B8AB08C
:105670009FEDE70B80ED020B139EE74826F00045F7
:1056800085420ADC9DED120B002084ED000B0AB070
:10569000BDEC088B03B0BDE8F08FE0489FEDE0ABB8
:1056A0009FEDE1BBA84247DDE14F9FEDE39B9FEDFE
:1056B000E48B9DED120B53EC1A2B51EC100B002ECA
:1056C0001CDD01F011FA41EC100BBD4208D053EC87
:1056D0001B2B51EC100B01F007FAC4E900010BE0A1
:1056E00053EC192B51EC100B01F0FEF953EC182B75
:1056F00001F0FAF9C4E900010120C8E700F0B6FDA5
:1057000041EC100BBD4208D053EC1B2B51EC100B9D
:1057100000F0ACFDC4E900010BE053EC192B51EC97
:10572000100B00F0A3FD53EC182B00F09FFDC4E913
:1057300000014FF0FF30AAE7C348A84279DB9DED96
:10574000120B51EC100B00F047FD41EC180B9FEDD4
:10575000C00B53EC102B01F02DF89FEDBF1B53EC49
:10576000112B00F083FD00F08FFF074600F0BBFF18
:1057700041EC190B53EC1A2B01F01CF853EC182BCD
:1057800001F0A6F941EC180B53EC1B2B51EC190B53
:1057900001F010F8DFF8C8A241EC100B4FEA1558E1
:1057A0000125FA4453EC102B51EC180B01F09CF935
:1057B000032DC4E900013DD0C1F30A5005EB4511AA
:1057C000A8EB00001139814234DA0AEB051BB0EE78
:1057D00048AA9BED000BF0EE68AA53EC102B51EC9D
:1057E000190B00F0E7FF41EC1B0B51EC1A0B53ECCB
:1057F0001B2B01F079F941EC180B51EC1A0B53EC0F
:10580000182B01F071F953EC1B2B01F06DF99BED96
:10581000020B41EC1A0B53EC102B51EC190B00F05E
:10582000C9FF53EC1A2B01F05FF941EC100B6D1C12
:10583000B8E70EE0002EA8BF3846BFF628AF94EDBB
:10584000000B51EC100B00F0D3FCC4E900017842CE
:105850001DE7C6F3130040F4801EC6F30A50A0F201
:10586000F530471100F01F05C5F12000DDF848B004
:1058700008900020069007900520EC467949002DFD
:1058800007EB0002794408BF51F8221009D051F803
:10589000223001EB8201AB404A68089922FA01F1FB
:1058A0001943A1FB0E26A1FB0B131A449A4234BFE5
:1058B0000123002303EB06080CEB8003D3E901A6C8
:1058C0000E448E4234BF0121002192448A4411B11A
:1058D000924502D903E0924501D2012100E0002166
:1058E000C3E901A641444CF82010011EA0F10100BB
:1058F000C4DC029800F10050850F0298DDE90367CF
:105900008000DDF8148000F0EEFE41EC1A0B30460A
:1059100000F000FF9FED541B53EC112B00F04AFFE9
:1059200041EC1B0B384600F0F5FE9FED511B53EC8C
:10593000112B00F03FFF41EC180B404600F0EAFE4F
:105940009FED4D1B53EC112B00F034FF41EC190B74
:1059500051EC180B53EC192B00F088FC53EC1B2B6B
:1059600000F084FC53EC1A2B00F080FCCDE9080118
:10597000002008909DED080B53EC1A2B51EC100BF6
:1059800001F0B2F853EC1B2B01F0AEF853EC182BDE
:1059900001F0AAF853EC192B01F09AF89FED381B8F
:1059A00053EC112B00F006FF9FED370B41EC180B69
:1059B00053EC102B9DED080B51EC100B00F0FAFE90
:1059C00053EC182B00F052FC9FED310B41EC180BFF
:1059D00053EC102B9DED080B51EC100B00F0EAFE80
:1059E00053EC182B00F042FC41EC100B139810F014
:1059F000004F06D06D4251EC100B00F0F9FB41EC6A
:105A0000100B284684ED000B41E60000000000006A
:105A10000000000000000000FB21E93F7CD90240AB
:105A200000004054FB21F93F3163621A61B4D03D5C
:105A3000FB21F93F000000000000601A61B4D03D76
:105A40007370032E8A19A33BFB213941000000002B
:105A500083C8C96D305FE43F000000000000E03FF4
:105A60005A160000A8150000000000000000103EBB
:105A7000000000000000103C000000000000103A90
:105A8000182D4454FB21F93D3326A611460B113C39
:105A900000000054FB21F93D10B52DED040B2DED58
:105AA000088B82B0B0EE419AF0EE619A0B9820F02C
:105AB00000449FED4BABB4F1795F11DA9DED0A0B19
:105AC00051EC100B00F0E0FD002801BFB0EE4A0AD7
:105AD000F0EE6A0A02B0BDEC088B04BF04B010BD42
